{
  "_format": "hh-sol-artifact-1",
  "contractName": "ElectionFactory",
  "sourceName": "contracts/ElectionFactory.sol",
  "abi": [
    {
      "inputs": [],
      "stateMutability": "nonpayable",
      "type": "constructor"
    },
    {
      "inputs": [
        {
          "internalType": "string",
          "name": "status",
          "type": "string"
        }
      ],
      "name": "BadStatusRequest",
      "type": "error"
    },
    {
      "inputs": [
        {
          "internalType": "address",
          "name": "caller",
          "type": "address"
        }
      ],
      "name": "NotAuthorised",
      "type": "error"
    },
    {
      "inputs": [
        {
          "internalType": "address",
          "name": "electionContract",
          "type": "address"
        }
      ],
      "name": "UnAuthorizedElectionContract",
      "type": "error"
    },
    {
      "anonymous": false,
      "inputs": [
        {
          "indexed": false,
          "internalType": "uint256",
          "name": "id",
          "type": "uint256"
        },
        {
          "indexed": false,
          "internalType": "address",
          "name": "electionAddress",
          "type": "address"
        },
        {
          "indexed": true,
          "internalType": "address",
          "name": "creator",
          "type": "address"
        },
        {
          "indexed": false,
          "internalType": "string",
          "name": "position",
          "type": "string"
        }
      ],
      "name": "CreateElection",
      "type": "event"
    },
    {
      "anonymous": false,
      "inputs": [
        {
          "indexed": true,
          "internalType": "address",
          "name": "oldOwner",
          "type": "address"
        },
        {
          "indexed": true,
          "internalType": "address",
          "name": "newOwner",
          "type": "address"
        }
      ],
      "name": "SetOwner",
      "type": "event"
    },
    {
      "anonymous": false,
      "inputs": [
        {
          "indexed": false,
          "internalType": "string",
          "name": "status",
          "type": "string"
        },
        {
          "indexed": false,
          "internalType": "address",
          "name": "electionAddress",
          "type": "address"
        }
      ],
      "name": "UpdateElectionStatus",
      "type": "event"
    },
    {
      "inputs": [
        {
          "internalType": "string",
          "name": "_position",
          "type": "string"
        },
        {
          "internalType": "string[]",
          "name": "_contestants",
          "type": "string[]"
        }
      ],
      "name": "createElection",
      "outputs": [],
      "stateMutability": "nonpayable",
      "type": "function"
    },
    {
      "inputs": [],
      "name": "electionCount",
      "outputs": [
        {
          "internalType": "uint256",
          "name": "",
          "type": "uint256"
        }
      ],
      "stateMutability": "view",
      "type": "function"
    },
    {
      "inputs": [],
      "name": "owner",
      "outputs": [
        {
          "internalType": "address",
          "name": "",
          "type": "address"
        }
      ],
      "stateMutability": "view",
      "type": "function"
    },
    {
      "inputs": [
        {
          "internalType": "address",
          "name": "_owner",
          "type": "address"
        }
      ],
      "name": "setOwner",
      "outputs": [],
      "stateMutability": "nonpayable",
      "type": "function"
    },
    {
      "inputs": [
        {
          "internalType": "uint256",
          "name": "_electionId",
          "type": "uint256"
        },
        {
          "internalType": "string",
          "name": "_status",
          "type": "string"
        }
      ],
      "name": "updateElectionStatus",
      "outputs": [],
      "stateMutability": "nonpayable",
      "type": "function"
    }
  ],
  "bytecode": "0x608060405234801561001057600080fd5b50336000806101000a81548173ffffffffffffffffffffffffffffffffffffffff021916908373ffffffffffffffffffffffffffffffffffffffff1602179055506152da806100606000396000f3fe60806040523480156200001157600080fd5b50600436106200005e5760003560e01c806313af403514620000635780632987024d1462000083578063349813b214620000a35780638da5cb5b14620000c3578063997d283014620000e5575b600080fd5b6200008160048036038101906200007b919062000d39565b62000107565b005b620000a160048036038101906200009b919062000dd8565b62000237565b005b620000c16004803603810190620000bb919062000d65565b620006f3565b005b620000cd620009d3565b604051620000dc919062000f6d565b60405180910390f35b620000ef620009f7565b604051620000fe919062001039565b60405180910390f35b60008054906101000a900473ffffffffffffffffffffffffffffffffffffffff1673ffffffffffffffffffffffffffffffffffffffff163373ffffffffffffffffffffffffffffffffffffffff16146200019a57336040517f10ac496500000000000000000000000000000000000000000000000000000000815260040162000191919062000f6d565b60405180910390fd5b806000806101000a81548173ffffffffffffffffffffffffffffffffffffffff021916908373ffffffffffffffffffffffffffffffffffffffff1602179055508073ffffffffffffffffffffffffffffffffffffffff163373ffffffffffffffffffffffffffffffffffffffff167fcbf985117192c8f614a58aaf97226bb80a754772f5f6edf06f87c675f2e6c66360405160405180910390a350565b6000600180846200024991906200118e565b8154811062000281577f4e487b7100000000000000000000000000000000000000000000000000000000600052603260045260246000fd5b90600052602060002090600602016040518060c0016040529081600082015481526020016001820160009054906101000a900473ffffffffffffffffffffffffffffffffffffffff1673ffffffffffffffffffffffffffffffffffffffff1673ffffffffffffffffffffffffffffffffffffffff1681526020016002820180546200030c906200124c565b80601f01602080910402602001604051908101604052809291908181526020018280546200033a906200124c565b80156200038b5780601f106200035f576101008083540402835291602001916200038b565b820191906000526020600020905b8154815290600101906020018083116200036d57829003601f168201915b5050505050815260200160038201805480602002602001604051908101604052809291908181526020016000905b828210156200046f578382906000526020600020018054620003db906200124c565b80601f016020809104026020016040519081016040528092919081815260200182805462000409906200124c565b80156200045a5780601f106200042e576101008083540402835291602001916200045a565b820191906000526020600020905b8154815290600101906020018083116200043c57829003601f168201915b505050505081526020019060010190620003b9565b5050505081526020016004820154815260200160058201805462000493906200124c565b80601f0160208091040260200160405190810160405280929190818152602001828054620004c1906200124c565b8015620005125780601f10620004e65761010080835404028352916020019162000512565b820191906000526020600020905b815481529060010190602001808311620004f457829003601f168201915b50505050508152505090503373ffffffffffffffffffffffffffffffffffffffff16816020015173ffffffffffffffffffffffffffffffffffffffff16146200059457336040517f3d9d7f240000000000000000000000000000000000000000000000000000000081526004016200058b919062000f6d565b60405180910390fd5b818160a001819052508060018085620005ae91906200118e565b81548110620005e6577f4e487b7100000000000000000000000000000000000000000000000000000000600052603260045260246000fd5b90600052602060002090600602016000820151816000015560208201518160010160006101000a81548173ffffffffffffffffffffffffffffffffffffffff021916908373ffffffffffffffffffffffffffffffffffffffff160217905550604082015181600201908051906020019062000663929190620009fd565b5060608201518160030190805190602001906200068292919062000a8e565b506080820151816004015560a0820151816005019080519060200190620006ab929190620009fd565b509050507f51d0b387443c0e4650d01533d71a603b19792ca9ab3edccf48d15f8a4f750bb9828260200151604051620006e692919062001005565b60405180910390a1505050565b60008054906101000a900473ffffffffffffffffffffffffffffffffffffffff1673ffffffffffffffffffffffffffffffffffffffff163373ffffffffffffffffffffffffffffffffffffffff16146200078657336040517f10ac49650000000000000000000000000000000000000000000000000000000081526004016200077d919062000f6d565b60405180910390fd5b6000600254905080806200079a90620012b8565b915050600033848451858530604051620007b49062000af5565b620007c59695949392919062000f8a565b604051809103906000f080158015620007e2573d6000803e3d6000fd5b509050620007ef62000b03565b8281600001818152505081816020019073ffffffffffffffffffffffffffffffffffffffff16908173ffffffffffffffffffffffffffffffffffffffff1681525050848160400181905250838160600181905250428160800181815250506040518060400160405280600781526020017f50656e64696e67000000000000000000000000000000000000000000000000008152508160a0018190525060018190806001815401808255809150506001900390600052602060002090600602016000909190919091506000820151816000015560208201518160010160006101000a81548173ffffffffffffffffffffffffffffffffffffffff021916908373ffffffffffffffffffffffffffffffffffffffff160217905550604082015181600201908051906020019062000926929190620009fd565b5060608201518160030190805190602001906200094592919062000a8e565b506080820151816004015560a08201518160050190805190602001906200096e929190620009fd565b505050826002819055503373ffffffffffffffffffffffffffffffffffffffff167f0ff7cc20a51f447586c8f464561d79852e07453a2e01f9af806e219da319acfa848488604051620009c49392919062001056565b60405180910390a25050505050565b60008054906101000a900473ffffffffffffffffffffffffffffffffffffffff1681565b60025481565b82805462000a0b906200124c565b90600052602060002090601f01602090048101928262000a2f576000855562000a7b565b82601f1062000a4a57805160ff191683800117855562000a7b565b8280016001018555821562000a7b579182015b8281111562000a7a57825182559160200191906001019062000a5d565b5b50905062000a8a919062000b4f565b5090565b82805482825590600052602060002090810192821562000ae2579160200282015b8281111562000ae157825182908051906020019062000ad0929190620009fd565b509160200191906001019062000aaf565b5b50905062000af1919062000b6e565b5090565b613ecc80620013d983390190565b6040518060c0016040528060008152602001600073ffffffffffffffffffffffffffffffffffffffff168152602001606081526020016060815260200160008152602001606081525090565b5b8082111562000b6a57600081600090555060010162000b50565b5090565b5b8082111562000b92576000818162000b88919062000b96565b5060010162000b6f565b5090565b50805462000ba4906200124c565b6000825580601f1062000bb8575062000bd9565b601f01602090049060005260206000209081019062000bd8919062000b4f565b5b50565b600062000bf362000bed84620010c3565b6200109a565b9050808382526020820190508285602086028201111562000c1357600080fd5b60005b8581101562000c6257813567ffffffffffffffff81111562000c3757600080fd5b80860162000c46898262000cf5565b8552602085019450602084019350505060018101905062000c16565b5050509392505050565b600062000c8362000c7d84620010f2565b6200109a565b90508281526020810184848401111562000c9c57600080fd5b62000ca984828562001207565b509392505050565b60008135905062000cc281620013a4565b92915050565b600082601f83011262000cda57600080fd5b813562000cec84826020860162000bdc565b91505092915050565b600082601f83011262000d0757600080fd5b813562000d1984826020860162000c6c565b91505092915050565b60008135905062000d3381620013be565b92915050565b60006020828403121562000d4c57600080fd5b600062000d5c8482850162000cb1565b91505092915050565b6000806040838503121562000d7957600080fd5b600083013567ffffffffffffffff81111562000d9457600080fd5b62000da28582860162000cf5565b925050602083013567ffffffffffffffff81111562000dc057600080fd5b62000dce8582860162000cc8565b9150509250929050565b6000806040838503121562000dec57600080fd5b600062000dfc8582860162000d22565b925050602083013567ffffffffffffffff81111562000e1a57600080fd5b62000e288582860162000cf5565b9150509250929050565b600062000e40838362000eda565b905092915050565b62000e5381620011c9565b82525050565b600062000e668262001138565b62000e7281856200115b565b93508360208202850162000e868562001128565b8060005b8581101562000ec8578484038952815162000ea6858262000e32565b945062000eb3836200114e565b925060208a0199505060018101905062000e8a565b50829750879550505050505092915050565b600062000ee78262001143565b62000ef381856200116c565b935062000f0581856020860162001216565b62000f108162001393565b840191505092915050565b600062000f288262001143565b62000f3481856200117d565b935062000f4681856020860162001216565b62000f518162001393565b840191505092915050565b62000f6781620011fd565b82525050565b600060208201905062000f84600083018462000e48565b92915050565b600060c08201905062000fa1600083018962000e48565b818103602083015262000fb5818862000f1b565b905062000fc6604083018762000f5c565b818103606083015262000fda818662000e59565b905062000feb608083018562000f5c565b62000ffa60a083018462000e48565b979650505050505050565b6000604082019050818103600083015262001021818562000f1b565b905062001032602083018462000e48565b9392505050565b600060208201905062001050600083018462000f5c565b92915050565b60006060820190506200106d600083018662000f5c565b6200107c602083018562000e48565b818103604083015262001090818462000f1b565b9050949350505050565b6000620010a6620010b9565b9050620010b4828262001282565b919050565b6000604051905090565b600067ffffffffffffffff821115620010e157620010e062001364565b5b602082029050602081019050919050565b600067ffffffffffffffff82111562001110576200110f62001364565b5b6200111b8262001393565b9050602081019050919050565b6000819050602082019050919050565b600081519050919050565b600081519050919050565b6000602082019050919050565b600082825260208201905092915050565b600082825260208201905092915050565b600082825260208201905092915050565b60006200119b82620011fd565b9150620011a883620011fd565b925082821015620011be57620011bd62001306565b5b828203905092915050565b6000620011d682620011dd565b9050919050565b600073ffffffffffffffffffffffffffffffffffffffff82169050919050565b6000819050919050565b82818337600083830152505050565b60005b838110156200123657808201518184015260208101905062001219565b8381111562001246576000848401525b50505050565b600060028204905060018216806200126557607f821691505b602082108114156200127c576200127b62001335565b5b50919050565b6200128d8262001393565b810181811067ffffffffffffffff82111715620012af57620012ae62001364565b5b80604052505050565b6000620012c582620011fd565b91507fffffffffffffffffffffffffffffffffffffffffffffffffffffffffffffffff821415620012fb57620012fa62001306565b5b600182019050919050565b7f4e487b7100000000000000000000000000000000000000000000000000000000600052601160045260246000fd5b7f4e487b7100000000000000000000000000000000000000000000000000000000600052602260045260246000fd5b7f4e487b7100000000000000000000000000000000000000000000000000000000600052604160045260246000fd5b6000601f19601f8301169050919050565b620013af81620011c9565b8114620013bb57600080fd5b50565b620013c981620011fd565b8114620013d557600080fd5b5056fe60c06040523480156200001157600080fd5b5060405162003ecc38038062003ecc83398181016040528101906200003791906200086c565b8560008060006101000a81548160ff021916908315150217905550620000a97f36a5c4aaacb6b388bbd448bf11096b7dafc5652bcc9046084fd0e95b1fb0b2cc7fd16e204b8a42a15ab0ea6bb8ec1ecdfbe69f38074fc865323af19efe7d9573d9620003a260201b620019361760201c565b620001007fd16e204b8a42a15ab0ea6bb8ec1ecdfbe69f38074fc865323af19efe7d9573d97fdc1958ce1178d6eb32ccc146dcea8933f1978155832913ec88fa509962e1b413620003a260201b620019361760201c565b620001577f15e007796fc034bf8274acdcfbd2f48124815698ba6f70c109f3423981a7052f7fdc1958ce1178d6eb32ccc146dcea8933f1978155832913ec88fa509962e1b413620003a260201b620019361760201c565b6200018e7fdc1958ce1178d6eb32ccc146dcea8933f1978155832913ec88fa509962e1b41380620003a260201b620019361760201c565b620001c57f15e007796fc034bf8274acdcfbd2f48124815698ba6f70c109f3423981a7052f826200040660201b620019921760201c565b620001fc7fdc1958ce1178d6eb32ccc146dcea8933f1978155832913ec88fa509962e1b413826200040660201b620019921760201c565b508251841462000238576040517f0e8cddf100000000000000000000000000000000000000000000000000000000815260040160405180910390fd5b8460029080519060200190620002509291906200058a565b50836003819055508260049080519060200190620002709291906200061b565b5081608081815250508073ffffffffffffffffffffffffffffffffffffffff1660a08173ffffffffffffffffffffffffffffffffffffffff1660601b8152505060005b835181101562000395576000600a858381518110620002fb577f4e487b7100000000000000000000000000000000000000000000000000000000600052603260045260246000fd5b60200260200101516040516200031291906200096b565b908152602001604051809103902090508482815181106200035c577f4e487b7100000000000000000000000000000000000000000000000000000000600052603260045260246000fd5b60200260200101518160000190805190602001906200037d9291906200058a565b505080806200038c9062000b08565b915050620002b3565b5050505050505062000c28565b6000620003b583620004f760201b60201c565b90508160016000858152602001908152602001600020600101819055508181847fbd79b86ffe0ab8e8776151514217cd7cacd52c909f66475c3af44e129f0b00ff60405160405180910390a4505050565b6200041882826200051760201b60201c565b620004f357600180600084815260200190815260200160002060000160008373ffffffffffffffffffffffffffffffffffffffff1673ffffffffffffffffffffffffffffffffffffffff16815260200190815260200160002060006101000a81548160ff021916908315150217905550620004986200058260201b60201c565b73ffffffffffffffffffffffffffffffffffffffff168173ffffffffffffffffffffffffffffffffffffffff16837f2f8788117e7eff1d82e926ec794901d17c78024a50270940304540a733656f0d60405160405180910390a45b5050565b600060016000838152602001908152602001600020600101549050919050565b60006001600084815260200190815260200160002060000160008373ffffffffffffffffffffffffffffffffffffffff1673ffffffffffffffffffffffffffffffffffffffff16815260200190815260200160002060009054906101000a900460ff16905092915050565b600033905090565b828054620005989062000a9c565b90600052602060002090601f016020900481019282620005bc576000855562000608565b82601f10620005d757805160ff191683800117855562000608565b8280016001018555821562000608579182015b8281111562000607578251825591602001919060010190620005ea565b5b50905062000617919062000682565b5090565b8280548282559060005260206000209081019282156200066f579160200282015b828111156200066e5782518290805190602001906200065d9291906200058a565b50916020019190600101906200063c565b5b5090506200067e9190620006a1565b5090565b5b808211156200069d57600081600090555060010162000683565b5090565b5b80821115620006c55760008181620006bb9190620006c9565b50600101620006a2565b5090565b508054620006d79062000a9c565b6000825580601f10620006eb57506200070c565b601f0160209004906000526020600020908101906200070b919062000682565b5b50565b6000620007266200072084620009ad565b62000984565b905080838252602082019050828560208602820111156200074657600080fd5b60005b858110156200079557815167ffffffffffffffff8111156200076a57600080fd5b80860162000779898262000828565b8552602085019450602084019350505060018101905062000749565b5050509392505050565b6000620007b6620007b084620009dc565b62000984565b905082815260208101848484011115620007cf57600080fd5b620007dc84828562000a66565b509392505050565b600081519050620007f58162000bf4565b92915050565b600082601f8301126200080d57600080fd5b81516200081f8482602086016200070f565b91505092915050565b600082601f8301126200083a57600080fd5b81516200084c8482602086016200079f565b91505092915050565b600081519050620008668162000c0e565b92915050565b60008060008060008060c087890312156200088657600080fd5b60006200089689828a01620007e4565b965050602087015167ffffffffffffffff811115620008b457600080fd5b620008c289828a0162000828565b9550506040620008d589828a0162000855565b945050606087015167ffffffffffffffff811115620008f357600080fd5b6200090189828a01620007fb565b93505060806200091489828a0162000855565b92505060a06200092789828a01620007e4565b9150509295509295509295565b6000620009418262000a12565b6200094d818562000a1d565b93506200095f81856020860162000a66565b80840191505092915050565b600062000979828462000934565b915081905092915050565b600062000990620009a3565b90506200099e828262000ad2565b919050565b6000604051905090565b600067ffffffffffffffff821115620009cb57620009ca62000bb4565b5b602082029050602081019050919050565b600067ffffffffffffffff821115620009fa57620009f962000bb4565b5b62000a058262000be3565b9050602081019050919050565b600081519050919050565b600081905092915050565b600062000a358262000a3c565b9050919050565b600073ffffffffffffffffffffffffffffffffffffffff82169050919050565b6000819050919050565b60005b8381101562000a8657808201518184015260208101905062000a69565b8381111562000a96576000848401525b50505050565b6000600282049050600182168062000ab557607f821691505b6020821081141562000acc5762000acb62000b85565b5b50919050565b62000add8262000be3565b810181811067ffffffffffffffff8211171562000aff5762000afe62000bb4565b5b80604052505050565b600062000b158262000a5c565b91507fffffffffffffffffffffffffffffffffffffffffffffffffffffffffffffffff82141562000b4b5762000b4a62000b56565b5b600182019050919050565b7f4e487b7100000000000000000000000000000000000000000000000000000000600052601160045260246000fd5b7f4e487b7100000000000000000000000000000000000000000000000000000000600052602260045260246000fd5b7f4e487b7100000000000000000000000000000000000000000000000000000000600052604160045260246000fd5b6000601f19601f8301169050919050565b62000bff8162000a28565b811462000c0b57600080fd5b50565b62000c198162000a5c565b811462000c2557600080fd5b50565b60805160a05160601c61327b62000c516000396000611b8301526000611bbf015261327b6000f3fe608060405234801561001057600080fd5b50600436106101a95760003560e01c80635c975abb116100f9578063a217fddf11610097578063d547741f11610071578063d547741f146104b4578063eb4439fb146104d0578063f7be43fb146104da578063fc36e15b146104f8576101a9565b8063a217fddf1461045a578063c744656514610478578063ca94e6a714610496576101a9565b80638456cb59116100d35780638456cb59146103d057806386e5c15a146103ee57806391d148541461040c578063a097dc4b1461043c576101a9565b80635c975abb1461037657806365372147146103945780637cc3ae8c146103b2576101a9565b8063301aee01116101665780633e4f9cae116101405780633e4f9cae146102fe5780633f4ba83a1461031c578063531cbb121461033a578063543cbb0514610358576101a9565b8063301aee011461029457806333ee3131146102c457806336568abe146102e2576101a9565b806301ffc9a7146101ae57806304cd1819146101de5780630d60b1d0146101e85780631fc26a5614610218578063248a9ca3146102485780632f2ff15d14610278575b600080fd5b6101c860048036038101906101c391906123dd565b610528565b6040516101d5919061296a565b60405180910390f35b6101e66105a2565b005b61020260048036038101906101fd9190612337565b610690565b60405161020f919061296a565b60405180910390f35b610232600480360381019061022d9190612337565b61078f565b60405161023f919061296a565b60405180910390f35b610262600480360381019061025d9190612378565b61088e565b60405161026f9190612985565b60405180910390f35b610292600480360381019061028d91906123a1565b6108ae565b005b6102ae60048036038101906102a99190612337565b6108d7565b6040516102bb919061296a565b60405180910390f35b6102cc6109d6565b6040516102d9919061296a565b60405180910390f35b6102fc60048036038101906102f791906123a1565b610b18565b005b610306610cc8565b6040516103139190612985565b60405180910390f35b610324610cec565b604051610331919061296a565b60405180910390f35b610342610d30565b60405161034f9190612948565b60405180910390f35b61036061101f565b60405161036d9190612948565b60405180910390f35b61037e6111fa565b60405161038b919061296a565b60405180910390f35b61039c611210565b6040516103a99190612948565b60405180910390f35b6103ba611359565b6040516103c79190612b32565b60405180910390f35b6103d861135f565b6040516103e5919061296a565b60405180910390f35b6103f66113a3565b6040516104039190612985565b60405180910390f35b610426600480360381019061042191906123a1565b6113c7565b604051610433919061296a565b60405180910390f35b610444611432565b6040516104519190612985565b60405180910390f35b610462611456565b60405161046f9190612985565b60405180910390f35b61048061145d565b60405161048d9190612b32565b60405180910390f35b61049e611463565b6040516104ab9190612b32565b60405180910390f35b6104ce60048036038101906104c991906123a1565b611469565b005b6104d86114fc565b005b6104e26115ad565b6040516104ef9190612985565b60405180910390f35b610512600480360381019061050d9190612406565b6115d1565b60405161051f919061296a565b60405180910390f35b60007f7965db0b000000000000000000000000000000000000000000000000000000007bffffffffffffffffffffffffffffffffffffffffffffffffffffffff1916827bffffffffffffffffffffffffffffffffffffffffffffffffffffffff1916148061059b575061059a82611a72565b5b9050919050565b7fdc1958ce1178d6eb32ccc146dcea8933f1978155832913ec88fa509962e1b4136105d4816105cf611adc565b611ae4565b60065460075411610611576040517f7fa0120200000000000000000000000000000000000000000000000000000000815260040160405180910390fd5b426007819055506106566040518060400160405280600581526020017f456e646564000000000000000000000000000000000000000000000000000000815250611b81565b7f1057d4f16a6857731231320b2564bcdfb5051a137a4f8705a2d5b0813fabeea1426040516106859190612b32565b60405180910390a150565b60007fdc1958ce1178d6eb32ccc146dcea8933f1978155832913ec88fa509962e1b4136106c4816106bf611adc565b611ae4565b60005b835181101561074d5761073a7f15e007796fc034bf8274acdcfbd2f48124815698ba6f70c109f3423981a7052f85838151811061072d577f4e487b7100000000000000000000000000000000000000000000000000000000600052603260045260246000fd5b60200260200101516108ae565b808061074590612ebb565b9150506106c7565b507f5f5e39754c7e1865f8af3e41e829b0c163e67854b93f99ab4c75804928592d4a8360405161077d9190612926565b60405180910390a16001915050919050565b60007fd16e204b8a42a15ab0ea6bb8ec1ecdfbe69f38074fc865323af19efe7d9573d96107c3816107be611adc565b611ae4565b60005b835181101561084c576108397f36a5c4aaacb6b388bbd448bf11096b7dafc5652bcc9046084fd0e95b1fb0b2cc85838151811061082c577f4e487b7100000000000000000000000000000000000000000000000000000000600052603260045260246000fd5b60200260200101516108ae565b808061084490612ebb565b9150506107c6565b507f03754d1a0117cc47bdfac8251ab45273d3eab88e939e90833352c073b26806908360405161087c9190612926565b60405180910390a16001915050919050565b600060016000838152602001908152602001600020600101549050919050565b6108b78261088e565b6108c8816108c3611adc565b611ae4565b6108d28383611992565b505050565b60007fdc1958ce1178d6eb32ccc146dcea8933f1978155832913ec88fa509962e1b41361090b81610906611adc565b611ae4565b60005b8351811015610994576109817fd16e204b8a42a15ab0ea6bb8ec1ecdfbe69f38074fc865323af19efe7d9573d9858381518110610974577f4e487b7100000000000000000000000000000000000000000000000000000000600052603260045260246000fd5b60200260200101516108ae565b808061098c90612ebb565b91505061090e565b507f426025bf71642554cad091b33bb9ad1245da42bc9f4dc5b7a7092699ff9bbb8a836040516109c49190612926565b60405180910390a16001915050919050565b600060011515610a067fdc1958ce1178d6eb32ccc146dcea8933f1978155832913ec88fa509962e1b413336113c7565b15151480610a41575060011515610a3d7fd16e204b8a42a15ab0ea6bb8ec1ecdfbe69f38074fc865323af19efe7d9573d9336113c7565b1515145b80610a79575060011515610a757f15e007796fc034bf8274acdcfbd2f48124815698ba6f70c109f3423981a7052f336113c7565b1515145b610ab8576040517f08c379a0000000000000000000000000000000000000000000000000000000008152600401610aaf90612b12565b60405180910390fd5b6001600560016101000a81548160ff021916908315150217905550610b116040518060400160405280600d81526020017f526573756c747320726561647900000000000000000000000000000000000000815250611b81565b6001905090565b7fdc1958ce1178d6eb32ccc146dcea8933f1978155832913ec88fa509962e1b413610b4a81610b45611adc565b611ae4565b7fdc1958ce1178d6eb32ccc146dcea8933f1978155832913ec88fa509962e1b4138314610bac576040517f08c379a0000000000000000000000000000000000000000000000000000000008152600401610ba390612af2565b60405180910390fd5b610bd67f15e007796fc034bf8274acdcfbd2f48124815698ba6f70c109f3423981a7052f836113c7565b610c15576040517f08c379a0000000000000000000000000000000000000000000000000000000008152600401610c0c90612ab2565b60405180910390fd5b610c3f7fdc1958ce1178d6eb32ccc146dcea8933f1978155832913ec88fa509962e1b41383611992565b610c697fdc1958ce1178d6eb32ccc146dcea8933f1978155832913ec88fa509962e1b41333611c31565b8173ffffffffffffffffffffffffffffffffffffffff163373ffffffffffffffffffffffffffffffffffffffff167f53cb1046cc84eb7dcfb14a0610185dd97c2c40e311ef59a28c5622cf3942a3b860405160405180910390a3505050565b7f15e007796fc034bf8274acdcfbd2f48124815698ba6f70c109f3423981a7052f81565b60007fdc1958ce1178d6eb32ccc146dcea8933f1978155832913ec88fa509962e1b413610d2081610d1b611adc565b611ae4565b610d28611d13565b600191505090565b606060011515610d607fdc1958ce1178d6eb32ccc146dcea8933f1978155832913ec88fa509962e1b413336113c7565b15151480610d9b575060011515610d977fd16e204b8a42a15ab0ea6bb8ec1ecdfbe69f38074fc865323af19efe7d9573d9336113c7565b1515145b610dda576040517f08c379a0000000000000000000000000000000000000000000000000000000008152600401610dd190612b12565b60405180910390fd5b60005b600480549050811015610f25576000600a60048381548110610e28577f4e487b7100000000000000000000000000000000000000000000000000000000600052603260045260246000fd5b90600052602060002001604051610e3f91906128ba565b90815260200160405180910390209050600b60048381548110610e8b577f4e487b7100000000000000000000000000000000000000000000000000000000600052603260045260246000fd5b90600052602060002001604051610ea291906128ba565b9081526020016040518091039020548160010181905550600c8190806001815401808255809150506001900390600052602060002090600202016000909190919091506000820181600001908054610ef990612e58565b610f04929190612150565b50600182015481600101555050508080610f1d90612ebb565b915050610ddd565b50600c805480602002602001604051908101604052809291908181526020016000905b828210156110165783829060005260206000209060020201604051806040016040529081600082018054610f7b90612e58565b80601f0160208091040260200160405190810160405280929190818152602001828054610fa790612e58565b8015610ff45780601f10610fc957610100808354040283529160200191610ff4565b820191906000526020600020905b815481529060010190602001808311610fd757829003601f168201915b5050505050815260200160018201548152505081526020019060010190610f48565b50505050905090565b60606001151561104f7fdc1958ce1178d6eb32ccc146dcea8933f1978155832913ec88fa509962e1b413336113c7565b1515148061108a5750600115156110867fd16e204b8a42a15ab0ea6bb8ec1ecdfbe69f38074fc865323af19efe7d9573d9336113c7565b1515145b806110c25750600115156110be7f15e007796fc034bf8274acdcfbd2f48124815698ba6f70c109f3423981a7052f336113c7565b1515145b611101576040517f08c379a00000000000000000000000000000000000000000000000000000000081526004016110f890612b12565b60405180910390fd5b600c805480602002602001604051908101604052809291908181526020016000905b828210156111f1578382906000526020600020906002020160405180604001604052908160008201805461115690612e58565b80601f016020809104026020016040519081016040528092919081815260200182805461118290612e58565b80156111cf5780601f106111a4576101008083540402835291602001916111cf565b820191906000526020600020905b8154815290600101906020018083116111b257829003601f168201915b5050505050815260200160018201548152505081526020019060010190611123565b50505050905090565b60008060009054906101000a900460ff16905090565b606060001515600560019054906101000a900460ff1615151415611260576040517fb34ae8a900000000000000000000000000000000000000000000000000000000815260040160405180910390fd5b600c805480602002602001604051908101604052809291908181526020016000905b8282101561135057838290600052602060002090600202016040518060400160405290816000820180546112b590612e58565b80601f01602080910402602001604051908101604052809291908181526020018280546112e190612e58565b801561132e5780601f106113035761010080835404028352916020019161132e565b820191906000526020600020905b81548152906001019060200180831161131157829003601f168201915b5050505050815260200160018201548152505081526020019060010190611282565b50505050905090565b60075481565b60007fdc1958ce1178d6eb32ccc146dcea8933f1978155832913ec88fa509962e1b4136113938161138e611adc565b611ae4565b61139b611db4565b600191505090565b7fd16e204b8a42a15ab0ea6bb8ec1ecdfbe69f38074fc865323af19efe7d9573d981565b60006001600084815260200190815260200160002060000160008373ffffffffffffffffffffffffffffffffffffffff1673ffffffffffffffffffffffffffffffffffffffff16815260200190815260200160002060009054906101000a900460ff16905092915050565b7fdc1958ce1178d6eb32ccc146dcea8933f1978155832913ec88fa509962e1b41381565b6000801b81565b60065481565b60085481565b6114728261088e565b6114838161147e611adc565b611ae4565b6114ad7fdc1958ce1178d6eb32ccc146dcea8933f1978155832913ec88fa509962e1b413836113c7565b156114ed576040517f08c379a00000000000000000000000000000000000000000000000000000000081526004016114e490612a32565b60405180910390fd5b6114f78383611c31565b505050565b7fdc1958ce1178d6eb32ccc146dcea8933f1978155832913ec88fa509962e1b41361152e81611529611adc565b611ae4565b426006819055506115736040518060400160405280600781526020017f5374617274656400000000000000000000000000000000000000000000000000815250611b81565b7f99fafb32ed77fce26140b67282430931e99e54f3014114daf0a52639a5620ac1426040516115a29190612b32565b60405180910390a150565b7f36a5c4aaacb6b388bbd448bf11096b7dafc5652bcc9046084fd0e95b1fb0b2cc81565b6000600115156116017fdc1958ce1178d6eb32ccc146dcea8933f1978155832913ec88fa509962e1b413336113c7565b1515148061163c5750600115156116387fd16e204b8a42a15ab0ea6bb8ec1ecdfbe69f38074fc865323af19efe7d9573d9336113c7565b1515145b806116745750600115156116707f36a5c4aaacb6b388bbd448bf11096b7dafc5652bcc9046084fd0e95b1fb0b2cc336113c7565b1515145b806116ac5750600115156116a87f15e007796fc034bf8274acdcfbd2f48124815698ba6f70c109f3423981a7052f336113c7565b1515145b6116eb576040517f08c379a00000000000000000000000000000000000000000000000000000000081526004016116e290612a92565b60405180910390fd5b600060065414611730576040517f08c379a000000000000000000000000000000000000000000000000000000000815260040161172790612a52565b60405180910390fd5b60065460075411611776576040517f08c379a000000000000000000000000000000000000000000000000000000000815260040161176d90612ad2565b60405180910390fd5b61177e6111fa565b156117be576040517f08c379a00000000000000000000000000000000000000000000000000000000081526004016117b590612a72565b60405180910390fd5b60011515600960003373ffffffffffffffffffffffffffffffffffffffff1673ffffffffffffffffffffffffffffffffffffffff16815260200190815260200160002060009054906101000a900460ff1615151415611849576040517f7c9a1cf900000000000000000000000000000000000000000000000000000000815260040160405180910390fd5b6000600b8360405161185b91906128a3565b90815260200160405180910390205490506001816118799190612cbe565b600b8460405161188991906128a3565b9081526020016040518091039020819055506001600960003373ffffffffffffffffffffffffffffffffffffffff1673ffffffffffffffffffffffffffffffffffffffff16815260200190815260200160002060006101000a81548160ff0219169083151502179055507f6df8a0bf3c87bd629e9f543b9d0831beeea8b80de3f478dd846541ed8d97405b83336040516119249291906129c2565b60405180910390a16001915050919050565b60006119418361088e565b90508160016000858152602001908152602001600020600101819055508181847fbd79b86ffe0ab8e8776151514217cd7cacd52c909f66475c3af44e129f0b00ff60405160405180910390a4505050565b61199c82826113c7565b611a6e57600180600084815260200190815260200160002060000160008373ffffffffffffffffffffffffffffffffffffffff1673ffffffffffffffffffffffffffffffffffffffff16815260200190815260200160002060006101000a81548160ff021916908315150217905550611a13611adc565b73ffffffffffffffffffffffffffffffffffffffff168173ffffffffffffffffffffffffffffffffffffffff16837f2f8788117e7eff1d82e926ec794901d17c78024a50270940304540a733656f0d60405160405180910390a45b5050565b60007f01ffc9a7000000000000000000000000000000000000000000000000000000007bffffffffffffffffffffffffffffffffffffffffffffffffffffffff1916827bffffffffffffffffffffffffffffffffffffffffffffffffffffffff1916149050919050565b600033905090565b611aee82826113c7565b611b7d57611b138173ffffffffffffffffffffffffffffffffffffffff166014611e56565b611b218360001c6020611e56565b604051602001611b329291906128d1565b6040516020818303038152906040526040517f08c379a0000000000000000000000000000000000000000000000000000000008152600401611b7491906129a0565b60405180910390fd5b5050565b7f000000000000000000000000000000000000000000000000000000000000000073ffffffffffffffffffffffffffffffffffffffff16632987024d7f0000000000000000000000000000000000000000000000000000000000000000836040518363ffffffff1660e01b8152600401611bfc929190612b4d565b600060405180830381600087803b158015611c1657600080fd5b505af1158015611c2a573d6000803e3d6000fd5b5050505050565b611c3b82826113c7565b15611d0f5760006001600084815260200190815260200160002060000160008373ffffffffffffffffffffffffffffffffffffffff1673ffffffffffffffffffffffffffffffffffffffff16815260200190815260200160002060006101000a81548160ff021916908315150217905550611cb4611adc565b73ffffffffffffffffffffffffffffffffffffffff168173ffffffffffffffffffffffffffffffffffffffff16837ff6391f5c32d9c69d2a47ea670b442974b53935d1edc7fd64eb21e047a839171b60405160405180910390a45b5050565b611d1b6111fa565b611d5a576040517f08c379a0000000000000000000000000000000000000000000000000000000008152600401611d5190612a12565b60405180910390fd5b60008060006101000a81548160ff0219169083151502179055507f5db9ee0a495bf2e6ff9c91a7834c1ba4fdd244a5e8aa4e537bd38aeae4b073aa611d9d611adc565b604051611daa919061290b565b60405180910390a1565b611dbc6111fa565b15611dfc576040517f08c379a0000000000000000000000000000000000000000000000000000000008152600401611df390612a72565b60405180910390fd5b60016000806101000a81548160ff0219169083151502179055507f62e78cea01bee320cd4e420270b5ea74000d11b0c9f74754ebdbfc544b05a258611e3f611adc565b604051611e4c919061290b565b60405180910390a1565b606060006002836002611e699190612d14565b611e739190612cbe565b67ffffffffffffffff811115611eb2577f4e487b7100000000000000000000000000000000000000000000000000000000600052604160045260246000fd5b6040519080825280601f01601f191660200182016040528015611ee45781602001600182028036833780820191505090505b5090507f300000000000000000000000000000000000000000000000000000000000000081600081518110611f42577f4e487b7100000000000000000000000000000000000000000000000000000000600052603260045260246000fd5b60200101907effffffffffffffffffffffffffffffffffffffffffffffffffffffffffffff1916908160001a9053507f780000000000000000000000000000000000000000000000000000000000000081600181518110611fcc577f4e487b7100000000000000000000000000000000000000000000000000000000600052603260045260246000fd5b60200101907effffffffffffffffffffffffffffffffffffffffffffffffffffffffffffff1916908160001a9053506000600184600261200c9190612d14565b6120169190612cbe565b90505b6001811115612102577f3031323334353637383961626364656600000000000000000000000000000000600f86166010811061207e577f4e487b7100000000000000000000000000000000000000000000000000000000600052603260045260246000fd5b1a60f81b8282815181106120bb577f4e487b7100000000000000000000000000000000000000000000000000000000600052603260045260246000fd5b60200101907effffffffffffffffffffffffffffffffffffffffffffffffffffffffffffff1916908160001a905350600485901c9450806120fb90612e2e565b9050612019565b5060008414612146576040517f08c379a000000000000000000000000000000000000000000000000000000000815260040161213d906129f2565b60405180910390fd5b8091505092915050565b82805461215c90612e58565b90600052602060002090601f01602090048101928261217e57600085556121cc565b82601f1061218f57805485556121cc565b828001600101855582156121cc57600052602060002091601f016020900482015b828111156121cb5782548255916001019190600101906121b0565b5b5090506121d991906121dd565b5090565b5b808211156121f65760008160009055506001016121de565b5090565b600061220d61220884612ba2565b612b7d565b9050808382526020820190508285602086028201111561222c57600080fd5b60005b8581101561225c578161224288826122a4565b84526020840193506020830192505060018101905061222f565b5050509392505050565b600061227961227484612bce565b612b7d565b90508281526020810184848401111561229157600080fd5b61229c848285612dec565b509392505050565b6000813590506122b381613200565b92915050565b600082601f8301126122ca57600080fd5b81356122da8482602086016121fa565b91505092915050565b6000813590506122f281613217565b92915050565b6000813590506123078161322e565b92915050565b600082601f83011261231e57600080fd5b813561232e848260208601612266565b91505092915050565b60006020828403121561234957600080fd5b600082013567ffffffffffffffff81111561236357600080fd5b61236f848285016122b9565b91505092915050565b60006020828403121561238a57600080fd5b6000612398848285016122e3565b91505092915050565b600080604083850312156123b457600080fd5b60006123c2858286016122e3565b92505060206123d3858286016122a4565b9150509250929050565b6000602082840312156123ef57600080fd5b60006123fd848285016122f8565b91505092915050565b60006020828403121561241857600080fd5b600082013567ffffffffffffffff81111561243257600080fd5b61243e8482850161230d565b91505092915050565b60006124538383612473565b60208301905092915050565b600061246b8383612848565b905092915050565b61247c81612d6e565b82525050565b61248b81612d6e565b82525050565b600061249c82612c34565b6124a68185612c6f565b93506124b183612bff565b8060005b838110156124e25781516124c98882612447565b97506124d483612c55565b9250506001810190506124b5565b5085935050505092915050565b60006124fa82612c3f565b6125048185612c80565b93508360208202850161251685612c0f565b8060005b858110156125525784840389528151612533858261245f565b945061253e83612c62565b925060208a0199505060018101905061251a565b50829750879550505050505092915050565b61256d81612d80565b82525050565b61257c81612d8c565b82525050565b600061258d82612c4a565b6125978185612c91565b93506125a7818560208601612dfb565b6125b081612f91565b840191505092915050565b60006125c682612c4a565b6125d08185612ca2565b93506125e0818560208601612dfb565b6125e981612f91565b840191505092915050565b60006125ff82612c4a565b6126098185612cb3565b9350612619818560208601612dfb565b80840191505092915050565b6000815461263281612e58565b61263c8186612cb3565b9450600182166000811461265757600181146126685761269b565b60ff1983168652818601935061269b565b61267185612c1f565b60005b8381101561269357815481890152600182019150602081019050612674565b838801955050505b50505092915050565b60006126b1602083612ca2565b91506126bc82612fa2565b602082019050919050565b60006126d4601483612ca2565b91506126df82612fcb565b602082019050919050565b60006126f7601f83612ca2565b915061270282612ff4565b602082019050919050565b600061271a601783612ca2565b91506127258261301d565b602082019050919050565b600061273d601083612ca2565b915061274882613046565b602082019050919050565b6000612760600d83612ca2565b915061276b8261306f565b602082019050919050565b6000612783603683612ca2565b915061278e82613098565b604082019050919050565b60006127a6601e83612ca2565b91506127b1826130e7565b602082019050919050565b60006127c9602883612ca2565b91506127d482613110565b604082019050919050565b60006127ec602783612ca2565b91506127f78261315f565b604082019050919050565b600061280f601783612cb3565b915061281a826131ae565b601782019050919050565b6000612832601183612cb3565b915061283d826131d7565b601182019050919050565b600060408301600083015184820360008601526128658282612582565b915050602083015161287a6020860182612885565b508091505092915050565b61288e81612de2565b82525050565b61289d81612de2565b82525050565b60006128af82846125f4565b915081905092915050565b60006128c68284612625565b915081905092915050565b60006128dc82612802565b91506128e882856125f4565b91506128f382612825565b91506128ff82846125f4565b91508190509392505050565b60006020820190506129206000830184612482565b92915050565b600060208201905081810360008301526129408184612491565b905092915050565b6000602082019050818103600083015261296281846124ef565b905092915050565b600060208201905061297f6000830184612564565b92915050565b600060208201905061299a6000830184612573565b92915050565b600060208201905081810360008301526129ba81846125bb565b905092915050565b600060408201905081810360008301526129dc81856125bb565b90506129eb6020830184612482565b9392505050565b60006020820190508181036000830152612a0b816126a4565b9050919050565b60006020820190508181036000830152612a2b816126c7565b9050919050565b60006020820190508181036000830152612a4b816126ea565b9050919050565b60006020820190508181036000830152612a6b8161270d565b9050919050565b60006020820190508181036000830152612a8b81612730565b9050919050565b60006020820190508181036000830152612aab81612753565b9050919050565b60006020820190508181036000830152612acb81612776565b9050919050565b60006020820190508181036000830152612aeb81612799565b9050919050565b60006020820190508181036000830152612b0b816127bc565b9050919050565b60006020820190508181036000830152612b2b816127df565b9050919050565b6000602082019050612b476000830184612894565b92915050565b6000604082019050612b626000830185612894565b8181036020830152612b7481846125bb565b90509392505050565b6000612b87612b98565b9050612b938282612e8a565b919050565b6000604051905090565b600067ffffffffffffffff821115612bbd57612bbc612f62565b5b602082029050602081019050919050565b600067ffffffffffffffff821115612be957612be8612f62565b5b612bf282612f91565b9050602081019050919050565b6000819050602082019050919050565b6000819050602082019050919050565b60008190508160005260206000209050919050565b600081519050919050565b600081519050919050565b600081519050919050565b6000602082019050919050565b6000602082019050919050565b600082825260208201905092915050565b600082825260208201905092915050565b600082825260208201905092915050565b600082825260208201905092915050565b600081905092915050565b6000612cc982612de2565b9150612cd483612de2565b9250827fffffffffffffffffffffffffffffffffffffffffffffffffffffffffffffffff03821115612d0957612d08612f04565b5b828201905092915050565b6000612d1f82612de2565b9150612d2a83612de2565b9250817fffffffffffffffffffffffffffffffffffffffffffffffffffffffffffffffff0483118215151615612d6357612d62612f04565b5b828202905092915050565b6000612d7982612dc2565b9050919050565b60008115159050919050565b6000819050919050565b60007fffffffff0000000000000000000000000000000000000000000000000000000082169050919050565b600073ffffffffffffffffffffffffffffffffffffffff82169050919050565b6000819050919050565b82818337600083830152505050565b60005b83811015612e19578082015181840152602081019050612dfe565b83811115612e28576000848401525b50505050565b6000612e3982612de2565b91506000821415612e4d57612e4c612f04565b5b600182039050919050565b60006002820490506001821680612e7057607f821691505b60208210811415612e8457612e83612f33565b5b50919050565b612e9382612f91565b810181811067ffffffffffffffff82111715612eb257612eb1612f62565b5b80604052505050565b6000612ec682612de2565b91507fffffffffffffffffffffffffffffffffffffffffffffffffffffffffffffffff821415612ef957612ef8612f04565b5b600182019050919050565b7f4e487b7100000000000000000000000000000000000000000000000000000000600052601160045260246000fd5b7f4e487b7100000000000000000000000000000000000000000000000000000000600052602260045260246000fd5b7f4e487b7100000000000000000000000000000000000000000000000000000000600052604160045260246000fd5b6000601f19601f8301169050919050565b7f537472696e67733a20686578206c656e67746820696e73756666696369656e74600082015250565b7f5061757361626c653a206e6f7420706175736564000000000000000000000000600082015250565b7f43686169726d616e20726f6c652063616e6e6f74206265207265766f6b656400600082015250565b7f456c656374696f6e20686173206e6f7420626567756e21000000000000000000600082015250565b7f5061757361626c653a2070617573656400000000000000000000000000000000600082015250565b7f4143434553532044454e49454400000000000000000000000000000000000000600082015250565b7f546865206164647265737320666f7220746865206e65772063686169726d616e60008201527f206973206e6f742061206469726563746f722079657400000000000000000000602082015250565b7f536f7272792c2074686520456c656374696f6e2068617320656e646564210000600082015250565b7f4f6e6c79207468652063686169726d616e20726f6c652063616e20626520726560008201527f6e6f756e6365642e000000000000000000000000000000000000000000000000602082015250565b7f41434345535320464f52205445414348455228732920414e442043484149524d60008201527f414e204f4e4c5900000000000000000000000000000000000000000000000000602082015250565b7f416363657373436f6e74726f6c3a206163636f756e7420000000000000000000600082015250565b7f206973206d697373696e6720726f6c6520000000000000000000000000000000600082015250565b61320981612d6e565b811461321457600080fd5b50565b61322081612d8c565b811461322b57600080fd5b50565b61323781612d96565b811461324257600080fd5b5056fea264697066735822122068419be19e68e1216e8aeefd786a80d99ca9f7fbf6e4ff3633cdcd49ad3cde1b64736f6c63430008040033a2646970667358221220b702ce80fd9cff9652e106a8ac4d8819879560874fa5b46dcb293eb51f3993cc64736f6c63430008040033",
  "linkReferences": {},
  "deployedLinkReferences": {}
}