{
  "_format": "hh-sol-artifact-1",
  "contractName": "ElectionFactory",
  "sourceName": "contracts/ElectionFactory.sol",
  "abi": [
    {
      "inputs": [],
      "stateMutability": "nonpayable",
      "type": "constructor"
    },
    {
      "inputs": [
        {
          "internalType": "address",
          "name": "caller",
          "type": "address"
        }
      ],
      "name": "NotAuthorised",
      "type": "error"
    },
    {
      "anonymous": false,
      "inputs": [
        {
          "indexed": false,
          "internalType": "uint256",
          "name": "id",
          "type": "uint256"
        },
        {
          "indexed": false,
          "internalType": "contract Election",
          "name": "election",
          "type": "address"
        },
        {
          "indexed": true,
          "internalType": "address",
          "name": "creator",
          "type": "address"
        },
        {
          "indexed": false,
          "internalType": "string",
          "name": "position",
          "type": "string"
        }
      ],
      "name": "CreateElection",
      "type": "event"
    },
    {
      "anonymous": false,
      "inputs": [
        {
          "indexed": true,
          "internalType": "address",
          "name": "oldOwner",
          "type": "address"
        },
        {
          "indexed": true,
          "internalType": "address",
          "name": "newOwner",
          "type": "address"
        }
      ],
      "name": "SetOwner",
      "type": "event"
    },
    {
      "inputs": [],
      "name": "allElections",
      "outputs": [
        {
          "components": [
            {
              "internalType": "uint256",
              "name": "id",
              "type": "uint256"
            },
            {
              "internalType": "contract Election",
              "name": "electionAddress",
              "type": "address"
            },
            {
              "internalType": "string",
              "name": "position",
              "type": "string"
            },
            {
              "internalType": "string[]",
              "name": "contestants",
              "type": "string[]"
            },
            {
              "internalType": "uint256",
              "name": "createdAt",
              "type": "uint256"
            },
            {
              "internalType": "string",
              "name": "status",
              "type": "string"
            }
          ],
          "internalType": "struct ElectionFactory.ElectionDetails[]",
          "name": "",
          "type": "tuple[]"
        }
      ],
      "stateMutability": "view",
      "type": "function"
    },
    {
      "inputs": [
        {
          "internalType": "string",
          "name": "_position",
          "type": "string"
        },
        {
          "internalType": "string[]",
          "name": "_contestants",
          "type": "string[]"
        }
      ],
      "name": "createElection",
      "outputs": [
        {
          "internalType": "address",
          "name": "",
          "type": "address"
        }
      ],
      "stateMutability": "nonpayable",
      "type": "function"
    },
    {
      "inputs": [],
      "name": "electionCount",
      "outputs": [
        {
          "internalType": "uint256",
          "name": "",
          "type": "uint256"
        }
      ],
      "stateMutability": "view",
      "type": "function"
    },
    {
      "inputs": [],
      "name": "owner",
      "outputs": [
        {
          "internalType": "address",
          "name": "",
          "type": "address"
        }
      ],
      "stateMutability": "view",
      "type": "function"
    },
    {
      "inputs": [
        {
          "internalType": "address",
          "name": "_owner",
          "type": "address"
        }
      ],
      "name": "setOwner",
      "outputs": [],
      "stateMutability": "nonpayable",
      "type": "function"
    }
  ],
  "bytecode": "0x608060405234801561001057600080fd5b50336000806101000a81548173ffffffffffffffffffffffffffffffffffffffff021916908373ffffffffffffffffffffffffffffffffffffffff1602179055506145b0806100606000396000f3fe60806040523480156200001157600080fd5b50600436106200005e5760003560e01c806313af40351462000063578063349813b21462000083578063379b721d14620000b95780638da5cb5b14620000db578063997d283014620000fd575b600080fd5b6200008160048036038101906200007b919062000b64565b6200011f565b005b620000a160048036038101906200009b919062000b90565b6200024f565b604051620000b0919062000f2c565b60405180910390f35b620000c362000533565b604051620000d2919062000fa4565b60405180910390f35b620000e562000815565b604051620000f4919062000f2c565b60405180910390f35b6200010762000839565b60405162000116919062000fc8565b60405180910390f35b60008054906101000a900473ffffffffffffffffffffffffffffffffffffffff1673ffffffffffffffffffffffffffffffffffffffff163373ffffffffffffffffffffffffffffffffffffffff1614620001b257336040517f10ac4965000000000000000000000000000000000000000000000000000000008152600401620001a9919062000f2c565b60405180910390fd5b806000806101000a81548173ffffffffffffffffffffffffffffffffffffffff021916908373ffffffffffffffffffffffffffffffffffffffff1602179055508073ffffffffffffffffffffffffffffffffffffffff163373ffffffffffffffffffffffffffffffffffffffff167fcbf985117192c8f614a58aaf97226bb80a754772f5f6edf06f87c675f2e6c66360405160405180910390a350565b60008060009054906101000a900473ffffffffffffffffffffffffffffffffffffffff1673ffffffffffffffffffffffffffffffffffffffff163373ffffffffffffffffffffffffffffffffffffffff1614620002e557336040517f10ac4965000000000000000000000000000000000000000000000000000000008152600401620002dc919062000f2c565b60405180910390fd5b600060025490508080620002f9906200127e565b9150506000338585518660405162000311906200083f565b62000320949392919062000f49565b604051809103906000f0801580156200033d573d6000803e3d6000fd5b5090506200034a6200084d565b8281600001818152505081816020019073ffffffffffffffffffffffffffffffffffffffff16908173ffffffffffffffffffffffffffffffffffffffff1681525050858160400181905250848160600181905250428160800181815250506040518060400160405280600781526020017f50656e64696e67000000000000000000000000000000000000000000000000008152508160a0018190525060018190806001815401808255809150506001900390600052602060002090600602016000909190919091506000820151816000015560208201518160010160006101000a81548173ffffffffffffffffffffffffffffffffffffffff021916908373ffffffffffffffffffffffffffffffffffffffff16021790555060408201518160020190805190602001906200048192919062000899565b506060820151816003019080519060200190620004a09291906200092a565b506080820151816004015560a0820151816005019080519060200190620004c992919062000899565b505050826002819055503373ffffffffffffffffffffffffffffffffffffffff167f0ff7cc20a51f447586c8f464561d79852e07453a2e01f9af806e219da319acfa8484896040516200051f9392919062000fe5565b60405180910390a281935050505092915050565b60606001805480602002602001604051908101604052809291908181526020016000905b828210156200080c57838290600052602060002090600602016040518060c0016040529081600082015481526020016001820160009054906101000a900473ffffffffffffffffffffffffffffffffffffffff1673ffffffffffffffffffffffffffffffffffffffff1673ffffffffffffffffffffffffffffffffffffffff168152602001600282018054620005ed9062001212565b80601f01602080910402602001604051908101604052809291908181526020018280546200061b9062001212565b80156200066c5780601f1062000640576101008083540402835291602001916200066c565b820191906000526020600020905b8154815290600101906020018083116200064e57829003601f168201915b5050505050815260200160038201805480602002602001604051908101604052809291908181526020016000905b8282101562000750578382906000526020600020018054620006bc9062001212565b80601f0160208091040260200160405190810160405280929190818152602001828054620006ea9062001212565b80156200073b5780601f106200070f576101008083540402835291602001916200073b565b820191906000526020600020905b8154815290600101906020018083116200071d57829003601f168201915b5050505050815260200190600101906200069a565b50505050815260200160048201548152602001600582018054620007749062001212565b80601f0160208091040260200160405190810160405280929190818152602001828054620007a29062001212565b8015620007f35780601f10620007c757610100808354040283529160200191620007f3565b820191906000526020600020905b815481529060010190602001808311620007d557829003601f168201915b5050505050815250508152602001906001019062000557565b50505050905090565b60008054906101000a900473ffffffffffffffffffffffffffffffffffffffff1681565b60025481565b6131f6806200138583390190565b6040518060c0016040528060008152602001600073ffffffffffffffffffffffffffffffffffffffff168152602001606081526020016060815260200160008152602001606081525090565b828054620008a79062001212565b90600052602060002090601f016020900481019282620008cb576000855562000917565b82601f10620008e657805160ff191683800117855562000917565b8280016001018555821562000917579182015b8281111562000916578251825591602001919060010190620008f9565b5b50905062000926919062000991565b5090565b8280548282559060005260206000209081019282156200097e579160200282015b828111156200097d5782518290805190602001906200096c92919062000899565b50916020019190600101906200094b565b5b5090506200098d9190620009b0565b5090565b5b80821115620009ac57600081600090555060010162000992565b5090565b5b80821115620009d45760008181620009ca9190620009d8565b50600101620009b1565b5090565b508054620009e69062001212565b6000825580601f10620009fa575062000a1b565b601f01602090049060005260206000209081019062000a1a919062000991565b5b50565b600062000a3562000a2f8462001052565b62001029565b9050808382526020820190508285602086028201111562000a5557600080fd5b60005b8581101562000aa457813567ffffffffffffffff81111562000a7957600080fd5b80860162000a88898262000b37565b8552602085019450602084019350505060018101905062000a58565b5050509392505050565b600062000ac562000abf8462001081565b62001029565b90508281526020810184848401111562000ade57600080fd5b62000aeb848285620011cd565b509392505050565b60008135905062000b04816200136a565b92915050565b600082601f83011262000b1c57600080fd5b813562000b2e84826020860162000a1e565b91505092915050565b600082601f83011262000b4957600080fd5b813562000b5b84826020860162000aae565b91505092915050565b60006020828403121562000b7757600080fd5b600062000b878482850162000af3565b91505092915050565b6000806040838503121562000ba457600080fd5b600083013567ffffffffffffffff81111562000bbf57600080fd5b62000bcd8582860162000b37565b925050602083013567ffffffffffffffff81111562000beb57600080fd5b62000bf98582860162000b0a565b9150509250929050565b600062000c11838362000de5565b905092915050565b600062000c27838362000e67565b905092915050565b62000c3a8162001167565b82525050565b600062000c4d82620010d7565b62000c59818562001112565b93508360208202850162000c6d85620010b7565b8060005b8581101562000caf578484038952815162000c8d858262000c03565b945062000c9a83620010f8565b925060208a0199505060018101905062000c71565b50829750879550505050505092915050565b600062000cce82620010d7565b62000cda818562001123565b93508360208202850162000cee85620010b7565b8060005b8581101562000d30578484038952815162000d0e858262000c03565b945062000d1b83620010f8565b925060208a0199505060018101905062000cf2565b50829750879550505050505092915050565b600062000d4f82620010e2565b62000d5b818562001134565b93508360208202850162000d6f85620010c7565b8060005b8581101562000db1578484038952815162000d8f858262000c19565b945062000d9c8362001105565b925060208a0199505060018101905062000d73565b50829750879550505050505092915050565b62000dce81620011a5565b82525050565b62000ddf81620011a5565b82525050565b600062000df282620010ed565b62000dfe818562001145565b935062000e10818560208601620011dc565b62000e1b8162001359565b840191505092915050565b600062000e3382620010ed565b62000e3f818562001156565b935062000e51818560208601620011dc565b62000e5c8162001359565b840191505092915050565b600060c08301600083015162000e81600086018262000f0a565b50602083015162000e96602086018262000dc3565b506040830151848203604086015262000eb0828262000de5565b9150506060830151848203606086015262000ecc828262000c40565b915050608083015162000ee3608086018262000f0a565b5060a083015184820360a086015262000efd828262000de5565b9150508091505092915050565b62000f15816200119b565b82525050565b62000f26816200119b565b82525050565b600060208201905062000f43600083018462000c2f565b92915050565b600060808201905062000f60600083018762000c2f565b818103602083015262000f74818662000e26565b905062000f85604083018562000f1b565b818103606083015262000f99818462000cc1565b905095945050505050565b6000602082019050818103600083015262000fc0818462000d42565b905092915050565b600060208201905062000fdf600083018462000f1b565b92915050565b600060608201905062000ffc600083018662000f1b565b6200100b602083018562000dd4565b81810360408301526200101f818462000e26565b9050949350505050565b60006200103562001048565b905062001043828262001248565b919050565b6000604051905090565b600067ffffffffffffffff82111562001070576200106f6200132a565b5b602082029050602081019050919050565b600067ffffffffffffffff8211156200109f576200109e6200132a565b5b620010aa8262001359565b9050602081019050919050565b6000819050602082019050919050565b6000819050602082019050919050565b600081519050919050565b600081519050919050565b600081519050919050565b6000602082019050919050565b6000602082019050919050565b600082825260208201905092915050565b600082825260208201905092915050565b600082825260208201905092915050565b600082825260208201905092915050565b600082825260208201905092915050565b600062001174826200117b565b9050919050565b600073ffffffffffffffffffffffffffffffffffffffff82169050919050565b6000819050919050565b6000620011b282620011b9565b9050919050565b6000620011c6826200117b565b9050919050565b82818337600083830152505050565b60005b83811015620011fc578082015181840152602081019050620011df565b838111156200120c576000848401525b50505050565b600060028204905060018216806200122b57607f821691505b60208210811415620012425762001241620012fb565b5b50919050565b620012538262001359565b810181811067ffffffffffffffff821117156200127557620012746200132a565b5b80604052505050565b60006200128b826200119b565b91507fffffffffffffffffffffffffffffffffffffffffffffffffffffffffffffffff821415620012c157620012c0620012cc565b5b600182019050919050565b7f4e487b7100000000000000000000000000000000000000000000000000000000600052601160045260246000fd5b7f4e487b7100000000000000000000000000000000000000000000000000000000600052602260045260246000fd5b7f4e487b7100000000000000000000000000000000000000000000000000000000600052604160045260246000fd5b6000601f19601f8301169050919050565b620013758162001167565b81146200138157600080fd5b5056fe60806040523480156200001157600080fd5b50604051620031f6380380620031f683398181016040528101906200003791906200082b565b8360008060006101000a81548160ff021916908315150217905550620000a97f36a5c4aaacb6b388bbd448bf11096b7dafc5652bcc9046084fd0e95b1fb0b2cc7fd16e204b8a42a15ab0ea6bb8ec1ecdfbe69f38074fc865323af19efe7d9573d96200036160201b620012ad1760201c565b620001007fd16e204b8a42a15ab0ea6bb8ec1ecdfbe69f38074fc865323af19efe7d9573d97fdc1958ce1178d6eb32ccc146dcea8933f1978155832913ec88fa509962e1b4136200036160201b620012ad1760201c565b620001577f15e007796fc034bf8274acdcfbd2f48124815698ba6f70c109f3423981a7052f7fdc1958ce1178d6eb32ccc146dcea8933f1978155832913ec88fa509962e1b4136200036160201b620012ad1760201c565b6200018e7fdc1958ce1178d6eb32ccc146dcea8933f1978155832913ec88fa509962e1b413806200036160201b620012ad1760201c565b620001c57f15e007796fc034bf8274acdcfbd2f48124815698ba6f70c109f3423981a7052f82620003c560201b620013091760201c565b620001fc7fdc1958ce1178d6eb32ccc146dcea8933f1978155832913ec88fa509962e1b41382620003c560201b620013091760201c565b508051821462000238576040517f0e8cddf100000000000000000000000000000000000000000000000000000000815260040160405180910390fd5b82600290805190602001906200025092919062000549565b5081600381905550806004908051906020019062000270929190620005da565b5060005b8151811015620003565760006007838381518110620002bc577f4e487b7100000000000000000000000000000000000000000000000000000000600052603260045260246000fd5b6020026020010151604051620002d3919062000900565b908152602001604051809103902090508282815181106200031d577f4e487b7100000000000000000000000000000000000000000000000000000000600052603260045260246000fd5b60200260200101518160000190805190602001906200033e92919062000549565b505080806200034d9062000a9d565b91505062000274565b505050505062000bbd565b60006200037483620004b660201b60201c565b90508160016000858152602001908152602001600020600101819055508181847fbd79b86ffe0ab8e8776151514217cd7cacd52c909f66475c3af44e129f0b00ff60405160405180910390a4505050565b620003d78282620004d660201b60201c565b620004b257600180600084815260200190815260200160002060000160008373ffffffffffffffffffffffffffffffffffffffff1673ffffffffffffffffffffffffffffffffffffffff16815260200190815260200160002060006101000a81548160ff021916908315150217905550620004576200054160201b60201c565b73ffffffffffffffffffffffffffffffffffffffff168173ffffffffffffffffffffffffffffffffffffffff16837f2f8788117e7eff1d82e926ec794901d17c78024a50270940304540a733656f0d60405160405180910390a45b5050565b600060016000838152602001908152602001600020600101549050919050565b60006001600084815260200190815260200160002060000160008373ffffffffffffffffffffffffffffffffffffffff1673ffffffffffffffffffffffffffffffffffffffff16815260200190815260200160002060009054906101000a900460ff16905092915050565b600033905090565b828054620005579062000a31565b90600052602060002090601f0160209004810192826200057b5760008555620005c7565b82601f106200059657805160ff1916838001178555620005c7565b82800160010185558215620005c7579182015b82811115620005c6578251825591602001919060010190620005a9565b5b509050620005d6919062000641565b5090565b8280548282559060005260206000209081019282156200062e579160200282015b828111156200062d5782518290805190602001906200061c92919062000549565b5091602001919060010190620005fb565b5b5090506200063d919062000660565b5090565b5b808211156200065c57600081600090555060010162000642565b5090565b5b808211156200068457600081816200067a919062000688565b5060010162000661565b5090565b508054620006969062000a31565b6000825580601f10620006aa5750620006cb565b601f016020900490600052602060002090810190620006ca919062000641565b5b50565b6000620006e5620006df8462000942565b62000919565b905080838252602082019050828560208602820111156200070557600080fd5b60005b858110156200075457815167ffffffffffffffff8111156200072957600080fd5b808601620007388982620007e7565b8552602085019450602084019350505060018101905062000708565b5050509392505050565b6000620007756200076f8462000971565b62000919565b9050828152602081018484840111156200078e57600080fd5b6200079b848285620009fb565b509392505050565b600081519050620007b48162000b89565b92915050565b600082601f830112620007cc57600080fd5b8151620007de848260208601620006ce565b91505092915050565b600082601f830112620007f957600080fd5b81516200080b8482602086016200075e565b91505092915050565b600081519050620008258162000ba3565b92915050565b600080600080608085870312156200084257600080fd5b60006200085287828801620007a3565b945050602085015167ffffffffffffffff8111156200087057600080fd5b6200087e87828801620007e7565b9350506040620008918782880162000814565b925050606085015167ffffffffffffffff811115620008af57600080fd5b620008bd87828801620007ba565b91505092959194509250565b6000620008d682620009a7565b620008e28185620009b2565b9350620008f4818560208601620009fb565b80840191505092915050565b60006200090e8284620008c9565b915081905092915050565b60006200092562000938565b905062000933828262000a67565b919050565b6000604051905090565b600067ffffffffffffffff82111562000960576200095f62000b49565b5b602082029050602081019050919050565b600067ffffffffffffffff8211156200098f576200098e62000b49565b5b6200099a8262000b78565b9050602081019050919050565b600081519050919050565b600081905092915050565b6000620009ca82620009d1565b9050919050565b600073ffffffffffffffffffffffffffffffffffffffff82169050919050565b6000819050919050565b60005b8381101562000a1b578082015181840152602081019050620009fe565b8381111562000a2b576000848401525b50505050565b6000600282049050600182168062000a4a57607f821691505b6020821081141562000a615762000a6062000b1a565b5b50919050565b62000a728262000b78565b810181811067ffffffffffffffff8211171562000a945762000a9362000b49565b5b80604052505050565b600062000aaa82620009f1565b91507fffffffffffffffffffffffffffffffffffffffffffffffffffffffffffffffff82141562000ae05762000adf62000aeb565b5b600182019050919050565b7f4e487b7100000000000000000000000000000000000000000000000000000000600052601160045260246000fd5b7f4e487b7100000000000000000000000000000000000000000000000000000000600052602260045260246000fd5b7f4e487b7100000000000000000000000000000000000000000000000000000000600052604160045260246000fd5b6000601f19601f8301169050919050565b62000b9481620009bd565b811462000ba057600080fd5b50565b62000bae81620009f1565b811462000bba57600080fd5b50565b6126298062000bcd6000396000f3fe608060405234801561001057600080fd5b506004361061012c5760003560e01c8063543cbb05116100ad578063a097dc4b11610071578063a097dc4b1461035b578063a217fddf14610379578063d547741f14610397578063f7be43fb146103b3578063fc36e15b146103d15761012c565b8063543cbb05146102b35780635c975abb146102d157806365372147146102ef57806386e5c15a1461030d57806391d148541461032b5761012c565b8063301aee01116100f4578063301aee011461020d57806333ee31311461023d57806336568abe1461025b5780633e4f9cae14610277578063531cbb12146102955761012c565b806301ffc9a7146101315780630d60b1d0146101615780631fc26a5614610191578063248a9ca3146101c15780632f2ff15d146101f1575b600080fd5b61014b60048036038101906101469190611b61565b610401565b6040516101589190611f5f565b60405180910390f35b61017b60048036038101906101769190611abb565b61047b565b6040516101889190611f5f565b60405180910390f35b6101ab60048036038101906101a69190611abb565b610543565b6040516101b89190611f5f565b60405180910390f35b6101db60048036038101906101d69190611afc565b61063e565b6040516101e89190611f7a565b60405180910390f35b61020b60048036038101906102069190611b25565b61065e565b005b61022760048036038101906102229190611abb565b610687565b6040516102349190611f5f565b60405180910390f35b61024561074f565b6040516102529190611f5f565b60405180910390f35b61027560048036038101906102709190611b25565b6107a6565b005b61027f610956565b60405161028c9190611f7a565b60405180910390f35b61029d61097a565b6040516102aa9190611f3d565b60405180910390f35b6102bb610c27565b6040516102c89190611f3d565b60405180910390f35b6102d9610d88565b6040516102e69190611f5f565b60405180910390f35b6102f7610d9e565b6040516103049190611f3d565b60405180910390f35b610315610ee7565b6040516103229190611f7a565b60405180910390f35b61034560048036038101906103409190611b25565b610f0b565b6040516103529190611f5f565b60405180910390f35b610363610f76565b6040516103709190611f7a565b60405180910390f35b610381610f9a565b60405161038e9190611f7a565b60405180910390f35b6103b160048036038101906103ac9190611b25565b610fa1565b005b6103bb611034565b6040516103c89190611f7a565b60405180910390f35b6103eb60048036038101906103e69190611b8a565b611058565b6040516103f89190611f5f565b60405180910390f35b60007f7965db0b000000000000000000000000000000000000000000000000000000007bffffffffffffffffffffffffffffffffffffffffffffffffffffffff1916827bffffffffffffffffffffffffffffffffffffffffffffffffffffffff191614806104745750610473826113e9565b5b9050919050565b60007fdc1958ce1178d6eb32ccc146dcea8933f1978155832913ec88fa509962e1b4136104af816104aa611453565b61145b565b60005b8351811015610538576105257f15e007796fc034bf8274acdcfbd2f48124815698ba6f70c109f3423981a7052f858381518110610518577f4e487b7100000000000000000000000000000000000000000000000000000000600052603260045260246000fd5b6020026020010151611309565b80806105309061235c565b9150506104b2565b506001915050919050565b60007fdc1958ce1178d6eb32ccc146dcea8933f1978155832913ec88fa509962e1b41361057781610572611453565b61145b565b7fd16e204b8a42a15ab0ea6bb8ec1ecdfbe69f38074fc865323af19efe7d9573d96105a9816105a4611453565b61145b565b60005b84518110156106325761061f7f36a5c4aaacb6b388bbd448bf11096b7dafc5652bcc9046084fd0e95b1fb0b2cc868381518110610612577f4e487b7100000000000000000000000000000000000000000000000000000000600052603260045260246000fd5b6020026020010151611309565b808061062a9061235c565b9150506105ac565b50600192505050919050565b600060016000838152602001908152602001600020600101549050919050565b6106678261063e565b61067881610673611453565b61145b565b6106828383611309565b505050565b60007fdc1958ce1178d6eb32ccc146dcea8933f1978155832913ec88fa509962e1b4136106bb816106b6611453565b61145b565b60005b8351811015610744576107317fd16e204b8a42a15ab0ea6bb8ec1ecdfbe69f38074fc865323af19efe7d9573d9858381518110610724577f4e487b7100000000000000000000000000000000000000000000000000000000600052603260045260246000fd5b6020026020010151611309565b808061073c9061235c565b9150506106be565b506001915050919050565b60007fdc1958ce1178d6eb32ccc146dcea8933f1978155832913ec88fa509962e1b4136107838161077e611453565b61145b565b6001600560016101000a81548160ff021916908315150217905550600191505090565b7fdc1958ce1178d6eb32ccc146dcea8933f1978155832913ec88fa509962e1b4136107d8816107d3611453565b61145b565b7fdc1958ce1178d6eb32ccc146dcea8933f1978155832913ec88fa509962e1b413831461083a576040517f08c379a000000000000000000000000000000000000000000000000000000000815260040161083190612037565b60405180910390fd5b6108647f15e007796fc034bf8274acdcfbd2f48124815698ba6f70c109f3423981a7052f83610f0b565b6108a3576040517f08c379a000000000000000000000000000000000000000000000000000000000815260040161089a90612017565b60405180910390fd5b6108cd7fdc1958ce1178d6eb32ccc146dcea8933f1978155832913ec88fa509962e1b41383611309565b6108f77fdc1958ce1178d6eb32ccc146dcea8933f1978155832913ec88fa509962e1b413336114f8565b8173ffffffffffffffffffffffffffffffffffffffff163373ffffffffffffffffffffffffffffffffffffffff167f53cb1046cc84eb7dcfb14a0610185dd97c2c40e311ef59a28c5622cf3942a3b860405160405180910390a3505050565b7f15e007796fc034bf8274acdcfbd2f48124815698ba6f70c109f3423981a7052f81565b60607fd16e204b8a42a15ab0ea6bb8ec1ecdfbe69f38074fc865323af19efe7d9573d96109ae816109a9611453565b61145b565b7fdc1958ce1178d6eb32ccc146dcea8933f1978155832913ec88fa509962e1b4136109e0816109db611453565b61145b565b60005b600480549050811015610b2b576000600760048381548110610a2e577f4e487b7100000000000000000000000000000000000000000000000000000000600052603260045260246000fd5b90600052602060002001604051610a459190611eec565b90815260200160405180910390209050600860048381548110610a91577f4e487b7100000000000000000000000000000000000000000000000000000000600052603260045260246000fd5b90600052602060002001604051610aa89190611eec565b908152602001604051809103902054816001018190555060098190806001815401808255809150506001900390600052602060002090600202016000909190919091506000820181600001908054610aff906122f9565b610b0a9291906118d4565b50600182015481600101555050508080610b239061235c565b9150506109e3565b506009805480602002602001604051908101604052809291908181526020016000905b82821015610c1c5783829060005260206000209060020201604051806040016040529081600082018054610b81906122f9565b80601f0160208091040260200160405190810160405280929190818152602001828054610bad906122f9565b8015610bfa5780601f10610bcf57610100808354040283529160200191610bfa565b820191906000526020600020905b815481529060010190602001808311610bdd57829003601f168201915b5050505050815260200160018201548152505081526020019060010190610b4e565b505050509250505090565b60607fd16e204b8a42a15ab0ea6bb8ec1ecdfbe69f38074fc865323af19efe7d9573d9610c5b81610c56611453565b61145b565b7fdc1958ce1178d6eb32ccc146dcea8933f1978155832913ec88fa509962e1b413610c8d81610c88611453565b61145b565b6009805480602002602001604051908101604052809291908181526020016000905b82821015610d7d5783829060005260206000209060020201604051806040016040529081600082018054610ce2906122f9565b80601f0160208091040260200160405190810160405280929190818152602001828054610d0e906122f9565b8015610d5b5780601f10610d3057610100808354040283529160200191610d5b565b820191906000526020600020905b815481529060010190602001808311610d3e57829003601f168201915b5050505050815260200160018201548152505081526020019060010190610caf565b505050509250505090565b60008060009054906101000a900460ff16905090565b606060001515600560019054906101000a900460ff1615151415610dee576040517fb34ae8a900000000000000000000000000000000000000000000000000000000815260040160405180910390fd5b6009805480602002602001604051908101604052809291908181526020016000905b82821015610ede5783829060005260206000209060020201604051806040016040529081600082018054610e43906122f9565b80601f0160208091040260200160405190810160405280929190818152602001828054610e6f906122f9565b8015610ebc5780601f10610e9157610100808354040283529160200191610ebc565b820191906000526020600020905b815481529060010190602001808311610e9f57829003601f168201915b5050505050815260200160018201548152505081526020019060010190610e10565b50505050905090565b7fd16e204b8a42a15ab0ea6bb8ec1ecdfbe69f38074fc865323af19efe7d9573d981565b60006001600084815260200190815260200160002060000160008373ffffffffffffffffffffffffffffffffffffffff1673ffffffffffffffffffffffffffffffffffffffff16815260200190815260200160002060009054906101000a900460ff16905092915050565b7fdc1958ce1178d6eb32ccc146dcea8933f1978155832913ec88fa509962e1b41381565b6000801b81565b610faa8261063e565b610fbb81610fb6611453565b61145b565b610fe57fdc1958ce1178d6eb32ccc146dcea8933f1978155832913ec88fa509962e1b41383610f0b565b15611025576040517f08c379a000000000000000000000000000000000000000000000000000000000815260040161101c90611fd7565b60405180910390fd5b61102f83836114f8565b505050565b7f36a5c4aaacb6b388bbd448bf11096b7dafc5652bcc9046084fd0e95b1fb0b2cc81565b60007f36a5c4aaacb6b388bbd448bf11096b7dafc5652bcc9046084fd0e95b1fb0b2cc61108c81611087611453565b61145b565b7fd16e204b8a42a15ab0ea6bb8ec1ecdfbe69f38074fc865323af19efe7d9573d96110be816110b9611453565b61145b565b7fdc1958ce1178d6eb32ccc146dcea8933f1978155832913ec88fa509962e1b4136110f0816110eb611453565b61145b565b7f15e007796fc034bf8274acdcfbd2f48124815698ba6f70c109f3423981a7052f6111228161111d611453565b61145b565b61112a610d88565b1561116a576040517f08c379a000000000000000000000000000000000000000000000000000000000815260040161116190611ff7565b60405180910390fd5b60011515600660003373ffffffffffffffffffffffffffffffffffffffff1673ffffffffffffffffffffffffffffffffffffffff16815260200190815260200160002060009054906101000a900460ff16151514156111f5576040517f7c9a1cf900000000000000000000000000000000000000000000000000000000815260040160405180910390fd5b60006008876040516112079190611ed5565b9081526020016040518091039020549050600181611225919061215f565b6008886040516112359190611ed5565b9081526020016040518091039020819055506001600660003373ffffffffffffffffffffffffffffffffffffffff1673ffffffffffffffffffffffffffffffffffffffff16815260200190815260200160002060006101000a81548160ff021916908315150217905550600195505050505050919050565b60006112b88361063e565b90508160016000858152602001908152602001600020600101819055508181847fbd79b86ffe0ab8e8776151514217cd7cacd52c909f66475c3af44e129f0b00ff60405160405180910390a4505050565b6113138282610f0b565b6113e557600180600084815260200190815260200160002060000160008373ffffffffffffffffffffffffffffffffffffffff1673ffffffffffffffffffffffffffffffffffffffff16815260200190815260200160002060006101000a81548160ff02191690831515021790555061138a611453565b73ffffffffffffffffffffffffffffffffffffffff168173ffffffffffffffffffffffffffffffffffffffff16837f2f8788117e7eff1d82e926ec794901d17c78024a50270940304540a733656f0d60405160405180910390a45b5050565b60007f01ffc9a7000000000000000000000000000000000000000000000000000000007bffffffffffffffffffffffffffffffffffffffffffffffffffffffff1916827bffffffffffffffffffffffffffffffffffffffffffffffffffffffff1916149050919050565b600033905090565b6114658282610f0b565b6114f45761148a8173ffffffffffffffffffffffffffffffffffffffff1660146115da565b6114988360001c60206115da565b6040516020016114a9929190611f03565b6040516020818303038152906040526040517f08c379a00000000000000000000000000000000000000000000000000000000081526004016114eb9190611f95565b60405180910390fd5b5050565b6115028282610f0b565b156115d65760006001600084815260200190815260200160002060000160008373ffffffffffffffffffffffffffffffffffffffff1673ffffffffffffffffffffffffffffffffffffffff16815260200190815260200160002060006101000a81548160ff02191690831515021790555061157b611453565b73ffffffffffffffffffffffffffffffffffffffff168173ffffffffffffffffffffffffffffffffffffffff16837ff6391f5c32d9c69d2a47ea670b442974b53935d1edc7fd64eb21e047a839171b60405160405180910390a45b5050565b6060600060028360026115ed91906121b5565b6115f7919061215f565b67ffffffffffffffff811115611636577f4e487b7100000000000000000000000000000000000000000000000000000000600052604160045260246000fd5b6040519080825280601f01601f1916602001820160405280156116685781602001600182028036833780820191505090505b5090507f3000000000000000000000000000000000000000000000000000000000000000816000815181106116c6577f4e487b7100000000000000000000000000000000000000000000000000000000600052603260045260246000fd5b60200101907effffffffffffffffffffffffffffffffffffffffffffffffffffffffffffff1916908160001a9053507f780000000000000000000000000000000000000000000000000000000000000081600181518110611750577f4e487b7100000000000000000000000000000000000000000000000000000000600052603260045260246000fd5b60200101907effffffffffffffffffffffffffffffffffffffffffffffffffffffffffffff1916908160001a9053506000600184600261179091906121b5565b61179a919061215f565b90505b6001811115611886577f3031323334353637383961626364656600000000000000000000000000000000600f861660108110611802577f4e487b7100000000000000000000000000000000000000000000000000000000600052603260045260246000fd5b1a60f81b82828151811061183f577f4e487b7100000000000000000000000000000000000000000000000000000000600052603260045260246000fd5b60200101907effffffffffffffffffffffffffffffffffffffffffffffffffffffffffffff1916908160001a905350600485901c94508061187f906122cf565b905061179d565b50600084146118ca576040517f08c379a00000000000000000000000000000000000000000000000000000000081526004016118c190611fb7565b60405180910390fd5b8091505092915050565b8280546118e0906122f9565b90600052602060002090601f0160209004810192826119025760008555611950565b82601f106119135780548555611950565b8280016001018555821561195057600052602060002091601f016020900482015b8281111561194f578254825591600101919060010190611934565b5b50905061195d9190611961565b5090565b5b8082111561197a576000816000905550600101611962565b5090565b600061199161198c8461207c565b612057565b905080838252602082019050828560208602820111156119b057600080fd5b60005b858110156119e057816119c68882611a28565b8452602084019350602083019250506001810190506119b3565b5050509392505050565b60006119fd6119f8846120a8565b612057565b905082815260208101848484011115611a1557600080fd5b611a2084828561228d565b509392505050565b600081359050611a37816125ae565b92915050565b600082601f830112611a4e57600080fd5b8135611a5e84826020860161197e565b91505092915050565b600081359050611a76816125c5565b92915050565b600081359050611a8b816125dc565b92915050565b600082601f830112611aa257600080fd5b8135611ab28482602086016119ea565b91505092915050565b600060208284031215611acd57600080fd5b600082013567ffffffffffffffff811115611ae757600080fd5b611af384828501611a3d565b91505092915050565b600060208284031215611b0e57600080fd5b6000611b1c84828501611a67565b91505092915050565b60008060408385031215611b3857600080fd5b6000611b4685828601611a67565b9250506020611b5785828601611a28565b9150509250929050565b600060208284031215611b7357600080fd5b6000611b8184828501611a7c565b91505092915050565b600060208284031215611b9c57600080fd5b600082013567ffffffffffffffff811115611bb657600080fd5b611bc284828501611a91565b91505092915050565b6000611bd78383611e89565b905092915050565b6000611bea826120fe565b611bf48185612121565b935083602082028501611c06856120d9565b8060005b85811015611c425784840389528151611c238582611bcb565b9450611c2e83612114565b925060208a01995050600181019050611c0a565b50829750879550505050505092915050565b611c5d81612221565b82525050565b611c6c8161222d565b82525050565b6000611c7d82612109565b611c878185612132565b9350611c9781856020860161229c565b611ca081612432565b840191505092915050565b6000611cb682612109565b611cc08185612143565b9350611cd081856020860161229c565b611cd981612432565b840191505092915050565b6000611cef82612109565b611cf98185612154565b9350611d0981856020860161229c565b80840191505092915050565b60008154611d22816122f9565b611d2c8186612154565b94506001821660008114611d475760018114611d5857611d8b565b60ff19831686528186019350611d8b565b611d61856120e9565b60005b83811015611d8357815481890152600182019150602081019050611d64565b838801955050505b50505092915050565b6000611da1602083612143565b9150611dac82612443565b602082019050919050565b6000611dc4601f83612143565b9150611dcf8261246c565b602082019050919050565b6000611de7601083612143565b9150611df282612495565b602082019050919050565b6000611e0a603683612143565b9150611e15826124be565b604082019050919050565b6000611e2d602883612143565b9150611e388261250d565b604082019050919050565b6000611e50601783612154565b9150611e5b8261255c565b601782019050919050565b6000611e73601183612154565b9150611e7e82612585565b601182019050919050565b60006040830160008301518482036000860152611ea68282611c72565b9150506020830151611ebb6020860182611ec6565b508091505092915050565b611ecf81612283565b82525050565b6000611ee18284611ce4565b915081905092915050565b6000611ef88284611d15565b915081905092915050565b6000611f0e82611e43565b9150611f1a8285611ce4565b9150611f2582611e66565b9150611f318284611ce4565b91508190509392505050565b60006020820190508181036000830152611f578184611bdf565b905092915050565b6000602082019050611f746000830184611c54565b92915050565b6000602082019050611f8f6000830184611c63565b92915050565b60006020820190508181036000830152611faf8184611cab565b905092915050565b60006020820190508181036000830152611fd081611d94565b9050919050565b60006020820190508181036000830152611ff081611db7565b9050919050565b6000602082019050818103600083015261201081611dda565b9050919050565b6000602082019050818103600083015261203081611dfd565b9050919050565b6000602082019050818103600083015261205081611e20565b9050919050565b6000612061612072565b905061206d828261232b565b919050565b6000604051905090565b600067ffffffffffffffff82111561209757612096612403565b5b602082029050602081019050919050565b600067ffffffffffffffff8211156120c3576120c2612403565b5b6120cc82612432565b9050602081019050919050565b6000819050602082019050919050565b60008190508160005260206000209050919050565b600081519050919050565b600081519050919050565b6000602082019050919050565b600082825260208201905092915050565b600082825260208201905092915050565b600082825260208201905092915050565b600081905092915050565b600061216a82612283565b915061217583612283565b9250827fffffffffffffffffffffffffffffffffffffffffffffffffffffffffffffffff038211156121aa576121a96123a5565b5b828201905092915050565b60006121c082612283565b91506121cb83612283565b9250817fffffffffffffffffffffffffffffffffffffffffffffffffffffffffffffffff0483118215151615612204576122036123a5565b5b828202905092915050565b600061221a82612263565b9050919050565b60008115159050919050565b6000819050919050565b60007fffffffff0000000000000000000000000000000000000000000000000000000082169050919050565b600073ffffffffffffffffffffffffffffffffffffffff82169050919050565b6000819050919050565b82818337600083830152505050565b60005b838110156122ba57808201518184015260208101905061229f565b838111156122c9576000848401525b50505050565b60006122da82612283565b915060008214156122ee576122ed6123a5565b5b600182039050919050565b6000600282049050600182168061231157607f821691505b60208210811415612325576123246123d4565b5b50919050565b61233482612432565b810181811067ffffffffffffffff8211171561235357612352612403565b5b80604052505050565b600061236782612283565b91507fffffffffffffffffffffffffffffffffffffffffffffffffffffffffffffffff82141561239a576123996123a5565b5b600182019050919050565b7f4e487b7100000000000000000000000000000000000000000000000000000000600052601160045260246000fd5b7f4e487b7100000000000000000000000000000000000000000000000000000000600052602260045260246000fd5b7f4e487b7100000000000000000000000000000000000000000000000000000000600052604160045260246000fd5b6000601f19601f8301169050919050565b7f537472696e67733a20686578206c656e67746820696e73756666696369656e74600082015250565b7f43686169726d616e20726f6c652063616e6e6f74206265207265766f6b656400600082015250565b7f5061757361626c653a2070617573656400000000000000000000000000000000600082015250565b7f546865206164647265737320666f7220746865206e65772063686169726d616e60008201527f206973206e6f742061206469726563746f722079657400000000000000000000602082015250565b7f4f6e6c79207468652063686169726d616e20726f6c652063616e20626520726560008201527f6e6f756e6365642e000000000000000000000000000000000000000000000000602082015250565b7f416363657373436f6e74726f6c3a206163636f756e7420000000000000000000600082015250565b7f206973206d697373696e6720726f6c6520000000000000000000000000000000600082015250565b6125b78161220f565b81146125c257600080fd5b50565b6125ce8161222d565b81146125d957600080fd5b50565b6125e581612237565b81146125f057600080fd5b5056fea2646970667358221220e4c6851ce8afea61845ab7ad670946e7d99507ab8bbbd65e38d68cf621ba4e6f64736f6c63430008040033a2646970667358221220009a0042acfb971e7d9b1a5dd511d8f8352e27148733e13dcd1810444d2559ac64736f6c63430008040033",
  "linkReferences": {},
  "deployedLinkReferences": {}
}