{
  "_format": "hh-sol-artifact-1",
  "contractName": "ElectionFactory",
  "sourceName": "contracts/ElectionFactory.sol",
  "abi": [
    {
      "inputs": [],
      "stateMutability": "nonpayable",
      "type": "constructor"
    },
    {
      "inputs": [
        {
          "internalType": "string",
          "name": "status",
          "type": "string"
        }
      ],
      "name": "BadStatusRequest",
      "type": "error"
    },
    {
      "inputs": [
        {
          "internalType": "address",
          "name": "caller",
          "type": "address"
        }
      ],
      "name": "NotAuthorised",
      "type": "error"
    },
    {
      "inputs": [
        {
          "internalType": "address",
          "name": "electionContract",
          "type": "address"
        }
      ],
      "name": "UnAuthorizedElectionContract",
      "type": "error"
    },
    {
      "anonymous": false,
      "inputs": [
        {
          "indexed": false,
          "internalType": "uint256",
          "name": "id",
          "type": "uint256"
        },
        {
          "indexed": false,
          "internalType": "address",
          "name": "electionAddress",
          "type": "address"
        },
        {
          "indexed": true,
          "internalType": "address",
          "name": "creator",
          "type": "address"
        },
        {
          "indexed": false,
          "internalType": "string",
          "name": "position",
          "type": "string"
        }
      ],
      "name": "CreateElection",
      "type": "event"
    },
    {
      "anonymous": false,
      "inputs": [
        {
          "indexed": true,
          "internalType": "address",
          "name": "oldOwner",
          "type": "address"
        },
        {
          "indexed": true,
          "internalType": "address",
          "name": "newOwner",
          "type": "address"
        }
      ],
      "name": "SetOwner",
      "type": "event"
    },
    {
      "anonymous": false,
      "inputs": [
        {
          "indexed": false,
          "internalType": "string",
          "name": "status",
          "type": "string"
        },
        {
          "indexed": false,
          "internalType": "address",
          "name": "electionAddress",
          "type": "address"
        }
      ],
      "name": "UpdateElectionStatus",
      "type": "event"
    },
    {
      "inputs": [
        {
          "internalType": "string",
          "name": "_position",
          "type": "string"
        },
        {
          "internalType": "string[]",
          "name": "_contestants",
          "type": "string[]"
        }
      ],
      "name": "createElection",
      "outputs": [],
      "stateMutability": "nonpayable",
      "type": "function"
    },
    {
      "inputs": [],
      "name": "electionCount",
      "outputs": [
        {
          "internalType": "uint256",
          "name": "",
          "type": "uint256"
        }
      ],
      "stateMutability": "view",
      "type": "function"
    },
    {
      "inputs": [
        {
          "internalType": "uint256",
          "name": "",
          "type": "uint256"
        }
      ],
      "name": "elections",
      "outputs": [
        {
          "internalType": "uint256",
          "name": "id",
          "type": "uint256"
        },
        {
          "internalType": "address",
          "name": "electionAddress",
          "type": "address"
        },
        {
          "internalType": "string",
          "name": "position",
          "type": "string"
        },
        {
          "internalType": "uint256",
          "name": "createdAt",
          "type": "uint256"
        },
        {
          "internalType": "string",
          "name": "status",
          "type": "string"
        }
      ],
      "stateMutability": "view",
      "type": "function"
    },
    {
      "inputs": [
        {
          "internalType": "uint256",
          "name": "_start",
          "type": "uint256"
        },
        {
          "internalType": "uint256",
          "name": "_length",
          "type": "uint256"
        }
      ],
      "name": "getElections",
      "outputs": [
        {
          "internalType": "address[]",
          "name": "electionAddress",
          "type": "address[]"
        },
        {
          "internalType": "string[]",
          "name": "position",
          "type": "string[]"
        },
        {
          "internalType": "uint256[]",
          "name": "createdAt",
          "type": "uint256[]"
        },
        {
          "internalType": "string[]",
          "name": "status",
          "type": "string[]"
        }
      ],
      "stateMutability": "view",
      "type": "function"
    },
    {
      "inputs": [],
      "name": "owner",
      "outputs": [
        {
          "internalType": "address",
          "name": "",
          "type": "address"
        }
      ],
      "stateMutability": "view",
      "type": "function"
    },
    {
      "inputs": [
        {
          "internalType": "address",
          "name": "_owner",
          "type": "address"
        }
      ],
      "name": "setOwner",
      "outputs": [],
      "stateMutability": "nonpayable",
      "type": "function"
    },
    {
      "inputs": [
        {
          "internalType": "uint256",
          "name": "_electionId",
          "type": "uint256"
        },
        {
          "internalType": "string",
          "name": "_status",
          "type": "string"
        }
      ],
      "name": "updateElectionStatus",
      "outputs": [],
      "stateMutability": "nonpayable",
      "type": "function"
    }
  ],
  "bytecode": "0x608060405234801561001057600080fd5b50336000806101000a81548173ffffffffffffffffffffffffffffffffffffffff021916908373ffffffffffffffffffffffffffffffffffffffff160217905550616198806100606000396000f3fe60806040523480156200001157600080fd5b5060043610620000885760003560e01c8063349813b21162000063578063349813b214620001065780635e6fef0114620001265780638da5cb5b1462000160578063997d283014620001825762000088565b806313af4035146200008d5780632987024d14620000ad5780633389810814620000cd575b600080fd5b620000ab6004803603810190620000a5919062001658565b620001a4565b005b620000cb6004803603810190620000c5919062001723565b620002d4565b005b620000eb6004803603810190620000e591906200177d565b62000790565b604051620000fd949392919062001ae2565b60405180910390f35b6200012460048036038101906200011e919062001684565b62000e8b565b005b6200014460048036038101906200013e9190620016f7565b6200116b565b6040516200015795949392919062001c02565b60405180910390f35b6200016a620012f2565b60405162000179919062001a4a565b60405180910390f35b6200018c62001316565b6040516200019b919062001ba1565b60405180910390f35b60008054906101000a900473ffffffffffffffffffffffffffffffffffffffff1673ffffffffffffffffffffffffffffffffffffffff163373ffffffffffffffffffffffffffffffffffffffff16146200023757336040517f10ac49650000000000000000000000000000000000000000000000000000000081526004016200022e919062001a4a565b60405180910390fd5b806000806101000a81548173ffffffffffffffffffffffffffffffffffffffff021916908373ffffffffffffffffffffffffffffffffffffffff1602179055508073ffffffffffffffffffffffffffffffffffffffff163373ffffffffffffffffffffffffffffffffffffffff167fcbf985117192c8f614a58aaf97226bb80a754772f5f6edf06f87c675f2e6c66360405160405180910390a350565b600060018084620002e6919062001e30565b815481106200031e577f4e487b7100000000000000000000000000000000000000000000000000000000600052603260045260246000fd5b90600052602060002090600602016040518060c0016040529081600082015481526020016001820160009054906101000a900473ffffffffffffffffffffffffffffffffffffffff1673ffffffffffffffffffffffffffffffffffffffff1673ffffffffffffffffffffffffffffffffffffffff168152602001600282018054620003a99062001eee565b80601f0160208091040260200160405190810160405280929190818152602001828054620003d79062001eee565b8015620004285780601f10620003fc5761010080835404028352916020019162000428565b820191906000526020600020905b8154815290600101906020018083116200040a57829003601f168201915b5050505050815260200160038201805480602002602001604051908101604052809291908181526020016000905b828210156200050c578382906000526020600020018054620004789062001eee565b80601f0160208091040260200160405190810160405280929190818152602001828054620004a69062001eee565b8015620004f75780601f10620004cb57610100808354040283529160200191620004f7565b820191906000526020600020905b815481529060010190602001808311620004d957829003601f168201915b50505050508152602001906001019062000456565b50505050815260200160048201548152602001600582018054620005309062001eee565b80601f01602080910402602001604051908101604052809291908181526020018280546200055e9062001eee565b8015620005af5780601f106200058357610100808354040283529160200191620005af565b820191906000526020600020905b8154815290600101906020018083116200059157829003601f168201915b50505050508152505090503373ffffffffffffffffffffffffffffffffffffffff16816020015173ffffffffffffffffffffffffffffffffffffffff16146200063157336040517f3d9d7f2400000000000000000000000000000000000000000000000000000000815260040162000628919062001a4a565b60405180910390fd5b818160a0018190525080600180856200064b919062001e30565b8154811062000683577f4e487b7100000000000000000000000000000000000000000000000000000000600052603260045260246000fd5b90600052602060002090600602016000820151816000015560208201518160010160006101000a81548173ffffffffffffffffffffffffffffffffffffffff021916908373ffffffffffffffffffffffffffffffffffffffff1602179055506040820151816002019080519060200190620007009291906200131c565b5060608201518160030190805190602001906200071f929190620013ad565b506080820151816004015560a0820151816005019080519060200190620007489291906200131c565b509050507f51d0b387443c0e4650d01533d71a603b19792ca9ab3edccf48d15f8a4f750bb98282602001516040516200078392919062001b4b565b60405180910390a1505050565b60608060608060008611620007dc576040517f08c379a0000000000000000000000000000000000000000000000000000000008152600401620007d39062001b7f565b60405180910390fd5b6000600180549050905060008688620007f6919062001dd3565b90508082101562000831576001888362000811919062001e30565b6200081d919062001dd3565b96506001826200082e919062001dd3565b90505b8667ffffffffffffffff81111562000872577f4e487b7100000000000000000000000000000000000000000000000000000000600052604160045260246000fd5b604051908082528060200260200182016040528015620008a15781602001602082028036833780820191505090505b5095508667ffffffffffffffff811115620008e5577f4e487b7100000000000000000000000000000000000000000000000000000000600052604160045260246000fd5b6040519080825280602002602001820160405280156200091a57816020015b6060815260200190600190039081620009045790505b5094508667ffffffffffffffff8111156200095e577f4e487b7100000000000000000000000000000000000000000000000000000000600052604160045260246000fd5b6040519080825280602002602001820160405280156200098d5781602001602082028036833780820191505090505b5093508667ffffffffffffffff811115620009d1577f4e487b7100000000000000000000000000000000000000000000000000000000600052604160045260246000fd5b60405190808252806020026020018201604052801562000a0657816020015b6060815260200190600190039081620009f05790505b5092506000808990505b8281101562000e7e5760006001808362000a2b919062001e30565b8154811062000a63577f4e487b7100000000000000000000000000000000000000000000000000000000600052603260045260246000fd5b90600052602060002090600602016040518060c0016040529081600082015481526020016001820160009054906101000a900473ffffffffffffffffffffffffffffffffffffffff1673ffffffffffffffffffffffffffffffffffffffff1673ffffffffffffffffffffffffffffffffffffffff16815260200160028201805462000aee9062001eee565b80601f016020809104026020016040519081016040528092919081815260200182805462000b1c9062001eee565b801562000b6d5780601f1062000b415761010080835404028352916020019162000b6d565b820191906000526020600020905b81548152906001019060200180831162000b4f57829003601f168201915b5050505050815260200160038201805480602002602001604051908101604052809291908181526020016000905b8282101562000c5157838290600052602060002001805462000bbd9062001eee565b80601f016020809104026020016040519081016040528092919081815260200182805462000beb9062001eee565b801562000c3c5780601f1062000c105761010080835404028352916020019162000c3c565b820191906000526020600020905b81548152906001019060200180831162000c1e57829003601f168201915b50505050508152602001906001019062000b9b565b5050505081526020016004820154815260200160058201805462000c759062001eee565b80601f016020809104026020016040519081016040528092919081815260200182805462000ca39062001eee565b801562000cf45780601f1062000cc85761010080835404028352916020019162000cf4565b820191906000526020600020905b81548152906001019060200180831162000cd657829003601f168201915b5050505050815250509050806020015189848151811062000d3e577f4e487b7100000000000000000000000000000000000000000000000000000000600052603260045260246000fd5b602002602001019073ffffffffffffffffffffffffffffffffffffffff16908173ffffffffffffffffffffffffffffffffffffffff1681525050806040015188848151811062000db7577f4e487b7100000000000000000000000000000000000000000000000000000000600052603260045260246000fd5b6020026020010181905250806080015187848151811062000e01577f4e487b7100000000000000000000000000000000000000000000000000000000600052603260045260246000fd5b6020026020010181815250508060a0015186848151811062000e4c577f4e487b7100000000000000000000000000000000000000000000000000000000600052603260045260246000fd5b6020026020010181905250828062000e649062001f5a565b93505050808062000e759062001f5a565b91505062000a10565b5050505092959194509250565b60008054906101000a900473ffffffffffffffffffffffffffffffffffffffff1673ffffffffffffffffffffffffffffffffffffffff163373ffffffffffffffffffffffffffffffffffffffff161462000f1e57336040517f10ac496500000000000000000000000000000000000000000000000000000000815260040162000f15919062001a4a565b60405180910390fd5b60006002549050808062000f329062001f5a565b91505060003384845185853060405162000f4c9062001414565b62000f5d9695949392919062001a67565b604051809103906000f08015801562000f7a573d6000803e3d6000fd5b50905062000f8762001422565b8281600001818152505081816020019073ffffffffffffffffffffffffffffffffffffffff16908173ffffffffffffffffffffffffffffffffffffffff1681525050848160400181905250838160600181905250428160800181815250506040518060400160405280600781526020017f50656e64696e67000000000000000000000000000000000000000000000000008152508160a0018190525060018190806001815401808255809150506001900390600052602060002090600602016000909190919091506000820151816000015560208201518160010160006101000a81548173ffffffffffffffffffffffffffffffffffffffff021916908373ffffffffffffffffffffffffffffffffffffffff1602179055506040820151816002019080519060200190620010be9291906200131c565b506060820151816003019080519060200190620010dd929190620013ad565b506080820151816004015560a0820151816005019080519060200190620011069291906200131c565b505050826002819055503373ffffffffffffffffffffffffffffffffffffffff167f0ff7cc20a51f447586c8f464561d79852e07453a2e01f9af806e219da319acfa8484886040516200115c9392919062001bbe565b60405180910390a25050505050565b600181815481106200117c57600080fd5b90600052602060002090600602016000915090508060000154908060010160009054906101000a900473ffffffffffffffffffffffffffffffffffffffff1690806002018054620011cd9062001eee565b80601f0160208091040260200160405190810160405280929190818152602001828054620011fb9062001eee565b80156200124c5780601f1062001220576101008083540402835291602001916200124c565b820191906000526020600020905b8154815290600101906020018083116200122e57829003601f168201915b505050505090806004015490806005018054620012699062001eee565b80601f0160208091040260200160405190810160405280929190818152602001828054620012979062001eee565b8015620012e85780601f10620012bc57610100808354040283529160200191620012e8565b820191906000526020600020905b815481529060010190602001808311620012ca57829003601f168201915b5050505050905085565b60008054906101000a900473ffffffffffffffffffffffffffffffffffffffff1681565b60025481565b8280546200132a9062001eee565b90600052602060002090601f0160209004810192826200134e57600085556200139a565b82601f106200136957805160ff19168380011785556200139a565b828001600101855582156200139a579182015b82811115620013995782518255916020019190600101906200137c565b5b509050620013a991906200146e565b5090565b82805482825590600052602060002090810192821562001401579160200282015b8281111562001400578251829080519060200190620013ef9291906200131c565b5091602001919060010190620013ce565b5b5090506200141091906200148d565b5090565b61409980620020ca83390190565b6040518060c0016040528060008152602001600073ffffffffffffffffffffffffffffffffffffffff168152602001606081526020016060815260200160008152602001606081525090565b5b80821115620014895760008160009055506001016200146f565b5090565b5b80821115620014b15760008181620014a79190620014b5565b506001016200148e565b5090565b508054620014c39062001eee565b6000825580601f10620014d75750620014f8565b601f016020900490600052602060002090810190620014f791906200146e565b5b50565b6000620015126200150c8462001c96565b62001c6d565b905080838252602082019050828560208602820111156200153257600080fd5b60005b858110156200158157813567ffffffffffffffff8111156200155657600080fd5b80860162001565898262001614565b8552602085019450602084019350505060018101905062001535565b5050509392505050565b6000620015a26200159c8462001cc5565b62001c6d565b905082815260208101848484011115620015bb57600080fd5b620015c884828562001ea9565b509392505050565b600081359050620015e18162002095565b92915050565b600082601f830112620015f957600080fd5b81356200160b848260208601620014fb565b91505092915050565b600082601f8301126200162657600080fd5b8135620016388482602086016200158b565b91505092915050565b6000813590506200165281620020af565b92915050565b6000602082840312156200166b57600080fd5b60006200167b84828501620015d0565b91505092915050565b600080604083850312156200169857600080fd5b600083013567ffffffffffffffff811115620016b357600080fd5b620016c18582860162001614565b925050602083013567ffffffffffffffff811115620016df57600080fd5b620016ed85828601620015e7565b9150509250929050565b6000602082840312156200170a57600080fd5b60006200171a8482850162001641565b91505092915050565b600080604083850312156200173757600080fd5b6000620017478582860162001641565b925050602083013567ffffffffffffffff8111156200176557600080fd5b620017738582860162001614565b9150509250929050565b600080604083850312156200179157600080fd5b6000620017a18582860162001641565b9250506020620017b48582860162001641565b9150509250929050565b6000620017cc838362001808565b60208301905092915050565b6000620017e683836200197f565b905092915050565b6000620017fc838362001a28565b60208301905092915050565b620018138162001e6b565b82525050565b620018248162001e6b565b82525050565b6000620018378262001d2b565b62001843818562001d7e565b9350620018508362001cfb565b8060005b83811015620018875781516200186b8882620017be565b9750620018788362001d57565b92505060018101905062001854565b5085935050505092915050565b6000620018a18262001d36565b620018ad818562001d8f565b935083602082028501620018c18562001d0b565b8060005b85811015620019035784840389528151620018e18582620017d8565b9450620018ee8362001d64565b925060208a01995050600181019050620018c5565b50829750879550505050505092915050565b6000620019228262001d41565b6200192e818562001da0565b93506200193b8362001d1b565b8060005b8381101562001972578151620019568882620017ee565b9750620019638362001d71565b9250506001810190506200193f565b5085935050505092915050565b60006200198c8262001d4c565b62001998818562001db1565b9350620019aa81856020860162001eb8565b620019b58162002035565b840191505092915050565b6000620019cd8262001d4c565b620019d9818562001dc2565b9350620019eb81856020860162001eb8565b620019f68162002035565b840191505092915050565b600062001a10602c8362001dc2565b915062001a1d8262002046565b604082019050919050565b62001a338162001e9f565b82525050565b62001a448162001e9f565b82525050565b600060208201905062001a61600083018462001819565b92915050565b600060c08201905062001a7e600083018962001819565b818103602083015262001a928188620019c0565b905062001aa3604083018762001a39565b818103606083015262001ab7818662001894565b905062001ac8608083018562001a39565b62001ad760a083018462001819565b979650505050505050565b6000608082019050818103600083015262001afe81876200182a565b9050818103602083015262001b14818662001894565b9050818103604083015262001b2a818562001915565b9050818103606083015262001b40818462001894565b905095945050505050565b6000604082019050818103600083015262001b678185620019c0565b905062001b78602083018462001819565b9392505050565b6000602082019050818103600083015262001b9a8162001a01565b9050919050565b600060208201905062001bb8600083018462001a39565b92915050565b600060608201905062001bd5600083018662001a39565b62001be4602083018562001819565b818103604083015262001bf88184620019c0565b9050949350505050565b600060a08201905062001c19600083018862001a39565b62001c28602083018762001819565b818103604083015262001c3c8186620019c0565b905062001c4d606083018562001a39565b818103608083015262001c618184620019c0565b90509695505050505050565b600062001c7962001c8c565b905062001c87828262001f24565b919050565b6000604051905090565b600067ffffffffffffffff82111562001cb45762001cb362002006565b5b602082029050602081019050919050565b600067ffffffffffffffff82111562001ce35762001ce262002006565b5b62001cee8262002035565b9050602081019050919050565b6000819050602082019050919050565b6000819050602082019050919050565b6000819050602082019050919050565b600081519050919050565b600081519050919050565b600081519050919050565b600081519050919050565b6000602082019050919050565b6000602082019050919050565b6000602082019050919050565b600082825260208201905092915050565b600082825260208201905092915050565b600082825260208201905092915050565b600082825260208201905092915050565b600082825260208201905092915050565b600062001de08262001e9f565b915062001ded8362001e9f565b9250827fffffffffffffffffffffffffffffffffffffffffffffffffffffffffffffffff0382111562001e255762001e2462001fa8565b5b828201905092915050565b600062001e3d8262001e9f565b915062001e4a8362001e9f565b92508282101562001e605762001e5f62001fa8565b5b828203905092915050565b600062001e788262001e7f565b9050919050565b600073ffffffffffffffffffffffffffffffffffffffff82169050919050565b6000819050919050565b82818337600083830152505050565b60005b8381101562001ed857808201518184015260208101905062001ebb565b8381111562001ee8576000848401525b50505050565b6000600282049050600182168062001f0757607f821691505b6020821081141562001f1e5762001f1d62001fd7565b5b50919050565b62001f2f8262002035565b810181811067ffffffffffffffff8211171562001f515762001f5062002006565b5b80604052505050565b600062001f678262001e9f565b91507fffffffffffffffffffffffffffffffffffffffffffffffffffffffffffffffff82141562001f9d5762001f9c62001fa8565b5b600182019050919050565b7f4e487b7100000000000000000000000000000000000000000000000000000000600052601160045260246000fd5b7f4e487b7100000000000000000000000000000000000000000000000000000000600052602260045260246000fd5b7f4e487b7100000000000000000000000000000000000000000000000000000000600052604160045260246000fd5b6000601f19601f8301169050919050565b7f43616c6c65722063616e6e6f742073746172742066726f6d207a65726f20737460008201527f6172742066726f6d206f6e650000000000000000000000000000000000000000602082015250565b620020a08162001e6b565b8114620020ac57600080fd5b50565b620020ba8162001e9f565b8114620020c657600080fd5b5056fe60c06040523480156200001157600080fd5b50604051620040993803806200409983398181016040528101906200003791906200086c565b8560008060006101000a81548160ff021916908315150217905550620000a97f36a5c4aaacb6b388bbd448bf11096b7dafc5652bcc9046084fd0e95b1fb0b2cc7fd16e204b8a42a15ab0ea6bb8ec1ecdfbe69f38074fc865323af19efe7d9573d9620003a260201b62001ac21760201c565b620001007fd16e204b8a42a15ab0ea6bb8ec1ecdfbe69f38074fc865323af19efe7d9573d97fdc1958ce1178d6eb32ccc146dcea8933f1978155832913ec88fa509962e1b413620003a260201b62001ac21760201c565b620001577f15e007796fc034bf8274acdcfbd2f48124815698ba6f70c109f3423981a7052f7fdc1958ce1178d6eb32ccc146dcea8933f1978155832913ec88fa509962e1b413620003a260201b62001ac21760201c565b6200018e7fdc1958ce1178d6eb32ccc146dcea8933f1978155832913ec88fa509962e1b41380620003a260201b62001ac21760201c565b620001c57f15e007796fc034bf8274acdcfbd2f48124815698ba6f70c109f3423981a7052f826200040660201b62001b1e1760201c565b620001fc7fdc1958ce1178d6eb32ccc146dcea8933f1978155832913ec88fa509962e1b413826200040660201b62001b1e1760201c565b508251841462000238576040517f0e8cddf100000000000000000000000000000000000000000000000000000000815260040160405180910390fd5b8460029080519060200190620002509291906200058a565b50836003819055508260049080519060200190620002709291906200061b565b5081608081815250508073ffffffffffffffffffffffffffffffffffffffff1660a08173ffffffffffffffffffffffffffffffffffffffff1660601b8152505060005b8351811015620003955760006009858381518110620002fb577f4e487b7100000000000000000000000000000000000000000000000000000000600052603260045260246000fd5b60200260200101516040516200031291906200096b565b908152602001604051809103902090508482815181106200035c577f4e487b7100000000000000000000000000000000000000000000000000000000600052603260045260246000fd5b60200260200101518160000190805190602001906200037d9291906200058a565b505080806200038c9062000b08565b915050620002b3565b5050505050505062000c28565b6000620003b583620004f760201b60201c565b90508160016000858152602001908152602001600020600101819055508181847fbd79b86ffe0ab8e8776151514217cd7cacd52c909f66475c3af44e129f0b00ff60405160405180910390a4505050565b6200041882826200051760201b60201c565b620004f357600180600084815260200190815260200160002060000160008373ffffffffffffffffffffffffffffffffffffffff1673ffffffffffffffffffffffffffffffffffffffff16815260200190815260200160002060006101000a81548160ff021916908315150217905550620004986200058260201b60201c565b73ffffffffffffffffffffffffffffffffffffffff168173ffffffffffffffffffffffffffffffffffffffff16837f2f8788117e7eff1d82e926ec794901d17c78024a50270940304540a733656f0d60405160405180910390a45b5050565b600060016000838152602001908152602001600020600101549050919050565b60006001600084815260200190815260200160002060000160008373ffffffffffffffffffffffffffffffffffffffff1673ffffffffffffffffffffffffffffffffffffffff16815260200190815260200160002060009054906101000a900460ff16905092915050565b600033905090565b828054620005989062000a9c565b90600052602060002090601f016020900481019282620005bc576000855562000608565b82601f10620005d757805160ff191683800117855562000608565b8280016001018555821562000608579182015b8281111562000607578251825591602001919060010190620005ea565b5b50905062000617919062000682565b5090565b8280548282559060005260206000209081019282156200066f579160200282015b828111156200066e5782518290805190602001906200065d9291906200058a565b50916020019190600101906200063c565b5b5090506200067e9190620006a1565b5090565b5b808211156200069d57600081600090555060010162000683565b5090565b5b80821115620006c55760008181620006bb9190620006c9565b50600101620006a2565b5090565b508054620006d79062000a9c565b6000825580601f10620006eb57506200070c565b601f0160209004906000526020600020908101906200070b919062000682565b5b50565b6000620007266200072084620009ad565b62000984565b905080838252602082019050828560208602820111156200074657600080fd5b60005b858110156200079557815167ffffffffffffffff8111156200076a57600080fd5b80860162000779898262000828565b8552602085019450602084019350505060018101905062000749565b5050509392505050565b6000620007b6620007b084620009dc565b62000984565b905082815260208101848484011115620007cf57600080fd5b620007dc84828562000a66565b509392505050565b600081519050620007f58162000bf4565b92915050565b600082601f8301126200080d57600080fd5b81516200081f8482602086016200070f565b91505092915050565b600082601f8301126200083a57600080fd5b81516200084c8482602086016200079f565b91505092915050565b600081519050620008668162000c0e565b92915050565b60008060008060008060c087890312156200088657600080fd5b60006200089689828a01620007e4565b965050602087015167ffffffffffffffff811115620008b457600080fd5b620008c289828a0162000828565b9550506040620008d589828a0162000855565b945050606087015167ffffffffffffffff811115620008f357600080fd5b6200090189828a01620007fb565b93505060806200091489828a0162000855565b92505060a06200092789828a01620007e4565b9150509295509295509295565b6000620009418262000a12565b6200094d818562000a1d565b93506200095f81856020860162000a66565b80840191505092915050565b600062000979828462000934565b915081905092915050565b600062000990620009a3565b90506200099e828262000ad2565b919050565b6000604051905090565b600067ffffffffffffffff821115620009cb57620009ca62000bb4565b5b602082029050602081019050919050565b600067ffffffffffffffff821115620009fa57620009f962000bb4565b5b62000a058262000be3565b9050602081019050919050565b600081519050919050565b600081905092915050565b600062000a358262000a3c565b9050919050565b600073ffffffffffffffffffffffffffffffffffffffff82169050919050565b6000819050919050565b60005b8381101562000a8657808201518184015260208101905062000a69565b8381111562000a96576000848401525b50505050565b6000600282049050600182168062000ab557607f821691505b6020821081141562000acc5762000acb62000b85565b5b50919050565b62000add8262000be3565b810181811067ffffffffffffffff8211171562000aff5762000afe62000bb4565b5b80604052505050565b600062000b158262000a5c565b91507fffffffffffffffffffffffffffffffffffffffffffffffffffffffffffffffff82141562000b4b5762000b4a62000b56565b5b600182019050919050565b7f4e487b7100000000000000000000000000000000000000000000000000000000600052601160045260246000fd5b7f4e487b7100000000000000000000000000000000000000000000000000000000600052602260045260246000fd5b7f4e487b7100000000000000000000000000000000000000000000000000000000600052604160045260246000fd5b6000601f19601f8301169050919050565b62000bff8162000a28565b811462000c0b57600080fd5b50565b62000c198162000a5c565b811462000c2557600080fd5b50565b60805160a05160601c61344862000c516000396000611d0f01526000611d4b01526134486000f3fe608060405234801561001057600080fd5b50600436106101c45760003560e01c80635c975abb116100f9578063a217fddf11610097578063d547741f11610071578063d547741f14610487578063eb4439fb146104a3578063f7be43fb146104ad578063fc36e15b146104cb576101c4565b8063a217fddf1461042d578063c74465651461044b578063ca94e6a714610469576101c4565b80638456cb59116100d35780638456cb59146103b757806386e5c15a146103c157806391d14854146103df578063a097dc4b1461040f576101c4565b80635c975abb1461035d578063653721471461037b5780637cc3ae8c14610399576101c4565b806333ee3131116101665780633f4ba83a116101405780633f4ba83a146102e7578063531cbb12146102f1578063543cbb051461030f578063576cc4f21461032d576101c4565b806333ee3131146102a357806336568abe146102ad5780633e4f9cae146102c9576101c4565b80631fc26a56116101a25780631fc26a561461021f578063248a9ca31461023b5780632f2ff15d1461026b578063301aee0114610287576101c4565b806301ffc9a7146101c957806304cd1819146101f95780630d60b1d014610203575b600080fd5b6101e360048036038101906101de919061258b565b6104e7565b6040516101f09190612b41565b60405180910390f35b610201610561565b005b61021d600480360381019061021891906124e5565b610650565b005b610239600480360381019061023491906124e5565b610747565b005b61025560048036038101906102509190612526565b61083e565b6040516102629190612b5c565b60405180910390f35b6102856004803603810190610280919061254f565b61085e565b005b6102a1600480360381019061029c91906124e5565b610887565b005b6102ab61097e565b005b6102c760048036038101906102c2919061254f565b610b43565b005b6102d1610cf3565b6040516102de9190612b5c565b60405180910390f35b6102ef610d17565b005b6102f9610d54565b6040516103069190612b1f565b60405180910390f35b6103176111ad565b6040516103249190612b1f565b60405180910390f35b610347600480360381019061034291906124bc565b611388565b6040516103549190612b41565b60405180910390f35b6103656113a8565b6040516103729190612b41565b60405180910390f35b6103836113be565b6040516103909190612b1f565b60405180910390f35b6103a1611507565b6040516103ae9190612cd9565b60405180910390f35b6103bf61150d565b005b6103c961154a565b6040516103d69190612b5c565b60405180910390f35b6103f960048036038101906103f4919061254f565b61156e565b6040516104069190612b41565b60405180910390f35b6104176115d9565b6040516104249190612b5c565b60405180910390f35b6104356115fd565b6040516104429190612b5c565b60405180910390f35b610453611604565b6040516104609190612cd9565b60405180910390f35b61047161160a565b60405161047e9190612cd9565b60405180910390f35b6104a1600480360381019061049c919061254f565b611610565b005b6104ab6116a3565b005b6104b5611754565b6040516104c29190612b5c565b60405180910390f35b6104e560048036038101906104e091906125b4565b611778565b005b60007f7965db0b000000000000000000000000000000000000000000000000000000007bffffffffffffffffffffffffffffffffffffffffffffffffffffffff1916827bffffffffffffffffffffffffffffffffffffffffffffffffffffffff1916148061055a575061055982611bfe565b5b9050919050565b7fdc1958ce1178d6eb32ccc146dcea8933f1978155832913ec88fa509962e1b4136105938161058e611c68565b611c70565b60065460075414156105d1576040517f7fa0120200000000000000000000000000000000000000000000000000000000815260040160405180910390fd5b426007819055506106166040518060400160405280600581526020017f456e646564000000000000000000000000000000000000000000000000000000815250611d0d565b7f1057d4f16a6857731231320b2564bcdfb5051a137a4f8705a2d5b0813fabeea1426040516106459190612cd9565b60405180910390a150565b7fdc1958ce1178d6eb32ccc146dcea8933f1978155832913ec88fa509962e1b4136106828161067d611c68565b611c70565b60005b825181101561070b576106f87f15e007796fc034bf8274acdcfbd2f48124815698ba6f70c109f3423981a7052f8483815181106106eb577f4e487b7100000000000000000000000000000000000000000000000000000000600052603260045260246000fd5b602002602001015161085e565b808061070390613062565b915050610685565b507f5f5e39754c7e1865f8af3e41e829b0c163e67854b93f99ab4c75804928592d4a8260405161073b9190612afd565b60405180910390a15050565b7fd16e204b8a42a15ab0ea6bb8ec1ecdfbe69f38074fc865323af19efe7d9573d961077981610774611c68565b611c70565b60005b8251811015610802576107ef7f36a5c4aaacb6b388bbd448bf11096b7dafc5652bcc9046084fd0e95b1fb0b2cc8483815181106107e2577f4e487b7100000000000000000000000000000000000000000000000000000000600052603260045260246000fd5b602002602001015161085e565b80806107fa90613062565b91505061077c565b507f03754d1a0117cc47bdfac8251ab45273d3eab88e939e90833352c073b2680690826040516108329190612afd565b60405180910390a15050565b600060016000838152602001908152602001600020600101549050919050565b6108678261083e565b61087881610873611c68565b611c70565b6108828383611b1e565b505050565b7fdc1958ce1178d6eb32ccc146dcea8933f1978155832913ec88fa509962e1b4136108b9816108b4611c68565b611c70565b60005b82518110156109425761092f7fd16e204b8a42a15ab0ea6bb8ec1ecdfbe69f38074fc865323af19efe7d9573d9848381518110610922577f4e487b7100000000000000000000000000000000000000000000000000000000600052603260045260246000fd5b602002602001015161085e565b808061093a90613062565b9150506108bc565b507f426025bf71642554cad091b33bb9ad1245da42bc9f4dc5b7a7092699ff9bbb8a826040516109729190612afd565b60405180910390a15050565b600115156109ac7fdc1958ce1178d6eb32ccc146dcea8933f1978155832913ec88fa509962e1b4133361156e565b151514806109e75750600115156109e37fd16e204b8a42a15ab0ea6bb8ec1ecdfbe69f38074fc865323af19efe7d9573d93361156e565b1515145b80610a1f575060011515610a1b7f15e007796fc034bf8274acdcfbd2f48124815698ba6f70c109f3423981a7052f3361156e565b1515145b610a5e576040517f08c379a0000000000000000000000000000000000000000000000000000000008152600401610a5590612c79565b60405180910390fd5b6000600c8054905011610aa6576040517f08c379a0000000000000000000000000000000000000000000000000000000008152600401610a9d90612bd9565b60405180910390fd5b6001600560006101000a81548160ff021916908315150217905550610aff6040518060400160405280600d81526020017f526573756c747320726561647900000000000000000000000000000000000000815250611d0d565b426008819055507fa0543ff9d88187d65d46d85676726c9de861772108685cd6d63e0e9e4255cd1933600854604051610b39929190612ad4565b60405180910390a1565b7fdc1958ce1178d6eb32ccc146dcea8933f1978155832913ec88fa509962e1b413610b7581610b70611c68565b611c70565b7fdc1958ce1178d6eb32ccc146dcea8933f1978155832913ec88fa509962e1b4138314610bd7576040517f08c379a0000000000000000000000000000000000000000000000000000000008152600401610bce90612c59565b60405180910390fd5b610c017f15e007796fc034bf8274acdcfbd2f48124815698ba6f70c109f3423981a7052f8361156e565b610c40576040517f08c379a0000000000000000000000000000000000000000000000000000000008152600401610c3790612c39565b60405180910390fd5b610c6a7fdc1958ce1178d6eb32ccc146dcea8933f1978155832913ec88fa509962e1b41383611b1e565b610c947fdc1958ce1178d6eb32ccc146dcea8933f1978155832913ec88fa509962e1b41333611dbd565b8173ffffffffffffffffffffffffffffffffffffffff163373ffffffffffffffffffffffffffffffffffffffff167f53cb1046cc84eb7dcfb14a0610185dd97c2c40e311ef59a28c5622cf3942a3b860405160405180910390a3505050565b7f15e007796fc034bf8274acdcfbd2f48124815698ba6f70c109f3423981a7052f81565b7fdc1958ce1178d6eb32ccc146dcea8933f1978155832913ec88fa509962e1b413610d4981610d44611c68565b611c70565b610d51611e9f565b50565b606060011515610d847fdc1958ce1178d6eb32ccc146dcea8933f1978155832913ec88fa509962e1b4133361156e565b15151480610dbf575060011515610dbb7fd16e204b8a42a15ab0ea6bb8ec1ecdfbe69f38074fc865323af19efe7d9573d93361156e565b1515145b610dfe576040517f08c379a0000000000000000000000000000000000000000000000000000000008152600401610df590612c79565b60405180910390fd5b60065460075411610e44576040517f08c379a0000000000000000000000000000000000000000000000000000000008152600401610e3b90612cb9565b60405180910390fd5b6000600c8054905014610e8c576040517f08c379a0000000000000000000000000000000000000000000000000000000008152600401610e8390612c99565b60405180910390fd5b60005b60048054905081101561107c576000600960048381548110610eda577f4e487b7100000000000000000000000000000000000000000000000000000000600052603260045260246000fd5b90600052602060002001604051610ef19190612a68565b9081526020016040518091039020604051806040016040529081600082018054610f1a90612fff565b80601f0160208091040260200160405190810160405280929190818152602001828054610f4690612fff565b8015610f935780601f10610f6857610100808354040283529160200191610f93565b820191906000526020600020905b815481529060010190602001808311610f7657829003601f168201915b505050505081526020016001820154815250509050600b60048381548110610fe4577f4e487b7100000000000000000000000000000000000000000000000000000000600052603260045260246000fd5b90600052602060002001604051610ffb9190612a68565b908152602001604051809103902054816020018181525050600c819080600181540180825580915050600190039060005260206000209060020201600090919091909150600082015181600001908051906020019061105b9291906122dc565b5060208201518160010155505050808061107490613062565b915050610e8f565b507f3cc318d9b8d71dc636f657b849c7a6cedc964405e7a531c3a89900140a19ef77336040516110ac9190612ab9565b60405180910390a1600c805480602002602001604051908101604052809291908181526020016000905b828210156111a4578382906000526020600020906002020160405180604001604052908160008201805461110990612fff565b80601f016020809104026020016040519081016040528092919081815260200182805461113590612fff565b80156111825780601f1061115757610100808354040283529160200191611182565b820191906000526020600020905b81548152906001019060200180831161116557829003601f168201915b50505050508152602001600182015481525050815260200190600101906110d6565b50505050905090565b6060600115156111dd7fdc1958ce1178d6eb32ccc146dcea8933f1978155832913ec88fa509962e1b4133361156e565b151514806112185750600115156112147fd16e204b8a42a15ab0ea6bb8ec1ecdfbe69f38074fc865323af19efe7d9573d93361156e565b1515145b8061125057506001151561124c7f15e007796fc034bf8274acdcfbd2f48124815698ba6f70c109f3423981a7052f3361156e565b1515145b61128f576040517f08c379a000000000000000000000000000000000000000000000000000000000815260040161128690612c79565b60405180910390fd5b600c805480602002602001604051908101604052809291908181526020016000905b8282101561137f57838290600052602060002090600202016040518060400160405290816000820180546112e490612fff565b80601f016020809104026020016040519081016040528092919081815260200182805461131090612fff565b801561135d5780601f106113325761010080835404028352916020019161135d565b820191906000526020600020905b81548152906001019060200180831161134057829003601f168201915b50505050508152602001600182015481525050815260200190600101906112b1565b50505050905090565b600a6020528060005260406000206000915054906101000a900460ff1681565b60008060009054906101000a900460ff16905090565b606060001515600560009054906101000a900460ff161515141561140e576040517fb34ae8a900000000000000000000000000000000000000000000000000000000815260040160405180910390fd5b600c805480602002602001604051908101604052809291908181526020016000905b828210156114fe578382906000526020600020906002020160405180604001604052908160008201805461146390612fff565b80601f016020809104026020016040519081016040528092919081815260200182805461148f90612fff565b80156114dc5780601f106114b1576101008083540402835291602001916114dc565b820191906000526020600020905b8154815290600101906020018083116114bf57829003601f168201915b5050505050815260200160018201548152505081526020019060010190611430565b50505050905090565b60075481565b7fdc1958ce1178d6eb32ccc146dcea8933f1978155832913ec88fa509962e1b41361153f8161153a611c68565b611c70565b611547611f40565b50565b7fd16e204b8a42a15ab0ea6bb8ec1ecdfbe69f38074fc865323af19efe7d9573d981565b60006001600084815260200190815260200160002060000160008373ffffffffffffffffffffffffffffffffffffffff1673ffffffffffffffffffffffffffffffffffffffff16815260200190815260200160002060009054906101000a900460ff16905092915050565b7fdc1958ce1178d6eb32ccc146dcea8933f1978155832913ec88fa509962e1b41381565b6000801b81565b60065481565b60085481565b6116198261083e565b61162a81611625611c68565b611c70565b6116547fdc1958ce1178d6eb32ccc146dcea8933f1978155832913ec88fa509962e1b4138361156e565b15611694576040517f08c379a000000000000000000000000000000000000000000000000000000000815260040161168b90612bf9565b60405180910390fd5b61169e8383611dbd565b505050565b7fdc1958ce1178d6eb32ccc146dcea8933f1978155832913ec88fa509962e1b4136116d5816116d0611c68565b611c70565b4260068190555061171a6040518060400160405280600781526020017f5374617274656400000000000000000000000000000000000000000000000000815250611d0d565b7f99fafb32ed77fce26140b67282430931e99e54f3014114daf0a52639a5620ac1426040516117499190612cd9565b60405180910390a150565b7f36a5c4aaacb6b388bbd448bf11096b7dafc5652bcc9046084fd0e95b1fb0b2cc81565b600115156117a67fdc1958ce1178d6eb32ccc146dcea8933f1978155832913ec88fa509962e1b4133361156e565b1515141580156117e45750600115156117df7fd16e204b8a42a15ab0ea6bb8ec1ecdfbe69f38074fc865323af19efe7d9573d93361156e565b151514155b801561181e5750600115156118197f36a5c4aaacb6b388bbd448bf11096b7dafc5652bcc9046084fd0e95b1fb0b2cc3361156e565b151514155b80156118585750600115156118537f15e007796fc034bf8274acdcfbd2f48124815698ba6f70c109f3423981a7052f3361156e565b151514155b1561188f576040517f4ca8886700000000000000000000000000000000000000000000000000000000815260040160405180910390fd5b600060065414156118cc576040517f7fa0120200000000000000000000000000000000000000000000000000000000815260040160405180910390fd5b600754600654101561190a576040517f71a4141a00000000000000000000000000000000000000000000000000000000815260040160405180910390fd5b6119126113a8565b15611952576040517f08c379a000000000000000000000000000000000000000000000000000000000815260040161194990612c19565b60405180910390fd5b60011515600a60003373ffffffffffffffffffffffffffffffffffffffff1673ffffffffffffffffffffffffffffffffffffffff16815260200190815260200160002060009054906101000a900460ff16151514156119dd576040517f7c9a1cf900000000000000000000000000000000000000000000000000000000815260040160405180910390fd5b6000600b826040516119ef9190612a51565b9081526020016040518091039020549050600181611a0d9190612e65565b600b83604051611a1d9190612a51565b9081526020016040518091039020819055506001600a60003373ffffffffffffffffffffffffffffffffffffffff1673ffffffffffffffffffffffffffffffffffffffff16815260200190815260200160002060006101000a81548160ff0219169083151502179055507ff5b08346e1e6b0b55d07ce94e81fcb198d47fbbecfea3b9a476f454c86761ec433604051611ab69190612ab9565b60405180910390a15050565b6000611acd8361083e565b90508160016000858152602001908152602001600020600101819055508181847fbd79b86ffe0ab8e8776151514217cd7cacd52c909f66475c3af44e129f0b00ff60405160405180910390a4505050565b611b28828261156e565b611bfa57600180600084815260200190815260200160002060000160008373ffffffffffffffffffffffffffffffffffffffff1673ffffffffffffffffffffffffffffffffffffffff16815260200190815260200160002060006101000a81548160ff021916908315150217905550611b9f611c68565b73ffffffffffffffffffffffffffffffffffffffff168173ffffffffffffffffffffffffffffffffffffffff16837f2f8788117e7eff1d82e926ec794901d17c78024a50270940304540a733656f0d60405160405180910390a45b5050565b60007f01ffc9a7000000000000000000000000000000000000000000000000000000007bffffffffffffffffffffffffffffffffffffffffffffffffffffffff1916827bffffffffffffffffffffffffffffffffffffffffffffffffffffffff1916149050919050565b600033905090565b611c7a828261156e565b611d0957611c9f8173ffffffffffffffffffffffffffffffffffffffff166014611fe2565b611cad8360001c6020611fe2565b604051602001611cbe929190612a7f565b6040516020818303038152906040526040517f08c379a0000000000000000000000000000000000000000000000000000000008152600401611d009190612b77565b60405180910390fd5b5050565b7f000000000000000000000000000000000000000000000000000000000000000073ffffffffffffffffffffffffffffffffffffffff16632987024d7f0000000000000000000000000000000000000000000000000000000000000000836040518363ffffffff1660e01b8152600401611d88929190612cf4565b600060405180830381600087803b158015611da257600080fd5b505af1158015611db6573d6000803e3d6000fd5b5050505050565b611dc7828261156e565b15611e9b5760006001600084815260200190815260200160002060000160008373ffffffffffffffffffffffffffffffffffffffff1673ffffffffffffffffffffffffffffffffffffffff16815260200190815260200160002060006101000a81548160ff021916908315150217905550611e40611c68565b73ffffffffffffffffffffffffffffffffffffffff168173ffffffffffffffffffffffffffffffffffffffff16837ff6391f5c32d9c69d2a47ea670b442974b53935d1edc7fd64eb21e047a839171b60405160405180910390a45b5050565b611ea76113a8565b611ee6576040517f08c379a0000000000000000000000000000000000000000000000000000000008152600401611edd90612bb9565b60405180910390fd5b60008060006101000a81548160ff0219169083151502179055507f5db9ee0a495bf2e6ff9c91a7834c1ba4fdd244a5e8aa4e537bd38aeae4b073aa611f29611c68565b604051611f369190612ab9565b60405180910390a1565b611f486113a8565b15611f88576040517f08c379a0000000000000000000000000000000000000000000000000000000008152600401611f7f90612c19565b60405180910390fd5b60016000806101000a81548160ff0219169083151502179055507f62e78cea01bee320cd4e420270b5ea74000d11b0c9f74754ebdbfc544b05a258611fcb611c68565b604051611fd89190612ab9565b60405180910390a1565b606060006002836002611ff59190612ebb565b611fff9190612e65565b67ffffffffffffffff81111561203e577f4e487b7100000000000000000000000000000000000000000000000000000000600052604160045260246000fd5b6040519080825280601f01601f1916602001820160405280156120705781602001600182028036833780820191505090505b5090507f3000000000000000000000000000000000000000000000000000000000000000816000815181106120ce577f4e487b7100000000000000000000000000000000000000000000000000000000600052603260045260246000fd5b60200101907effffffffffffffffffffffffffffffffffffffffffffffffffffffffffffff1916908160001a9053507f780000000000000000000000000000000000000000000000000000000000000081600181518110612158577f4e487b7100000000000000000000000000000000000000000000000000000000600052603260045260246000fd5b60200101907effffffffffffffffffffffffffffffffffffffffffffffffffffffffffffff1916908160001a905350600060018460026121989190612ebb565b6121a29190612e65565b90505b600181111561228e577f3031323334353637383961626364656600000000000000000000000000000000600f86166010811061220a577f4e487b7100000000000000000000000000000000000000000000000000000000600052603260045260246000fd5b1a60f81b828281518110612247577f4e487b7100000000000000000000000000000000000000000000000000000000600052603260045260246000fd5b60200101907effffffffffffffffffffffffffffffffffffffffffffffffffffffffffffff1916908160001a905350600485901c94508061228790612fd5565b90506121a5565b50600084146122d2576040517f08c379a00000000000000000000000000000000000000000000000000000000081526004016122c990612b99565b60405180910390fd5b8091505092915050565b8280546122e890612fff565b90600052602060002090601f01602090048101928261230a5760008555612351565b82601f1061232357805160ff1916838001178555612351565b82800160010185558215612351579182015b82811115612350578251825591602001919060010190612335565b5b50905061235e9190612362565b5090565b5b8082111561237b576000816000905550600101612363565b5090565b600061239261238d84612d49565b612d24565b905080838252602082019050828560208602820111156123b157600080fd5b60005b858110156123e157816123c78882612429565b8452602084019350602083019250506001810190506123b4565b5050509392505050565b60006123fe6123f984612d75565b612d24565b90508281526020810184848401111561241657600080fd5b612421848285612f93565b509392505050565b600081359050612438816133cd565b92915050565b600082601f83011261244f57600080fd5b813561245f84826020860161237f565b91505092915050565b600081359050612477816133e4565b92915050565b60008135905061248c816133fb565b92915050565b600082601f8301126124a357600080fd5b81356124b38482602086016123eb565b91505092915050565b6000602082840312156124ce57600080fd5b60006124dc84828501612429565b91505092915050565b6000602082840312156124f757600080fd5b600082013567ffffffffffffffff81111561251157600080fd5b61251d8482850161243e565b91505092915050565b60006020828403121561253857600080fd5b600061254684828501612468565b91505092915050565b6000806040838503121561256257600080fd5b600061257085828601612468565b925050602061258185828601612429565b9150509250929050565b60006020828403121561259d57600080fd5b60006125ab8482850161247d565b91505092915050565b6000602082840312156125c657600080fd5b600082013567ffffffffffffffff8111156125e057600080fd5b6125ec84828501612492565b91505092915050565b60006126018383612621565b60208301905092915050565b600061261983836129f6565b905092915050565b61262a81612f15565b82525050565b61263981612f15565b82525050565b600061264a82612ddb565b6126548185612e16565b935061265f83612da6565b8060005b8381101561269057815161267788826125f5565b975061268283612dfc565b925050600181019050612663565b5085935050505092915050565b60006126a882612de6565b6126b28185612e27565b9350836020820285016126c485612db6565b8060005b8581101561270057848403895281516126e1858261260d565b94506126ec83612e09565b925060208a019950506001810190506126c8565b50829750879550505050505092915050565b61271b81612f27565b82525050565b61272a81612f33565b82525050565b600061273b82612df1565b6127458185612e38565b9350612755818560208601612fa2565b61275e81613138565b840191505092915050565b600061277482612df1565b61277e8185612e49565b935061278e818560208601612fa2565b61279781613138565b840191505092915050565b60006127ad82612df1565b6127b78185612e5a565b93506127c7818560208601612fa2565b80840191505092915050565b600081546127e081612fff565b6127ea8186612e5a565b94506001821660008114612805576001811461281657612849565b60ff19831686528186019350612849565b61281f85612dc6565b60005b8381101561284157815481890152600182019150602081019050612822565b838801955050505b50505092915050565b600061285f602083612e49565b915061286a82613149565b602082019050919050565b6000612882601483612e49565b915061288d82613172565b602082019050919050565b60006128a5601c83612e49565b91506128b08261319b565b602082019050919050565b60006128c8601f83612e49565b91506128d3826131c4565b602082019050919050565b60006128eb601083612e49565b91506128f6826131ed565b602082019050919050565b600061290e603683612e49565b915061291982613216565b604082019050919050565b6000612931602883612e49565b915061293c82613265565b604082019050919050565b6000612954602783612e49565b915061295f826132b4565b604082019050919050565b6000612977601783612e5a565b915061298282613303565b601782019050919050565b600061299a601883612e49565b91506129a58261332c565b602082019050919050565b60006129bd601183612e5a565b91506129c882613355565b601182019050919050565b60006129e0602983612e49565b91506129eb8261337e565b604082019050919050565b60006040830160008301518482036000860152612a138282612730565b9150506020830151612a286020860182612a33565b508091505092915050565b612a3c81612f89565b82525050565b612a4b81612f89565b82525050565b6000612a5d82846127a2565b915081905092915050565b6000612a7482846127d3565b915081905092915050565b6000612a8a8261296a565b9150612a9682856127a2565b9150612aa1826129b0565b9150612aad82846127a2565b91508190509392505050565b6000602082019050612ace6000830184612630565b92915050565b6000604082019050612ae96000830185612630565b612af66020830184612a42565b9392505050565b60006020820190508181036000830152612b17818461263f565b905092915050565b60006020820190508181036000830152612b39818461269d565b905092915050565b6000602082019050612b566000830184612712565b92915050565b6000602082019050612b716000830184612721565b92915050565b60006020820190508181036000830152612b918184612769565b905092915050565b60006020820190508181036000830152612bb281612852565b9050919050565b60006020820190508181036000830152612bd281612875565b9050919050565b60006020820190508181036000830152612bf281612898565b9050919050565b60006020820190508181036000830152612c12816128bb565b9050919050565b60006020820190508181036000830152612c32816128de565b9050919050565b60006020820190508181036000830152612c5281612901565b9050919050565b60006020820190508181036000830152612c7281612924565b9050919050565b60006020820190508181036000830152612c9281612947565b9050919050565b60006020820190508181036000830152612cb28161298d565b9050919050565b60006020820190508181036000830152612cd2816129d3565b9050919050565b6000602082019050612cee6000830184612a42565b92915050565b6000604082019050612d096000830185612a42565b8181036020830152612d1b8184612769565b90509392505050565b6000612d2e612d3f565b9050612d3a8282613031565b919050565b6000604051905090565b600067ffffffffffffffff821115612d6457612d63613109565b5b602082029050602081019050919050565b600067ffffffffffffffff821115612d9057612d8f613109565b5b612d9982613138565b9050602081019050919050565b6000819050602082019050919050565b6000819050602082019050919050565b60008190508160005260206000209050919050565b600081519050919050565b600081519050919050565b600081519050919050565b6000602082019050919050565b6000602082019050919050565b600082825260208201905092915050565b600082825260208201905092915050565b600082825260208201905092915050565b600082825260208201905092915050565b600081905092915050565b6000612e7082612f89565b9150612e7b83612f89565b9250827fffffffffffffffffffffffffffffffffffffffffffffffffffffffffffffffff03821115612eb057612eaf6130ab565b5b828201905092915050565b6000612ec682612f89565b9150612ed183612f89565b9250817fffffffffffffffffffffffffffffffffffffffffffffffffffffffffffffffff0483118215151615612f0a57612f096130ab565b5b828202905092915050565b6000612f2082612f69565b9050919050565b60008115159050919050565b6000819050919050565b60007fffffffff0000000000000000000000000000000000000000000000000000000082169050919050565b600073ffffffffffffffffffffffffffffffffffffffff82169050919050565b6000819050919050565b82818337600083830152505050565b60005b83811015612fc0578082015181840152602081019050612fa5565b83811115612fcf576000848401525b50505050565b6000612fe082612f89565b91506000821415612ff457612ff36130ab565b5b600182039050919050565b6000600282049050600182168061301757607f821691505b6020821081141561302b5761302a6130da565b5b50919050565b61303a82613138565b810181811067ffffffffffffffff8211171561305957613058613109565b5b80604052505050565b600061306d82612f89565b91507fffffffffffffffffffffffffffffffffffffffffffffffffffffffffffffffff8214156130a05761309f6130ab565b5b600182019050919050565b7f4e487b7100000000000000000000000000000000000000000000000000000000600052601160045260246000fd5b7f4e487b7100000000000000000000000000000000000000000000000000000000600052602260045260246000fd5b7f4e487b7100000000000000000000000000000000000000000000000000000000600052604160045260246000fd5b6000601f19601f8301169050919050565b7f537472696e67733a20686578206c656e67746820696e73756666696369656e74600082015250565b7f5061757361626c653a206e6f7420706175736564000000000000000000000000600082015250565b7f526573756c7420686173206e6f74206265656e20636f6d70696c656400000000600082015250565b7f43686169726d616e20726f6c652063616e6e6f74206265207265766f6b656400600082015250565b7f5061757361626c653a2070617573656400000000000000000000000000000000600082015250565b7f546865206164647265737320666f7220746865206e65772063686169726d616e60008201527f206973206e6f742061206469726563746f722079657400000000000000000000602082015250565b7f4f6e6c79207468652063686169726d616e20726f6c652063616e20626520726560008201527f6e6f756e6365642e000000000000000000000000000000000000000000000000602082015250565b7f41434345535320464f52205445414348455228732920414e442043484149524d60008201527f414e204f4e4c5900000000000000000000000000000000000000000000000000602082015250565b7f416363657373436f6e74726f6c3a206163636f756e7420000000000000000000600082015250565b7f526573756c747320616c726561647920636f6d70696c65640000000000000000600082015250565b7f206973206d697373696e6720726f6c6520000000000000000000000000000000600082015250565b7f456c656374696f6e207374696c6c206f6e676f696e67206f7220686173206e6f60008201527f7420737461727465640000000000000000000000000000000000000000000000602082015250565b6133d681612f15565b81146133e157600080fd5b50565b6133ed81612f33565b81146133f857600080fd5b50565b61340481612f3d565b811461340f57600080fd5b5056fea264697066735822122059dc062f4baf1e84cd4216cac6d6825302881728716fb54a02b93571f45eec8764736f6c63430008040033a2646970667358221220007790fd41c76f49c2a503b08bfaec2962c1f1a06d8e09a38040a70e623f6c9d64736f6c63430008040033",
  "linkReferences": {},
  "deployedLinkReferences": {}
}