{
  "_format": "hh-sol-artifact-1",
  "contractName": "ElectionFactory",
  "sourceName": "contracts/ElectionFactory.sol",
  "abi": [
    {
      "inputs": [],
      "stateMutability": "nonpayable",
      "type": "constructor"
    },
    {
      "inputs": [
        {
          "internalType": "address",
          "name": "caller",
          "type": "address"
        }
      ],
      "name": "NotAuthorised",
      "type": "error"
    },
    {
      "anonymous": false,
      "inputs": [
        {
          "indexed": false,
          "internalType": "uint256",
          "name": "id",
          "type": "uint256"
        },
        {
          "indexed": false,
          "internalType": "contract Election",
          "name": "election",
          "type": "address"
        },
        {
          "indexed": true,
          "internalType": "address",
          "name": "creator",
          "type": "address"
        },
        {
          "indexed": false,
          "internalType": "string",
          "name": "position",
          "type": "string"
        }
      ],
      "name": "CreateElection",
      "type": "event"
    },
    {
      "anonymous": false,
      "inputs": [
        {
          "indexed": true,
          "internalType": "address",
          "name": "oldOwner",
          "type": "address"
        },
        {
          "indexed": true,
          "internalType": "address",
          "name": "newOwner",
          "type": "address"
        }
      ],
      "name": "SetOwner",
      "type": "event"
    },
    {
      "inputs": [
        {
          "internalType": "string",
          "name": "_position",
          "type": "string"
        },
        {
          "internalType": "string[]",
          "name": "_contestants",
          "type": "string[]"
        }
      ],
      "name": "createElection",
      "outputs": [],
      "stateMutability": "nonpayable",
      "type": "function"
    },
    {
      "inputs": [],
      "name": "electionCount",
      "outputs": [
        {
          "internalType": "uint256",
          "name": "",
          "type": "uint256"
        }
      ],
      "stateMutability": "view",
      "type": "function"
    },
    {
      "inputs": [],
      "name": "owner",
      "outputs": [
        {
          "internalType": "address",
          "name": "",
          "type": "address"
        }
      ],
      "stateMutability": "view",
      "type": "function"
    },
    {
      "inputs": [
        {
          "internalType": "address",
          "name": "_owner",
          "type": "address"
        }
      ],
      "name": "setOwner",
      "outputs": [],
      "stateMutability": "nonpayable",
      "type": "function"
    }
  ],
  "bytecode": "0x608060405234801561001057600080fd5b506100437f1aa73bc9c94455e248ec6fd19f4b67309376de7758449f3e279d526f1e4d8c1460001b6100ec60201b60201c565b6100757ff9f84cc14a4046b1a32f1b8258feb365931ebab9de5822e4e5d323540ad5028260001b6100ec60201b60201c565b6100a77f5f97387de13982c459be690e4521b0b4ec8ee227a9af22777263ecea21df209b60001b6100ec60201b60201c565b336000806101000a81548173ffffffffffffffffffffffffffffffffffffffff021916908373ffffffffffffffffffffffffffffffffffffffff1602179055506100ef565b50565b6130a0806100fe6000396000f3fe60806040523480156200001157600080fd5b5060043610620000525760003560e01c806313af40351462000057578063349813b214620000775780638da5cb5b1462000097578063997d283014620000b9575b600080fd5b6200007560048036038101906200006f919062001050565b620000db565b005b6200009560048036038101906200008f91906200107c565b62000432565b005b620000a162000cfe565b604051620000b091906200123b565b60405180910390f35b620000c362000d22565b604051620000d29190620012c3565b60405180910390f35b620001097f816a12bde721a22edf38afafc2b1d9cede8db48dda398603ebd08cad7996ff8960001b62000d28565b620001377f198bbee587256cbefcca09c72466d9d7b933d9fb8686ed1415bf2e8ead8a105e60001b62000d28565b620001657f1649fee539a18a0d35f5ccbf9a7e7c25e84c8454624e962eb451f24b4d72537060001b62000d28565b60008054906101000a900473ffffffffffffffffffffffffffffffffffffffff1673ffffffffffffffffffffffffffffffffffffffff163373ffffffffffffffffffffffffffffffffffffffff16146200025457620001e77ffa9dd9c6c4d2478074f00a454866cb946cdae65c6ae9454146a0b6d99fc388ff60001b62000d28565b620002157f466c00770a44ee75037c9cde48f4c27131292483a8b37deb23c385ab82248cc960001b62000d28565b336040517f10ac49650000000000000000000000000000000000000000000000000000000081526004016200024b91906200123b565b60405180910390fd5b620002827fd2278d22c56acd30e12f69c01866fe97ec74a58093e687fe7f8e7d1b4dcc671d60001b62000d28565b620002b07ffb9d5e13cf53d897a61f8b345e5880fc36f66a7e9e57a235c13053d7be93f12c60001b62000d28565b620002de7f8d5da6d761494e8af18bdf45580013a2eea37a15b2d3a59566ed894a2361ad3960001b62000d28565b6200030c7f7f1c0876ac25729a883dc06dc05b784a5776d310c1322f2699c7079ae137d3cd60001b62000d28565b6200033a7f0a6e3b675e7090d2f3f8535b2eff1e918b6ff1e6cdd50bf8ed52ce3a64dc282060001b62000d28565b806000806101000a81548173ffffffffffffffffffffffffffffffffffffffff021916908373ffffffffffffffffffffffffffffffffffffffff160217905550620003a77ef271c2ad67e6656e05147c2382cc6a650f32567634a6f2787cb6147b3129c460001b62000d28565b620003d57fbddb6785d0ed7d96cf424240dd05f60ac7a0d24f91f52ec1bdf7c418dc819f6760001b62000d28565b8073ffffffffffffffffffffffffffffffffffffffff163373ffffffffffffffffffffffffffffffffffffffff167fcbf985117192c8f614a58aaf97226bb80a754772f5f6edf06f87c675f2e6c66360405160405180910390a350565b620004607f816a12bde721a22edf38afafc2b1d9cede8db48dda398603ebd08cad7996ff8960001b62000d28565b6200048e7f198bbee587256cbefcca09c72466d9d7b933d9fb8686ed1415bf2e8ead8a105e60001b62000d28565b620004bc7f1649fee539a18a0d35f5ccbf9a7e7c25e84c8454624e962eb451f24b4d72537060001b62000d28565b60008054906101000a900473ffffffffffffffffffffffffffffffffffffffff1673ffffffffffffffffffffffffffffffffffffffff163373ffffffffffffffffffffffffffffffffffffffff1614620005ab576200053e7ffa9dd9c6c4d2478074f00a454866cb946cdae65c6ae9454146a0b6d99fc388ff60001b62000d28565b6200056c7f466c00770a44ee75037c9cde48f4c27131292483a8b37deb23c385ab82248cc960001b62000d28565b336040517f10ac4965000000000000000000000000000000000000000000000000000000008152600401620005a291906200123b565b60405180910390fd5b620005d97fd2278d22c56acd30e12f69c01866fe97ec74a58093e687fe7f8e7d1b4dcc671d60001b62000d28565b620006077ffb9d5e13cf53d897a61f8b345e5880fc36f66a7e9e57a235c13053d7be93f12c60001b62000d28565b620006357f15cd65c955993ece5238e462d6a9397c60ca4cc5cda532dbd981addabad4558760001b62000d28565b620006637f8861641eb10d0f84edb86af7745aaf3b1c341a71f5afedbb70a1446e8d364a0d60001b62000d28565b620006917f20f99f4a8e8080c74e84d9c92d9e51a59d368f85d041a320c070c3391c9fe4e060001b62000d28565b60006002549050620006c67ff58a1df2b733b0e74b92963cd63c199fdb71bf5f7661c5349271d9a10ce3e9f360001b62000d28565b8080620006d3906200152f565b915050620007047f87807e229fde818d84a9a006dd71ea70c231e0636acca2c9754fba747583e5b760001b62000d28565b620007327fb1f5a43428b8024b5744cb2e3e72c12787ffc7131f49ff8431ae5fa15300e5c560001b62000d28565b6000338484518585604051620007489062000d2b565b6200075895949392919062001258565b604051809103906000f08015801562000775573d6000803e3d6000fd5b509050620007a67f8cfb5909ffe64b564629a38ed32ff3b68000588b83855175763f6f5a98a9d4da60001b62000d28565b620007d47f65ba3bf2cc99868c8f5c98c4d6b7d47dacd0be678134db8a787bcd3d229d2d5560001b62000d28565b620007de62000d39565b6200080c7f09faa5c8e52ef3ec8e9ac7e85c7d6fb542d3e8765b0a80fdd883e0b83d4f252e60001b62000d28565b6200083a7fcf5bb46690757a184949ee2e25b425e5f800dfdd35f53a5da3de346b4822e34560001b62000d28565b82816000018181525050620008727fa6bc6c7ac3ec77b3a1d78506a340819f2a875958b95628e705f51b92945b4ccb60001b62000d28565b620008a07f2089c551d6d558b665f37c7f80cea3e223d7f568177e664c90e3e2cd2c9cae6760001b62000d28565b81816020019073ffffffffffffffffffffffffffffffffffffffff16908173ffffffffffffffffffffffffffffffffffffffff1681525050620009067f67e648c20a33ed799300bb947dae6e5affb2e2eddff6a05b8ddf56d68a6fba8060001b62000d28565b620009347fcd3b541f418b4a5f345c6b028a8513afd85498b4ff977ae87d35850668f5290160001b62000d28565b8481604001819052506200096b7f5fa86efec36c894913fe72fa7877401af35112eb0474da6da478e0cb4a754a3e60001b62000d28565b620009997ff4f0700337d7ccb4d6bc07441fd72ab585e1c1bba9f8793fa94fd9831d341be360001b62000d28565b838160600181905250620009d07f41fc0febc769b40c4ab5a3921cfff8e120819c6ed7240e434f6d21177893436160001b62000d28565b620009fe7f7c1c2229d11a4b9d4af1de915a8031eb1806391274d5740516b822f1ce9c6d8860001b62000d28565b4281608001818152505062000a367fde899a73bb5dacf3015923ea0d795712eebb4529916e63e9a18eb9d92864c26660001b62000d28565b62000a647fa9d945c1e0884b4ca6e840f974111ad5d619bc94283f3fe2bf85fa533ead14e660001b62000d28565b6040518060400160405280600781526020017f50656e64696e67000000000000000000000000000000000000000000000000008152508160a0018190525062000ad07f4bab0dd14fa1c140395bb695cc679c01525dac308e97197d8f3564308063763d60001b62000d28565b62000afe7f6670f838925d0ff94fec4eeb910afb42db13ea5067c523986da119492ec6394e60001b62000d28565b60018190806001815401808255809150506001900390600052602060002090600602016000909190919091506000820151816000015560208201518160010160006101000a81548173ffffffffffffffffffffffffffffffffffffffff021916908373ffffffffffffffffffffffffffffffffffffffff160217905550604082015181600201908051906020019062000b9992919062000d85565b50606082015181600301908051906020019062000bb892919062000e16565b506080820151816004015560a082015181600501908051906020019062000be192919062000d85565b50505062000c127f49f78a715640804a6c1bf6328c09a5e60785037a232330c993474353e1b6439a60001b62000d28565b62000c407f7c1b92d8fa17e30f1840e621484fe102a1ffff7bec33c095a0f27a72dc3f6bad60001b62000d28565b8260028190555062000c757f26786518351c94939584d642e51dec7ec88239911febb2f88e69cc094537ddf460001b62000d28565b62000ca37fc03ced23462786784727a93265538e0467cc902ed28ca1a328f76301b8374a3960001b62000d28565b3373ffffffffffffffffffffffffffffffffffffffff167f0ff7cc20a51f447586c8f464561d79852e07453a2e01f9af806e219da319acfa84848860405162000cef93929190620012e0565b60405180910390a25050505050565b60008054906101000a900473ffffffffffffffffffffffffffffffffffffffff1681565b60025481565b50565b611a35806200163683390190565b6040518060c0016040528060008152602001600073ffffffffffffffffffffffffffffffffffffffff168152602001606081526020016060815260200160008152602001606081525090565b82805462000d9390620014c3565b90600052602060002090601f01602090048101928262000db7576000855562000e03565b82601f1062000dd257805160ff191683800117855562000e03565b8280016001018555821562000e03579182015b8281111562000e0257825182559160200191906001019062000de5565b5b50905062000e12919062000e7d565b5090565b82805482825590600052602060002090810192821562000e6a579160200282015b8281111562000e6957825182908051906020019062000e5892919062000d85565b509160200191906001019062000e37565b5b50905062000e79919062000e9c565b5090565b5b8082111562000e9857600081600090555060010162000e7e565b5090565b5b8082111562000ec0576000818162000eb6919062000ec4565b5060010162000e9d565b5090565b50805462000ed290620014c3565b6000825580601f1062000ee6575062000f07565b601f01602090049060005260206000209081019062000f06919062000e7d565b5b50565b600062000f2162000f1b846200134d565b62001324565b9050808382526020820190508285602086028201111562000f4157600080fd5b60005b8581101562000f9057813567ffffffffffffffff81111562000f6557600080fd5b80860162000f74898262001023565b8552602085019450602084019350505060018101905062000f44565b5050509392505050565b600062000fb162000fab846200137c565b62001324565b90508281526020810184848401111562000fca57600080fd5b62000fd78482856200147e565b509392505050565b60008135905062000ff0816200161b565b92915050565b600082601f8301126200100857600080fd5b81356200101a84826020860162000f0a565b91505092915050565b600082601f8301126200103557600080fd5b81356200104784826020860162000f9a565b91505092915050565b6000602082840312156200106357600080fd5b6000620010738482850162000fdf565b91505092915050565b600080604083850312156200109057600080fd5b600083013567ffffffffffffffff811115620010ab57600080fd5b620010b98582860162001023565b925050602083013567ffffffffffffffff811115620010d757600080fd5b620010e58582860162000ff6565b9150509250929050565b6000620010fd8383620011a8565b905092915050565b620011108162001418565b82525050565b60006200112382620013c2565b6200112f8185620013e5565b9350836020820285016200114385620013b2565b8060005b85811015620011855784840389528151620011638582620010ef565b94506200117083620013d8565b925060208a0199505060018101905062001147565b50829750879550505050505092915050565b620011a28162001456565b82525050565b6000620011b582620013cd565b620011c18185620013f6565b9350620011d38185602086016200148d565b620011de816200160a565b840191505092915050565b6000620011f682620013cd565b62001202818562001407565b9350620012148185602086016200148d565b6200121f816200160a565b840191505092915050565b62001235816200144c565b82525050565b600060208201905062001252600083018462001105565b92915050565b600060a0820190506200126f600083018862001105565b8181036020830152620012838187620011e9565b90506200129460408301866200122a565b8181036060830152620012a8818562001116565b9050620012b960808301846200122a565b9695505050505050565b6000602082019050620012da60008301846200122a565b92915050565b6000606082019050620012f760008301866200122a565b62001306602083018562001197565b81810360408301526200131a8184620011e9565b9050949350505050565b60006200133062001343565b90506200133e8282620014f9565b919050565b6000604051905090565b600067ffffffffffffffff8211156200136b576200136a620015db565b5b602082029050602081019050919050565b600067ffffffffffffffff8211156200139a5762001399620015db565b5b620013a5826200160a565b9050602081019050919050565b6000819050602082019050919050565b600081519050919050565b600081519050919050565b6000602082019050919050565b600082825260208201905092915050565b600082825260208201905092915050565b600082825260208201905092915050565b600062001425826200142c565b9050919050565b600073ffffffffffffffffffffffffffffffffffffffff82169050919050565b6000819050919050565b600062001463826200146a565b9050919050565b600062001477826200142c565b9050919050565b82818337600083830152505050565b60005b83811015620014ad57808201518184015260208101905062001490565b83811115620014bd576000848401525b50505050565b60006002820490506001821680620014dc57607f821691505b60208210811415620014f357620014f2620015ac565b5b50919050565b62001504826200160a565b810181811067ffffffffffffffff82111715620015265762001525620015db565b5b80604052505050565b60006200153c826200144c565b91507fffffffffffffffffffffffffffffffffffffffffffffffffffffffffffffffff8214156200157257620015716200157d565b5b600182019050919050565b7f4e487b7100000000000000000000000000000000000000000000000000000000600052601160045260246000fd5b7f4e487b7100000000000000000000000000000000000000000000000000000000600052602260045260246000fd5b7f4e487b7100000000000000000000000000000000000000000000000000000000600052604160045260246000fd5b6000601f19601f8301169050919050565b620016268162001418565b81146200163257600080fd5b5056fe60806040523480156200001157600080fd5b5060405162001a3538038062001a358339818101604052810190620000379190620005f1565b60008060006101000a81548160ff021916908315150217905550620000857f4e1f7c60a83764b67a30c53590581dbde934a02637ccb74b927896af1c96300060001b6200030c60201b60201c565b620000b97f205f1869ec4ac7dfbb80a038a0c8ba21f2e95acd4dc42a028640a6f3342b4b4c60001b6200030c60201b60201c565b620000ed7f55c9d9192d7934d57b014a9fb3f151be8aff6754c9fc8dc30da873e0635d88fc60001b6200030c60201b60201c565b815183146200015c576200012a7f3fd853892cf04600512336fc8dea9c72c3f62bf3103eb070a84421a303feeacc60001b6200030c60201b60201c565b6040517f2dc0756e00000000000000000000000000000000000000000000000000000000815260040160405180910390fd5b620001907f13008163af7c32851d9d1cc939e4522f7bc97329edda8e8174acb0277af11ffe60001b6200030c60201b60201c565b620001c47f23a0e25f136bd26f83c668075ad69703109270a3916c1847864e87f996d6174960001b6200030c60201b60201c565b620001f87ffbbf55d0c5a777fb5fe8be4523841f79acdd9d2f405ce57bd1230493465d1fe660001b6200030c60201b60201c565b8360019080519060200190620002109291906200030f565b50620002457f7593a63d870ac21bcc043b32190ffafdebebace14ab3ddb29788d72677c7e24e60001b6200030c60201b60201c565b620002797f26b383f5d6c405bd463da0703f43d7e1e4d98cfa7472a45ce4c99ba53b1081b760001b6200030c60201b60201c565b82600281905550620002b47f204a8beb0f6531dbe50c8d829b49be6a0e488f1062ee6f521bd9ea4057a0310660001b6200030c60201b60201c565b620002e87fbf5271effa6a9e232cf2b4ddcc9bdc7665ee1601fb6c39f73edcf629e2b8457b60001b6200030c60201b60201c565b816003908051906020019062000300929190620003a0565b505050505050620008b6565b50565b8280546200031d90620007a7565b90600052602060002090601f0160209004810192826200034157600085556200038d565b82601f106200035c57805160ff19168380011785556200038d565b828001600101855582156200038d579182015b828111156200038c5782518255916020019190600101906200036f565b5b5090506200039c919062000407565b5090565b828054828255906000526020600020908101928215620003f4579160200282015b82811115620003f3578251829080519060200190620003e29291906200030f565b5091602001919060010190620003c1565b5b50905062000403919062000426565b5090565b5b808211156200042257600081600090555060010162000408565b5090565b5b808211156200044a57600081816200044091906200044e565b5060010162000427565b5090565b5080546200045c90620007a7565b6000825580601f1062000470575062000491565b601f01602090049060005260206000209081019062000490919062000407565b5b50565b6000620004ab620004a584620006ce565b620006a5565b90508083825260208201905082856020860282011115620004cb57600080fd5b60005b858110156200051a57815167ffffffffffffffff811115620004ef57600080fd5b808601620004fe8982620005ad565b85526020850194506020840193505050600181019050620004ce565b5050509392505050565b60006200053b6200053584620006fd565b620006a5565b9050828152602081018484840111156200055457600080fd5b6200056184828562000771565b509392505050565b6000815190506200057a8162000882565b92915050565b600082601f8301126200059257600080fd5b8151620005a484826020860162000494565b91505092915050565b600082601f830112620005bf57600080fd5b8151620005d184826020860162000524565b91505092915050565b600081519050620005eb816200089c565b92915050565b600080600080600060a086880312156200060a57600080fd5b60006200061a8882890162000569565b955050602086015167ffffffffffffffff8111156200063857600080fd5b6200064688828901620005ad565b94505060406200065988828901620005da565b935050606086015167ffffffffffffffff8111156200067757600080fd5b620006858882890162000580565b92505060806200069888828901620005da565b9150509295509295909350565b6000620006b1620006c4565b9050620006bf8282620007dd565b919050565b6000604051905090565b600067ffffffffffffffff821115620006ec57620006eb62000842565b5b602082029050602081019050919050565b600067ffffffffffffffff8211156200071b576200071a62000842565b5b620007268262000871565b9050602081019050919050565b6000620007408262000747565b9050919050565b600073ffffffffffffffffffffffffffffffffffffffff82169050919050565b6000819050919050565b60005b838110156200079157808201518184015260208101905062000774565b83811115620007a1576000848401525b50505050565b60006002820490506001821680620007c057607f821691505b60208210811415620007d757620007d662000813565b5b50919050565b620007e88262000871565b810181811067ffffffffffffffff821117156200080a576200080962000842565b5b80604052505050565b7f4e487b7100000000000000000000000000000000000000000000000000000000600052602260045260246000fd5b7f4e487b7100000000000000000000000000000000000000000000000000000000600052604160045260246000fd5b6000601f19601f8301169050919050565b6200088d8162000733565b81146200089957600080fd5b50565b620008a78162000767565b8114620008b357600080fd5b50565b61116f80620008c66000396000f3fe608060405234801561001057600080fd5b50600436106100885760003560e01c8063531cbb121161005b578063531cbb121461013b5780635c975abb146101595780636537214714610177578063fc36e15b1461019557610088565b80630d60b1d01461008d5780631fc26a56146100bd578063301aee01146100ed57806333ee31311461011d575b600080fd5b6100a760048036038101906100a29190610b64565b6101c5565b6040516100b49190610d9d565b60405180910390f35b6100d760048036038101906100d29190610b64565b6101f8565b6040516100e49190610d9d565b60405180910390f35b61010760048036038101906101029190610b64565b61022b565b6040516101149190610d9d565b60405180910390f35b61012561025e565b6040516101329190610d9d565b60405180910390f35b61014361035e565b6040516101509190610d7b565b60405180910390f35b610161610598565b60405161016e9190610d9d565b60405180910390f35b61017f6105ae565b60405161018c9190610d7b565b60405180910390f35b6101af60048036038101906101aa9190610ba5565b61068a565b6040516101bc9190610d9d565b60405180910390f35b60006101f37fd0c7dd75139981ce02c456643b9bd7088170d950986ea55532a0df5028b7045260001b610a4e565b919050565b60006102267fc84349c811cf7094c130803c4260f4481e7d98663fba75dfc7922d5df4d2ea9060001b610a4e565b919050565b60006102597fbc15f556cc2958ca0db56a46f21093dd8b615fc41d0468a6dfde264e8bd23fbd60001b610a4e565b919050565b600061028c7f99b296dbfef784b38b0ae3ff12871d4e2d06efb96c98ecf6edac51c1f113040260001b610a4e565b6102b87f79711d7a129effced2a833185793164ffe4cb8764eb28c2ee166962f444e491b60001b610a4e565b6102e47f73a48380a55bf0a807ed7cddc2bbca70654e844c4032eedb463c4e42faf84a6160001b610a4e565b6001600460016101000a81548160ff02191690831515021790555061032b7f6d5d914e374ec96e683e51aa9296659d4b63a7d8c3eb33e295aec09f9ab157b160001b610a4e565b6103577f6b374b3708fbbe83c2666ca9374e416e89e372d3b6f9093826057fa8e152835c60001b610a4e565b6001905090565b606061038c7f8074142761d96ce6be78566b6ea09ead32ed36822ada715c307e34441a73e56060001b610a4e565b6103b87f47d5423ea48019a8b6d70217bc23c0af9d7ac4bbd6784aebcb3f5506c6e59fbe60001b610a4e565b6103e47f314edd7d4ee1686129737a6f9f03f585d3a3dc08c5f75e2da40f8cc2a03006fa60001b610a4e565b60005b6003805490508110156104e9576104207fe5be06577ac02f645642a3c0da671370f132880df5e776d957060806f6e9d35f60001b610a4e565b61044c7f05514f30cd1998c4cab7e049f9376c56a0199476516ff530e383c0f5cdacdf6860001b610a4e565b600760066003838154811061048a577f4e487b7100000000000000000000000000000000000000000000000000000000600052603260045260246000fd5b906000526020600020016040516104a19190610d64565b908152602001604051809103902054908060018154018082558091505060019003906000526020600020016000909190919091505580806104e190611012565b9150506103e7565b506105167f029831a4c476d1f725f06378caef5c9a0362346275be00108e14fc6a0f3e052b60001b610a4e565b6105427f16b875da67d817a67006abf1a714041e0363427010315b8d804a055cbab7e1f560001b610a4e565b600780548060200260200160405190810160405280929190818152602001828054801561058e57602002820191906000526020600020905b81548152602001906001019080831161057a575b5050505050905090565b60008060009054906101000a900460ff16905090565b60606105dc7ff3b1d4710053ff7ed819fd9eabd501e56d6d18534f461f8a96f0ed1f0a72369860001b610a4e565b6106087fbb6ba75235e8e444051d675d6d27169b5a60a6114f2b9d72078e600e7f7d1d9860001b610a4e565b6106347f324edb12f57f83ffc629fedae713f64e4c879bb48cffa97c12a70df11641d54360001b610a4e565b600780548060200260200160405190810160405280929190818152602001828054801561068057602002820191906000526020600020905b81548152602001906001019080831161066c575b5050505050905090565b6000610694610598565b156106d4576040517f08c379a00000000000000000000000000000000000000000000000000000000081526004016106cb90610db8565b60405180910390fd5b6107007f713eeecea9b97fd8d1260035abc338dbd3c5538258c10f86aabf99f9749d499060001b610a4e565b61072c7f49b09c1a3e14ff807046c63b4bc56c4ccc01c00563021a9008c169d8c8dd010a60001b610a4e565b6107587f45c5651ed2050f222cf5bc3b8ab7da2c86ef462a83a105ed67234e3f09a973d660001b610a4e565b60011515600560003373ffffffffffffffffffffffffffffffffffffffff1673ffffffffffffffffffffffffffffffffffffffff16815260200190815260200160002060009054906101000a900460ff161515141561080f576107dd7f460b09d226f29caf34c2eb840152430dd5e6d78a312aae427496194ac9f86c5060001b610a4e565b6040517f7c9a1cf900000000000000000000000000000000000000000000000000000000815260040160405180910390fd5b61083b7fed65fb2c3d2cd878f8f14ce52fd33f10552b0295fcccce2d33c6e9de3bc76bf660001b610a4e565b6108677f4f13e5dbbff61962ba9cbc35350f271c4c538b5d988b634c4774deed645bcb5a60001b610a4e565b6108937f481663c6c5b5b0724f9d9a929c8a732bd471735d3f6eb7e9833f59413ed1cf5060001b610a4e565b60006006836040516108a59190610d4d565b90815260200160405180910390205490506108e27f9fdeed62a1b72ec566bbb6e6305d2aeae557562d61e44755f1696eb551a0f6e460001b610a4e565b61090e7fe15d55d910ac9e01f0a8bd78e32e96ef22222063c4673a60b83c684e185c6c5760001b610a4e565b60018161091b9190610ecf565b60068460405161092b9190610d4d565b9081526020016040518091039020819055506109697fad8be4e4a04d597d88f859e5f2dca54108688f15dc440356210054088d8c3c6860001b610a4e565b6109957f9e8618631dfb0f6cad5c67269041263224137d55e4b3065e4c22de088a85f08860001b610a4e565b6001600560003373ffffffffffffffffffffffffffffffffffffffff1673ffffffffffffffffffffffffffffffffffffffff16815260200190815260200160002060006101000a81548160ff021916908315150217905550610a197f154aaf57295b5ec7179a43b5fe8815b0a7d64f9e660d37dd03c88e56eabafa0d60001b610a4e565b610a447e72d49a722f3b0d5fee10bda14a63a594b511e9104178a46aa9302a90f4ed0460001b610a4e565b6001915050919050565b50565b6000610a64610a5f84610dfd565b610dd8565b90508083825260208201905082856020860282011115610a8357600080fd5b60005b85811015610ab35781610a998882610afb565b845260208401935060208301925050600181019050610a86565b5050509392505050565b6000610ad0610acb84610e29565b610dd8565b905082815260208101848484011115610ae857600080fd5b610af3848285610f6d565b509392505050565b600081359050610b0a81611122565b92915050565b600082601f830112610b2157600080fd5b8135610b31848260208601610a51565b91505092915050565b600082601f830112610b4b57600080fd5b8135610b5b848260208601610abd565b91505092915050565b600060208284031215610b7657600080fd5b600082013567ffffffffffffffff811115610b9057600080fd5b610b9c84828501610b10565b91505092915050565b600060208284031215610bb757600080fd5b600082013567ffffffffffffffff811115610bd157600080fd5b610bdd84828501610b3a565b91505092915050565b6000610bf28383610d3e565b60208301905092915050565b6000610c0982610e7f565b610c138185610ea2565b9350610c1e83610e5a565b8060005b83811015610c4f578151610c368882610be6565b9750610c4183610e95565b925050600181019050610c22565b5085935050505092915050565b610c6581610f37565b82525050565b6000610c7682610e8a565b610c808185610ec4565b9350610c90818560208601610f7c565b80840191505092915050565b60008154610ca981610faf565b610cb38186610ec4565b94506001821660008114610cce5760018114610cdf57610d12565b60ff19831686528186019350610d12565b610ce885610e6a565b60005b83811015610d0a57815481890152600182019150602081019050610ceb565b838801955050505b50505092915050565b6000610d28601083610eb3565b9150610d33826110f9565b602082019050919050565b610d4781610f63565b82525050565b6000610d598284610c6b565b915081905092915050565b6000610d708284610c9c565b915081905092915050565b60006020820190508181036000830152610d958184610bfe565b905092915050565b6000602082019050610db26000830184610c5c565b92915050565b60006020820190508181036000830152610dd181610d1b565b9050919050565b6000610de2610df3565b9050610dee8282610fe1565b919050565b6000604051905090565b600067ffffffffffffffff821115610e1857610e176110b9565b5b602082029050602081019050919050565b600067ffffffffffffffff821115610e4457610e436110b9565b5b610e4d826110e8565b9050602081019050919050565b6000819050602082019050919050565b60008190508160005260206000209050919050565b600081519050919050565b600081519050919050565b6000602082019050919050565b600082825260208201905092915050565b600082825260208201905092915050565b600081905092915050565b6000610eda82610f63565b9150610ee583610f63565b9250827fffffffffffffffffffffffffffffffffffffffffffffffffffffffffffffffff03821115610f1a57610f1961105b565b5b828201905092915050565b6000610f3082610f43565b9050919050565b60008115159050919050565b600073ffffffffffffffffffffffffffffffffffffffff82169050919050565b6000819050919050565b82818337600083830152505050565b60005b83811015610f9a578082015181840152602081019050610f7f565b83811115610fa9576000848401525b50505050565b60006002820490506001821680610fc757607f821691505b60208210811415610fdb57610fda61108a565b5b50919050565b610fea826110e8565b810181811067ffffffffffffffff82111715611009576110086110b9565b5b80604052505050565b600061101d82610f63565b91507fffffffffffffffffffffffffffffffffffffffffffffffffffffffffffffffff8214156110505761104f61105b565b5b600182019050919050565b7f4e487b7100000000000000000000000000000000000000000000000000000000600052601160045260246000fd5b7f4e487b7100000000000000000000000000000000000000000000000000000000600052602260045260246000fd5b7f4e487b7100000000000000000000000000000000000000000000000000000000600052604160045260246000fd5b6000601f19601f8301169050919050565b7f5061757361626c653a2070617573656400000000000000000000000000000000600082015250565b61112b81610f25565b811461113657600080fd5b5056fea2646970667358221220522886114f387a086d678f7b1028f074a951027c7847286abaf578674bcaa87b64736f6c63430008040033a2646970667358221220db1dc5553ae796b94ad26adce5b0c6a99546ef7e02943b8bc3c2b9efd141813d64736f6c63430008040033",
  "linkReferences": {},
  "deployedLinkReferences": {}
}