{
  "_format": "hh-sol-artifact-1",
  "contractName": "ElectionFactory",
  "sourceName": "contracts/ElectionFactory.sol",
  "abi": [
    {
      "inputs": [],
      "stateMutability": "nonpayable",
      "type": "constructor"
    },
    {
      "inputs": [
        {
          "internalType": "address",
          "name": "caller",
          "type": "address"
        }
      ],
      "name": "NotAuthorised",
      "type": "error"
    },
    {
      "anonymous": false,
      "inputs": [
        {
          "indexed": false,
          "internalType": "uint256",
          "name": "id",
          "type": "uint256"
        },
        {
          "indexed": false,
          "internalType": "contract Election",
          "name": "election",
          "type": "address"
        },
        {
          "indexed": true,
          "internalType": "address",
          "name": "creator",
          "type": "address"
        },
        {
          "indexed": false,
          "internalType": "string",
          "name": "position",
          "type": "string"
        }
      ],
      "name": "CreateElection",
      "type": "event"
    },
    {
      "anonymous": false,
      "inputs": [
        {
          "indexed": true,
          "internalType": "address",
          "name": "oldOwner",
          "type": "address"
        },
        {
          "indexed": true,
          "internalType": "address",
          "name": "newOwner",
          "type": "address"
        }
      ],
      "name": "SetOwner",
      "type": "event"
    },
    {
      "inputs": [
        {
          "internalType": "string",
          "name": "_position",
          "type": "string"
        },
        {
          "internalType": "string[]",
          "name": "_contestants",
          "type": "string[]"
        }
      ],
      "name": "createElection",
      "outputs": [],
      "stateMutability": "nonpayable",
      "type": "function"
    },
    {
      "inputs": [],
      "name": "electionCount",
      "outputs": [
        {
          "internalType": "uint256",
          "name": "",
          "type": "uint256"
        }
      ],
      "stateMutability": "view",
      "type": "function"
    },
    {
      "inputs": [],
      "name": "owner",
      "outputs": [
        {
          "internalType": "address",
          "name": "",
          "type": "address"
        }
      ],
      "stateMutability": "view",
      "type": "function"
    },
    {
      "inputs": [
        {
          "internalType": "address",
          "name": "_owner",
          "type": "address"
        }
      ],
      "name": "setOwner",
      "outputs": [],
      "stateMutability": "nonpayable",
      "type": "function"
    }
  ],
  "bytecode": "0x608060405234801561001057600080fd5b50336000806101000a81548173ffffffffffffffffffffffffffffffffffffffff021916908373ffffffffffffffffffffffffffffffffffffffff1602179055506120f3806100606000396000f3fe60806040523480156200001157600080fd5b5060043610620000525760003560e01c806313af40351462000057578063349813b214620000775780638da5cb5b1462000097578063997d283014620000b9575b600080fd5b6200007560048036038101906200006f919062000838565b620000db565b005b6200009560048036038101906200008f919062000864565b6200020b565b005b620000a1620004e9565b604051620000b0919062000a23565b60405180910390f35b620000c36200050d565b604051620000d2919062000aab565b60405180910390f35b60008054906101000a900473ffffffffffffffffffffffffffffffffffffffff1673ffffffffffffffffffffffffffffffffffffffff163373ffffffffffffffffffffffffffffffffffffffff16146200016e57336040517f10ac496500000000000000000000000000000000000000000000000000000000815260040162000165919062000a23565b60405180910390fd5b806000806101000a81548173ffffffffffffffffffffffffffffffffffffffff021916908373ffffffffffffffffffffffffffffffffffffffff1602179055508073ffffffffffffffffffffffffffffffffffffffff163373ffffffffffffffffffffffffffffffffffffffff167fcbf985117192c8f614a58aaf97226bb80a754772f5f6edf06f87c675f2e6c66360405160405180910390a350565b60008054906101000a900473ffffffffffffffffffffffffffffffffffffffff1673ffffffffffffffffffffffffffffffffffffffff163373ffffffffffffffffffffffffffffffffffffffff16146200029e57336040517f10ac496500000000000000000000000000000000000000000000000000000000815260040162000295919062000a23565b60405180910390fd5b600060025490508080620002b29062000d17565b9150506000338484518585604051620002cb9062000513565b620002db95949392919062000a40565b604051809103906000f080158015620002f8573d6000803e3d6000fd5b5090506200030562000521565b8281600001818152505081816020019073ffffffffffffffffffffffffffffffffffffffff16908173ffffffffffffffffffffffffffffffffffffffff1681525050848160400181905250838160600181905250428160800181815250506040518060400160405280600781526020017f50656e64696e67000000000000000000000000000000000000000000000000008152508160a0018190525060018190806001815401808255809150506001900390600052602060002090600602016000909190919091506000820151816000015560208201518160010160006101000a81548173ffffffffffffffffffffffffffffffffffffffff021916908373ffffffffffffffffffffffffffffffffffffffff16021790555060408201518160020190805190602001906200043c9291906200056d565b5060608201518160030190805190602001906200045b929190620005fe565b506080820151816004015560a0820151816005019080519060200190620004849291906200056d565b505050826002819055503373ffffffffffffffffffffffffffffffffffffffff167f0ff7cc20a51f447586c8f464561d79852e07453a2e01f9af806e219da319acfa848488604051620004da9392919062000ac8565b60405180910390a25050505050565b60008054906101000a900473ffffffffffffffffffffffffffffffffffffffff1681565b60025481565b6112a08062000e1e83390190565b6040518060c0016040528060008152602001600073ffffffffffffffffffffffffffffffffffffffff168152602001606081526020016060815260200160008152602001606081525090565b8280546200057b9062000cab565b90600052602060002090601f0160209004810192826200059f5760008555620005eb565b82601f10620005ba57805160ff1916838001178555620005eb565b82800160010185558215620005eb579182015b82811115620005ea578251825591602001919060010190620005cd565b5b509050620005fa919062000665565b5090565b82805482825590600052602060002090810192821562000652579160200282015b8281111562000651578251829080519060200190620006409291906200056d565b50916020019190600101906200061f565b5b50905062000661919062000684565b5090565b5b808211156200068057600081600090555060010162000666565b5090565b5b80821115620006a857600081816200069e9190620006ac565b5060010162000685565b5090565b508054620006ba9062000cab565b6000825580601f10620006ce5750620006ef565b601f016020900490600052602060002090810190620006ee919062000665565b5b50565b600062000709620007038462000b35565b62000b0c565b905080838252602082019050828560208602820111156200072957600080fd5b60005b858110156200077857813567ffffffffffffffff8111156200074d57600080fd5b8086016200075c89826200080b565b855260208501945060208401935050506001810190506200072c565b5050509392505050565b600062000799620007938462000b64565b62000b0c565b905082815260208101848484011115620007b257600080fd5b620007bf84828562000c66565b509392505050565b600081359050620007d88162000e03565b92915050565b600082601f830112620007f057600080fd5b813562000802848260208601620006f2565b91505092915050565b600082601f8301126200081d57600080fd5b81356200082f84826020860162000782565b91505092915050565b6000602082840312156200084b57600080fd5b60006200085b84828501620007c7565b91505092915050565b600080604083850312156200087857600080fd5b600083013567ffffffffffffffff8111156200089357600080fd5b620008a1858286016200080b565b925050602083013567ffffffffffffffff811115620008bf57600080fd5b620008cd85828601620007de565b9150509250929050565b6000620008e5838362000990565b905092915050565b620008f88162000c00565b82525050565b60006200090b8262000baa565b62000917818562000bcd565b9350836020820285016200092b8562000b9a565b8060005b858110156200096d57848403895281516200094b8582620008d7565b9450620009588362000bc0565b925060208a019950506001810190506200092f565b50829750879550505050505092915050565b6200098a8162000c3e565b82525050565b60006200099d8262000bb5565b620009a9818562000bde565b9350620009bb81856020860162000c75565b620009c68162000df2565b840191505092915050565b6000620009de8262000bb5565b620009ea818562000bef565b9350620009fc81856020860162000c75565b62000a078162000df2565b840191505092915050565b62000a1d8162000c34565b82525050565b600060208201905062000a3a6000830184620008ed565b92915050565b600060a08201905062000a576000830188620008ed565b818103602083015262000a6b8187620009d1565b905062000a7c604083018662000a12565b818103606083015262000a908185620008fe565b905062000aa1608083018462000a12565b9695505050505050565b600060208201905062000ac2600083018462000a12565b92915050565b600060608201905062000adf600083018662000a12565b62000aee60208301856200097f565b818103604083015262000b028184620009d1565b9050949350505050565b600062000b1862000b2b565b905062000b26828262000ce1565b919050565b6000604051905090565b600067ffffffffffffffff82111562000b535762000b5262000dc3565b5b602082029050602081019050919050565b600067ffffffffffffffff82111562000b825762000b8162000dc3565b5b62000b8d8262000df2565b9050602081019050919050565b6000819050602082019050919050565b600081519050919050565b600081519050919050565b6000602082019050919050565b600082825260208201905092915050565b600082825260208201905092915050565b600082825260208201905092915050565b600062000c0d8262000c14565b9050919050565b600073ffffffffffffffffffffffffffffffffffffffff82169050919050565b6000819050919050565b600062000c4b8262000c52565b9050919050565b600062000c5f8262000c14565b9050919050565b82818337600083830152505050565b60005b8381101562000c9557808201518184015260208101905062000c78565b8381111562000ca5576000848401525b50505050565b6000600282049050600182168062000cc457607f821691505b6020821081141562000cdb5762000cda62000d94565b5b50919050565b62000cec8262000df2565b810181811067ffffffffffffffff8211171562000d0e5762000d0d62000dc3565b5b80604052505050565b600062000d248262000c34565b91507fffffffffffffffffffffffffffffffffffffffffffffffffffffffffffffffff82141562000d5a5762000d5962000d65565b5b600182019050919050565b7f4e487b7100000000000000000000000000000000000000000000000000000000600052601160045260246000fd5b7f4e487b7100000000000000000000000000000000000000000000000000000000600052602260045260246000fd5b7f4e487b7100000000000000000000000000000000000000000000000000000000600052604160045260246000fd5b6000601f19601f8301169050919050565b62000e0e8162000c00565b811462000e1a57600080fd5b5056fe60806040523480156200001157600080fd5b50604051620012a0380380620012a08339818101604052810190620000379190620003b2565b60008060006101000a81548160ff021916908315150217905550815183146200008c576040517f2dc0756e00000000000000000000000000000000000000000000000000000000815260040160405180910390fd5b8360019080519060200190620000a4929190620000d0565b50826002819055508160039080519060200190620000c492919062000161565b50505050505062000677565b828054620000de9062000568565b90600052602060002090601f0160209004810192826200010257600085556200014e565b82601f106200011d57805160ff19168380011785556200014e565b828001600101855582156200014e579182015b828111156200014d57825182559160200191906001019062000130565b5b5090506200015d9190620001c8565b5090565b828054828255906000526020600020908101928215620001b5579160200282015b82811115620001b4578251829080519060200190620001a3929190620000d0565b509160200191906001019062000182565b5b509050620001c49190620001e7565b5090565b5b80821115620001e3576000816000905550600101620001c9565b5090565b5b808211156200020b57600081816200020191906200020f565b50600101620001e8565b5090565b5080546200021d9062000568565b6000825580601f1062000231575062000252565b601f016020900490600052602060002090810190620002519190620001c8565b5b50565b60006200026c62000266846200048f565b62000466565b905080838252602082019050828560208602820111156200028c57600080fd5b60005b85811015620002db57815167ffffffffffffffff811115620002b057600080fd5b808601620002bf89826200036e565b855260208501945060208401935050506001810190506200028f565b5050509392505050565b6000620002fc620002f684620004be565b62000466565b9050828152602081018484840111156200031557600080fd5b6200032284828562000532565b509392505050565b6000815190506200033b8162000643565b92915050565b600082601f8301126200035357600080fd5b81516200036584826020860162000255565b91505092915050565b600082601f8301126200038057600080fd5b815162000392848260208601620002e5565b91505092915050565b600081519050620003ac816200065d565b92915050565b600080600080600060a08688031215620003cb57600080fd5b6000620003db888289016200032a565b955050602086015167ffffffffffffffff811115620003f957600080fd5b62000407888289016200036e565b94505060406200041a888289016200039b565b935050606086015167ffffffffffffffff8111156200043857600080fd5b620004468882890162000341565b925050608062000459888289016200039b565b9150509295509295909350565b60006200047262000485565b90506200048082826200059e565b919050565b6000604051905090565b600067ffffffffffffffff821115620004ad57620004ac62000603565b5b602082029050602081019050919050565b600067ffffffffffffffff821115620004dc57620004db62000603565b5b620004e78262000632565b9050602081019050919050565b6000620005018262000508565b9050919050565b600073ffffffffffffffffffffffffffffffffffffffff82169050919050565b6000819050919050565b60005b838110156200055257808201518184015260208101905062000535565b8381111562000562576000848401525b50505050565b600060028204905060018216806200058157607f821691505b60208210811415620005985762000597620005d4565b5b50919050565b620005a98262000632565b810181811067ffffffffffffffff82111715620005cb57620005ca62000603565b5b80604052505050565b7f4e487b7100000000000000000000000000000000000000000000000000000000600052602260045260246000fd5b7f4e487b7100000000000000000000000000000000000000000000000000000000600052604160045260246000fd5b6000601f19601f8301169050919050565b6200064e81620004f4565b81146200065a57600080fd5b50565b620006688162000528565b81146200067457600080fd5b50565b610c1980620006876000396000f3fe608060405234801561001057600080fd5b50600436106100885760003560e01c8063531cbb121161005b578063531cbb121461013b5780635c975abb146101595780636537214714610177578063fc36e15b1461019557610088565b80630d60b1d01461008d5780631fc26a56146100bd578063301aee01146100ed57806333ee31311461011d575b600080fd5b6100a760048036038101906100a2919061060e565b6101c5565b6040516100b49190610847565b60405180910390f35b6100d760048036038101906100d2919061060e565b6101cc565b6040516100e49190610847565b60405180910390f35b6101076004803603810190610102919061060e565b6101d3565b6040516101149190610847565b60405180910390f35b6101256101da565b6040516101329190610847565b60405180910390f35b6101436101fe565b6040516101509190610825565b60405180910390f35b610161610304565b60405161016e9190610847565b60405180910390f35b61017f61031a565b60405161018c9190610825565b60405180910390f35b6101af60048036038101906101aa919061064f565b610372565b6040516101bc9190610847565b60405180910390f35b6000919050565b6000919050565b6000919050565b60006001600460016101000a81548160ff0219169083151502179055506001905090565b606060005b6003805490508110156102ad57600760066003838154811061024e577f4e487b7100000000000000000000000000000000000000000000000000000000600052603260045260246000fd5b90600052602060002001604051610265919061080e565b908152602001604051809103902054908060018154018082558091505060019003906000526020600020016000909190919091505580806102a590610abc565b915050610203565b5060078054806020026020016040519081016040528092919081815260200182805480156102fa57602002820191906000526020600020905b8154815260200190600101908083116102e6575b5050505050905090565b60008060009054906101000a900460ff16905090565b6060600780548060200260200160405190810160405280929190818152602001828054801561036857602002820191906000526020600020905b815481526020019060010190808311610354575b5050505050905090565b600061037c610304565b156103bc576040517f08c379a00000000000000000000000000000000000000000000000000000000081526004016103b390610862565b60405180910390fd5b60011515600560003373ffffffffffffffffffffffffffffffffffffffff1673ffffffffffffffffffffffffffffffffffffffff16815260200190815260200160002060009054906101000a900460ff1615151415610447576040517f7c9a1cf900000000000000000000000000000000000000000000000000000000815260040160405180910390fd5b600060068360405161045991906107f7565b90815260200160405180910390205490506001816104779190610979565b60068460405161048791906107f7565b9081526020016040518091039020819055506001600560003373ffffffffffffffffffffffffffffffffffffffff1673ffffffffffffffffffffffffffffffffffffffff16815260200190815260200160002060006101000a81548160ff0219169083151502179055506001915050919050565b600061050e610509846108a7565b610882565b9050808382526020820190508285602086028201111561052d57600080fd5b60005b8581101561055d578161054388826105a5565b845260208401935060208301925050600181019050610530565b5050509392505050565b600061057a610575846108d3565b610882565b90508281526020810184848401111561059257600080fd5b61059d848285610a17565b509392505050565b6000813590506105b481610bcc565b92915050565b600082601f8301126105cb57600080fd5b81356105db8482602086016104fb565b91505092915050565b600082601f8301126105f557600080fd5b8135610605848260208601610567565b91505092915050565b60006020828403121561062057600080fd5b600082013567ffffffffffffffff81111561063a57600080fd5b610646848285016105ba565b91505092915050565b60006020828403121561066157600080fd5b600082013567ffffffffffffffff81111561067b57600080fd5b610687848285016105e4565b91505092915050565b600061069c83836107e8565b60208301905092915050565b60006106b382610929565b6106bd818561094c565b93506106c883610904565b8060005b838110156106f95781516106e08882610690565b97506106eb8361093f565b9250506001810190506106cc565b5085935050505092915050565b61070f816109e1565b82525050565b600061072082610934565b61072a818561096e565b935061073a818560208601610a26565b80840191505092915050565b6000815461075381610a59565b61075d818661096e565b945060018216600081146107785760018114610789576107bc565b60ff198316865281860193506107bc565b61079285610914565b60005b838110156107b457815481890152600182019150602081019050610795565b838801955050505b50505092915050565b60006107d260108361095d565b91506107dd82610ba3565b602082019050919050565b6107f181610a0d565b82525050565b60006108038284610715565b915081905092915050565b600061081a8284610746565b915081905092915050565b6000602082019050818103600083015261083f81846106a8565b905092915050565b600060208201905061085c6000830184610706565b92915050565b6000602082019050818103600083015261087b816107c5565b9050919050565b600061088c61089d565b90506108988282610a8b565b919050565b6000604051905090565b600067ffffffffffffffff8211156108c2576108c1610b63565b5b602082029050602081019050919050565b600067ffffffffffffffff8211156108ee576108ed610b63565b5b6108f782610b92565b9050602081019050919050565b6000819050602082019050919050565b60008190508160005260206000209050919050565b600081519050919050565b600081519050919050565b6000602082019050919050565b600082825260208201905092915050565b600082825260208201905092915050565b600081905092915050565b600061098482610a0d565b915061098f83610a0d565b9250827fffffffffffffffffffffffffffffffffffffffffffffffffffffffffffffffff038211156109c4576109c3610b05565b5b828201905092915050565b60006109da826109ed565b9050919050565b60008115159050919050565b600073ffffffffffffffffffffffffffffffffffffffff82169050919050565b6000819050919050565b82818337600083830152505050565b60005b83811015610a44578082015181840152602081019050610a29565b83811115610a53576000848401525b50505050565b60006002820490506001821680610a7157607f821691505b60208210811415610a8557610a84610b34565b5b50919050565b610a9482610b92565b810181811067ffffffffffffffff82111715610ab357610ab2610b63565b5b80604052505050565b6000610ac782610a0d565b91507fffffffffffffffffffffffffffffffffffffffffffffffffffffffffffffffff821415610afa57610af9610b05565b5b600182019050919050565b7f4e487b7100000000000000000000000000000000000000000000000000000000600052601160045260246000fd5b7f4e487b7100000000000000000000000000000000000000000000000000000000600052602260045260246000fd5b7f4e487b7100000000000000000000000000000000000000000000000000000000600052604160045260246000fd5b6000601f19601f8301169050919050565b7f5061757361626c653a2070617573656400000000000000000000000000000000600082015250565b610bd5816109cf565b8114610be057600080fd5b5056fea264697066735822122095a3b60d9ff96b3fed6c3260707ac88082c54d1a4c1d5f0d5099159514ae750464736f6c63430008040033a2646970667358221220598b0f69121d756bce0f9374b4c56e26d74fd9ea5f40e5413911150623be180b64736f6c63430008040033",
  "linkReferences": {},
  "deployedLinkReferences": {}
}