{
  "_format": "hh-sol-artifact-1",
  "contractName": "ElectionFactory",
  "sourceName": "contracts/ElectionFactory.sol",
  "abi": [
    {
      "inputs": [],
      "stateMutability": "nonpayable",
      "type": "constructor"
    },
    {
      "inputs": [],
      "name": "BadRequest",
      "type": "error"
    },
    {
      "inputs": [],
      "name": "NotAuthorised",
      "type": "error"
    },
    {
      "inputs": [
        {
          "internalType": "address",
          "name": "electionContract",
          "type": "address"
        }
      ],
      "name": "UnAuthorizedElectionContract",
      "type": "error"
    },
    {
      "anonymous": false,
      "inputs": [
        {
          "indexed": false,
          "internalType": "uint256",
          "name": "id",
          "type": "uint256"
        },
        {
          "indexed": false,
          "internalType": "address",
          "name": "electionAddress",
          "type": "address"
        },
        {
          "indexed": true,
          "internalType": "address",
          "name": "creator",
          "type": "address"
        },
        {
          "indexed": false,
          "internalType": "string",
          "name": "position",
          "type": "string"
        }
      ],
      "name": "CreateElection",
      "type": "event"
    },
    {
      "anonymous": false,
      "inputs": [
        {
          "indexed": true,
          "internalType": "address",
          "name": "oldOwner",
          "type": "address"
        },
        {
          "indexed": true,
          "internalType": "address",
          "name": "newOwner",
          "type": "address"
        }
      ],
      "name": "SetOwner",
      "type": "event"
    },
    {
      "anonymous": false,
      "inputs": [
        {
          "indexed": false,
          "internalType": "string",
          "name": "status",
          "type": "string"
        },
        {
          "indexed": false,
          "internalType": "address",
          "name": "electionAddress",
          "type": "address"
        }
      ],
      "name": "UpdateElectionStatus",
      "type": "event"
    },
    {
      "inputs": [
        {
          "internalType": "string",
          "name": "_position",
          "type": "string"
        },
        {
          "internalType": "string[]",
          "name": "_contestants",
          "type": "string[]"
        }
      ],
      "name": "createElection",
      "outputs": [],
      "stateMutability": "nonpayable",
      "type": "function"
    },
    {
      "inputs": [],
      "name": "electionCount",
      "outputs": [
        {
          "internalType": "uint256",
          "name": "",
          "type": "uint256"
        }
      ],
      "stateMutability": "view",
      "type": "function"
    },
    {
      "inputs": [
        {
          "internalType": "uint256",
          "name": "",
          "type": "uint256"
        }
      ],
      "name": "elections",
      "outputs": [
        {
          "internalType": "uint256",
          "name": "id",
          "type": "uint256"
        },
        {
          "internalType": "uint256",
          "name": "createdAt",
          "type": "uint256"
        },
        {
          "internalType": "address",
          "name": "electionAddress",
          "type": "address"
        },
        {
          "internalType": "string",
          "name": "position",
          "type": "string"
        },
        {
          "internalType": "string",
          "name": "status",
          "type": "string"
        }
      ],
      "stateMutability": "view",
      "type": "function"
    },
    {
      "inputs": [
        {
          "internalType": "uint256",
          "name": "_start",
          "type": "uint256"
        },
        {
          "internalType": "uint256",
          "name": "_length",
          "type": "uint256"
        }
      ],
      "name": "getElections",
      "outputs": [
        {
          "internalType": "address[]",
          "name": "electionAddress",
          "type": "address[]"
        },
        {
          "internalType": "string[]",
          "name": "position",
          "type": "string[]"
        },
        {
          "internalType": "uint256[]",
          "name": "createdAt",
          "type": "uint256[]"
        },
        {
          "internalType": "string[]",
          "name": "status",
          "type": "string[]"
        }
      ],
      "stateMutability": "view",
      "type": "function"
    },
    {
      "inputs": [],
      "name": "owner",
      "outputs": [
        {
          "internalType": "address",
          "name": "",
          "type": "address"
        }
      ],
      "stateMutability": "view",
      "type": "function"
    },
    {
      "inputs": [
        {
          "internalType": "address",
          "name": "_owner",
          "type": "address"
        }
      ],
      "name": "setOwner",
      "outputs": [],
      "stateMutability": "nonpayable",
      "type": "function"
    },
    {
      "inputs": [
        {
          "internalType": "uint256",
          "name": "_electionId",
          "type": "uint256"
        },
        {
          "internalType": "string",
          "name": "_status",
          "type": "string"
        }
      ],
      "name": "updateElectionStatus",
      "outputs": [],
      "stateMutability": "nonpayable",
      "type": "function"
    }
  ],
  "bytecode": "0x608060405234801561001057600080fd5b50600080546001600160a01b03191633179055613aef806100326000396000f3fe60806040523480156200001157600080fd5b5060043610620000875760003560e01c8063349813b21162000062578063349813b214620000ee5780635e6fef0114620001055780638da5cb5b146200012f578063997d2830146200015c57600080fd5b806313af4035146200008c5780632987024d14620000a55780633389810814620000bc575b600080fd5b620000a36200009d36600462001054565b62000175565b005b620000a3620000b636600462001147565b620001ec565b620000d3620000cd36600462001192565b620005c8565b604051620000e594939291906200125e565b60405180910390f35b620000a3620000ff36600462001312565b62000af4565b6200011c620001163660046200140a565b62000d6c565b604051620000e595949392919062001424565b60005462000143906001600160a01b031681565b6040516001600160a01b039091168152602001620000e5565b6200016660025481565b604051908152602001620000e5565b6000546001600160a01b03163314620001a157604051631648fd0160e01b815260040160405180910390fd5b600080546001600160a01b0319166001600160a01b0383169081178255604051909133917fcbf985117192c8f614a58aaf97226bb80a754772f5f6edf06f87c675f2e6c6639190a350565b60006001620001fc818562001489565b815481106200020f576200020f620014a3565b90600052602060002090600602016040518060c001604052908160008201548152602001600182015481526020016002820160009054906101000a90046001600160a01b03166001600160a01b03166001600160a01b031681526020016003820180546200027d90620014b9565b80601f0160208091040260200160405190810160405280929190818152602001828054620002ab90620014b9565b8015620002fc5780601f10620002d057610100808354040283529160200191620002fc565b820191906000526020600020905b815481529060010190602001808311620002de57829003601f168201915b505050505081526020016004820180546200031790620014b9565b80601f01602080910402602001604051908101604052809291908181526020018280546200034590620014b9565b8015620003965780601f106200036a5761010080835404028352916020019162000396565b820191906000526020600020905b8154815290600101906020018083116200037857829003601f168201915b5050505050815260200160058201805480602002602001604051908101604052809291908181526020016000905b828210156200047a578382906000526020600020018054620003e690620014b9565b80601f01602080910402602001604051908101604052809291908181526020018280546200041490620014b9565b8015620004655780601f10620004395761010080835404028352916020019162000465565b820191906000526020600020905b8154815290600101906020018083116200044757829003601f168201915b505050505081526020019060010190620003c4565b5050509152505060408101519091506001600160a01b03163314620004b857604051630f675fc960e21b815233600482015260240160405180910390fd5b60808101829052806001620004ce818662001489565b81548110620004e157620004e1620014a3565b600091825260209182902083516006929092020190815582820151600182015560408301516002820180546001600160a01b0319166001600160a01b03909216919091179055606083015180519192620005449260038501929091019062000edd565b50608082015180516200056291600484019160209091019062000edd565b5060a082015180516200058091600584019160209091019062000f6c565b509050507f51d0b387443c0e4650d01533d71a603b19792ca9ab3edccf48d15f8a4f750bb9828260400151604051620005bb929190620014f5565b60405180910390a1505050565b60608060608085600003620005f0576040516341cc6b2160e01b815260040160405180910390fd5b600154600062000601878962001521565b905080821015620006375762000618888362001489565b6200062590600162001521565b96506200063482600162001521565b90505b8667ffffffffffffffff81111562000653576200065362001086565b6040519080825280602002602001820160405280156200067d578160200160208202803683370190505b5095508667ffffffffffffffff8111156200069c576200069c62001086565b604051908082528060200260200182016040528015620006d157816020015b6060815260200190600190039081620006bb5790505b5094508667ffffffffffffffff811115620006f057620006f062001086565b6040519080825280602002602001820160405280156200071a578160200160208202803683370190505b5093508667ffffffffffffffff81111562000739576200073962001086565b6040519080825280602002602001820160405280156200076e57816020015b6060815260200190600190039081620007585790505b5092506000885b8281101562000ae757600060016200078e818462001489565b81548110620007a157620007a1620014a3565b90600052602060002090600602016040518060c001604052908160008201548152602001600182015481526020016002820160009054906101000a90046001600160a01b03166001600160a01b03166001600160a01b031681526020016003820180546200080f90620014b9565b80601f01602080910402602001604051908101604052809291908181526020018280546200083d90620014b9565b80156200088e5780601f1062000862576101008083540402835291602001916200088e565b820191906000526020600020905b8154815290600101906020018083116200087057829003601f168201915b50505050508152602001600482018054620008a990620014b9565b80601f0160208091040260200160405190810160405280929190818152602001828054620008d790620014b9565b8015620009285780601f10620008fc5761010080835404028352916020019162000928565b820191906000526020600020905b8154815290600101906020018083116200090a57829003601f168201915b5050505050815260200160058201805480602002602001604051908101604052809291908181526020016000905b8282101562000a0c5783829060005260206000200180546200097890620014b9565b80601f0160208091040260200160405190810160405280929190818152602001828054620009a690620014b9565b8015620009f75780601f10620009cb57610100808354040283529160200191620009f7565b820191906000526020600020905b815481529060010190602001808311620009d957829003601f168201915b50505050508152602001906001019062000956565b50505050815250509050806040015189848151811062000a305762000a30620014a3565b60200260200101906001600160a01b031690816001600160a01b031681525050806060015188848151811062000a6a5762000a6a620014a3565b6020026020010181905250806020015187848151811062000a8f5762000a8f620014a3565b602002602001018181525050806080015186848151811062000ab55762000ab5620014a3565b6020026020010181905250828062000acd906200153c565b93505050808062000ade906200153c565b91505062000775565b5050505092959194509250565b6000546001600160a01b0316331462000b2057604051631648fd0160e01b815260040160405180910390fd5b6002548062000b2f816200153c565b91505060003384845185853060405162000b499062000fcc565b62000b5a9695949392919062001558565b604051809103906000f08015801562000b77573d6000803e3d6000fd5b50905062000bbd6040518060c00160405280600081526020016000815260200160006001600160a01b031681526020016060815260200160608152602001606081525090565b8281526001600160a01b0380831660408084019182526060840188815260a085018890524260208087019182528351808501909452600784526650656e64696e6760c81b848201526080870193909352600180548082018255600091909152865160069091027fb10e2d527612073b26eecdfd717e6a320cf44b4afac2b0732d9fcbe2b7fa0cf6810191825591517fb10e2d527612073b26eecdfd717e6a320cf44b4afac2b0732d9fcbe2b7fa0cf783015593517fb10e2d527612073b26eecdfd717e6a320cf44b4afac2b0732d9fcbe2b7fa0cf882018054919096166001600160a01b031990911617909455518051859462000ce1937fb10e2d527612073b26eecdfd717e6a320cf44b4afac2b0732d9fcbe2b7fa0cf990910192019062000edd565b506080820151805162000cff91600484019160209091019062000edd565b5060a0820151805162000d1d91600584019160209091019062000f6c565b505050600283905560405133907f0ff7cc20a51f447586c8f464561d79852e07453a2e01f9af806e219da319acfa9062000d5d90869086908a90620015b2565b60405180910390a25050505050565b6001818154811062000d7d57600080fd5b6000918252602090912060069091020180546001820154600283015460038401805493955091936001600160a01b039091169290919062000dbe90620014b9565b80601f016020809104026020016040519081016040528092919081815260200182805462000dec90620014b9565b801562000e3d5780601f1062000e115761010080835404028352916020019162000e3d565b820191906000526020600020905b81548152906001019060200180831162000e1f57829003601f168201915b50505050509080600401805462000e5490620014b9565b80601f016020809104026020016040519081016040528092919081815260200182805462000e8290620014b9565b801562000ed35780601f1062000ea75761010080835404028352916020019162000ed3565b820191906000526020600020905b81548152906001019060200180831162000eb557829003601f168201915b5050505050905085565b82805462000eeb90620014b9565b90600052602060002090601f01602090048101928262000f0f576000855562000f5a565b82601f1062000f2a57805160ff191683800117855562000f5a565b8280016001018555821562000f5a579182015b8281111562000f5a57825182559160200191906001019062000f3d565b5062000f6892915062000fda565b5090565b82805482825590600052602060002090810192821562000fbe579160200282015b8281111562000fbe578251805162000fad91849160209091019062000edd565b509160200191906001019062000f8d565b5062000f6892915062000ff1565b6124d280620015e883390190565b5b8082111562000f68576000815560010162000fdb565b8082111562000f6857600062001008828262001012565b5060010162000ff1565b5080546200102090620014b9565b6000825580601f1062001031575050565b601f01602090049060005260206000209081019062001051919062000fda565b50565b6000602082840312156200106757600080fd5b81356001600160a01b03811681146200107f57600080fd5b9392505050565b634e487b7160e01b600052604160045260246000fd5b604051601f8201601f1916810167ffffffffffffffff81118282101715620010c857620010c862001086565b604052919050565b600082601f830112620010e257600080fd5b813567ffffffffffffffff811115620010ff57620010ff62001086565b62001114601f8201601f19166020016200109c565b8181528460208386010111156200112a57600080fd5b816020850160208301376000918101602001919091529392505050565b600080604083850312156200115b57600080fd5b82359150602083013567ffffffffffffffff8111156200117a57600080fd5b6200118885828601620010d0565b9150509250929050565b60008060408385031215620011a657600080fd5b50508035926020909101359150565b6000815180845260005b81811015620011dd57602081850181015186830182015201620011bf565b81811115620011f0576000602083870101525b50601f01601f19169290920160200192915050565b600081518084526020808501808196508360051b8101915082860160005b85811015620012515782840389526200123e848351620011b5565b9885019893509084019060010162001223565b5091979650505050505050565b6080808252855190820181905260009060209060a0840190828901845b82811015620012a25781516001600160a01b0316845292840192908401906001016200127b565b50505083810382850152620012b8818862001205565b8481036040860152865180825283880192509083019060005b81811015620012ef57835183529284019291840191600101620012d1565b5050848103606086015262001305818762001205565b9998505050505050505050565b600080604083850312156200132657600080fd5b823567ffffffffffffffff808211156200133f57600080fd5b6200134d86838701620010d0565b93506020915081850135818111156200136557600080fd5b8501601f810187136200137757600080fd5b8035828111156200138c576200138c62001086565b8060051b6200139d8582016200109c565b918252828101850191858101908a841115620013b857600080fd5b86850192505b83831015620013f957823586811115620013d85760008081fd5b620013e88c8983890101620010d0565b8352509186019190860190620013be565b809750505050505050509250929050565b6000602082840312156200141d57600080fd5b5035919050565b85815284602082015260018060a01b038416604082015260a0606082015260006200145360a0830185620011b5565b8281036080840152620014678185620011b5565b98975050505050505050565b634e487b7160e01b600052601160045260246000fd5b6000828210156200149e576200149e62001473565b500390565b634e487b7160e01b600052603260045260246000fd5b600181811c90821680620014ce57607f821691505b602082108103620014ef57634e487b7160e01b600052602260045260246000fd5b50919050565b6040815260006200150a6040830185620011b5565b905060018060a01b03831660208301529392505050565b6000821982111562001537576200153762001473565b500190565b60006001820162001551576200155162001473565b5060010190565b600060018060a01b03808916835260c060208401526200157c60c0840189620011b5565b876040850152838103606085015262001596818862001205565b6080850196909652509290921660a09091015250949350505050565b8381526001600160a01b0383166020820152606060408201819052600090620015de90830184620011b5565b9594505050505056fe60c06040523480156200001157600080fd5b50604051620024d2380380620024d283398101604081905262000034916200050d565b6000805460ff1916905585620000867f36a5c4aaacb6b388bbd448bf11096b7dafc5652bcc9046084fd0e95b1fb0b2cc60008051602062002492833981519152620001d3602090811b6200125017901c565b620000bb60008051602062002492833981519152600080516020620024b2833981519152620001d360201b620012501760201c565b620000f060008051602062002472833981519152600080516020620024b2833981519152620001d360201b620012501760201c565b62000116600080516020620024b283398151915280620001d360201b620012501760201c565b6200013c60008051602062002472833981519152826200022060201b6200129d1760201c565b62000162600080516020620024b2833981519152826200022060201b6200129d1760201c565b5082518414620001855760405163fe3fb87160e01b815260040160405180910390fd5b84516200019a906002906020880190620002a9565b5060048490558251620001b590600390602086019062000338565b506080919091526001600160a01b031660a052506200067f92505050565b6000828152600160208190526040808320909101805490849055905190918391839186917fbd79b86ffe0ab8e8776151514217cd7cacd52c909f66475c3af44e129f0b00ff9190a4505050565b60008281526001602090815260408083206001600160a01b038516845290915290205460ff16620002a55760008281526001602081815260408084206001600160a01b0386168086529252808420805460ff19169093179092559051339285917f2f8788117e7eff1d82e926ec794901d17c78024a50270940304540a733656f0d9190a45b5050565b828054620002b79062000643565b90600052602060002090601f016020900481019282620002db576000855562000326565b82601f10620002f657805160ff191683800117855562000326565b8280016001018555821562000326579182015b828111156200032657825182559160200191906001019062000309565b506200033492915062000398565b5090565b8280548282559060005260206000209081019282156200038a579160200282015b828111156200038a578251805162000379918491602090910190620002a9565b509160200191906001019062000359565b5062000334929150620003af565b5b8082111562000334576000815560010162000399565b8082111562000334576000620003c68282620003d0565b50600101620003af565b508054620003de9062000643565b6000825580601f10620003ef575050565b601f0160209004906000526020600020908101906200040f919062000398565b50565b80516001600160a01b03811681146200042a57600080fd5b919050565b634e487b7160e01b600052604160045260246000fd5b604051601f8201601f191681016001600160401b03811182821017156200047057620004706200042f565b604052919050565b600082601f8301126200048a57600080fd5b81516001600160401b03811115620004a657620004a66200042f565b6020620004bc601f8301601f1916820162000445565b8281528582848701011115620004d157600080fd5b60005b83811015620004f1578581018301518282018401528201620004d4565b83811115620005035760008385840101525b5095945050505050565b60008060008060008060c087890312156200052757600080fd5b620005328762000412565b60208801519096506001600160401b03808211156200055057600080fd5b6200055e8a838b0162000478565b96506040890151955060608901519150808211156200057c57600080fd5b818901915089601f8301126200059157600080fd5b815181811115620005a657620005a66200042f565b8060051b620005b86020820162000445565b9182526020818501810192908101908d841115620005d557600080fd5b6020860192505b838310156200061957825185811115620005f557600080fd5b620006068f6020838a010162000478565b83525060209283019290910190620005dc565b809850505050505050608087015191506200063760a0880162000412565b90509295509295509295565b600181811c908216806200065857607f821691505b6020821081036200067957634e487b7160e01b600052602260045260246000fd5b50919050565b60805160a051611dcd620006a56000396000611384015260006113b10152611dcd6000f3fe608060405234801561001057600080fd5b50600436106101da5760003560e01c80635c975abb11610104578063a217fddf116100a2578063d547741f11610071578063d547741f146103ab578063eb4439fb146103be578063f7be43fb146103c6578063fc36e15b146103ed57600080fd5b8063a217fddf14610371578063a4f676fc14610379578063c744656514610399578063ca94e6a7146103a257600080fd5b80638456cb59116100de5780638456cb591461032c57806386e5c15a1461033457806391d1485414610349578063a097dc4b1461035c57600080fd5b80635c975abb14610310578063653721471461031b5780637cc3ae8c1461032357600080fd5b8063301aee011161017c5780633f4ba83a1161014b5780633f4ba83a146102c8578063531cbb12146102d0578063543cbb05146102d8578063576cc4f2146102ed57600080fd5b8063301aee011461028557806333ee31311461029857806336568abe146102a05780633e4f9cae146102b357600080fd5b80630d60b1d0116101b85780630d60b1d0146102285780631fc26a561461023b578063248a9ca31461024e5780632f2ff15d1461027257600080fd5b806301ffc9a7146101df57806304cd1819146102075780630872629614610211575b600080fd5b6101f26101ed3660046117bc565b610400565b60405190151581526020015b60405180910390f35b61020f610437565b005b61021a60045481565b6040519081526020016101fe565b61020f610236366004611849565b6104d4565b61020f610249366004611849565b610578565b61021a61025c3660046118f6565b6000908152600160208190526040909120015490565b61020f61028036600461190f565b610615565b61020f610293366004611849565b610641565b61020f6106cc565b61020f6102ae36600461190f565b6107d9565b61021a600080516020611d3883398151915281565b61020f610953565b61020f610977565b6102e0610be7565b6040516101fe9190611997565b6101f26102fb366004611a0d565b60096020526000908152604090205460ff1681565b60005460ff166101f2565b6102e0610d5b565b61021a60065481565b61020f610e70565b61021a600080516020611d5883398151915281565b6101f261035736600461190f565b610e91565b61021a600080516020611d7883398151915281565b61021a600081565b61038c6103873660046118f6565b610ebc565b6040516101fe9190611a28565b61021a60055481565b61021a60075481565b61020f6103b936600461190f565b610f68565b61020f610ff4565b61021a7f36a5c4aaacb6b388bbd448bf11096b7dafc5652bcc9046084fd0e95b1fb0b2cc81565b61020f6103fb366004611a3b565b611068565b60006001600160e01b03198216637965db0b60e01b148061043157506301ffc9a760e01b6001600160e01b03198316145b92915050565b600080516020611d788339815191526104508133611309565b6005546006540361047457604051633fd0090160e11b815260040160405180910390fd5b42600655604080518082019091526005815264115b99195960da1b602082015261049d9061136d565b6040514281527f1057d4f16a6857731231320b2564bcdfb5051a137a4f8705a2d5b0813fabeea1906020015b60405180910390a150565b600080516020611d788339815191526104ed8133611309565b60005b825181101561053c5761052a600080516020611d3883398151915284838151811061051d5761051d611ad0565b602002602001015161129d565b8061053481611afc565b9150506104f0565b507f5f5e39754c7e1865f8af3e41e829b0c163e67854b93f99ab4c75804928592d4a8260405161056c9190611b15565b60405180910390a15050565b600080516020611d588339815191526105918133611309565b60005b82518110156105e5576105d37f36a5c4aaacb6b388bbd448bf11096b7dafc5652bcc9046084fd0e95b1fb0b2cc84838151811061051d5761051d611ad0565b806105dd81611afc565b915050610594565b507f03754d1a0117cc47bdfac8251ab45273d3eab88e939e90833352c073b26806908260405161056c9190611b15565b600082815260016020819052604090912001546106328133611309565b61063c838361129d565b505050565b600080516020611d7883398151915261065a8133611309565b60005b825181101561069c5761068a600080516020611d5883398151915284838151811061051d5761051d611ad0565b8061069481611afc565b91505061065d565b507f426025bf71642554cad091b33bb9ad1245da42bc9f4dc5b7a7092699ff9bbb8a8260405161056c9190611b15565b6106e4600080516020611d7883398151915233610e91565b1580156107065750610704600080516020611d5883398151915233610e91565b155b80156107275750610725600080516020611d3883398151915233610e91565b155b1561074557604051634ca8886760e01b815260040160405180910390fd5b600b54600003610768576040516355de47a560e01b815260040160405180910390fd5b6107966040518060400160405280600d81526020016c526573756c747320726561647960981b81525061136d565b4260078190556040805133815260208101929092527fa0543ff9d88187d65d46d85676726c9de861772108685cd6d63e0e9e4255cd1991015b60405180910390a1565b600080516020611d788339815191526107f28133611309565b600080516020611d7883398151915283146108655760405162461bcd60e51b815260206004820152602860248201527f4f6e6c79207468652063686169726d616e20726f6c652063616e2062652072656044820152673737bab731b2b21760c11b60648201526084015b60405180910390fd5b61087d600080516020611d3883398151915283610e91565b6108e85760405162461bcd60e51b815260206004820152603660248201527f546865206164647265737320666f7220746865206e65772063686169726d616e604482015275081a5cc81b9bdd081848191a5c9958dd1bdc881e595d60521b606482015260840161085c565b610900600080516020611d788339815191528361129d565b610918600080516020611d7883398151915233611410565b6040516001600160a01b0383169033907f53cb1046cc84eb7dcfb14a0610185dd97c2c40e311ef59a28c5622cf3942a3b890600090a3505050565b600080516020611d7883398151915261096c8133611309565b610974611477565b50565b61098f600080516020611d7883398151915233610e91565b1580156109b157506109af600080516020611d5883398151915233610e91565b155b156109cf57604051634ca8886760e01b815260040160405180910390fd5b600554600654116109f35760405163190ebdbd60e21b815260040160405180910390fd5b600b5415610a145760405163453b806f60e01b815260040160405180910390fd5b60005b600354811015610bb6576000600860038381548110610a3857610a38611ad0565b90600052602060002001604051610a4f9190611b9c565b9081526020016040518091039020604051806040016040529081600082018054610a7890611b62565b80601f0160208091040260200160405190810160405280929190818152602001828054610aa490611b62565b8015610af15780601f10610ac657610100808354040283529160200191610af1565b820191906000526020600020905b815481529060010190602001808311610ad457829003601f168201915b505050505081526020016001820154815250509050600a60038381548110610b1b57610b1b611ad0565b90600052602060002001604051610b329190611b9c565b9081526040519081900360209081019091205482820152600b805460018101825560009190915282518051849360029093027f0175b7a638427703f0dbe7bb9bbf987a2551717b34e79f33b5b1008d1fa01db90192610b95928492910190611723565b50602082015181600101555050508080610bae90611afc565b915050610a17565b506040513381527f3cc318d9b8d71dc636f657b849c7a6cedc964405e7a531c3a89900140a19ef77906020016107cf565b6060610c01600080516020611d7883398151915233610e91565b158015610c235750610c21600080516020611d5883398151915233610e91565b155b8015610c445750610c42600080516020611d3883398151915233610e91565b155b15610c6257604051634ca8886760e01b815260040160405180910390fd5b600b805480602002602001604051908101604052809291908181526020016000905b82821015610d525783829060005260206000209060020201604051806040016040529081600082018054610cb790611b62565b80601f0160208091040260200160405190810160405280929190818152602001828054610ce390611b62565b8015610d305780601f10610d0557610100808354040283529160200191610d30565b820191906000526020600020905b815481529060010190602001808311610d1357829003601f168201915b5050505050815260200160018201548152505081526020019060010190610c84565b50505050905090565b6060600754600003610d805760405163b34ae8a960e01b815260040160405180910390fd5b600b805480602002602001604051908101604052809291908181526020016000905b82821015610d525783829060005260206000209060020201604051806040016040529081600082018054610dd590611b62565b80601f0160208091040260200160405190810160405280929190818152602001828054610e0190611b62565b8015610e4e5780601f10610e2357610100808354040283529160200191610e4e565b820191906000526020600020905b815481529060010190602001808311610e3157829003601f168201915b5050505050815260200160018201548152505081526020019060010190610da2565b600080516020611d78833981519152610e898133611309565b610974611505565b60009182526001602090815260408084206001600160a01b0393909316845291905290205460ff1690565b60038181548110610ecc57600080fd5b906000526020600020016000915090508054610ee790611b62565b80601f0160208091040260200160405190810160405280929190818152602001828054610f1390611b62565b8015610f605780601f10610f3557610100808354040283529160200191610f60565b820191906000526020600020905b815481529060010190602001808311610f4357829003601f168201915b505050505081565b60008281526001602081905260409091200154610f858133611309565b610f9d600080516020611d7883398151915283610e91565b15610fea5760405162461bcd60e51b815260206004820152601f60248201527f43686169726d616e20726f6c652063616e6e6f74206265207265766f6b656400604482015260640161085c565b61063c8383611410565b600080516020611d7883398151915261100d8133611309565b4260055560408051808201909152600781526614dd185c9d195960ca1b60208201526110389061136d565b6040514281527f99fafb32ed77fce26140b67282430931e99e54f3014114daf0a52639a5620ac1906020016104c9565b611080600080516020611d7883398151915233610e91565b1580156110a257506110a0600080516020611d5883398151915233610e91565b155b80156110d557506110d37f36a5c4aaacb6b388bbd448bf11096b7dafc5652bcc9046084fd0e95b1fb0b2cc33610e91565b155b80156110f657506110f4600080516020611d3883398151915233610e91565b155b1561111457604051634ca8886760e01b815260040160405180910390fd5b60055460000361113757604051633fd0090160e11b815260040160405180910390fd5b600654600554101561115c576040516338d20a0d60e11b815260040160405180910390fd5b60005460ff16156111a25760405162461bcd60e51b815260206004820152601060248201526f14185d5cd8589b194e881c185d5cd95960821b604482015260640161085c565b3360009081526009602052604090205460ff16156111d357604051637c9a1cf960e01b815260040160405180910390fd5b600a816040516111e39190611c37565b908152604051908190036020019020805490600061120083611afc565b909155505033600081815260096020908152604091829020805460ff1916600117905590519182527ff5b08346e1e6b0b55d07ce94e81fcb198d47fbbecfea3b9a476f454c86761ec491016104c9565b6000828152600160208190526040808320909101805490849055905190918391839186917fbd79b86ffe0ab8e8776151514217cd7cacd52c909f66475c3af44e129f0b00ff9190a4505050565b6112a78282610e91565b6113055760008281526001602081815260408084206001600160a01b0386168086529252808420805460ff19169093179092559051339285917f2f8788117e7eff1d82e926ec794901d17c78024a50270940304540a733656f0d9190a45b5050565b6113138282610e91565b6113055761132b816001600160a01b03166014611580565b611336836020611580565b604051602001611347929190611c53565b60408051601f198184030181529082905262461bcd60e51b825261085c91600401611a28565b604051632987024d60e01b81526001600160a01b037f00000000000000000000000000000000000000000000000000000000000000001690632987024d906113db907f0000000000000000000000000000000000000000000000000000000000000000908590600401611cc8565b600060405180830381600087803b1580156113f557600080fd5b505af1158015611409573d6000803e3d6000fd5b5050505050565b61141a8282610e91565b156113055760008281526001602090815260408083206001600160a01b0385168085529252808320805460ff1916905551339285917ff6391f5c32d9c69d2a47ea670b442974b53935d1edc7fd64eb21e047a839171b9190a45050565b60005460ff166114c05760405162461bcd60e51b815260206004820152601460248201527314185d5cd8589b194e881b9bdd081c185d5cd95960621b604482015260640161085c565b6000805460ff191690557f5db9ee0a495bf2e6ff9c91a7834c1ba4fdd244a5e8aa4e537bd38aeae4b073aa335b6040516001600160a01b0390911681526020016107cf565b60005460ff161561154b5760405162461bcd60e51b815260206004820152601060248201526f14185d5cd8589b194e881c185d5cd95960821b604482015260640161085c565b6000805460ff191660011790557f62e78cea01bee320cd4e420270b5ea74000d11b0c9f74754ebdbfc544b05a2586114ed3390565b6060600061158f836002611ce9565b61159a906002611d08565b67ffffffffffffffff8111156115b2576115b26117e6565b6040519080825280601f01601f1916602001820160405280156115dc576020820181803683370190505b509050600360fc1b816000815181106115f7576115f7611ad0565b60200101906001600160f81b031916908160001a905350600f60fb1b8160018151811061162657611626611ad0565b60200101906001600160f81b031916908160001a905350600061164a846002611ce9565b611655906001611d08565b90505b60018111156116cd576f181899199a1a9b1b9c1cb0b131b232b360811b85600f166010811061168957611689611ad0565b1a60f81b82828151811061169f5761169f611ad0565b60200101906001600160f81b031916908160001a90535060049490941c936116c681611d20565b9050611658565b50831561171c5760405162461bcd60e51b815260206004820181905260248201527f537472696e67733a20686578206c656e67746820696e73756666696369656e74604482015260640161085c565b9392505050565b82805461172f90611b62565b90600052602060002090601f0160209004810192826117515760008555611797565b82601f1061176a57805160ff1916838001178555611797565b82800160010185558215611797579182015b8281111561179757825182559160200191906001019061177c565b506117a39291506117a7565b5090565b5b808211156117a357600081556001016117a8565b6000602082840312156117ce57600080fd5b81356001600160e01b03198116811461171c57600080fd5b634e487b7160e01b600052604160045260246000fd5b604051601f8201601f1916810167ffffffffffffffff81118282101715611825576118256117e6565b604052919050565b80356001600160a01b038116811461184457600080fd5b919050565b6000602080838503121561185c57600080fd5b823567ffffffffffffffff8082111561187457600080fd5b818501915085601f83011261188857600080fd5b81358181111561189a5761189a6117e6565b8060051b91506118ab8483016117fc565b81815291830184019184810190888411156118c557600080fd5b938501935b838510156118ea576118db8561182d565b825293850193908501906118ca565b98975050505050505050565b60006020828403121561190857600080fd5b5035919050565b6000806040838503121561192257600080fd5b823591506119326020840161182d565b90509250929050565b60005b8381101561195657818101518382015260200161193e565b83811115611965576000848401525b50505050565b6000815180845261198381602086016020860161193b565b601f01601f19169290920160200192915050565b60006020808301818452808551808352604092508286019150828160051b87010184880160005b838110156119ff57888303603f19018552815180518785526119e28886018261196b565b9189015194890194909452948701949250908601906001016119be565b509098975050505050505050565b600060208284031215611a1f57600080fd5b61171c8261182d565b60208152600061171c602083018461196b565b60006020808385031215611a4e57600080fd5b823567ffffffffffffffff80821115611a6657600080fd5b818501915085601f830112611a7a57600080fd5b813581811115611a8c57611a8c6117e6565b611a9e601f8201601f191685016117fc565b91508082528684828501011115611ab457600080fd5b8084840185840137600090820190930192909252509392505050565b634e487b7160e01b600052603260045260246000fd5b634e487b7160e01b600052601160045260246000fd5b600060018201611b0e57611b0e611ae6565b5060010190565b6020808252825182820181905260009190848201906040850190845b81811015611b565783516001600160a01b031683529284019291840191600101611b31565b50909695505050505050565b600181811c90821680611b7657607f821691505b602082108103611b9657634e487b7160e01b600052602260045260246000fd5b50919050565b600080835481600182811c915080831680611bb857607f831692505b60208084108203611bd757634e487b7160e01b86526022600452602486fd5b818015611beb5760018114611bfc57611c29565b60ff19861689528489019650611c29565b60008a81526020902060005b86811015611c215781548b820152908501908301611c08565b505084890196505b509498975050505050505050565b60008251611c4981846020870161193b565b9190910192915050565b7f416363657373436f6e74726f6c3a206163636f756e7420000000000000000000815260008351611c8b81601785016020880161193b565b7001034b99036b4b9b9b4b733903937b6329607d1b6017918401918201528351611cbc81602884016020880161193b565b01602801949350505050565b828152604060208201526000611ce1604083018461196b565b949350505050565b6000816000190483118215151615611d0357611d03611ae6565b500290565b60008219821115611d1b57611d1b611ae6565b500190565b600081611d2f57611d2f611ae6565b50600019019056fe15e007796fc034bf8274acdcfbd2f48124815698ba6f70c109f3423981a7052fd16e204b8a42a15ab0ea6bb8ec1ecdfbe69f38074fc865323af19efe7d9573d9dc1958ce1178d6eb32ccc146dcea8933f1978155832913ec88fa509962e1b413a2646970667358221220a7f08026bca83a80608f1b180a764e4ea7d659712419081bcad4ad316ec3780c64736f6c634300080d003315e007796fc034bf8274acdcfbd2f48124815698ba6f70c109f3423981a7052fd16e204b8a42a15ab0ea6bb8ec1ecdfbe69f38074fc865323af19efe7d9573d9dc1958ce1178d6eb32ccc146dcea8933f1978155832913ec88fa509962e1b413a2646970667358221220ed80013715952951c6fae9d29ae38f7319adae21598fba0498c015d43eaeef3664736f6c634300080d0033",
  "linkReferences": {},
  "deployedLinkReferences": {}
}