{
  "_format": "hh-sol-artifact-1",
  "contractName": "ElectionFactory",
  "sourceName": "contracts/ElectionFactory.sol",
  "abi": [
    {
      "inputs": [],
      "stateMutability": "nonpayable",
      "type": "constructor"
    },
    {
      "inputs": [
        {
          "internalType": "address",
          "name": "caller",
          "type": "address"
        }
      ],
      "name": "NotAuthorised",
      "type": "error"
    },
    {
      "anonymous": false,
      "inputs": [
        {
          "indexed": false,
          "internalType": "uint256",
          "name": "id",
          "type": "uint256"
        },
        {
          "indexed": false,
          "internalType": "contract Election",
          "name": "election",
          "type": "address"
        },
        {
          "indexed": true,
          "internalType": "address",
          "name": "creator",
          "type": "address"
        },
        {
          "indexed": false,
          "internalType": "string",
          "name": "position",
          "type": "string"
        }
      ],
      "name": "CreateElection",
      "type": "event"
    },
    {
      "anonymous": false,
      "inputs": [
        {
          "indexed": true,
          "internalType": "address",
          "name": "oldOwner",
          "type": "address"
        },
        {
          "indexed": true,
          "internalType": "address",
          "name": "newOwner",
          "type": "address"
        }
      ],
      "name": "SetOwner",
      "type": "event"
    },
    {
      "inputs": [],
      "name": "allElections",
      "outputs": [
        {
          "components": [
            {
              "internalType": "uint256",
              "name": "id",
              "type": "uint256"
            },
            {
              "internalType": "contract Election",
              "name": "electionAddress",
              "type": "address"
            },
            {
              "internalType": "string",
              "name": "position",
              "type": "string"
            },
            {
              "internalType": "string[]",
              "name": "contestants",
              "type": "string[]"
            },
            {
              "internalType": "uint256",
              "name": "createdAt",
              "type": "uint256"
            },
            {
              "internalType": "string",
              "name": "status",
              "type": "string"
            }
          ],
          "internalType": "struct ElectionFactory.ElectionDetails[]",
          "name": "",
          "type": "tuple[]"
        }
      ],
      "stateMutability": "view",
      "type": "function"
    },
    {
      "inputs": [
        {
          "internalType": "string",
          "name": "_position",
          "type": "string"
        },
        {
          "internalType": "string[]",
          "name": "_contestants",
          "type": "string[]"
        },
        {
          "internalType": "address[]",
          "name": "_contestantsAddress",
          "type": "address[]"
        }
      ],
      "name": "createElection",
      "outputs": [
        {
          "internalType": "address",
          "name": "",
          "type": "address"
        }
      ],
      "stateMutability": "nonpayable",
      "type": "function"
    },
    {
      "inputs": [],
      "name": "electionCount",
      "outputs": [
        {
          "internalType": "uint256",
          "name": "",
          "type": "uint256"
        }
      ],
      "stateMutability": "view",
      "type": "function"
    },
    {
      "inputs": [],
      "name": "owner",
      "outputs": [
        {
          "internalType": "address",
          "name": "",
          "type": "address"
        }
      ],
      "stateMutability": "view",
      "type": "function"
    },
    {
      "inputs": [
        {
          "internalType": "address",
          "name": "_owner",
          "type": "address"
        }
      ],
      "name": "setOwner",
      "outputs": [],
      "stateMutability": "nonpayable",
      "type": "function"
    }
  ],
  "bytecode": "0x608060405234801561001057600080fd5b50336000806101000a81548173ffffffffffffffffffffffffffffffffffffffff021916908373ffffffffffffffffffffffffffffffffffffffff160217905550614a4c806100606000396000f3fe60806040523480156200001157600080fd5b50600436106200005e5760003560e01c806313af40351462000063578063379b721d14620000835780638da5cb5b14620000a5578063997d283014620000c7578063cd42117f14620000e9575b600080fd5b6200008160048036038101906200007b919062000c09565b6200011f565b005b6200008d6200024f565b6040516200009c919062001123565b60405180910390f35b620000af62000531565b604051620000be919062001094565b60405180910390f35b620000d162000555565b604051620000e0919062001147565b60405180910390f35b62000107600480360381019062000101919062000c35565b6200055b565b60405162000116919062001094565b60405180910390f35b60008054906101000a900473ffffffffffffffffffffffffffffffffffffffff1673ffffffffffffffffffffffffffffffffffffffff163373ffffffffffffffffffffffffffffffffffffffff1614620001b257336040517f10ac4965000000000000000000000000000000000000000000000000000000008152600401620001a9919062001094565b60405180910390fd5b806000806101000a81548173ffffffffffffffffffffffffffffffffffffffff021916908373ffffffffffffffffffffffffffffffffffffffff1602179055508073ffffffffffffffffffffffffffffffffffffffff163373ffffffffffffffffffffffffffffffffffffffff167fcbf985117192c8f614a58aaf97226bb80a754772f5f6edf06f87c675f2e6c66360405160405180910390a350565b60606001805480602002602001604051908101604052809291908181526020016000905b828210156200052857838290600052602060002090600602016040518060c0016040529081600082015481526020016001820160009054906101000a900473ffffffffffffffffffffffffffffffffffffffff1673ffffffffffffffffffffffffffffffffffffffff1673ffffffffffffffffffffffffffffffffffffffff1681526020016002820180546200030990620013f9565b80601f01602080910402602001604051908101604052809291908181526020018280546200033790620013f9565b8015620003885780601f106200035c5761010080835404028352916020019162000388565b820191906000526020600020905b8154815290600101906020018083116200036a57829003601f168201915b5050505050815260200160038201805480602002602001604051908101604052809291908181526020016000905b828210156200046c578382906000526020600020018054620003d890620013f9565b80601f01602080910402602001604051908101604052809291908181526020018280546200040690620013f9565b8015620004575780601f106200042b5761010080835404028352916020019162000457565b820191906000526020600020905b8154815290600101906020018083116200043957829003601f168201915b505050505081526020019060010190620003b6565b505050508152602001600482015481526020016005820180546200049090620013f9565b80601f0160208091040260200160405190810160405280929190818152602001828054620004be90620013f9565b80156200050f5780601f10620004e3576101008083540402835291602001916200050f565b820191906000526020600020905b815481529060010190602001808311620004f157829003601f168201915b5050505050815250508152602001906001019062000273565b50505050905090565b60008054906101000a900473ffffffffffffffffffffffffffffffffffffffff1681565b60025481565b60008060009054906101000a900473ffffffffffffffffffffffffffffffffffffffff1673ffffffffffffffffffffffffffffffffffffffff163373ffffffffffffffffffffffffffffffffffffffff1614620005f157336040517f10ac4965000000000000000000000000000000000000000000000000000000008152600401620005e8919062001094565b60405180910390fd5b600060025490508080620006059062001465565b91505060003386865187876040516200061e9062000842565b6200062e959493929190620010b1565b604051809103906000f0801580156200064b573d6000803e3d6000fd5b5090506200065862000850565b8281600001818152505081816020019073ffffffffffffffffffffffffffffffffffffffff16908173ffffffffffffffffffffffffffffffffffffffff1681525050868160400181905250858160600181905250428160800181815250506040518060400160405280600781526020017f50656e64696e67000000000000000000000000000000000000000000000000008152508160a0018190525060018190806001815401808255809150506001900390600052602060002090600602016000909190919091506000820151816000015560208201518160010160006101000a81548173ffffffffffffffffffffffffffffffffffffffff021916908373ffffffffffffffffffffffffffffffffffffffff16021790555060408201518160020190805190602001906200078f9291906200089c565b506060820151816003019080519060200190620007ae9291906200092d565b506080820151816004015560a0820151816005019080519060200190620007d79291906200089c565b505050826002819055503373ffffffffffffffffffffffffffffffffffffffff167f0ff7cc20a51f447586c8f464561d79852e07453a2e01f9af806e219da319acfa84848a6040516200082d9392919062001164565b60405180910390a28193505050509392505050565b6134ab806200156c83390190565b6040518060c0016040528060008152602001600073ffffffffffffffffffffffffffffffffffffffff168152602001606081526020016060815260200160008152602001606081525090565b828054620008aa90620013f9565b90600052602060002090601f016020900481019282620008ce57600085556200091a565b82601f10620008e957805160ff19168380011785556200091a565b828001600101855582156200091a579182015b8281111562000919578251825591602001919060010190620008fc565b5b50905062000929919062000994565b5090565b82805482825590600052602060002090810192821562000981579160200282015b82811115620009805782518290805190602001906200096f9291906200089c565b50916020019190600101906200094e565b5b509050620009909190620009b3565b5090565b5b80821115620009af57600081600090555060010162000995565b5090565b5b80821115620009d75760008181620009cd9190620009db565b50600101620009b4565b5090565b508054620009e990620013f9565b6000825580601f10620009fd575062000a1e565b601f01602090049060005260206000209081019062000a1d919062000994565b5b50565b600062000a3862000a3284620011d1565b620011a8565b9050808382526020820190508285602086028201111562000a5857600080fd5b60005b8581101562000a8c578162000a71888262000b6b565b84526020840193506020830192505060018101905062000a5b565b5050509392505050565b600062000aad62000aa78462001200565b620011a8565b9050808382526020820190508285602086028201111562000acd57600080fd5b60005b8581101562000b1c57813567ffffffffffffffff81111562000af157600080fd5b80860162000b00898262000bdc565b8552602085019450602084019350505060018101905062000ad0565b5050509392505050565b600062000b3d62000b37846200122f565b620011a8565b90508281526020810184848401111562000b5657600080fd5b62000b63848285620013b4565b509392505050565b60008135905062000b7c8162001551565b92915050565b600082601f83011262000b9457600080fd5b813562000ba684826020860162000a21565b91505092915050565b600082601f83011262000bc157600080fd5b813562000bd384826020860162000a96565b91505092915050565b600082601f83011262000bee57600080fd5b813562000c0084826020860162000b26565b91505092915050565b60006020828403121562000c1c57600080fd5b600062000c2c8482850162000b6b565b91505092915050565b60008060006060848603121562000c4b57600080fd5b600084013567ffffffffffffffff81111562000c6657600080fd5b62000c748682870162000bdc565b935050602084013567ffffffffffffffff81111562000c9257600080fd5b62000ca08682870162000baf565b925050604084013567ffffffffffffffff81111562000cbe57600080fd5b62000ccc8682870162000b82565b9150509250925092565b600062000ce4838362000d1c565b60208301905092915050565b600062000cfe838362000f4d565b905092915050565b600062000d14838362000fcf565b905092915050565b62000d27816200134e565b82525050565b62000d38816200134e565b82525050565b600062000d4b8262001295565b62000d578185620012e8565b935062000d648362001265565b8060005b8381101562000d9b57815162000d7f888262000cd6565b975062000d8c83620012c1565b92505060018101905062000d68565b5085935050505092915050565b600062000db582620012a0565b62000dc18185620012f9565b93508360208202850162000dd58562001275565b8060005b8581101562000e17578484038952815162000df5858262000cf0565b945062000e0283620012ce565b925060208a0199505060018101905062000dd9565b50829750879550505050505092915050565b600062000e3682620012a0565b62000e4281856200130a565b93508360208202850162000e568562001275565b8060005b8581101562000e98578484038952815162000e76858262000cf0565b945062000e8383620012ce565b925060208a0199505060018101905062000e5a565b50829750879550505050505092915050565b600062000eb782620012ab565b62000ec381856200131b565b93508360208202850162000ed78562001285565b8060005b8581101562000f19578484038952815162000ef7858262000d06565b945062000f0483620012db565b925060208a0199505060018101905062000edb565b50829750879550505050505092915050565b62000f36816200138c565b82525050565b62000f47816200138c565b82525050565b600062000f5a82620012b6565b62000f6681856200132c565b935062000f78818560208601620013c3565b62000f838162001540565b840191505092915050565b600062000f9b82620012b6565b62000fa781856200133d565b935062000fb9818560208601620013c3565b62000fc48162001540565b840191505092915050565b600060c08301600083015162000fe9600086018262001072565b50602083015162000ffe602086018262000f2b565b506040830151848203604086015262001018828262000f4d565b9150506060830151848203606086015262001034828262000da8565b91505060808301516200104b608086018262001072565b5060a083015184820360a086015262001065828262000f4d565b9150508091505092915050565b6200107d8162001382565b82525050565b6200108e8162001382565b82525050565b6000602082019050620010ab600083018462000d2d565b92915050565b600060a082019050620010c8600083018862000d2d565b8181036020830152620010dc818762000f8e565b9050620010ed604083018662001083565b818103606083015262001101818562000e29565b9050818103608083015262001117818462000d3e565b90509695505050505050565b600060208201905081810360008301526200113f818462000eaa565b905092915050565b60006020820190506200115e600083018462001083565b92915050565b60006060820190506200117b600083018662001083565b6200118a602083018562000f3c565b81810360408301526200119e818462000f8e565b9050949350505050565b6000620011b4620011c7565b9050620011c282826200142f565b919050565b6000604051905090565b600067ffffffffffffffff821115620011ef57620011ee62001511565b5b602082029050602081019050919050565b600067ffffffffffffffff8211156200121e576200121d62001511565b5b602082029050602081019050919050565b600067ffffffffffffffff8211156200124d576200124c62001511565b5b620012588262001540565b9050602081019050919050565b6000819050602082019050919050565b6000819050602082019050919050565b6000819050602082019050919050565b600081519050919050565b600081519050919050565b600081519050919050565b600081519050919050565b6000602082019050919050565b6000602082019050919050565b6000602082019050919050565b600082825260208201905092915050565b600082825260208201905092915050565b600082825260208201905092915050565b600082825260208201905092915050565b600082825260208201905092915050565b600082825260208201905092915050565b60006200135b8262001362565b9050919050565b600073ffffffffffffffffffffffffffffffffffffffff82169050919050565b6000819050919050565b60006200139982620013a0565b9050919050565b6000620013ad8262001362565b9050919050565b82818337600083830152505050565b60005b83811015620013e3578082015181840152602081019050620013c6565b83811115620013f3576000848401525b50505050565b600060028204905060018216806200141257607f821691505b60208210811415620014295762001428620014e2565b5b50919050565b6200143a8262001540565b810181811067ffffffffffffffff821117156200145c576200145b62001511565b5b80604052505050565b6000620014728262001382565b91507fffffffffffffffffffffffffffffffffffffffffffffffffffffffffffffffff821415620014a857620014a7620014b3565b5b600182019050919050565b7f4e487b7100000000000000000000000000000000000000000000000000000000600052601160045260246000fd5b7f4e487b7100000000000000000000000000000000000000000000000000000000600052602260045260246000fd5b7f4e487b7100000000000000000000000000000000000000000000000000000000600052604160045260246000fd5b6000601f19601f8301169050919050565b6200155c816200134e565b81146200156857600080fd5b5056fe60806040523480156200001157600080fd5b50604051620034ab380380620034ab833981810160405281019062000037919062000a19565b8460008060006101000a81548160ff021916908315150217905550620000a97f36a5c4aaacb6b388bbd448bf11096b7dafc5652bcc9046084fd0e95b1fb0b2cc7fd16e204b8a42a15ab0ea6bb8ec1ecdfbe69f38074fc865323af19efe7d9573d96200041e60201b620014dc1760201c565b620001007fd16e204b8a42a15ab0ea6bb8ec1ecdfbe69f38074fc865323af19efe7d9573d97fdc1958ce1178d6eb32ccc146dcea8933f1978155832913ec88fa509962e1b4136200041e60201b620014dc1760201c565b620001577f15e007796fc034bf8274acdcfbd2f48124815698ba6f70c109f3423981a7052f7fdc1958ce1178d6eb32ccc146dcea8933f1978155832913ec88fa509962e1b4136200041e60201b620014dc1760201c565b6200018e7fdc1958ce1178d6eb32ccc146dcea8933f1978155832913ec88fa509962e1b413806200041e60201b620014dc1760201c565b620001c57f15e007796fc034bf8274acdcfbd2f48124815698ba6f70c109f3423981a7052f826200048260201b620015381760201c565b620001fc7fdc1958ce1178d6eb32ccc146dcea8933f1978155832913ec88fa509962e1b413826200048260201b620015381760201c565b508151831462000238576040517f0e8cddf100000000000000000000000000000000000000000000000000000000815260040160405180910390fd5b83600290805190602001906200025092919062000606565b508260038190555081600490805190602001906200027092919062000697565b50806005908051906020019062000289929190620006fe565b5060005b82518110156200041257600060086000848481518110620002d7577f4e487b7100000000000000000000000000000000000000000000000000000000600052603260045260246000fd5b602002602001015173ffffffffffffffffffffffffffffffffffffffff1673ffffffffffffffffffffffffffffffffffffffff168152602001908152602001600020905083828151811062000355577f4e487b7100000000000000000000000000000000000000000000000000000000600052603260045260246000fd5b60200260200101518160000190805190602001906200037692919062000606565b50828281518110620003b1577f4e487b7100000000000000000000000000000000000000000000000000000000600052603260045260246000fd5b60200260200101518160010160006101000a81548173ffffffffffffffffffffffffffffffffffffffff021916908373ffffffffffffffffffffffffffffffffffffffff160217905550508080620004099062000c83565b9150506200028d565b50505050505062000da3565b600062000431836200057360201b60201c565b90508160016000858152602001908152602001600020600101819055508181847fbd79b86ffe0ab8e8776151514217cd7cacd52c909f66475c3af44e129f0b00ff60405160405180910390a4505050565b6200049482826200059360201b60201c565b6200056f57600180600084815260200190815260200160002060000160008373ffffffffffffffffffffffffffffffffffffffff1673ffffffffffffffffffffffffffffffffffffffff16815260200190815260200160002060006101000a81548160ff02191690831515021790555062000514620005fe60201b60201c565b73ffffffffffffffffffffffffffffffffffffffff168173ffffffffffffffffffffffffffffffffffffffff16837f2f8788117e7eff1d82e926ec794901d17c78024a50270940304540a733656f0d60405160405180910390a45b5050565b600060016000838152602001908152602001600020600101549050919050565b60006001600084815260200190815260200160002060000160008373ffffffffffffffffffffffffffffffffffffffff1673ffffffffffffffffffffffffffffffffffffffff16815260200190815260200160002060009054906101000a900460ff16905092915050565b600033905090565b828054620006149062000c17565b90600052602060002090601f01602090048101928262000638576000855562000684565b82601f106200065357805160ff191683800117855562000684565b8280016001018555821562000684579182015b828111156200068357825182559160200191906001019062000666565b5b5090506200069391906200078d565b5090565b828054828255906000526020600020908101928215620006eb579160200282015b82811115620006ea578251829080519060200190620006d992919062000606565b5091602001919060010190620006b8565b5b509050620006fa9190620007ac565b5090565b8280548282559060005260206000209081019282156200077a579160200282015b82811115620007795782518260006101000a81548173ffffffffffffffffffffffffffffffffffffffff021916908373ffffffffffffffffffffffffffffffffffffffff160217905550916020019190600101906200071f565b5b5090506200078991906200078d565b5090565b5b80821115620007a85760008160009055506001016200078e565b5090565b5b80821115620007d05760008181620007c69190620007d4565b50600101620007ad565b5090565b508054620007e29062000c17565b6000825580601f10620007f6575062000817565b601f0160209004906000526020600020908101906200081691906200078d565b5b50565b6000620008316200082b8462000b0f565b62000ae6565b905080838252602082019050828560208602820111156200085157600080fd5b60005b858110156200088557816200086a888262000964565b84526020840193506020830192505060018101905062000854565b5050509392505050565b6000620008a6620008a08462000b3e565b62000ae6565b90508083825260208201905082856020860282011115620008c657600080fd5b60005b858110156200091557815167ffffffffffffffff811115620008ea57600080fd5b808601620008f98982620009d5565b85526020850194506020840193505050600181019050620008c9565b5050509392505050565b600062000936620009308462000b6d565b62000ae6565b9050828152602081018484840111156200094f57600080fd5b6200095c84828562000be1565b509392505050565b600081519050620009758162000d6f565b92915050565b600082601f8301126200098d57600080fd5b81516200099f8482602086016200081a565b91505092915050565b600082601f830112620009ba57600080fd5b8151620009cc8482602086016200088f565b91505092915050565b600082601f830112620009e757600080fd5b8151620009f98482602086016200091f565b91505092915050565b60008151905062000a138162000d89565b92915050565b600080600080600060a0868803121562000a3257600080fd5b600062000a428882890162000964565b955050602086015167ffffffffffffffff81111562000a6057600080fd5b62000a6e88828901620009d5565b945050604062000a818882890162000a02565b935050606086015167ffffffffffffffff81111562000a9f57600080fd5b62000aad88828901620009a8565b925050608086015167ffffffffffffffff81111562000acb57600080fd5b62000ad9888289016200097b565b9150509295509295909350565b600062000af262000b05565b905062000b00828262000c4d565b919050565b6000604051905090565b600067ffffffffffffffff82111562000b2d5762000b2c62000d2f565b5b602082029050602081019050919050565b600067ffffffffffffffff82111562000b5c5762000b5b62000d2f565b5b602082029050602081019050919050565b600067ffffffffffffffff82111562000b8b5762000b8a62000d2f565b5b62000b968262000d5e565b9050602081019050919050565b600062000bb08262000bb7565b9050919050565b600073ffffffffffffffffffffffffffffffffffffffff82169050919050565b6000819050919050565b60005b8381101562000c0157808201518184015260208101905062000be4565b8381111562000c11576000848401525b50505050565b6000600282049050600182168062000c3057607f821691505b6020821081141562000c475762000c4662000d00565b5b50919050565b62000c588262000d5e565b810181811067ffffffffffffffff8211171562000c7a5762000c7962000d2f565b5b80604052505050565b600062000c908262000bd7565b91507fffffffffffffffffffffffffffffffffffffffffffffffffffffffffffffffff82141562000cc65762000cc562000cd1565b5b600182019050919050565b7f4e487b7100000000000000000000000000000000000000000000000000000000600052601160045260246000fd5b7f4e487b7100000000000000000000000000000000000000000000000000000000600052602260045260246000fd5b7f4e487b7100000000000000000000000000000000000000000000000000000000600052604160045260246000fd5b6000601f19601f8301169050919050565b62000d7a8162000ba3565b811462000d8657600080fd5b50565b62000d948162000bd7565b811462000da057600080fd5b50565b6126f88062000db36000396000f3fe608060405234801561001057600080fd5b506004361061012c5760003560e01c8063543cbb05116100ad57806391d148541161007157806391d148541461035b578063a097dc4b1461038b578063a217fddf146103a9578063d547741f146103c7578063f7be43fb146103e35761012c565b8063543cbb05146102b35780635c975abb146102d157806365372147146102ef5780636dd7d8ea1461030d57806386e5c15a1461033d5761012c565b8063301aee01116100f4578063301aee011461020d57806333ee31311461023d57806336568abe1461025b5780633e4f9cae14610277578063531cbb12146102955761012c565b806301ffc9a7146101315780630d60b1d0146101615780631fc26a5614610191578063248a9ca3146101c15780632f2ff15d146101f1575b600080fd5b61014b60048036038101906101469190611d51565b610401565b6040516101589190612083565b60405180910390f35b61017b60048036038101906101769190611cab565b61047b565b6040516101889190612083565b60405180910390f35b6101ab60048036038101906101a69190611cab565b610543565b6040516101b89190612083565b60405180910390f35b6101db60048036038101906101d69190611cec565b61063e565b6040516101e8919061209e565b60405180910390f35b61020b60048036038101906102069190611d15565b61065e565b005b61022760048036038101906102229190611cab565b610687565b6040516102349190612083565b60405180910390f35b61024561074f565b6040516102529190612083565b60405180910390f35b61027560048036038101906102709190611d15565b6107a6565b005b61027f610956565b60405161028c919061209e565b60405180910390f35b61029d61097a565b6040516102aa9190612061565b60405180910390f35b6102bb610d68565b6040516102c89190612061565b60405180910390f35b6102d9610f1f565b6040516102e69190612083565b60405180910390f35b6102f7610f35565b6040516103049190612061565b60405180910390f35b61032760048036038101906103229190611c82565b6110d4565b6040516103349190612083565b60405180910390f35b61034561136b565b604051610352919061209e565b60405180910390f35b61037560048036038101906103709190611d15565b61138f565b6040516103829190612083565b60405180910390f35b6103936113fa565b6040516103a0919061209e565b60405180910390f35b6103b161141e565b6040516103be919061209e565b60405180910390f35b6103e160048036038101906103dc9190611d15565b611425565b005b6103eb6114b8565b6040516103f8919061209e565b60405180910390f35b60007f7965db0b000000000000000000000000000000000000000000000000000000007bffffffffffffffffffffffffffffffffffffffffffffffffffffffff1916827bffffffffffffffffffffffffffffffffffffffffffffffffffffffff19161480610474575061047382611618565b5b9050919050565b60007fdc1958ce1178d6eb32ccc146dcea8933f1978155832913ec88fa509962e1b4136104af816104aa611682565b61168a565b60005b8351811015610538576105257f15e007796fc034bf8274acdcfbd2f48124815698ba6f70c109f3423981a7052f858381518110610518577f4e487b7100000000000000000000000000000000000000000000000000000000600052603260045260246000fd5b6020026020010151611538565b80806105309061242b565b9150506104b2565b506001915050919050565b60007fdc1958ce1178d6eb32ccc146dcea8933f1978155832913ec88fa509962e1b41361057781610572611682565b61168a565b7fd16e204b8a42a15ab0ea6bb8ec1ecdfbe69f38074fc865323af19efe7d9573d96105a9816105a4611682565b61168a565b60005b84518110156106325761061f7f36a5c4aaacb6b388bbd448bf11096b7dafc5652bcc9046084fd0e95b1fb0b2cc868381518110610612577f4e487b7100000000000000000000000000000000000000000000000000000000600052603260045260246000fd5b6020026020010151611538565b808061062a9061242b565b9150506105ac565b50600192505050919050565b600060016000838152602001908152602001600020600101549050919050565b6106678261063e565b61067881610673611682565b61168a565b6106828383611538565b505050565b60007fdc1958ce1178d6eb32ccc146dcea8933f1978155832913ec88fa509962e1b4136106bb816106b6611682565b61168a565b60005b8351811015610744576107317fd16e204b8a42a15ab0ea6bb8ec1ecdfbe69f38074fc865323af19efe7d9573d9858381518110610724577f4e487b7100000000000000000000000000000000000000000000000000000000600052603260045260246000fd5b6020026020010151611538565b808061073c9061242b565b9150506106be565b506001915050919050565b60007fdc1958ce1178d6eb32ccc146dcea8933f1978155832913ec88fa509962e1b4136107838161077e611682565b61168a565b6001600660016101000a81548160ff021916908315150217905550600191505090565b7fdc1958ce1178d6eb32ccc146dcea8933f1978155832913ec88fa509962e1b4136107d8816107d3611682565b61168a565b7fdc1958ce1178d6eb32ccc146dcea8933f1978155832913ec88fa509962e1b413831461083a576040517f08c379a00000000000000000000000000000000000000000000000000000000081526004016108319061215b565b60405180910390fd5b6108647f15e007796fc034bf8274acdcfbd2f48124815698ba6f70c109f3423981a7052f8361138f565b6108a3576040517f08c379a000000000000000000000000000000000000000000000000000000000815260040161089a9061213b565b60405180910390fd5b6108cd7fdc1958ce1178d6eb32ccc146dcea8933f1978155832913ec88fa509962e1b41383611538565b6108f77fdc1958ce1178d6eb32ccc146dcea8933f1978155832913ec88fa509962e1b41333611727565b8173ffffffffffffffffffffffffffffffffffffffff163373ffffffffffffffffffffffffffffffffffffffff167f53cb1046cc84eb7dcfb14a0610185dd97c2c40e311ef59a28c5622cf3942a3b860405160405180910390a3505050565b7f15e007796fc034bf8274acdcfbd2f48124815698ba6f70c109f3423981a7052f81565b60607fd16e204b8a42a15ab0ea6bb8ec1ecdfbe69f38074fc865323af19efe7d9573d96109ae816109a9611682565b61168a565b7fdc1958ce1178d6eb32ccc146dcea8933f1978155832913ec88fa509962e1b4136109e0816109db611682565b61168a565b60005b600580549050811015610c165760006008600060058481548110610a30577f4e487b7100000000000000000000000000000000000000000000000000000000600052603260045260246000fd5b9060005260206000200160009054906101000a900473ffffffffffffffffffffffffffffffffffffffff1673ffffffffffffffffffffffffffffffffffffffff1673ffffffffffffffffffffffffffffffffffffffff16815260200190815260200160002090506009600060058481548110610ad5577f4e487b7100000000000000000000000000000000000000000000000000000000600052603260045260246000fd5b9060005260206000200160009054906101000a900473ffffffffffffffffffffffffffffffffffffffff1673ffffffffffffffffffffffffffffffffffffffff1673ffffffffffffffffffffffffffffffffffffffff168152602001908152602001600020548160020181905550600a8190806001815401808255809150506001900390600052602060002090600302016000909190919091506000820181600001908054610b83906123c8565b610b8e929190611b03565b506001820160009054906101000a900473ffffffffffffffffffffffffffffffffffffffff168160010160006101000a81548173ffffffffffffffffffffffffffffffffffffffff021916908373ffffffffffffffffffffffffffffffffffffffff160217905550600282015481600201555050508080610c0e9061242b565b9150506109e3565b50600a805480602002602001604051908101604052809291908181526020016000905b82821015610d5d5783829060005260206000209060030201604051806060016040529081600082018054610c6c906123c8565b80601f0160208091040260200160405190810160405280929190818152602001828054610c98906123c8565b8015610ce55780601f10610cba57610100808354040283529160200191610ce5565b820191906000526020600020905b815481529060010190602001808311610cc857829003601f168201915b505050505081526020016001820160009054906101000a900473ffffffffffffffffffffffffffffffffffffffff1673ffffffffffffffffffffffffffffffffffffffff1673ffffffffffffffffffffffffffffffffffffffff16815260200160028201548152505081526020019060010190610c39565b505050509250505090565b60607fd16e204b8a42a15ab0ea6bb8ec1ecdfbe69f38074fc865323af19efe7d9573d9610d9c81610d97611682565b61168a565b7fdc1958ce1178d6eb32ccc146dcea8933f1978155832913ec88fa509962e1b413610dce81610dc9611682565b61168a565b600a805480602002602001604051908101604052809291908181526020016000905b82821015610f145783829060005260206000209060030201604051806060016040529081600082018054610e23906123c8565b80601f0160208091040260200160405190810160405280929190818152602001828054610e4f906123c8565b8015610e9c5780601f10610e7157610100808354040283529160200191610e9c565b820191906000526020600020905b815481529060010190602001808311610e7f57829003601f168201915b505050505081526020016001820160009054906101000a900473ffffffffffffffffffffffffffffffffffffffff1673ffffffffffffffffffffffffffffffffffffffff1673ffffffffffffffffffffffffffffffffffffffff16815260200160028201548152505081526020019060010190610df0565b505050509250505090565b60008060009054906101000a900460ff16905090565b606060001515600660019054906101000a900460ff1615151415610f85576040517fb34ae8a900000000000000000000000000000000000000000000000000000000815260040160405180910390fd5b600a805480602002602001604051908101604052809291908181526020016000905b828210156110cb5783829060005260206000209060030201604051806060016040529081600082018054610fda906123c8565b80601f0160208091040260200160405190810160405280929190818152602001828054611006906123c8565b80156110535780601f1061102857610100808354040283529160200191611053565b820191906000526020600020905b81548152906001019060200180831161103657829003601f168201915b505050505081526020016001820160009054906101000a900473ffffffffffffffffffffffffffffffffffffffff1673ffffffffffffffffffffffffffffffffffffffff1673ffffffffffffffffffffffffffffffffffffffff16815260200160028201548152505081526020019060010190610fa7565b50505050905090565b60007f36a5c4aaacb6b388bbd448bf11096b7dafc5652bcc9046084fd0e95b1fb0b2cc61110881611103611682565b61168a565b7fd16e204b8a42a15ab0ea6bb8ec1ecdfbe69f38074fc865323af19efe7d9573d961113a81611135611682565b61168a565b7fdc1958ce1178d6eb32ccc146dcea8933f1978155832913ec88fa509962e1b41361116c81611167611682565b61168a565b7f15e007796fc034bf8274acdcfbd2f48124815698ba6f70c109f3423981a7052f61119e81611199611682565b61168a565b6111a6610f1f565b156111e6576040517f08c379a00000000000000000000000000000000000000000000000000000000081526004016111dd9061211b565b60405180910390fd5b60011515600760003373ffffffffffffffffffffffffffffffffffffffff1673ffffffffffffffffffffffffffffffffffffffff16815260200190815260200160002060009054906101000a900460ff1615151415611271576040517f7c9a1cf900000000000000000000000000000000000000000000000000000000815260040160405180910390fd5b6000600960008873ffffffffffffffffffffffffffffffffffffffff1673ffffffffffffffffffffffffffffffffffffffff1681526020019081526020016000205490506001816112c2919061223d565b600960008973ffffffffffffffffffffffffffffffffffffffff1673ffffffffffffffffffffffffffffffffffffffff168152602001908152602001600020819055506001600760003373ffffffffffffffffffffffffffffffffffffffff1673ffffffffffffffffffffffffffffffffffffffff16815260200190815260200160002060006101000a81548160ff021916908315150217905550600195505050505050919050565b7fd16e204b8a42a15ab0ea6bb8ec1ecdfbe69f38074fc865323af19efe7d9573d981565b60006001600084815260200190815260200160002060000160008373ffffffffffffffffffffffffffffffffffffffff1673ffffffffffffffffffffffffffffffffffffffff16815260200190815260200160002060009054906101000a900460ff16905092915050565b7fdc1958ce1178d6eb32ccc146dcea8933f1978155832913ec88fa509962e1b41381565b6000801b81565b61142e8261063e565b61143f8161143a611682565b61168a565b6114697fdc1958ce1178d6eb32ccc146dcea8933f1978155832913ec88fa509962e1b4138361138f565b156114a9576040517f08c379a00000000000000000000000000000000000000000000000000000000081526004016114a0906120fb565b60405180910390fd5b6114b38383611727565b505050565b7f36a5c4aaacb6b388bbd448bf11096b7dafc5652bcc9046084fd0e95b1fb0b2cc81565b60006114e78361063e565b90508160016000858152602001908152602001600020600101819055508181847fbd79b86ffe0ab8e8776151514217cd7cacd52c909f66475c3af44e129f0b00ff60405160405180910390a4505050565b611542828261138f565b61161457600180600084815260200190815260200160002060000160008373ffffffffffffffffffffffffffffffffffffffff1673ffffffffffffffffffffffffffffffffffffffff16815260200190815260200160002060006101000a81548160ff0219169083151502179055506115b9611682565b73ffffffffffffffffffffffffffffffffffffffff168173ffffffffffffffffffffffffffffffffffffffff16837f2f8788117e7eff1d82e926ec794901d17c78024a50270940304540a733656f0d60405160405180910390a45b5050565b60007f01ffc9a7000000000000000000000000000000000000000000000000000000007bffffffffffffffffffffffffffffffffffffffffffffffffffffffff1916827bffffffffffffffffffffffffffffffffffffffffffffffffffffffff1916149050919050565b600033905090565b611694828261138f565b611723576116b98173ffffffffffffffffffffffffffffffffffffffff166014611809565b6116c78360001c6020611809565b6040516020016116d8929190612027565b6040516020818303038152906040526040517f08c379a000000000000000000000000000000000000000000000000000000000815260040161171a91906120b9565b60405180910390fd5b5050565b611731828261138f565b156118055760006001600084815260200190815260200160002060000160008373ffffffffffffffffffffffffffffffffffffffff1673ffffffffffffffffffffffffffffffffffffffff16815260200190815260200160002060006101000a81548160ff0219169083151502179055506117aa611682565b73ffffffffffffffffffffffffffffffffffffffff168173ffffffffffffffffffffffffffffffffffffffff16837ff6391f5c32d9c69d2a47ea670b442974b53935d1edc7fd64eb21e047a839171b60405160405180910390a45b5050565b60606000600283600261181c9190612293565b611826919061223d565b67ffffffffffffffff811115611865577f4e487b7100000000000000000000000000000000000000000000000000000000600052604160045260246000fd5b6040519080825280601f01601f1916602001820160405280156118975781602001600182028036833780820191505090505b5090507f3000000000000000000000000000000000000000000000000000000000000000816000815181106118f5577f4e487b7100000000000000000000000000000000000000000000000000000000600052603260045260246000fd5b60200101907effffffffffffffffffffffffffffffffffffffffffffffffffffffffffffff1916908160001a9053507f78000000000000000000000000000000000000000000000000000000000000008160018151811061197f577f4e487b7100000000000000000000000000000000000000000000000000000000600052603260045260246000fd5b60200101907effffffffffffffffffffffffffffffffffffffffffffffffffffffffffffff1916908160001a905350600060018460026119bf9190612293565b6119c9919061223d565b90505b6001811115611ab5577f3031323334353637383961626364656600000000000000000000000000000000600f861660108110611a31577f4e487b7100000000000000000000000000000000000000000000000000000000600052603260045260246000fd5b1a60f81b828281518110611a6e577f4e487b7100000000000000000000000000000000000000000000000000000000600052603260045260246000fd5b60200101907effffffffffffffffffffffffffffffffffffffffffffffffffffffffffffff1916908160001a905350600485901c945080611aae9061239e565b90506119cc565b5060008414611af9576040517f08c379a0000000000000000000000000000000000000000000000000000000008152600401611af0906120db565b60405180910390fd5b8091505092915050565b828054611b0f906123c8565b90600052602060002090601f016020900481019282611b315760008555611b7f565b82601f10611b425780548555611b7f565b82800160010185558215611b7f57600052602060002091601f016020900482015b82811115611b7e578254825591600101919060010190611b63565b5b509050611b8c9190611b90565b5090565b5b80821115611ba9576000816000905550600101611b91565b5090565b6000611bc0611bbb846121a0565b61217b565b90508083825260208201905082856020860282011115611bdf57600080fd5b60005b85811015611c0f5781611bf58882611c19565b845260208401935060208301925050600181019050611be2565b5050509392505050565b600081359050611c288161267d565b92915050565b600082601f830112611c3f57600080fd5b8135611c4f848260208601611bad565b91505092915050565b600081359050611c6781612694565b92915050565b600081359050611c7c816126ab565b92915050565b600060208284031215611c9457600080fd5b6000611ca284828501611c19565b91505092915050565b600060208284031215611cbd57600080fd5b600082013567ffffffffffffffff811115611cd757600080fd5b611ce384828501611c2e565b91505092915050565b600060208284031215611cfe57600080fd5b6000611d0c84828501611c58565b91505092915050565b60008060408385031215611d2857600080fd5b6000611d3685828601611c58565b9250506020611d4785828601611c19565b9150509250929050565b600060208284031215611d6357600080fd5b6000611d7184828501611c6d565b91505092915050565b6000611d868383611fc8565b905092915050565b611d97816122ed565b82525050565b6000611da8826121dc565b611db281856121ff565b935083602082028501611dc4856121cc565b8060005b85811015611e005784840389528151611de18582611d7a565b9450611dec836121f2565b925060208a01995050600181019050611dc8565b50829750879550505050505092915050565b611e1b816122ff565b82525050565b611e2a8161230b565b82525050565b6000611e3b826121e7565b611e458185612210565b9350611e5581856020860161236b565b611e5e81612501565b840191505092915050565b6000611e74826121e7565b611e7e8185612221565b9350611e8e81856020860161236b565b611e9781612501565b840191505092915050565b6000611ead826121e7565b611eb78185612232565b9350611ec781856020860161236b565b80840191505092915050565b6000611ee0602083612221565b9150611eeb82612512565b602082019050919050565b6000611f03601f83612221565b9150611f0e8261253b565b602082019050919050565b6000611f26601083612221565b9150611f3182612564565b602082019050919050565b6000611f49603683612221565b9150611f548261258d565b604082019050919050565b6000611f6c602883612221565b9150611f77826125dc565b604082019050919050565b6000611f8f601783612232565b9150611f9a8261262b565b601782019050919050565b6000611fb2601183612232565b9150611fbd82612654565b601182019050919050565b60006060830160008301518482036000860152611fe58282611e30565b9150506020830151611ffa6020860182611d8e565b50604083015161200d6040860182612018565b508091505092915050565b61202181612361565b82525050565b600061203282611f82565b915061203e8285611ea2565b915061204982611fa5565b91506120558284611ea2565b91508190509392505050565b6000602082019050818103600083015261207b8184611d9d565b905092915050565b60006020820190506120986000830184611e12565b92915050565b60006020820190506120b36000830184611e21565b92915050565b600060208201905081810360008301526120d38184611e69565b905092915050565b600060208201905081810360008301526120f481611ed3565b9050919050565b6000602082019050818103600083015261211481611ef6565b9050919050565b6000602082019050818103600083015261213481611f19565b9050919050565b6000602082019050818103600083015261215481611f3c565b9050919050565b6000602082019050818103600083015261217481611f5f565b9050919050565b6000612185612196565b905061219182826123fa565b919050565b6000604051905090565b600067ffffffffffffffff8211156121bb576121ba6124d2565b5b602082029050602081019050919050565b6000819050602082019050919050565b600081519050919050565b600081519050919050565b6000602082019050919050565b600082825260208201905092915050565b600082825260208201905092915050565b600082825260208201905092915050565b600081905092915050565b600061224882612361565b915061225383612361565b9250827fffffffffffffffffffffffffffffffffffffffffffffffffffffffffffffffff0382111561228857612287612474565b5b828201905092915050565b600061229e82612361565b91506122a983612361565b9250817fffffffffffffffffffffffffffffffffffffffffffffffffffffffffffffffff04831182151516156122e2576122e1612474565b5b828202905092915050565b60006122f882612341565b9050919050565b60008115159050919050565b6000819050919050565b60007fffffffff0000000000000000000000000000000000000000000000000000000082169050919050565b600073ffffffffffffffffffffffffffffffffffffffff82169050919050565b6000819050919050565b60005b8381101561238957808201518184015260208101905061236e565b83811115612398576000848401525b50505050565b60006123a982612361565b915060008214156123bd576123bc612474565b5b600182039050919050565b600060028204905060018216806123e057607f821691505b602082108114156123f4576123f36124a3565b5b50919050565b61240382612501565b810181811067ffffffffffffffff82111715612422576124216124d2565b5b80604052505050565b600061243682612361565b91507fffffffffffffffffffffffffffffffffffffffffffffffffffffffffffffffff82141561246957612468612474565b5b600182019050919050565b7f4e487b7100000000000000000000000000000000000000000000000000000000600052601160045260246000fd5b7f4e487b7100000000000000000000000000000000000000000000000000000000600052602260045260246000fd5b7f4e487b7100000000000000000000000000000000000000000000000000000000600052604160045260246000fd5b6000601f19601f8301169050919050565b7f537472696e67733a20686578206c656e67746820696e73756666696369656e74600082015250565b7f43686169726d616e20726f6c652063616e6e6f74206265207265766f6b656400600082015250565b7f5061757361626c653a2070617573656400000000000000000000000000000000600082015250565b7f546865206164647265737320666f7220746865206e65772063686169726d616e60008201527f206973206e6f742061206469726563746f722079657400000000000000000000602082015250565b7f4f6e6c79207468652063686169726d616e20726f6c652063616e20626520726560008201527f6e6f756e6365642e000000000000000000000000000000000000000000000000602082015250565b7f416363657373436f6e74726f6c3a206163636f756e7420000000000000000000600082015250565b7f206973206d697373696e6720726f6c6520000000000000000000000000000000600082015250565b612686816122ed565b811461269157600080fd5b50565b61269d8161230b565b81146126a857600080fd5b50565b6126b481612315565b81146126bf57600080fd5b5056fea2646970667358221220a7268ad734034b6994c027cbcad8b3f521973b997c1a80df1bafae90527d799e64736f6c63430008040033a26469706673582212205810a574e0d050766b237bcb31d0d7910fe9d8193319a146792b94a02e93926e64736f6c63430008040033",
  "linkReferences": {},
  "deployedLinkReferences": {}
}