{
  "_format": "hh-sol-artifact-1",
  "contractName": "Election",
  "sourceName": "contracts/Election.sol",
  "abi": [
    {
      "inputs": [
        {
          "internalType": "address",
          "name": "_owner",
          "type": "address"
        },
        {
          "internalType": "string",
          "name": "_position",
          "type": "string"
        },
        {
          "internalType": "uint256",
          "name": "_noOfParticipants",
          "type": "uint256"
        },
        {
          "internalType": "string[]",
          "name": "_contestants",
          "type": "string[]"
        },
        {
          "internalType": "uint256",
          "name": "_index",
          "type": "uint256"
        },
        {
          "internalType": "address",
          "name": "_electionFactory",
          "type": "address"
        }
      ],
      "stateMutability": "nonpayable",
      "type": "constructor"
    },
    {
      "inputs": [],
      "name": "AccessDenied",
      "type": "error"
    },
    {
      "inputs": [],
      "name": "AlreadyVoted",
      "type": "error"
    },
    {
      "inputs": [],
      "name": "NoOfParticatantNotMatchingParticipateName",
      "type": "error"
    },
    {
      "inputs": [],
      "name": "ResultNotYetRelease",
      "type": "error"
    },
    {
      "inputs": [],
      "name": "VotingEnd",
      "type": "error"
    },
    {
      "inputs": [],
      "name": "VotingNotAllowed",
      "type": "error"
    },
    {
      "inputs": [],
      "name": "VotingNotStarted",
      "type": "error"
    },
    {
      "anonymous": false,
      "inputs": [
        {
          "indexed": false,
          "internalType": "uint256[]",
          "name": "_winnerIds",
          "type": "uint256[]"
        },
        {
          "indexed": false,
          "internalType": "uint256",
          "name": "_winnerVoteCount",
          "type": "uint256"
        }
      ],
      "name": "ElectionEnded",
      "type": "event"
    },
    {
      "anonymous": false,
      "inputs": [
        {
          "indexed": false,
          "internalType": "uint256",
          "name": "endAt",
          "type": "uint256"
        }
      ],
      "name": "EndVoting",
      "type": "event"
    },
    {
      "anonymous": false,
      "inputs": [
        {
          "indexed": false,
          "internalType": "address",
          "name": "account",
          "type": "address"
        }
      ],
      "name": "Paused",
      "type": "event"
    },
    {
      "anonymous": false,
      "inputs": [
        {
          "indexed": false,
          "internalType": "address[]",
          "name": "_student",
          "type": "address[]"
        }
      ],
      "name": "RegisterStudent",
      "type": "event"
    },
    {
      "anonymous": false,
      "inputs": [
        {
          "indexed": false,
          "internalType": "address[]",
          "name": "student",
          "type": "address[]"
        }
      ],
      "name": "RegisterTeacher",
      "type": "event"
    },
    {
      "anonymous": false,
      "inputs": [
        {
          "indexed": true,
          "internalType": "address",
          "name": "previousChairman",
          "type": "address"
        },
        {
          "indexed": true,
          "internalType": "address",
          "name": "newChairman",
          "type": "address"
        }
      ],
      "name": "RenounceRole",
      "type": "event"
    },
    {
      "anonymous": false,
      "inputs": [
        {
          "indexed": true,
          "internalType": "bytes32",
          "name": "role",
          "type": "bytes32"
        },
        {
          "indexed": true,
          "internalType": "bytes32",
          "name": "previousAdminRole",
          "type": "bytes32"
        },
        {
          "indexed": true,
          "internalType": "bytes32",
          "name": "newAdminRole",
          "type": "bytes32"
        }
      ],
      "name": "RoleAdminChanged",
      "type": "event"
    },
    {
      "anonymous": false,
      "inputs": [
        {
          "indexed": true,
          "internalType": "bytes32",
          "name": "role",
          "type": "bytes32"
        },
        {
          "indexed": true,
          "internalType": "address",
          "name": "account",
          "type": "address"
        },
        {
          "indexed": true,
          "internalType": "address",
          "name": "sender",
          "type": "address"
        }
      ],
      "name": "RoleGranted",
      "type": "event"
    },
    {
      "anonymous": false,
      "inputs": [
        {
          "indexed": true,
          "internalType": "bytes32",
          "name": "role",
          "type": "bytes32"
        },
        {
          "indexed": true,
          "internalType": "address",
          "name": "account",
          "type": "address"
        },
        {
          "indexed": true,
          "internalType": "address",
          "name": "sender",
          "type": "address"
        }
      ],
      "name": "RoleRevoked",
      "type": "event"
    },
    {
      "anonymous": false,
      "inputs": [
        {
          "indexed": false,
          "internalType": "address[]",
          "name": "_Bod",
          "type": "address[]"
        }
      ],
      "name": "SetUpBOD",
      "type": "event"
    },
    {
      "anonymous": false,
      "inputs": [
        {
          "indexed": false,
          "internalType": "address[]",
          "name": "director",
          "type": "address[]"
        }
      ],
      "name": "SetUpDirector",
      "type": "event"
    },
    {
      "anonymous": false,
      "inputs": [
        {
          "indexed": false,
          "internalType": "address[]",
          "name": "teacher",
          "type": "address[]"
        }
      ],
      "name": "SetUpTeacher",
      "type": "event"
    },
    {
      "anonymous": false,
      "inputs": [
        {
          "indexed": false,
          "internalType": "uint256",
          "name": "startAt",
          "type": "uint256"
        }
      ],
      "name": "StartVoting",
      "type": "event"
    },
    {
      "anonymous": false,
      "inputs": [
        {
          "indexed": false,
          "internalType": "address",
          "name": "account",
          "type": "address"
        }
      ],
      "name": "Unpaused",
      "type": "event"
    },
    {
      "anonymous": false,
      "inputs": [
        {
          "indexed": false,
          "internalType": "string",
          "name": "candidates",
          "type": "string"
        },
        {
          "indexed": false,
          "internalType": "address",
          "name": "voter",
          "type": "address"
        }
      ],
      "name": "Vote",
      "type": "event"
    },
    {
      "inputs": [],
      "name": "CHAIRMAN_ROLE",
      "outputs": [
        {
          "internalType": "bytes32",
          "name": "",
          "type": "bytes32"
        }
      ],
      "stateMutability": "view",
      "type": "function"
    },
    {
      "inputs": [],
      "name": "DEFAULT_ADMIN_ROLE",
      "outputs": [
        {
          "internalType": "bytes32",
          "name": "",
          "type": "bytes32"
        }
      ],
      "stateMutability": "view",
      "type": "function"
    },
    {
      "inputs": [],
      "name": "DIRECTOR_ROLE",
      "outputs": [
        {
          "internalType": "bytes32",
          "name": "",
          "type": "bytes32"
        }
      ],
      "stateMutability": "view",
      "type": "function"
    },
    {
      "inputs": [],
      "name": "STUDENT_ROLE",
      "outputs": [
        {
          "internalType": "bytes32",
          "name": "",
          "type": "bytes32"
        }
      ],
      "stateMutability": "view",
      "type": "function"
    },
    {
      "inputs": [],
      "name": "TEACHER_ROLE",
      "outputs": [
        {
          "internalType": "bytes32",
          "name": "",
          "type": "bytes32"
        }
      ],
      "stateMutability": "view",
      "type": "function"
    },
    {
      "inputs": [],
      "name": "compileResult",
      "outputs": [
        {
          "components": [
            {
              "internalType": "string",
              "name": "candidatesName",
              "type": "string"
            },
            {
              "internalType": "uint256",
              "name": "voteCount",
              "type": "uint256"
            }
          ],
          "internalType": "struct Election.Candidates[]",
          "name": "",
          "type": "tuple[]"
        }
      ],
      "stateMutability": "nonpayable",
      "type": "function"
    },
    {
      "inputs": [
        {
          "internalType": "uint256",
          "name": "",
          "type": "uint256"
        }
      ],
      "name": "contestantsName",
      "outputs": [
        {
          "internalType": "string",
          "name": "",
          "type": "string"
        }
      ],
      "stateMutability": "view",
      "type": "function"
    },
    {
      "inputs": [],
      "name": "disableVoting",
      "outputs": [],
      "stateMutability": "nonpayable",
      "type": "function"
    },
    {
      "inputs": [],
      "name": "electionStatus",
      "outputs": [
        {
          "internalType": "bool",
          "name": "",
          "type": "bool"
        }
      ],
      "stateMutability": "view",
      "type": "function"
    },
    {
      "inputs": [],
      "name": "enableVoting",
      "outputs": [],
      "stateMutability": "nonpayable",
      "type": "function"
    },
    {
      "inputs": [],
      "name": "endAt",
      "outputs": [
        {
          "internalType": "uint256",
          "name": "",
          "type": "uint256"
        }
      ],
      "stateMutability": "view",
      "type": "function"
    },
    {
      "inputs": [
        {
          "internalType": "bytes32",
          "name": "role",
          "type": "bytes32"
        }
      ],
      "name": "getRoleAdmin",
      "outputs": [
        {
          "internalType": "bytes32",
          "name": "",
          "type": "bytes32"
        }
      ],
      "stateMutability": "view",
      "type": "function"
    },
    {
      "inputs": [
        {
          "internalType": "bytes32",
          "name": "role",
          "type": "bytes32"
        },
        {
          "internalType": "address",
          "name": "account",
          "type": "address"
        }
      ],
      "name": "grantRole",
      "outputs": [],
      "stateMutability": "nonpayable",
      "type": "function"
    },
    {
      "inputs": [
        {
          "internalType": "bytes32",
          "name": "role",
          "type": "bytes32"
        },
        {
          "internalType": "address",
          "name": "account",
          "type": "address"
        }
      ],
      "name": "hasRole",
      "outputs": [
        {
          "internalType": "bool",
          "name": "",
          "type": "bool"
        }
      ],
      "stateMutability": "view",
      "type": "function"
    },
    {
      "inputs": [],
      "name": "noOfpartcipate",
      "outputs": [
        {
          "internalType": "uint256",
          "name": "",
          "type": "uint256"
        }
      ],
      "stateMutability": "view",
      "type": "function"
    },
    {
      "inputs": [],
      "name": "pause",
      "outputs": [
        {
          "internalType": "bool",
          "name": "",
          "type": "bool"
        }
      ],
      "stateMutability": "nonpayable",
      "type": "function"
    },
    {
      "inputs": [],
      "name": "paused",
      "outputs": [
        {
          "internalType": "bool",
          "name": "",
          "type": "bool"
        }
      ],
      "stateMutability": "view",
      "type": "function"
    },
    {
      "inputs": [],
      "name": "privateViewResult",
      "outputs": [
        {
          "components": [
            {
              "internalType": "string",
              "name": "candidatesName",
              "type": "string"
            },
            {
              "internalType": "uint256",
              "name": "voteCount",
              "type": "uint256"
            }
          ],
          "internalType": "struct Election.Candidates[]",
          "name": "",
          "type": "tuple[]"
        }
      ],
      "stateMutability": "view",
      "type": "function"
    },
    {
      "inputs": [
        {
          "internalType": "address[]",
          "name": "_student",
          "type": "address[]"
        }
      ],
      "name": "registerStudent",
      "outputs": [
        {
          "internalType": "bool",
          "name": "",
          "type": "bool"
        }
      ],
      "stateMutability": "nonpayable",
      "type": "function"
    },
    {
      "inputs": [
        {
          "internalType": "bytes32",
          "name": "_role",
          "type": "bytes32"
        },
        {
          "internalType": "address",
          "name": "_account",
          "type": "address"
        }
      ],
      "name": "renounceRole",
      "outputs": [],
      "stateMutability": "nonpayable",
      "type": "function"
    },
    {
      "inputs": [],
      "name": "result",
      "outputs": [
        {
          "components": [
            {
              "internalType": "string",
              "name": "candidatesName",
              "type": "string"
            },
            {
              "internalType": "uint256",
              "name": "voteCount",
              "type": "uint256"
            }
          ],
          "internalType": "struct Election.Candidates[]",
          "name": "",
          "type": "tuple[]"
        }
      ],
      "stateMutability": "view",
      "type": "function"
    },
    {
      "inputs": [],
      "name": "resultReadyAt",
      "outputs": [
        {
          "internalType": "uint256",
          "name": "",
          "type": "uint256"
        }
      ],
      "stateMutability": "view",
      "type": "function"
    },
    {
      "inputs": [],
      "name": "resultStatus",
      "outputs": [
        {
          "internalType": "bool",
          "name": "",
          "type": "bool"
        }
      ],
      "stateMutability": "view",
      "type": "function"
    },
    {
      "inputs": [
        {
          "internalType": "bytes32",
          "name": "_role",
          "type": "bytes32"
        },
        {
          "internalType": "address",
          "name": "_account",
          "type": "address"
        }
      ],
      "name": "revokeRole",
      "outputs": [],
      "stateMutability": "nonpayable",
      "type": "function"
    },
    {
      "inputs": [
        {
          "internalType": "address[]",
          "name": "_Bod",
          "type": "address[]"
        }
      ],
      "name": "setupBOD",
      "outputs": [
        {
          "internalType": "bool",
          "name": "",
          "type": "bool"
        }
      ],
      "stateMutability": "nonpayable",
      "type": "function"
    },
    {
      "inputs": [
        {
          "internalType": "address[]",
          "name": "_teacher",
          "type": "address[]"
        }
      ],
      "name": "setupTeachers",
      "outputs": [
        {
          "internalType": "bool",
          "name": "",
          "type": "bool"
        }
      ],
      "stateMutability": "nonpayable",
      "type": "function"
    },
    {
      "inputs": [],
      "name": "showResult",
      "outputs": [
        {
          "internalType": "bool",
          "name": "",
          "type": "bool"
        }
      ],
      "stateMutability": "nonpayable",
      "type": "function"
    },
    {
      "inputs": [],
      "name": "startAt",
      "outputs": [
        {
          "internalType": "uint256",
          "name": "",
          "type": "uint256"
        }
      ],
      "stateMutability": "view",
      "type": "function"
    },
    {
      "inputs": [
        {
          "internalType": "bytes4",
          "name": "interfaceId",
          "type": "bytes4"
        }
      ],
      "name": "supportsInterface",
      "outputs": [
        {
          "internalType": "bool",
          "name": "",
          "type": "bool"
        }
      ],
      "stateMutability": "view",
      "type": "function"
    },
    {
      "inputs": [],
      "name": "unpause",
      "outputs": [
        {
          "internalType": "bool",
          "name": "",
          "type": "bool"
        }
      ],
      "stateMutability": "nonpayable",
      "type": "function"
    },
    {
      "inputs": [
        {
          "internalType": "string",
          "name": "_participantsName",
          "type": "string"
        }
      ],
      "name": "vote",
      "outputs": [
        {
          "internalType": "bool",
          "name": "",
          "type": "bool"
        }
      ],
      "stateMutability": "nonpayable",
      "type": "function"
    }
  ],
  "bytecode": "0x60c06040523480156200001157600080fd5b50604051620040c7380380620040c783398181016040528101906200003791906200086c565b8560008060006101000a81548160ff021916908315150217905550620000a97f36a5c4aaacb6b388bbd448bf11096b7dafc5652bcc9046084fd0e95b1fb0b2cc7fd16e204b8a42a15ab0ea6bb8ec1ecdfbe69f38074fc865323af19efe7d9573d9620003a260201b62001adc1760201c565b620001007fd16e204b8a42a15ab0ea6bb8ec1ecdfbe69f38074fc865323af19efe7d9573d97fdc1958ce1178d6eb32ccc146dcea8933f1978155832913ec88fa509962e1b413620003a260201b62001adc1760201c565b620001577f15e007796fc034bf8274acdcfbd2f48124815698ba6f70c109f3423981a7052f7fdc1958ce1178d6eb32ccc146dcea8933f1978155832913ec88fa509962e1b413620003a260201b62001adc1760201c565b6200018e7fdc1958ce1178d6eb32ccc146dcea8933f1978155832913ec88fa509962e1b41380620003a260201b62001adc1760201c565b620001c57f15e007796fc034bf8274acdcfbd2f48124815698ba6f70c109f3423981a7052f826200040660201b62001b381760201c565b620001fc7fdc1958ce1178d6eb32ccc146dcea8933f1978155832913ec88fa509962e1b413826200040660201b62001b381760201c565b508251841462000238576040517f0e8cddf100000000000000000000000000000000000000000000000000000000815260040160405180910390fd5b8460029080519060200190620002509291906200058a565b50836003819055508260049080519060200190620002709291906200061b565b5081608081815250508073ffffffffffffffffffffffffffffffffffffffff1660a08173ffffffffffffffffffffffffffffffffffffffff1660601b8152505060005b835181101562000395576000600a858381518110620002fb577f4e487b7100000000000000000000000000000000000000000000000000000000600052603260045260246000fd5b60200260200101516040516200031291906200096b565b908152602001604051809103902090508482815181106200035c577f4e487b7100000000000000000000000000000000000000000000000000000000600052603260045260246000fd5b60200260200101518160000190805190602001906200037d9291906200058a565b505080806200038c9062000b08565b915050620002b3565b5050505050505062000c28565b6000620003b583620004f760201b60201c565b90508160016000858152602001908152602001600020600101819055508181847fbd79b86ffe0ab8e8776151514217cd7cacd52c909f66475c3af44e129f0b00ff60405160405180910390a4505050565b6200041882826200051760201b60201c565b620004f357600180600084815260200190815260200160002060000160008373ffffffffffffffffffffffffffffffffffffffff1673ffffffffffffffffffffffffffffffffffffffff16815260200190815260200160002060006101000a81548160ff021916908315150217905550620004986200058260201b60201c565b73ffffffffffffffffffffffffffffffffffffffff168173ffffffffffffffffffffffffffffffffffffffff16837f2f8788117e7eff1d82e926ec794901d17c78024a50270940304540a733656f0d60405160405180910390a45b5050565b600060016000838152602001908152602001600020600101549050919050565b60006001600084815260200190815260200160002060000160008373ffffffffffffffffffffffffffffffffffffffff1673ffffffffffffffffffffffffffffffffffffffff16815260200190815260200160002060009054906101000a900460ff16905092915050565b600033905090565b828054620005989062000a9c565b90600052602060002090601f016020900481019282620005bc576000855562000608565b82601f10620005d757805160ff191683800117855562000608565b8280016001018555821562000608579182015b8281111562000607578251825591602001919060010190620005ea565b5b50905062000617919062000682565b5090565b8280548282559060005260206000209081019282156200066f579160200282015b828111156200066e5782518290805190602001906200065d9291906200058a565b50916020019190600101906200063c565b5b5090506200067e9190620006a1565b5090565b5b808211156200069d57600081600090555060010162000683565b5090565b5b80821115620006c55760008181620006bb9190620006c9565b50600101620006a2565b5090565b508054620006d79062000a9c565b6000825580601f10620006eb57506200070c565b601f0160209004906000526020600020908101906200070b919062000682565b5b50565b6000620007266200072084620009ad565b62000984565b905080838252602082019050828560208602820111156200074657600080fd5b60005b858110156200079557815167ffffffffffffffff8111156200076a57600080fd5b80860162000779898262000828565b8552602085019450602084019350505060018101905062000749565b5050509392505050565b6000620007b6620007b084620009dc565b62000984565b905082815260208101848484011115620007cf57600080fd5b620007dc84828562000a66565b509392505050565b600081519050620007f58162000bf4565b92915050565b600082601f8301126200080d57600080fd5b81516200081f8482602086016200070f565b91505092915050565b600082601f8301126200083a57600080fd5b81516200084c8482602086016200079f565b91505092915050565b600081519050620008668162000c0e565b92915050565b60008060008060008060c087890312156200088657600080fd5b60006200089689828a01620007e4565b965050602087015167ffffffffffffffff811115620008b457600080fd5b620008c289828a0162000828565b9550506040620008d589828a0162000855565b945050606087015167ffffffffffffffff811115620008f357600080fd5b6200090189828a01620007fb565b93505060806200091489828a0162000855565b92505060a06200092789828a01620007e4565b9150509295509295509295565b6000620009418262000a12565b6200094d818562000a1d565b93506200095f81856020860162000a66565b80840191505092915050565b600062000979828462000934565b915081905092915050565b600062000990620009a3565b90506200099e828262000ad2565b919050565b6000604051905090565b600067ffffffffffffffff821115620009cb57620009ca62000bb4565b5b602082029050602081019050919050565b600067ffffffffffffffff821115620009fa57620009f962000bb4565b5b62000a058262000be3565b9050602081019050919050565b600081519050919050565b600081905092915050565b600062000a358262000a3c565b9050919050565b600073ffffffffffffffffffffffffffffffffffffffff82169050919050565b6000819050919050565b60005b8381101562000a8657808201518184015260208101905062000a69565b8381111562000a96576000848401525b50505050565b6000600282049050600182168062000ab557607f821691505b6020821081141562000acc5762000acb62000b85565b5b50919050565b62000add8262000be3565b810181811067ffffffffffffffff8211171562000aff5762000afe62000bb4565b5b80604052505050565b600062000b158262000a5c565b91507fffffffffffffffffffffffffffffffffffffffffffffffffffffffffffffffff82141562000b4b5762000b4a62000b56565b5b600182019050919050565b7f4e487b7100000000000000000000000000000000000000000000000000000000600052601160045260246000fd5b7f4e487b7100000000000000000000000000000000000000000000000000000000600052602260045260246000fd5b7f4e487b7100000000000000000000000000000000000000000000000000000000600052604160045260246000fd5b6000601f19601f8301169050919050565b62000bff8162000a28565b811462000c0b57600080fd5b50565b62000c198162000a5c565b811462000c2557600080fd5b50565b60805160a05160601c61347662000c516000396000611d2901526000611d6501526134766000f3fe608060405234801561001057600080fd5b50600436106101e55760003560e01c80635c975abb1161010f578063a4f676fc116100a2578063eaef034911610071578063eaef034914610578578063eb4439fb14610596578063f7be43fb146105a0578063fc36e15b146105be576101e5565b8063a4f676fc146104f0578063c744656514610520578063ca94e6a71461053e578063d547741f1461055c576101e5565b806386e5c15a116100de57806386e5c15a1461046657806391d1485414610484578063a097dc4b146104b4578063a217fddf146104d2576101e5565b80635c975abb146103ee578063653721471461040c5780637cc3ae8c1461042a5780638456cb5914610448576101e5565b80632f2ff15d116101875780633e4f9cae116101565780633e4f9cae146103765780633f4ba83a14610394578063531cbb12146103b2578063543cbb05146103d0576101e5565b80632f2ff15d146102f0578063301aee011461030c57806333ee31311461033c57806336568abe1461035a576101e5565b80630d60b1d0116101c35780630d60b1d0146102425780631bceb5d2146102725780631fc26a5614610290578063248a9ca3146102c0576101e5565b806301ffc9a7146101ea57806304cd18191461021a5780630a330b8e14610224575b600080fd5b61020460048036038101906101ff9190612598565b6105ee565b6040516102119190612b4e565b60405180910390f35b610222610668565b005b61022c610757565b6040516102399190612d16565b60405180910390f35b61025c600480360381019061025791906124f2565b61075d565b6040516102699190612b4e565b60405180910390f35b61027a61085c565b6040516102879190612b4e565b60405180910390f35b6102aa60048036038101906102a591906124f2565b61086f565b6040516102b79190612b4e565b60405180910390f35b6102da60048036038101906102d59190612533565b61096e565b6040516102e79190612b69565b60405180910390f35b61030a6004803603810190610305919061255c565b61098e565b005b610326600480360381019061032191906124f2565b6109b7565b6040516103339190612b4e565b60405180910390f35b610344610ab6565b6040516103519190612b4e565b60405180910390f35b610374600480360381019061036f919061255c565b610bff565b005b61037e610daf565b60405161038b9190612b69565b60405180910390f35b61039c610dd3565b6040516103a99190612b4e565b60405180910390f35b6103ba610e17565b6040516103c79190612b2c565b60405180910390f35b6103d8611106565b6040516103e59190612b2c565b60405180910390f35b6103f66112e1565b6040516104039190612b4e565b60405180910390f35b6104146112f7565b6040516104219190612b2c565b60405180910390f35b610432611440565b60405161043f9190612d16565b60405180910390f35b610450611446565b60405161045d9190612b4e565b60405180910390f35b61046e61148a565b60405161047b9190612b69565b60405180910390f35b61049e6004803603810190610499919061255c565b6114ae565b6040516104ab9190612b4e565b60405180910390f35b6104bc611519565b6040516104c99190612b69565b60405180910390f35b6104da61153d565b6040516104e79190612b69565b60405180910390f35b61050a60048036038101906105059190612602565b611544565b6040516105179190612b84565b60405180910390f35b6105286115f0565b6040516105359190612d16565b60405180910390f35b6105466115f6565b6040516105539190612d16565b60405180910390f35b6105766004803603810190610571919061255c565b6115fc565b005b61058061168f565b60405161058d9190612b4e565b60405180910390f35b61059e6116a2565b005b6105a8611753565b6040516105b59190612b69565b60405180910390f35b6105d860048036038101906105d391906125c1565b611777565b6040516105e59190612b4e565b60405180910390f35b60007f7965db0b000000000000000000000000000000000000000000000000000000007bffffffffffffffffffffffffffffffffffffffffffffffffffffffff1916827bffffffffffffffffffffffffffffffffffffffffffffffffffffffff19161480610661575061066082611c18565b5b9050919050565b7fdc1958ce1178d6eb32ccc146dcea8933f1978155832913ec88fa509962e1b41361069a81610695611c82565b611c8a565b60065460075414156106d8576040517f7fa0120200000000000000000000000000000000000000000000000000000000815260040160405180910390fd5b4260078190555061071d6040518060400160405280600581526020017f456e646564000000000000000000000000000000000000000000000000000000815250611d27565b7f1057d4f16a6857731231320b2564bcdfb5051a137a4f8705a2d5b0813fabeea14260405161074c9190612d16565b60405180910390a150565b60035481565b60007fdc1958ce1178d6eb32ccc146dcea8933f1978155832913ec88fa509962e1b4136107918161078c611c82565b611c8a565b60005b835181101561081a576108077f15e007796fc034bf8274acdcfbd2f48124815698ba6f70c109f3423981a7052f8583815181106107fa577f4e487b7100000000000000000000000000000000000000000000000000000000600052603260045260246000fd5b602002602001015161098e565b80806108129061309f565b915050610794565b507f5f5e39754c7e1865f8af3e41e829b0c163e67854b93f99ab4c75804928592d4a8360405161084a9190612b0a565b60405180910390a16001915050919050565b600560019054906101000a900460ff1681565b60007fd16e204b8a42a15ab0ea6bb8ec1ecdfbe69f38074fc865323af19efe7d9573d96108a38161089e611c82565b611c8a565b60005b835181101561092c576109197f36a5c4aaacb6b388bbd448bf11096b7dafc5652bcc9046084fd0e95b1fb0b2cc85838151811061090c577f4e487b7100000000000000000000000000000000000000000000000000000000600052603260045260246000fd5b602002602001015161098e565b80806109249061309f565b9150506108a6565b507f03754d1a0117cc47bdfac8251ab45273d3eab88e939e90833352c073b26806908360405161095c9190612b0a565b60405180910390a16001915050919050565b600060016000838152602001908152602001600020600101549050919050565b6109978261096e565b6109a8816109a3611c82565b611c8a565b6109b28383611b38565b505050565b60007fdc1958ce1178d6eb32ccc146dcea8933f1978155832913ec88fa509962e1b4136109eb816109e6611c82565b611c8a565b60005b8351811015610a7457610a617fd16e204b8a42a15ab0ea6bb8ec1ecdfbe69f38074fc865323af19efe7d9573d9858381518110610a54577f4e487b7100000000000000000000000000000000000000000000000000000000600052603260045260246000fd5b602002602001015161098e565b8080610a6c9061309f565b9150506109ee565b507f426025bf71642554cad091b33bb9ad1245da42bc9f4dc5b7a7092699ff9bbb8a83604051610aa49190612b0a565b60405180910390a16001915050919050565b600060011515610ae67fdc1958ce1178d6eb32ccc146dcea8933f1978155832913ec88fa509962e1b413336114ae565b15151480610b21575060011515610b1d7fd16e204b8a42a15ab0ea6bb8ec1ecdfbe69f38074fc865323af19efe7d9573d9336114ae565b1515145b80610b59575060011515610b557f15e007796fc034bf8274acdcfbd2f48124815698ba6f70c109f3423981a7052f336114ae565b1515145b610b98576040517f08c379a0000000000000000000000000000000000000000000000000000000008152600401610b8f90612cf6565b60405180910390fd5b6001600560016101000a81548160ff021916908315150217905550610bf16040518060400160405280600d81526020017f526573756c747320726561647900000000000000000000000000000000000000815250611d27565b426008819055506001905090565b7fdc1958ce1178d6eb32ccc146dcea8933f1978155832913ec88fa509962e1b413610c3181610c2c611c82565b611c8a565b7fdc1958ce1178d6eb32ccc146dcea8933f1978155832913ec88fa509962e1b4138314610c93576040517f08c379a0000000000000000000000000000000000000000000000000000000008152600401610c8a90612cd6565b60405180910390fd5b610cbd7f15e007796fc034bf8274acdcfbd2f48124815698ba6f70c109f3423981a7052f836114ae565b610cfc576040517f08c379a0000000000000000000000000000000000000000000000000000000008152600401610cf390612c96565b60405180910390fd5b610d267fdc1958ce1178d6eb32ccc146dcea8933f1978155832913ec88fa509962e1b41383611b38565b610d507fdc1958ce1178d6eb32ccc146dcea8933f1978155832913ec88fa509962e1b41333611dd7565b8173ffffffffffffffffffffffffffffffffffffffff163373ffffffffffffffffffffffffffffffffffffffff167f53cb1046cc84eb7dcfb14a0610185dd97c2c40e311ef59a28c5622cf3942a3b860405160405180910390a3505050565b7f15e007796fc034bf8274acdcfbd2f48124815698ba6f70c109f3423981a7052f81565b60007fdc1958ce1178d6eb32ccc146dcea8933f1978155832913ec88fa509962e1b413610e0781610e02611c82565b611c8a565b610e0f611eb9565b600191505090565b606060011515610e477fdc1958ce1178d6eb32ccc146dcea8933f1978155832913ec88fa509962e1b413336114ae565b15151480610e82575060011515610e7e7fd16e204b8a42a15ab0ea6bb8ec1ecdfbe69f38074fc865323af19efe7d9573d9336114ae565b1515145b610ec1576040517f08c379a0000000000000000000000000000000000000000000000000000000008152600401610eb890612cf6565b60405180910390fd5b60005b60048054905081101561100c576000600a60048381548110610f0f577f4e487b7100000000000000000000000000000000000000000000000000000000600052603260045260246000fd5b90600052602060002001604051610f269190612a9e565b90815260200160405180910390209050600b60048381548110610f72577f4e487b7100000000000000000000000000000000000000000000000000000000600052603260045260246000fd5b90600052602060002001604051610f899190612a9e565b9081526020016040518091039020548160010181905550600c8190806001815401808255809150506001900390600052602060002090600202016000909190919091506000820181600001908054610fe09061303c565b610feb9291906122f6565b506001820154816001015550505080806110049061309f565b915050610ec4565b50600c805480602002602001604051908101604052809291908181526020016000905b828210156110fd57838290600052602060002090600202016040518060400160405290816000820180546110629061303c565b80601f016020809104026020016040519081016040528092919081815260200182805461108e9061303c565b80156110db5780601f106110b0576101008083540402835291602001916110db565b820191906000526020600020905b8154815290600101906020018083116110be57829003601f168201915b505050505081526020016001820154815250508152602001906001019061102f565b50505050905090565b6060600115156111367fdc1958ce1178d6eb32ccc146dcea8933f1978155832913ec88fa509962e1b413336114ae565b1515148061117157506001151561116d7fd16e204b8a42a15ab0ea6bb8ec1ecdfbe69f38074fc865323af19efe7d9573d9336114ae565b1515145b806111a95750600115156111a57f15e007796fc034bf8274acdcfbd2f48124815698ba6f70c109f3423981a7052f336114ae565b1515145b6111e8576040517f08c379a00000000000000000000000000000000000000000000000000000000081526004016111df90612cf6565b60405180910390fd5b600c805480602002602001604051908101604052809291908181526020016000905b828210156112d8578382906000526020600020906002020160405180604001604052908160008201805461123d9061303c565b80601f01602080910402602001604051908101604052809291908181526020018280546112699061303c565b80156112b65780601f1061128b576101008083540402835291602001916112b6565b820191906000526020600020905b81548152906001019060200180831161129957829003601f168201915b505050505081526020016001820154815250508152602001906001019061120a565b50505050905090565b60008060009054906101000a900460ff16905090565b606060001515600560019054906101000a900460ff1615151415611347576040517fb34ae8a900000000000000000000000000000000000000000000000000000000815260040160405180910390fd5b600c805480602002602001604051908101604052809291908181526020016000905b82821015611437578382906000526020600020906002020160405180604001604052908160008201805461139c9061303c565b80601f01602080910402602001604051908101604052809291908181526020018280546113c89061303c565b80156114155780601f106113ea57610100808354040283529160200191611415565b820191906000526020600020905b8154815290600101906020018083116113f857829003601f168201915b5050505050815260200160018201548152505081526020019060010190611369565b50505050905090565b60075481565b60007fdc1958ce1178d6eb32ccc146dcea8933f1978155832913ec88fa509962e1b41361147a81611475611c82565b611c8a565b611482611f5a565b600191505090565b7fd16e204b8a42a15ab0ea6bb8ec1ecdfbe69f38074fc865323af19efe7d9573d981565b60006001600084815260200190815260200160002060000160008373ffffffffffffffffffffffffffffffffffffffff1673ffffffffffffffffffffffffffffffffffffffff16815260200190815260200160002060009054906101000a900460ff16905092915050565b7fdc1958ce1178d6eb32ccc146dcea8933f1978155832913ec88fa509962e1b41381565b6000801b81565b6004818154811061155457600080fd5b90600052602060002001600091509050805461156f9061303c565b80601f016020809104026020016040519081016040528092919081815260200182805461159b9061303c565b80156115e85780601f106115bd576101008083540402835291602001916115e8565b820191906000526020600020905b8154815290600101906020018083116115cb57829003601f168201915b505050505081565b60065481565b60085481565b6116058261096e565b61161681611611611c82565b611c8a565b6116407fdc1958ce1178d6eb32ccc146dcea8933f1978155832913ec88fa509962e1b413836114ae565b15611680576040517f08c379a000000000000000000000000000000000000000000000000000000000815260040161167790612c16565b60405180910390fd5b61168a8383611dd7565b505050565b600560009054906101000a900460ff1681565b7fdc1958ce1178d6eb32ccc146dcea8933f1978155832913ec88fa509962e1b4136116d4816116cf611c82565b611c8a565b426006819055506117196040518060400160405280600781526020017f5374617274656400000000000000000000000000000000000000000000000000815250611d27565b7f99fafb32ed77fce26140b67282430931e99e54f3014114daf0a52639a5620ac1426040516117489190612d16565b60405180910390a150565b7f36a5c4aaacb6b388bbd448bf11096b7dafc5652bcc9046084fd0e95b1fb0b2cc81565b6000600115156117a77fdc1958ce1178d6eb32ccc146dcea8933f1978155832913ec88fa509962e1b413336114ae565b151514806117e25750600115156117de7fd16e204b8a42a15ab0ea6bb8ec1ecdfbe69f38074fc865323af19efe7d9573d9336114ae565b1515145b8061181a5750600115156118167f36a5c4aaacb6b388bbd448bf11096b7dafc5652bcc9046084fd0e95b1fb0b2cc336114ae565b1515145b8061185257506001151561184e7f15e007796fc034bf8274acdcfbd2f48124815698ba6f70c109f3423981a7052f336114ae565b1515145b611891576040517f08c379a000000000000000000000000000000000000000000000000000000000815260040161188890612c76565b60405180910390fd5b6000600654116118d6576040517f08c379a00000000000000000000000000000000000000000000000000000000081526004016118cd90612c36565b60405180910390fd5b6007546006541161191c576040517f08c379a000000000000000000000000000000000000000000000000000000000815260040161191390612cb6565b60405180910390fd5b6119246112e1565b15611964576040517f08c379a000000000000000000000000000000000000000000000000000000000815260040161195b90612c56565b60405180910390fd5b60011515600960003373ffffffffffffffffffffffffffffffffffffffff1673ffffffffffffffffffffffffffffffffffffffff16815260200190815260200160002060009054906101000a900460ff16151514156119ef576040517f7c9a1cf900000000000000000000000000000000000000000000000000000000815260040160405180910390fd5b6000600b83604051611a019190612a87565b9081526020016040518091039020549050600181611a1f9190612ea2565b600b84604051611a2f9190612a87565b9081526020016040518091039020819055506001600960003373ffffffffffffffffffffffffffffffffffffffff1673ffffffffffffffffffffffffffffffffffffffff16815260200190815260200160002060006101000a81548160ff0219169083151502179055507f6df8a0bf3c87bd629e9f543b9d0831beeea8b80de3f478dd846541ed8d97405b8333604051611aca929190612ba6565b60405180910390a16001915050919050565b6000611ae78361096e565b90508160016000858152602001908152602001600020600101819055508181847fbd79b86ffe0ab8e8776151514217cd7cacd52c909f66475c3af44e129f0b00ff60405160405180910390a4505050565b611b4282826114ae565b611c1457600180600084815260200190815260200160002060000160008373ffffffffffffffffffffffffffffffffffffffff1673ffffffffffffffffffffffffffffffffffffffff16815260200190815260200160002060006101000a81548160ff021916908315150217905550611bb9611c82565b73ffffffffffffffffffffffffffffffffffffffff168173ffffffffffffffffffffffffffffffffffffffff16837f2f8788117e7eff1d82e926ec794901d17c78024a50270940304540a733656f0d60405160405180910390a45b5050565b60007f01ffc9a7000000000000000000000000000000000000000000000000000000007bffffffffffffffffffffffffffffffffffffffffffffffffffffffff1916827bffffffffffffffffffffffffffffffffffffffffffffffffffffffff1916149050919050565b600033905090565b611c9482826114ae565b611d2357611cb98173ffffffffffffffffffffffffffffffffffffffff166014611ffc565b611cc78360001c6020611ffc565b604051602001611cd8929190612ab5565b6040516020818303038152906040526040517f08c379a0000000000000000000000000000000000000000000000000000000008152600401611d1a9190612b84565b60405180910390fd5b5050565b7f000000000000000000000000000000000000000000000000000000000000000073ffffffffffffffffffffffffffffffffffffffff16632987024d7f0000000000000000000000000000000000000000000000000000000000000000836040518363ffffffff1660e01b8152600401611da2929190612d31565b600060405180830381600087803b158015611dbc57600080fd5b505af1158015611dd0573d6000803e3d6000fd5b5050505050565b611de182826114ae565b15611eb55760006001600084815260200190815260200160002060000160008373ffffffffffffffffffffffffffffffffffffffff1673ffffffffffffffffffffffffffffffffffffffff16815260200190815260200160002060006101000a81548160ff021916908315150217905550611e5a611c82565b73ffffffffffffffffffffffffffffffffffffffff168173ffffffffffffffffffffffffffffffffffffffff16837ff6391f5c32d9c69d2a47ea670b442974b53935d1edc7fd64eb21e047a839171b60405160405180910390a45b5050565b611ec16112e1565b611f00576040517f08c379a0000000000000000000000000000000000000000000000000000000008152600401611ef790612bf6565b60405180910390fd5b60008060006101000a81548160ff0219169083151502179055507f5db9ee0a495bf2e6ff9c91a7834c1ba4fdd244a5e8aa4e537bd38aeae4b073aa611f43611c82565b604051611f509190612aef565b60405180910390a1565b611f626112e1565b15611fa2576040517f08c379a0000000000000000000000000000000000000000000000000000000008152600401611f9990612c56565b60405180910390fd5b60016000806101000a81548160ff0219169083151502179055507f62e78cea01bee320cd4e420270b5ea74000d11b0c9f74754ebdbfc544b05a258611fe5611c82565b604051611ff29190612aef565b60405180910390a1565b60606000600283600261200f9190612ef8565b6120199190612ea2565b67ffffffffffffffff811115612058577f4e487b7100000000000000000000000000000000000000000000000000000000600052604160045260246000fd5b6040519080825280601f01601f19166020018201604052801561208a5781602001600182028036833780820191505090505b5090507f3000000000000000000000000000000000000000000000000000000000000000816000815181106120e8577f4e487b7100000000000000000000000000000000000000000000000000000000600052603260045260246000fd5b60200101907effffffffffffffffffffffffffffffffffffffffffffffffffffffffffffff1916908160001a9053507f780000000000000000000000000000000000000000000000000000000000000081600181518110612172577f4e487b7100000000000000000000000000000000000000000000000000000000600052603260045260246000fd5b60200101907effffffffffffffffffffffffffffffffffffffffffffffffffffffffffffff1916908160001a905350600060018460026121b29190612ef8565b6121bc9190612ea2565b90505b60018111156122a8577f3031323334353637383961626364656600000000000000000000000000000000600f861660108110612224577f4e487b7100000000000000000000000000000000000000000000000000000000600052603260045260246000fd5b1a60f81b828281518110612261577f4e487b7100000000000000000000000000000000000000000000000000000000600052603260045260246000fd5b60200101907effffffffffffffffffffffffffffffffffffffffffffffffffffffffffffff1916908160001a905350600485901c9450806122a190613012565b90506121bf565b50600084146122ec576040517f08c379a00000000000000000000000000000000000000000000000000000000081526004016122e390612bd6565b60405180910390fd5b8091505092915050565b8280546123029061303c565b90600052602060002090601f0160209004810192826123245760008555612372565b82601f106123355780548555612372565b8280016001018555821561237257600052602060002091601f016020900482015b82811115612371578254825591600101919060010190612356565b5b50905061237f9190612383565b5090565b5b8082111561239c576000816000905550600101612384565b5090565b60006123b36123ae84612d86565b612d61565b905080838252602082019050828560208602820111156123d257600080fd5b60005b8581101561240257816123e8888261244a565b8452602084019350602083019250506001810190506123d5565b5050509392505050565b600061241f61241a84612db2565b612d61565b90508281526020810184848401111561243757600080fd5b612442848285612fd0565b509392505050565b600081359050612459816133e4565b92915050565b600082601f83011261247057600080fd5b81356124808482602086016123a0565b91505092915050565b600081359050612498816133fb565b92915050565b6000813590506124ad81613412565b92915050565b600082601f8301126124c457600080fd5b81356124d484826020860161240c565b91505092915050565b6000813590506124ec81613429565b92915050565b60006020828403121561250457600080fd5b600082013567ffffffffffffffff81111561251e57600080fd5b61252a8482850161245f565b91505092915050565b60006020828403121561254557600080fd5b600061255384828501612489565b91505092915050565b6000806040838503121561256f57600080fd5b600061257d85828601612489565b925050602061258e8582860161244a565b9150509250929050565b6000602082840312156125aa57600080fd5b60006125b88482850161249e565b91505092915050565b6000602082840312156125d357600080fd5b600082013567ffffffffffffffff8111156125ed57600080fd5b6125f9848285016124b3565b91505092915050565b60006020828403121561261457600080fd5b6000612622848285016124dd565b91505092915050565b60006126378383612657565b60208301905092915050565b600061264f8383612a2c565b905092915050565b61266081612f52565b82525050565b61266f81612f52565b82525050565b600061268082612e18565b61268a8185612e53565b935061269583612de3565b8060005b838110156126c65781516126ad888261262b565b97506126b883612e39565b925050600181019050612699565b5085935050505092915050565b60006126de82612e23565b6126e88185612e64565b9350836020820285016126fa85612df3565b8060005b8581101561273657848403895281516127178582612643565b945061272283612e46565b925060208a019950506001810190506126fe565b50829750879550505050505092915050565b61275181612f64565b82525050565b61276081612f70565b82525050565b600061277182612e2e565b61277b8185612e75565b935061278b818560208601612fdf565b61279481613175565b840191505092915050565b60006127aa82612e2e565b6127b48185612e86565b93506127c4818560208601612fdf565b6127cd81613175565b840191505092915050565b60006127e382612e2e565b6127ed8185612e97565b93506127fd818560208601612fdf565b80840191505092915050565b600081546128168161303c565b6128208186612e97565b9450600182166000811461283b576001811461284c5761287f565b60ff1983168652818601935061287f565b61285585612e03565b60005b8381101561287757815481890152600182019150602081019050612858565b838801955050505b50505092915050565b6000612895602083612e86565b91506128a082613186565b602082019050919050565b60006128b8601483612e86565b91506128c3826131af565b602082019050919050565b60006128db601f83612e86565b91506128e6826131d8565b602082019050919050565b60006128fe601783612e86565b915061290982613201565b602082019050919050565b6000612921601083612e86565b915061292c8261322a565b602082019050919050565b6000612944600d83612e86565b915061294f82613253565b602082019050919050565b6000612967603683612e86565b91506129728261327c565b604082019050919050565b600061298a601e83612e86565b9150612995826132cb565b602082019050919050565b60006129ad602883612e86565b91506129b8826132f4565b604082019050919050565b60006129d0602783612e86565b91506129db82613343565b604082019050919050565b60006129f3601783612e97565b91506129fe82613392565b601782019050919050565b6000612a16601183612e97565b9150612a21826133bb565b601182019050919050565b60006040830160008301518482036000860152612a498282612766565b9150506020830151612a5e6020860182612a69565b508091505092915050565b612a7281612fc6565b82525050565b612a8181612fc6565b82525050565b6000612a9382846127d8565b915081905092915050565b6000612aaa8284612809565b915081905092915050565b6000612ac0826129e6565b9150612acc82856127d8565b9150612ad782612a09565b9150612ae382846127d8565b91508190509392505050565b6000602082019050612b046000830184612666565b92915050565b60006020820190508181036000830152612b248184612675565b905092915050565b60006020820190508181036000830152612b4681846126d3565b905092915050565b6000602082019050612b636000830184612748565b92915050565b6000602082019050612b7e6000830184612757565b92915050565b60006020820190508181036000830152612b9e818461279f565b905092915050565b60006040820190508181036000830152612bc0818561279f565b9050612bcf6020830184612666565b9392505050565b60006020820190508181036000830152612bef81612888565b9050919050565b60006020820190508181036000830152612c0f816128ab565b9050919050565b60006020820190508181036000830152612c2f816128ce565b9050919050565b60006020820190508181036000830152612c4f816128f1565b9050919050565b60006020820190508181036000830152612c6f81612914565b9050919050565b60006020820190508181036000830152612c8f81612937565b9050919050565b60006020820190508181036000830152612caf8161295a565b9050919050565b60006020820190508181036000830152612ccf8161297d565b9050919050565b60006020820190508181036000830152612cef816129a0565b9050919050565b60006020820190508181036000830152612d0f816129c3565b9050919050565b6000602082019050612d2b6000830184612a78565b92915050565b6000604082019050612d466000830185612a78565b8181036020830152612d58818461279f565b90509392505050565b6000612d6b612d7c565b9050612d77828261306e565b919050565b6000604051905090565b600067ffffffffffffffff821115612da157612da0613146565b5b602082029050602081019050919050565b600067ffffffffffffffff821115612dcd57612dcc613146565b5b612dd682613175565b9050602081019050919050565b6000819050602082019050919050565b6000819050602082019050919050565b60008190508160005260206000209050919050565b600081519050919050565b600081519050919050565b600081519050919050565b6000602082019050919050565b6000602082019050919050565b600082825260208201905092915050565b600082825260208201905092915050565b600082825260208201905092915050565b600082825260208201905092915050565b600081905092915050565b6000612ead82612fc6565b9150612eb883612fc6565b9250827fffffffffffffffffffffffffffffffffffffffffffffffffffffffffffffffff03821115612eed57612eec6130e8565b5b828201905092915050565b6000612f0382612fc6565b9150612f0e83612fc6565b9250817fffffffffffffffffffffffffffffffffffffffffffffffffffffffffffffffff0483118215151615612f4757612f466130e8565b5b828202905092915050565b6000612f5d82612fa6565b9050919050565b60008115159050919050565b6000819050919050565b60007fffffffff0000000000000000000000000000000000000000000000000000000082169050919050565b600073ffffffffffffffffffffffffffffffffffffffff82169050919050565b6000819050919050565b82818337600083830152505050565b60005b83811015612ffd578082015181840152602081019050612fe2565b8381111561300c576000848401525b50505050565b600061301d82612fc6565b91506000821415613031576130306130e8565b5b600182039050919050565b6000600282049050600182168061305457607f821691505b6020821081141561306857613067613117565b5b50919050565b61307782613175565b810181811067ffffffffffffffff8211171561309657613095613146565b5b80604052505050565b60006130aa82612fc6565b91507fffffffffffffffffffffffffffffffffffffffffffffffffffffffffffffffff8214156130dd576130dc6130e8565b5b600182019050919050565b7f4e487b7100000000000000000000000000000000000000000000000000000000600052601160045260246000fd5b7f4e487b7100000000000000000000000000000000000000000000000000000000600052602260045260246000fd5b7f4e487b7100000000000000000000000000000000000000000000000000000000600052604160045260246000fd5b6000601f19601f8301169050919050565b7f537472696e67733a20686578206c656e67746820696e73756666696369656e74600082015250565b7f5061757361626c653a206e6f7420706175736564000000000000000000000000600082015250565b7f43686169726d616e20726f6c652063616e6e6f74206265207265766f6b656400600082015250565b7f456c656374696f6e20686173206e6f7420626567756e21000000000000000000600082015250565b7f5061757361626c653a2070617573656400000000000000000000000000000000600082015250565b7f4143434553532044454e49454400000000000000000000000000000000000000600082015250565b7f546865206164647265737320666f7220746865206e65772063686169726d616e60008201527f206973206e6f742061206469726563746f722079657400000000000000000000602082015250565b7f536f7272792c2074686520456c656374696f6e2068617320656e646564210000600082015250565b7f4f6e6c79207468652063686169726d616e20726f6c652063616e20626520726560008201527f6e6f756e6365642e000000000000000000000000000000000000000000000000602082015250565b7f41434345535320464f52205445414348455228732920414e442043484149524d60008201527f414e204f4e4c5900000000000000000000000000000000000000000000000000602082015250565b7f416363657373436f6e74726f6c3a206163636f756e7420000000000000000000600082015250565b7f206973206d697373696e6720726f6c6520000000000000000000000000000000600082015250565b6133ed81612f52565b81146133f857600080fd5b50565b61340481612f70565b811461340f57600080fd5b50565b61341b81612f7a565b811461342657600080fd5b50565b61343281612fc6565b811461343d57600080fd5b5056fea2646970667358221220ea1b37185e001018d72cacf1823f7a5768bc30bfb24daf41608d422efa41309064736f6c63430008040033",
  "linkReferences": {},
  "deployedLinkReferences": {}
}