{
  "_format": "hh-sol-artifact-1",
  "contractName": "Election",
  "sourceName": "contracts/Election.sol",
  "abi": [
    {
      "inputs": [
        {
          "internalType": "address",
          "name": "_owner",
          "type": "address"
        },
        {
          "internalType": "string",
          "name": "_position",
          "type": "string"
        },
        {
          "internalType": "uint256",
          "name": "_noOfParticipants",
          "type": "uint256"
        },
        {
          "internalType": "string[]",
          "name": "_contestants",
          "type": "string[]"
        },
        {
          "internalType": "uint256",
          "name": "_index",
          "type": "uint256"
        },
        {
          "internalType": "address",
          "name": "_electionFactory",
          "type": "address"
        }
      ],
      "stateMutability": "nonpayable",
      "type": "constructor"
    },
    {
      "inputs": [],
      "name": "AccessDenied",
      "type": "error"
    },
    {
      "inputs": [],
      "name": "AlreadyVoted",
      "type": "error"
    },
    {
      "inputs": [],
      "name": "NoOfParticatantNotMatchingParticipateName",
      "type": "error"
    },
    {
      "inputs": [],
      "name": "ResultNotYetRelease",
      "type": "error"
    },
    {
      "inputs": [],
      "name": "VotingEnd",
      "type": "error"
    },
    {
      "inputs": [],
      "name": "VotingNotAllowed",
      "type": "error"
    },
    {
      "inputs": [],
      "name": "VotingNotStarted",
      "type": "error"
    },
    {
      "anonymous": false,
      "inputs": [
        {
          "indexed": false,
          "internalType": "address",
          "name": "compiler",
          "type": "address"
        }
      ],
      "name": "CompileResult",
      "type": "event"
    },
    {
      "anonymous": false,
      "inputs": [
        {
          "indexed": false,
          "internalType": "uint256[]",
          "name": "_winnerIds",
          "type": "uint256[]"
        },
        {
          "indexed": false,
          "internalType": "uint256",
          "name": "_winnerVoteCount",
          "type": "uint256"
        }
      ],
      "name": "ElectionEnded",
      "type": "event"
    },
    {
      "anonymous": false,
      "inputs": [
        {
          "indexed": false,
          "internalType": "uint256",
          "name": "endAt",
          "type": "uint256"
        }
      ],
      "name": "EndVoting",
      "type": "event"
    },
    {
      "anonymous": false,
      "inputs": [
        {
          "indexed": false,
          "internalType": "address",
          "name": "account",
          "type": "address"
        }
      ],
      "name": "Paused",
      "type": "event"
    },
    {
      "anonymous": false,
      "inputs": [
        {
          "indexed": false,
          "internalType": "address[]",
          "name": "_student",
          "type": "address[]"
        }
      ],
      "name": "RegisterStudent",
      "type": "event"
    },
    {
      "anonymous": false,
      "inputs": [
        {
          "indexed": false,
          "internalType": "address[]",
          "name": "student",
          "type": "address[]"
        }
      ],
      "name": "RegisterTeacher",
      "type": "event"
    },
    {
      "anonymous": false,
      "inputs": [
        {
          "indexed": true,
          "internalType": "address",
          "name": "previousChairman",
          "type": "address"
        },
        {
          "indexed": true,
          "internalType": "address",
          "name": "newChairman",
          "type": "address"
        }
      ],
      "name": "RenounceRole",
      "type": "event"
    },
    {
      "anonymous": false,
      "inputs": [
        {
          "indexed": true,
          "internalType": "bytes32",
          "name": "role",
          "type": "bytes32"
        },
        {
          "indexed": true,
          "internalType": "bytes32",
          "name": "previousAdminRole",
          "type": "bytes32"
        },
        {
          "indexed": true,
          "internalType": "bytes32",
          "name": "newAdminRole",
          "type": "bytes32"
        }
      ],
      "name": "RoleAdminChanged",
      "type": "event"
    },
    {
      "anonymous": false,
      "inputs": [
        {
          "indexed": true,
          "internalType": "bytes32",
          "name": "role",
          "type": "bytes32"
        },
        {
          "indexed": true,
          "internalType": "address",
          "name": "account",
          "type": "address"
        },
        {
          "indexed": true,
          "internalType": "address",
          "name": "sender",
          "type": "address"
        }
      ],
      "name": "RoleGranted",
      "type": "event"
    },
    {
      "anonymous": false,
      "inputs": [
        {
          "indexed": true,
          "internalType": "bytes32",
          "name": "role",
          "type": "bytes32"
        },
        {
          "indexed": true,
          "internalType": "address",
          "name": "account",
          "type": "address"
        },
        {
          "indexed": true,
          "internalType": "address",
          "name": "sender",
          "type": "address"
        }
      ],
      "name": "RoleRevoked",
      "type": "event"
    },
    {
      "anonymous": false,
      "inputs": [
        {
          "indexed": false,
          "internalType": "address[]",
          "name": "_Bod",
          "type": "address[]"
        }
      ],
      "name": "SetUpBOD",
      "type": "event"
    },
    {
      "anonymous": false,
      "inputs": [
        {
          "indexed": false,
          "internalType": "address[]",
          "name": "director",
          "type": "address[]"
        }
      ],
      "name": "SetUpDirector",
      "type": "event"
    },
    {
      "anonymous": false,
      "inputs": [
        {
          "indexed": false,
          "internalType": "address[]",
          "name": "teacher",
          "type": "address[]"
        }
      ],
      "name": "SetUpTeacher",
      "type": "event"
    },
    {
      "anonymous": false,
      "inputs": [
        {
          "indexed": false,
          "internalType": "address",
          "name": "stakeholder",
          "type": "address"
        },
        {
          "indexed": false,
          "internalType": "uint256",
          "name": "resultReadyAt",
          "type": "uint256"
        }
      ],
      "name": "ShowResult",
      "type": "event"
    },
    {
      "anonymous": false,
      "inputs": [
        {
          "indexed": false,
          "internalType": "uint256",
          "name": "startAt",
          "type": "uint256"
        }
      ],
      "name": "StartVoting",
      "type": "event"
    },
    {
      "anonymous": false,
      "inputs": [
        {
          "indexed": false,
          "internalType": "address",
          "name": "account",
          "type": "address"
        }
      ],
      "name": "Unpaused",
      "type": "event"
    },
    {
      "anonymous": false,
      "inputs": [
        {
          "indexed": false,
          "internalType": "address",
          "name": "voter",
          "type": "address"
        }
      ],
      "name": "Vote",
      "type": "event"
    },
    {
      "inputs": [],
      "name": "CHAIRMAN_ROLE",
      "outputs": [
        {
          "internalType": "bytes32",
          "name": "",
          "type": "bytes32"
        }
      ],
      "stateMutability": "view",
      "type": "function"
    },
    {
      "inputs": [],
      "name": "DEFAULT_ADMIN_ROLE",
      "outputs": [
        {
          "internalType": "bytes32",
          "name": "",
          "type": "bytes32"
        }
      ],
      "stateMutability": "view",
      "type": "function"
    },
    {
      "inputs": [],
      "name": "DIRECTOR_ROLE",
      "outputs": [
        {
          "internalType": "bytes32",
          "name": "",
          "type": "bytes32"
        }
      ],
      "stateMutability": "view",
      "type": "function"
    },
    {
      "inputs": [],
      "name": "STUDENT_ROLE",
      "outputs": [
        {
          "internalType": "bytes32",
          "name": "",
          "type": "bytes32"
        }
      ],
      "stateMutability": "view",
      "type": "function"
    },
    {
      "inputs": [],
      "name": "TEACHER_ROLE",
      "outputs": [
        {
          "internalType": "bytes32",
          "name": "",
          "type": "bytes32"
        }
      ],
      "stateMutability": "view",
      "type": "function"
    },
    {
      "inputs": [],
      "name": "compileResult",
      "outputs": [
        {
          "components": [
            {
              "internalType": "string",
              "name": "candidatesName",
              "type": "string"
            },
            {
              "internalType": "uint256",
              "name": "voteCount",
              "type": "uint256"
            }
          ],
          "internalType": "struct Election.Candidates[]",
          "name": "",
          "type": "tuple[]"
        }
      ],
      "stateMutability": "nonpayable",
      "type": "function"
    },
    {
      "inputs": [],
      "name": "disableVoting",
      "outputs": [],
      "stateMutability": "nonpayable",
      "type": "function"
    },
    {
      "inputs": [],
      "name": "enableVoting",
      "outputs": [],
      "stateMutability": "nonpayable",
      "type": "function"
    },
    {
      "inputs": [],
      "name": "endAt",
      "outputs": [
        {
          "internalType": "uint256",
          "name": "",
          "type": "uint256"
        }
      ],
      "stateMutability": "view",
      "type": "function"
    },
    {
      "inputs": [
        {
          "internalType": "bytes32",
          "name": "role",
          "type": "bytes32"
        }
      ],
      "name": "getRoleAdmin",
      "outputs": [
        {
          "internalType": "bytes32",
          "name": "",
          "type": "bytes32"
        }
      ],
      "stateMutability": "view",
      "type": "function"
    },
    {
      "inputs": [
        {
          "internalType": "bytes32",
          "name": "role",
          "type": "bytes32"
        },
        {
          "internalType": "address",
          "name": "account",
          "type": "address"
        }
      ],
      "name": "grantRole",
      "outputs": [],
      "stateMutability": "nonpayable",
      "type": "function"
    },
    {
      "inputs": [
        {
          "internalType": "bytes32",
          "name": "role",
          "type": "bytes32"
        },
        {
          "internalType": "address",
          "name": "account",
          "type": "address"
        }
      ],
      "name": "hasRole",
      "outputs": [
        {
          "internalType": "bool",
          "name": "",
          "type": "bool"
        }
      ],
      "stateMutability": "view",
      "type": "function"
    },
    {
      "inputs": [],
      "name": "pause",
      "outputs": [
        {
          "internalType": "bool",
          "name": "",
          "type": "bool"
        }
      ],
      "stateMutability": "nonpayable",
      "type": "function"
    },
    {
      "inputs": [],
      "name": "paused",
      "outputs": [
        {
          "internalType": "bool",
          "name": "",
          "type": "bool"
        }
      ],
      "stateMutability": "view",
      "type": "function"
    },
    {
      "inputs": [],
      "name": "privateViewResult",
      "outputs": [
        {
          "components": [
            {
              "internalType": "string",
              "name": "candidatesName",
              "type": "string"
            },
            {
              "internalType": "uint256",
              "name": "voteCount",
              "type": "uint256"
            }
          ],
          "internalType": "struct Election.Candidates[]",
          "name": "",
          "type": "tuple[]"
        }
      ],
      "stateMutability": "view",
      "type": "function"
    },
    {
      "inputs": [
        {
          "internalType": "address[]",
          "name": "_student",
          "type": "address[]"
        }
      ],
      "name": "registerStudent",
      "outputs": [
        {
          "internalType": "bool",
          "name": "",
          "type": "bool"
        }
      ],
      "stateMutability": "nonpayable",
      "type": "function"
    },
    {
      "inputs": [
        {
          "internalType": "bytes32",
          "name": "_role",
          "type": "bytes32"
        },
        {
          "internalType": "address",
          "name": "_account",
          "type": "address"
        }
      ],
      "name": "renounceRole",
      "outputs": [],
      "stateMutability": "nonpayable",
      "type": "function"
    },
    {
      "inputs": [],
      "name": "result",
      "outputs": [
        {
          "components": [
            {
              "internalType": "string",
              "name": "candidatesName",
              "type": "string"
            },
            {
              "internalType": "uint256",
              "name": "voteCount",
              "type": "uint256"
            }
          ],
          "internalType": "struct Election.Candidates[]",
          "name": "",
          "type": "tuple[]"
        }
      ],
      "stateMutability": "view",
      "type": "function"
    },
    {
      "inputs": [],
      "name": "resultReadyAt",
      "outputs": [
        {
          "internalType": "uint256",
          "name": "",
          "type": "uint256"
        }
      ],
      "stateMutability": "view",
      "type": "function"
    },
    {
      "inputs": [
        {
          "internalType": "bytes32",
          "name": "_role",
          "type": "bytes32"
        },
        {
          "internalType": "address",
          "name": "_account",
          "type": "address"
        }
      ],
      "name": "revokeRole",
      "outputs": [],
      "stateMutability": "nonpayable",
      "type": "function"
    },
    {
      "inputs": [
        {
          "internalType": "address[]",
          "name": "_Bod",
          "type": "address[]"
        }
      ],
      "name": "setupBOD",
      "outputs": [
        {
          "internalType": "bool",
          "name": "",
          "type": "bool"
        }
      ],
      "stateMutability": "nonpayable",
      "type": "function"
    },
    {
      "inputs": [
        {
          "internalType": "address[]",
          "name": "_teacher",
          "type": "address[]"
        }
      ],
      "name": "setupTeachers",
      "outputs": [
        {
          "internalType": "bool",
          "name": "",
          "type": "bool"
        }
      ],
      "stateMutability": "nonpayable",
      "type": "function"
    },
    {
      "inputs": [],
      "name": "showResult",
      "outputs": [
        {
          "internalType": "bool",
          "name": "",
          "type": "bool"
        }
      ],
      "stateMutability": "nonpayable",
      "type": "function"
    },
    {
      "inputs": [],
      "name": "startAt",
      "outputs": [
        {
          "internalType": "uint256",
          "name": "",
          "type": "uint256"
        }
      ],
      "stateMutability": "view",
      "type": "function"
    },
    {
      "inputs": [
        {
          "internalType": "bytes4",
          "name": "interfaceId",
          "type": "bytes4"
        }
      ],
      "name": "supportsInterface",
      "outputs": [
        {
          "internalType": "bool",
          "name": "",
          "type": "bool"
        }
      ],
      "stateMutability": "view",
      "type": "function"
    },
    {
      "inputs": [],
      "name": "unpause",
      "outputs": [
        {
          "internalType": "bool",
          "name": "",
          "type": "bool"
        }
      ],
      "stateMutability": "nonpayable",
      "type": "function"
    },
    {
      "inputs": [
        {
          "internalType": "string",
          "name": "_participantsName",
          "type": "string"
        }
      ],
      "name": "vote",
      "outputs": [
        {
          "internalType": "bool",
          "name": "",
          "type": "bool"
        }
      ],
      "stateMutability": "nonpayable",
      "type": "function"
    },
    {
      "inputs": [
        {
          "internalType": "address",
          "name": "",
          "type": "address"
        }
      ],
      "name": "voterStatus",
      "outputs": [
        {
          "internalType": "bool",
          "name": "",
          "type": "bool"
        }
      ],
      "stateMutability": "view",
      "type": "function"
    }
  ],
  "bytecode": "0x60c06040523480156200001157600080fd5b506040516200691c3803806200691c833981810160405281019062000037919062000f8e565b8560008060006101000a81548160ff021916908315150217905550620000867f26b5d2ef9596942e1806413b14c537bf4b7f9a25a961094b146296e0a17c6a5360001b62000abe60201b60201c565b620000ba7fc30c0564f804eda0cf001a16110c31a10eb46e3c9828d4941dd60e4f0384a10560001b62000abe60201b60201c565b620000ee7f40b04f3af83338cad6cbaefcf56b9967d9c71a25ed4842d3ba7e8b97f1327a9f60001b62000abe60201b60201c565b620001457f36a5c4aaacb6b388bbd448bf11096b7dafc5652bcc9046084fd0e95b1fb0b2cc7fd16e204b8a42a15ab0ea6bb8ec1ecdfbe69f38074fc865323af19efe7d9573d962000ac160201b62003a551760201c565b620001797fc72645878dfed0c985b83e45f7534e57def21597776994cdf56bbc3d88bfda6260001b62000abe60201b60201c565b620001ad7fe11bbfd391632c5308f64620e9052cb19a761155196e679f41e5b2735f7492ef60001b62000abe60201b60201c565b620002047fd16e204b8a42a15ab0ea6bb8ec1ecdfbe69f38074fc865323af19efe7d9573d97fdc1958ce1178d6eb32ccc146dcea8933f1978155832913ec88fa509962e1b41362000ac160201b62003a551760201c565b620002387f4989ba0cb0f926ab71e0061fee06d2cbc1808263c303d57824f9422d74d97c5e60001b62000abe60201b60201c565b6200026c7f09a19a71f2e1e722e5538e4e7b2b05795b14691934fb291091413d760c15304760001b62000abe60201b60201c565b620002c37f15e007796fc034bf8274acdcfbd2f48124815698ba6f70c109f3423981a7052f7fdc1958ce1178d6eb32ccc146dcea8933f1978155832913ec88fa509962e1b41362000ac160201b62003a551760201c565b620002f77f6ff5ec271a11eaca65528dfcd289b697512ad278c1a7f48ea134d2de1f6e97a460001b62000abe60201b60201c565b6200032b7fc869b1a08b2fc61de983970f2f5ab3cd923bd188ae8a1daf397a9a5dc412536260001b62000abe60201b60201c565b620003627fdc1958ce1178d6eb32ccc146dcea8933f1978155832913ec88fa509962e1b4138062000ac160201b62003a551760201c565b620003967f5a4d654f1e2e5528c7c904c8b3fd14c715b0653fbb59c6c5ebf15aa89ef46cc460001b62000abe60201b60201c565b620003ca7f889feb1047a5f2e364c1928883df72360da920affd172c549c3f28d649b5737960001b62000abe60201b60201c565b620004017f15e007796fc034bf8274acdcfbd2f48124815698ba6f70c109f3423981a7052f8262000b2560201b62003ab11760201c565b620004357f7e14749ddaef3c82f9d627a17ba5f247265795b2dd332e0339e9b74920f534a460001b62000abe60201b60201c565b620004697f2dc90c5a69becb1cee76f4418bd26a8296f13918d678df6a609ac2281b0168c860001b62000abe60201b60201c565b620004a07fdc1958ce1178d6eb32ccc146dcea8933f1978155832913ec88fa509962e1b4138262000b2560201b62003ab11760201c565b50620004d57fa9cb1548acbbb63084ba15ba8dbd25a739e15985d365fac714b303aefbf3d44860001b62000c1660201b60201c565b620005097f838eb1ab78a5e2c72f2ebf3e694e1e8c7339fa660257c61df98c79c6b1330cce60001b62000c1660201b60201c565b6200053d7f4f43bc9370fdac382bd5fed5c080bcd28e4e833cbebb09a9ec14e7a2fc2b24a060001b62000c1660201b60201c565b82518414620005e0576200057a7fefeb42d811495f28bc642f9d515761d5937d3095d352bdd3096c38cf60a54f1d60001b62000c1660201b60201c565b620005ae7fcf028f247f5513b350058947d9a812ad0b0eb20639d90133dab5f59edc4bd78e60001b62000c1660201b60201c565b6040517f0e8cddf100000000000000000000000000000000000000000000000000000000815260040160405180910390fd5b620006147fdc2c9a3e0cd98a0554b1df9556025c7daa194eb01987891cc0e1a37d9a345d2060001b62000c1660201b60201c565b620006487fd449db87cec86d8151128fd3baa37607ab94c3a290c6fc6a4c5bffa91933e46e60001b62000c1660201b60201c565b6200067c7f10f39c9aa27a8e6f20c42d8c8937c5b4ba58a078bf922f3fb121499d4d8a96a660001b62000c1660201b60201c565b84600290805190602001906200069492919062000cac565b50620006c97ff288cdada3d9477f970f3e1b526b5679cd92e56e6711c7e86f767552d61d25eb60001b62000c1660201b60201c565b620006fd7ffa3adb8d22c3ab2fdb2d39cdde22de2c05b3e6d9e3c54dfeeca82833a117643760001b62000c1660201b60201c565b83600381905550620007387f0e2b48a95ba76371ee0d8312a2490365134e9e0f96a2b5ba7e6fe2bed9a9bb0460001b62000c1660201b60201c565b6200076c7f96113717724308e09e4cdac0c2eafd8056dee38ec2c98ed76655866a1e47d0da60001b62000c1660201b60201c565b82600490805190602001906200078492919062000d3d565b50620007b97f757b98fbd2998c496c18ef6156828806bfe5a097f6e9b0f054b1fbc3f322c3df60001b62000c1660201b60201c565b620007ed7f0b45cc417aaf5136633574cc0efe61541ccda3b1d7f030a5871bc5583078689660001b62000c1660201b60201c565b8160808181525050620008297f61cefecd6461df8c62cf5b21f9d921673a50907c6f28a5129a00f552227e3c6b60001b62000c1660201b60201c565b6200085d7faed192ccf60971b49ffeef7d4f593d31d9177611b9989c8f6bc51d03af712f2c60001b62000c1660201b60201c565b8073ffffffffffffffffffffffffffffffffffffffff1660a08173ffffffffffffffffffffffffffffffffffffffff1660601b81525050620008c87f78c67b7aa9bd49977c12d4d894bba2dfa63383ec469d03f07eaff5c0eaea69d260001b62000c1660201b60201c565b620008fc7fc39bfbce6f8d25b139e13bc444441f936fbcb4ec21dfcb3db59d402c3b472b3b60001b62000c1660201b60201c565b60005b835181101562000ab1576200093d7f36133c962a4eae2a456b588a6fc76ae8929eeeb0a359a05aaee4003c4c5891dc60001b62000c1660201b60201c565b620009717feed73c9ee7d7df29ef4355725c1c5a58a20d894d470cae8b16268c409952e52e60001b62000c1660201b60201c565b6000600a858381518110620009af577f4e487b7100000000000000000000000000000000000000000000000000000000600052603260045260246000fd5b6020026020010151604051620009c691906200108d565b9081526020016040518091039020905062000a0a7faad0317d878fc44c684cbe145fbd71f03e8fc0929c9e4dc52fe91d6b2664c13860001b62000c1660201b60201c565b62000a3e7fc6bc68e35109889b70bcb6e757ba9f70b556b1d183093d469f737f46c8d8c9c260001b62000c1660201b60201c565b84828151811062000a78577f4e487b7100000000000000000000000000000000000000000000000000000000600052603260045260246000fd5b602002602001015181600001908051906020019062000a9992919062000cac565b5050808062000aa8906200122a565b915050620008ff565b505050505050506200134a565b50565b600062000ad48362000c1960201b60201c565b90508160016000858152602001908152602001600020600101819055508181847fbd79b86ffe0ab8e8776151514217cd7cacd52c909f66475c3af44e129f0b00ff60405160405180910390a4505050565b62000b37828262000c3960201b60201c565b62000c1257600180600084815260200190815260200160002060000160008373ffffffffffffffffffffffffffffffffffffffff1673ffffffffffffffffffffffffffffffffffffffff16815260200190815260200160002060006101000a81548160ff02191690831515021790555062000bb762000ca460201b60201c565b73ffffffffffffffffffffffffffffffffffffffff168173ffffffffffffffffffffffffffffffffffffffff16837f2f8788117e7eff1d82e926ec794901d17c78024a50270940304540a733656f0d60405160405180910390a45b5050565b50565b600060016000838152602001908152602001600020600101549050919050565b60006001600084815260200190815260200160002060000160008373ffffffffffffffffffffffffffffffffffffffff1673ffffffffffffffffffffffffffffffffffffffff16815260200190815260200160002060009054906101000a900460ff16905092915050565b600033905090565b82805462000cba90620011be565b90600052602060002090601f01602090048101928262000cde576000855562000d2a565b82601f1062000cf957805160ff191683800117855562000d2a565b8280016001018555821562000d2a579182015b8281111562000d2957825182559160200191906001019062000d0c565b5b50905062000d39919062000da4565b5090565b82805482825590600052602060002090810192821562000d91579160200282015b8281111562000d9057825182908051906020019062000d7f92919062000cac565b509160200191906001019062000d5e565b5b50905062000da0919062000dc3565b5090565b5b8082111562000dbf57600081600090555060010162000da5565b5090565b5b8082111562000de7576000818162000ddd919062000deb565b5060010162000dc4565b5090565b50805462000df990620011be565b6000825580601f1062000e0d575062000e2e565b601f01602090049060005260206000209081019062000e2d919062000da4565b5b50565b600062000e4862000e4284620010cf565b620010a6565b9050808382526020820190508285602086028201111562000e6857600080fd5b60005b8581101562000eb757815167ffffffffffffffff81111562000e8c57600080fd5b80860162000e9b898262000f4a565b8552602085019450602084019350505060018101905062000e6b565b5050509392505050565b600062000ed862000ed284620010fe565b620010a6565b90508281526020810184848401111562000ef157600080fd5b62000efe84828562001188565b509392505050565b60008151905062000f178162001316565b92915050565b600082601f83011262000f2f57600080fd5b815162000f4184826020860162000e31565b91505092915050565b600082601f83011262000f5c57600080fd5b815162000f6e84826020860162000ec1565b91505092915050565b60008151905062000f888162001330565b92915050565b60008060008060008060c0878903121562000fa857600080fd5b600062000fb889828a0162000f06565b965050602087015167ffffffffffffffff81111562000fd657600080fd5b62000fe489828a0162000f4a565b955050604062000ff789828a0162000f77565b945050606087015167ffffffffffffffff8111156200101557600080fd5b6200102389828a0162000f1d565b93505060806200103689828a0162000f77565b92505060a06200104989828a0162000f06565b9150509295509295509295565b6000620010638262001134565b6200106f81856200113f565b93506200108181856020860162001188565b80840191505092915050565b60006200109b828462001056565b915081905092915050565b6000620010b2620010c5565b9050620010c08282620011f4565b919050565b6000604051905090565b600067ffffffffffffffff821115620010ed57620010ec620012d6565b5b602082029050602081019050919050565b600067ffffffffffffffff8211156200111c576200111b620012d6565b5b620011278262001305565b9050602081019050919050565b600081519050919050565b600081905092915050565b600062001157826200115e565b9050919050565b600073ffffffffffffffffffffffffffffffffffffffff82169050919050565b6000819050919050565b60005b83811015620011a85780820151818401526020810190506200118b565b83811115620011b8576000848401525b50505050565b60006002820490506001821680620011d757607f821691505b60208210811415620011ee57620011ed620012a7565b5b50919050565b620011ff8262001305565b810181811067ffffffffffffffff82111715620012215762001220620012d6565b5b80604052505050565b600062001237826200117e565b91507fffffffffffffffffffffffffffffffffffffffffffffffffffffffffffffffff8214156200126d576200126c62001278565b5b600182019050919050565b7f4e487b7100000000000000000000000000000000000000000000000000000000600052601160045260246000fd5b7f4e487b7100000000000000000000000000000000000000000000000000000000600052602260045260246000fd5b7f4e487b7100000000000000000000000000000000000000000000000000000000600052604160045260246000fd5b6000601f19601f8301169050919050565b62001321816200114a565b81146200132d57600080fd5b50565b6200133b816200117e565b81146200134757600080fd5b50565b60805160a05160601c6155a9620013736000396000613d2901526000613d6501526155a96000f3fe608060405234801561001057600080fd5b50600436106101c45760003560e01c80635c975abb116100f9578063a217fddf11610097578063d547741f11610071578063d547741f146104ff578063eb4439fb1461051b578063f7be43fb14610525578063fc36e15b14610543576101c4565b8063a217fddf146104a5578063c7446565146104c3578063ca94e6a7146104e1576101c4565b80638456cb59116100d35780638456cb591461041b57806386e5c15a1461043957806391d1485414610457578063a097dc4b14610487576101c4565b80635c975abb146103c157806365372147146103df5780637cc3ae8c146103fd576101c4565b806333ee3131116101665780633f4ba83a116101405780633f4ba83a14610337578063531cbb1214610355578063543cbb0514610373578063576cc4f214610391576101c4565b806333ee3131146102df57806336568abe146102fd5780633e4f9cae14610319576101c4565b80631fc26a56116101a25780631fc26a5614610233578063248a9ca3146102635780632f2ff15d14610293578063301aee01146102af576101c4565b806301ffc9a7146101c957806304cd1819146101f95780630d60b1d014610203575b600080fd5b6101e360048036038101906101de91906145a8565b610573565b6040516101f09190614bc7565b60405180910390f35b6102016105ed565b005b61021d60048036038101906102189190614502565b6108ec565b60405161022a9190614bc7565b60405180910390f35b61024d60048036038101906102489190614502565b610b77565b60405161025a9190614bc7565b60405180910390f35b61027d60048036038101906102789190614543565b610e02565b60405161028a9190614be2565b60405180910390f35b6102ad60048036038101906102a8919061456c565b610e22565b005b6102c960048036038101906102c49190614502565b610e4b565b6040516102d69190614bc7565b60405180910390f35b6102e76110d6565b6040516102f49190614bc7565b60405180910390f35b6103176004803603810190610312919061456c565b61163c565b005b610321611ad8565b60405161032e9190614be2565b60405180910390f35b61033f611afc565b60405161034c9190614bc7565b60405180910390f35b61035d611c1c565b60405161036a9190614ba5565b60405180910390f35b61037b612519565b6040516103889190614ba5565b60405180910390f35b6103ab60048036038101906103a691906144d9565b61287f565b6040516103b89190614bc7565b60405180910390f35b6103c961289f565b6040516103d69190614bc7565b60405180910390f35b6103e76128b5565b6040516103f49190614ba5565b60405180910390f35b610405612b32565b6040516104129190614dbf565b60405180910390f35b610423612b38565b6040516104309190614bc7565b60405180910390f35b610441612c58565b60405161044e9190614be2565b60405180910390f35b610471600480360381019061046c919061456c565b612c7c565b60405161047e9190614bc7565b60405180910390f35b61048f612ce7565b60405161049c9190614be2565b60405180910390f35b6104ad612d0b565b6040516104ba9190614be2565b60405180910390f35b6104cb612d12565b6040516104d89190614dbf565b60405180910390f35b6104e9612d18565b6040516104f69190614dbf565b60405180910390f35b6105196004803603810190610514919061456c565b612d1e565b005b610523612f3d565b005b61052d613122565b60405161053a9190614be2565b60405180910390f35b61055d600480360381019061055891906145d1565b613146565b60405161056a9190614bc7565b60405180910390f35b60007f7965db0b000000000000000000000000000000000000000000000000000000007bffffffffffffffffffffffffffffffffffffffffffffffffffffffff1916827bffffffffffffffffffffffffffffffffffffffffffffffffffffffff191614806105e657506105e582613b91565b5b9050919050565b7fdc1958ce1178d6eb32ccc146dcea8933f1978155832913ec88fa509962e1b41361061f8161061a613bfb565b613c03565b61064b7f6c202330d02420ff17f08869cdf99c038c76fc7c525ade165667c24f59dd547460001b613ca0565b6106777f7ee48727c47124853de7e9af64e0f51d14525a4ab004b9b866ec976da8c1f34360001b613ca0565b6106a37f6ceba47745afbaac91c9aec782da8e74a183d199b309c0d9593ffb3da3f4fd7e60001b613ca0565b6006546007541415610739576106db7f12c9b061a3d2587887f757b8f0a25c1003a632cc6546a65ae6127138255fea3060001b613ca0565b6107077fb391be89467754b1855723e37f025c98bf0bd469084871ee9b681d1da6b5000d60001b613ca0565b6040517f7fa0120200000000000000000000000000000000000000000000000000000000815260040160405180910390fd5b6107657fd05536d0b8b9472e96e7e99bcae4dcc40f7bac476fd1ffe1bfdfd6321ce2de7060001b613ca0565b6107917f275e034881de573c5a1fc7a628613548fdb1d8cac059814bd2c0aaa3b91df25760001b613ca0565b6107bd7fc2a13c2c30c90e00e9bf981e918dd5ec99547c190e4a9a6f4698be0ef587eb2160001b613ca0565b426007819055506107f07ffe49d7ea85afa6418d18d5f0f1052f23dac44af3d053665e1d615c3c1aa133d160001b613ca0565b61081c7f46eb4faae62519f18bdbb7ace99d51a807545ebc5e942962b8e4ac5e72861e4c60001b613ca0565b61085a6040518060400160405280600581526020017f456e646564000000000000000000000000000000000000000000000000000000815250613ca3565b6108867f9251ad398dadb3f9c48c92c05d5adafedb2d137555236dc9ebe51b5f151cd8f760001b613ca0565b6108b27f131abab14992283e22a42981481d735c93131b11c10d0eb95e6d32bf3185c61260001b613ca0565b7f1057d4f16a6857731231320b2564bcdfb5051a137a4f8705a2d5b0813fabeea1426040516108e19190614dbf565b60405180910390a150565b60007fdc1958ce1178d6eb32ccc146dcea8933f1978155832913ec88fa509962e1b4136109208161091b613bfb565b613c03565b61094c7f48867e537b23fec00a5599ce06ceb407c64fe1a8075aad4a6e9dc7315781890b60001b613ca0565b6109787f2e20b2e393ef6d3535f3069aa500d8310ef0c13a586b0f01224e1b5b9fb58c1b60001b613ca0565b6109a47ff4c5304d9ef9b28a93245ee466ca59481d6302faacb0d5bb29e49e95a37392c560001b613ca0565b60005b8351811015610a85576109dc7f38f6f88915a0e4fef6ab3175f867104dbff61871122bea1c08637a33a19e5fbb60001b613ca0565b610a087f1a8c24be222a43a1d025a52f7d64165d83d18619f857301aff5492ce98b9552360001b613ca0565b610a727f15e007796fc034bf8274acdcfbd2f48124815698ba6f70c109f3423981a7052f858381518110610a65577f4e487b7100000000000000000000000000000000000000000000000000000000600052603260045260246000fd5b6020026020010151610e22565b8080610a7d90615148565b9150506109a7565b50610ab27f75644049e847c2b90ef2be08ab62fd72170090f144c295ad47b306acd1cd5b0f60001b613ca0565b610ade7f79e5edf3d694a485cba113e556be68cc3de08b5f79be5851bf3c179ba9535b0960001b613ca0565b7f5f5e39754c7e1865f8af3e41e829b0c163e67854b93f99ab4c75804928592d4a83604051610b0d9190614b83565b60405180910390a1610b417fb0cfd038338db03127c1aa6d753428a8b48b7951f32ccabe03344c2ce1e1da0860001b613ca0565b610b6d7f850f340b18d094ac22e7cdb2b6a7848e50983db664a2abdf9c1adb62540228e060001b613ca0565b6001915050919050565b60007fd16e204b8a42a15ab0ea6bb8ec1ecdfbe69f38074fc865323af19efe7d9573d9610bab81610ba6613bfb565b613c03565b610bd77fe74b83523e1ad056d341881399dbce775d58319d9f80cf563b652f4944337f6660001b613ca0565b610c037f552536524ddce697f915a3d9d04e1a40f9aeeb0392952a7b4415a7734de64a3660001b613ca0565b610c2f7f02782e34735f73d5a798fdd313b6c7887e6a80d15512416bfc1cf31355c8f15360001b613ca0565b60005b8351811015610d1057610c677f053075c4ab51db8a16dc1c749ce067786e76b92d9c90bd775bd47d9c4902756460001b613ca0565b610c937feb55db93aa959dfd5461b9242d83bee9fbb2eb49e3a9b80b011f2d2c714a37f260001b613ca0565b610cfd7f36a5c4aaacb6b388bbd448bf11096b7dafc5652bcc9046084fd0e95b1fb0b2cc858381518110610cf0577f4e487b7100000000000000000000000000000000000000000000000000000000600052603260045260246000fd5b6020026020010151610e22565b8080610d0890615148565b915050610c32565b50610d3d7f9b18e0dfad4bc74139595850a581415449ef0f03a6da758792e212d95e1657e560001b613ca0565b610d697f21651e720d10887cc08e3ded68e712a91e55bc64ec3f5570610c3560075d1e2560001b613ca0565b7f03754d1a0117cc47bdfac8251ab45273d3eab88e939e90833352c073b268069083604051610d989190614b83565b60405180910390a1610dcc7fb4f500fbd790a7f13cb1536dee5a4c7869005b9f7acabe0f7a6aed082c1fc27c60001b613ca0565b610df87f4d1b3383bbc1840d82c68e7e8525915ba30e08f944ef126beefc2d991326988f60001b613ca0565b6001915050919050565b600060016000838152602001908152602001600020600101549050919050565b610e2b82610e02565b610e3c81610e37613bfb565b613c03565b610e468383613ab1565b505050565b60007fdc1958ce1178d6eb32ccc146dcea8933f1978155832913ec88fa509962e1b413610e7f81610e7a613bfb565b613c03565b610eab7f3b308da7c35607e0ea07ec7784735c2956963491a6f505486bbf17df44e3663c60001b613ca0565b610ed77f713064c89f84ae4caafe7f76b01a537fc04a1655e92a7af7ab0abc783bef6f2e60001b613ca0565b610f037fade3c1358e8dc7b5078e94fadc1738ccdf5c22c06a80ebeae8a6666a5e4dbf5a60001b613ca0565b60005b8351811015610fe457610f3b7f03d70e1a64b8bae45ed254a2c7a4df0962338bce969e40f99865cfae6a79c92260001b613ca0565b610f677fdda504c7d2e3c21a13cef1e18baf33fa87cf4337b33c5ed7a8750cf535175f1d60001b613ca0565b610fd17fd16e204b8a42a15ab0ea6bb8ec1ecdfbe69f38074fc865323af19efe7d9573d9858381518110610fc4577f4e487b7100000000000000000000000000000000000000000000000000000000600052603260045260246000fd5b6020026020010151610e22565b8080610fdc90615148565b915050610f06565b506110117f9c4d704d5b4bf79951e11ff7f467b5559d249181220e64f9c2919822c526090c60001b613ca0565b61103d7f0f145d4b5d37232aad9438c7189a21c1478f844d060a45faee6f96c252e71f8960001b613ca0565b7f426025bf71642554cad091b33bb9ad1245da42bc9f4dc5b7a7092699ff9bbb8a8360405161106c9190614b83565b60405180910390a16110a07f17c2f5f9493b266b73c83b1af0e148505882423aac6cd9d4e10477d07374b13160001b613ca0565b6110cc7f5b7f6959a56aa65e943d691da3612c24fe5ed807e1252fc5a150deb052c2b8ea60001b613ca0565b6001915050919050565b60006111037e55ae9869e68398fb0d08cfa272b757b2ec81acad80e2faccda18ac446c63a760001b613ca0565b61112f7f067e2f819cced1e647dcd6b9e07d74dbf30560a0597c338c94c917753da3016a60001b613ca0565b61115b7f2a8908d96969a850fb21da2124701da52ba5ee455ed8a7179cba978f8f0c2bd060001b613ca0565b6111877fcc4caae2902b71c8b83e3f4f1c1bce26ec68c7a46b5c42bec9b8a223b7d4402f60001b613ca0565b600115156111b57fdc1958ce1178d6eb32ccc146dcea8933f1978155832913ec88fa509962e1b41333612c7c565b151514806111f05750600115156111ec7fd16e204b8a42a15ab0ea6bb8ec1ecdfbe69f38074fc865323af19efe7d9573d933612c7c565b1515145b806112285750600115156112247f15e007796fc034bf8274acdcfbd2f48124815698ba6f70c109f3423981a7052f33612c7c565b1515145b611267576040517f08c379a000000000000000000000000000000000000000000000000000000000815260040161125e90614d5f565b60405180910390fd5b6112937ff356d6949fdc5dcf63e68f2d50680096344b4dfc622a1619efd31bc9a760075060001b613ca0565b6112bf7f11cb96c1e1445cc377d52f757e5ce76f685627113d3294a7adca4bff83534e1d60001b613ca0565b6112eb7f713eeecea9b97fd8d1260035abc338dbd3c5538258c10f86aabf99f9749d499060001b613ca0565b6113177f49b09c1a3e14ff807046c63b4bc56c4ccc01c00563021a9008c169d8c8dd010a60001b613ca0565b6113437f45c5651ed2050f222cf5bc3b8ab7da2c86ef462a83a105ed67234e3f09a973d660001b613ca0565b61136f7f460b09d226f29caf34c2eb840152430dd5e6d78a312aae427496194ac9f86c5060001b613ca0565b6000600c80549050116113b7576040517f08c379a00000000000000000000000000000000000000000000000000000000081526004016113ae90614c5f565b60405180910390fd5b6113e37fed65fb2c3d2cd878f8f14ce52fd33f10552b0295fcccce2d33c6e9de3bc76bf660001b613ca0565b61140f7f4f13e5dbbff61962ba9cbc35350f271c4c538b5d988b634c4774deed645bcb5a60001b613ca0565b61143b7f481663c6c5b5b0724f9d9a929c8a732bd471735d3f6eb7e9833f59413ed1cf5060001b613ca0565b6001600560016101000a81548160ff0219169083151502179055506114827f9fdeed62a1b72ec566bbb6e6305d2aeae557562d61e44755f1696eb551a0f6e460001b613ca0565b6114ae7fe15d55d910ac9e01f0a8bd78e32e96ef22222063c4673a60b83c684e185c6c5760001b613ca0565b6114ec6040518060400160405280600d81526020017f526573756c747320726561647900000000000000000000000000000000000000815250613ca3565b6115187fad8be4e4a04d597d88f859e5f2dca54108688f15dc440356210054088d8c3c6860001b613ca0565b6115447f9e8618631dfb0f6cad5c67269041263224137d55e4b3065e4c22de088a85f08860001b613ca0565b426008819055506115777f154aaf57295b5ec7179a43b5fe8815b0a7d64f9e660d37dd03c88e56eabafa0d60001b613ca0565b6115a27e72d49a722f3b0d5fee10bda14a63a594b511e9104178a46aa9302a90f4ed0460001b613ca0565b7fa0543ff9d88187d65d46d85676726c9de861772108685cd6d63e0e9e4255cd19336008546040516115d5929190614b5a565b60405180910390a16116097f8074142761d96ce6be78566b6ea09ead32ed36822ada715c307e34441a73e56060001b613ca0565b6116357f47d5423ea48019a8b6d70217bc23c0af9d7ac4bbd6784aebcb3f5506c6e59fbe60001b613ca0565b6001905090565b7fdc1958ce1178d6eb32ccc146dcea8933f1978155832913ec88fa509962e1b41361166e81611669613bfb565b613c03565b61169a7fc63568e3d91e915a2761a4ab55c2aca51da68a01f48dfe9078c021b904fc37cf60001b613dd7565b6116c67f920ec325fcfb7269054047cefb71b670cea9f5833db7d53a41361ca53161a45960001b613dd7565b6116f27f7a12033297fb963d3f705d297122a44eea638d00c426a387610685acd7947d4360001b613dd7565b61171e7f09f433e124970d62dd2ddd1b3331e3a1497d7759d24654adc542ad16a31f531d60001b613dd7565b7fdc1958ce1178d6eb32ccc146dcea8933f1978155832913ec88fa509962e1b4138314611780576040517f08c379a000000000000000000000000000000000000000000000000000000000815260040161177790614d3f565b60405180910390fd5b6117ac7f1a9883e0fbc994a0d9af2eda6c8033bc3e68f07f89aa5cf5ff8b1f592133d62960001b613dd7565b6117d87f815d280a850e7fe71efa118191f08345ea30026eb841ffd1ea4cafc136403fcf60001b613dd7565b6118047ffeab0e65d893d9b0bbc8c6eaec8cacba0820ac03ea3c206294b3efc70b15292760001b613dd7565b61182e7f15e007796fc034bf8274acdcfbd2f48124815698ba6f70c109f3423981a7052f83612c7c565b6118f15761185e7fb7e1e7c2eaed732c94fc3992a21926ff052abeb704e2b71b54557ff3e7a35c0d60001b613dd7565b61188a7f60d9035ba0752cc0a8391dc20ffee92211894bb53e1daa97cfbb5443e802099560001b613dd7565b6118b67fdc3589c3c64edd28647390078c45763cb0700e66ef49e176d8dc9e4cd0630a2d60001b613dd7565b6040517f08c379a00000000000000000000000000000000000000000000000000000000081526004016118e890614cff565b60405180910390fd5b61191d7f72e439a38ca2048a24efc3cc0bc6eab256f936fbb08d10d44bd2654f3a33fe7960001b613dd7565b6119497f3f37b8160ff981f46119b702130a41ac8f1f669b5465415a080b8748c6af71a060001b613dd7565b6119757f0a4631eeee2e67b7758a9336805dd2c00c89c5a9cda5c89d7aed89f87b930c4d60001b613dd7565b61199f7fdc1958ce1178d6eb32ccc146dcea8933f1978155832913ec88fa509962e1b41383613ab1565b6119cb7f9381b98bdb120b71dc1d240defe710f2131e1533c9533a1793a424b6e8b61bc460001b613dd7565b6119f77fd8ea9e4deb521cd818b121a3ac9d898935720b7475718eba9520456edad883ca60001b613dd7565b611a217fdc1958ce1178d6eb32ccc146dcea8933f1978155832913ec88fa509962e1b41333613dda565b611a4d7fe868dbcc46e7d331d6b7c716a685f213c4361a29453f1ca037223853a62251e860001b613dd7565b611a797f99efe20df25830145353746c5fb586a58781e0392710db13f69466b09aa1da2760001b613dd7565b8173ffffffffffffffffffffffffffffffffffffffff163373ffffffffffffffffffffffffffffffffffffffff167f53cb1046cc84eb7dcfb14a0610185dd97c2c40e311ef59a28c5622cf3942a3b860405160405180910390a3505050565b7f15e007796fc034bf8274acdcfbd2f48124815698ba6f70c109f3423981a7052f81565b60007fdc1958ce1178d6eb32ccc146dcea8933f1978155832913ec88fa509962e1b413611b3081611b2b613bfb565b613c03565b611b5c7f7ecb87e1f575216e4ce7a45ec31875ee4c4e1c60640457dc9493248def09718560001b613ca0565b611b887f4a4f2214acff4f24d5edd83fb9f9454d8c52d42a3e061c384432126d8f9af90560001b613ca0565b611bb47f8f41390a87a2e7e6965428e8771efc0c560359686863f5b899c4244fcab81a9d60001b613ca0565b611bbc613ebc565b611be87ffec3713e57cc9ca8da398b31b042cafeb6b44dcaf524707f6287594bf88f9e5160001b613ca0565b611c147fdd97ca566d0260c61b05f5be1215ca0d2a63bab0f8f2d1db40f21a7b304bb52360001b613ca0565b600191505090565b6060611c4a7f55d88a2c5cc250e48eb922276ae63e79b4ab43259ddb4ea5f1594a659dade96660001b613ca0565b611c767f2130d52aa03484fa3b116fae62240a61fa28fe1231ecbac729a46016f11ce63560001b613ca0565b611ca27f07bfe60a623a7f9a1f30017f5d08b8886514e0693ee9c2dcc1f7005c0eb58cb060001b613ca0565b611cce7fd1b0ad17fb33fa437fa6206028341092c057586b0927a18d6b333877a099460260001b613ca0565b60011515611cfc7fdc1958ce1178d6eb32ccc146dcea8933f1978155832913ec88fa509962e1b41333612c7c565b15151480611d37575060011515611d337fd16e204b8a42a15ab0ea6bb8ec1ecdfbe69f38074fc865323af19efe7d9573d933612c7c565b1515145b611d76576040517f08c379a0000000000000000000000000000000000000000000000000000000008152600401611d6d90614d5f565b60405180910390fd5b611da27f1a98b0abec397705c3006d0b0ffbe473c138e56cec624dd936c5a4732fb2b41460001b613ca0565b611dce7f466ebb2933235bab1fe4e23f6b6e9539bec4bc9a41e676c5ae2a5bc513c8fe0b60001b613ca0565b611dfa7fb8b0aa650ce624512d1c0afd4a476c3dfac02042adf47b6ebfe32d4f7b53cbc360001b613ca0565b611e267fd85bf46bf99fa11904f3e5eeb02ce7ce40541c3fabd6828762e790225f35be1760001b613ca0565b611e527f3a60c493c6b2328ef497e6387e8c3f9311ef66fab5efeac3e78c626ec943656a60001b613ca0565b611e7e7f35639374665e19434c11e8cecbb8138c866ac336b6258c84ce9b71c2197ad3e960001b613ca0565b60065460075411611ec4576040517f08c379a0000000000000000000000000000000000000000000000000000000008152600401611ebb90614d9f565b60405180910390fd5b611ef07f878cc8aa3f85d4b0a8263cfab5c1c7b59e78cfbda437af6aefc37e0db5852f8760001b613ca0565b611f1c7f31642df1441cff24732af8f4c2a6996f605f29d25a71bf1558ca828ff445fa4d60001b613ca0565b611f487f4847c9d350785f24fbb0e9a26ce143d227afc4196001efda6c65b41e51b77d8660001b613ca0565b611f747f4e1f7c60a83764b67a30c53590581dbde934a02637ccb74b927896af1c96300060001b613ca0565b6000600c8054905014611fbc576040517f08c379a0000000000000000000000000000000000000000000000000000000008152600401611fb390614d7f565b60405180910390fd5b611fe87f205f1869ec4ac7dfbb80a038a0c8ba21f2e95acd4dc42a028640a6f3342b4b4c60001b613ca0565b6120147f55c9d9192d7934d57b014a9fb3f151be8aff6754c9fc8dc30da873e0635d88fc60001b613ca0565b6120407f3fd853892cf04600512336fc8dea9c72c3f62bf3103eb070a84421a303feeacc60001b613ca0565b60005b6004805490508110156123385761207c7f13008163af7c32851d9d1cc939e4522f7bc97329edda8e8174acb0277af11ffe60001b613ca0565b6120a87f23a0e25f136bd26f83c668075ad69703109270a3916c1847864e87f996d6174960001b613ca0565b6000600a600483815481106120e6577f4e487b7100000000000000000000000000000000000000000000000000000000600052603260045260246000fd5b906000526020600020016040516120fd9190614aee565b9081526020016040518091039020604051806040016040529081600082018054612126906150e5565b80601f0160208091040260200160405190810160405280929190818152602001828054612152906150e5565b801561219f5780601f106121745761010080835404028352916020019161219f565b820191906000526020600020905b81548152906001019060200180831161218257829003601f168201915b5050505050815260200160018201548152505090506121e07ffbbf55d0c5a777fb5fe8be4523841f79acdd9d2f405ce57bd1230493465d1fe660001b613ca0565b61220c7f7593a63d870ac21bcc043b32190ffafdebebace14ab3ddb29788d72677c7e24e60001b613ca0565b600b60048381548110612248577f4e487b7100000000000000000000000000000000000000000000000000000000600052603260045260246000fd5b9060005260206000200160405161225f9190614aee565b9081526020016040518091039020548160200181815250506122a37f26b383f5d6c405bd463da0703f43d7e1e4d98cfa7472a45ce4c99ba53b1081b760001b613ca0565b6122cf7f204a8beb0f6531dbe50c8d829b49be6a0e488f1062ee6f521bd9ea4057a0310660001b613ca0565b600c81908060018154018082558091505060019003906000526020600020906002020160009091909190915060008201518160000190805190602001906123179291906142f9565b5060208201518160010155505050808061233090615148565b915050612043565b506123657fbf5271effa6a9e232cf2b4ddcc9bdc7665ee1601fb6c39f73edcf629e2b8457b60001b613ca0565b6123917fbc15f556cc2958ca0db56a46f21093dd8b615fc41d0468a6dfde264e8bd23fbd60001b613ca0565b7f3cc318d9b8d71dc636f657b849c7a6cedc964405e7a531c3a89900140a19ef77336040516123c09190614b3f565b60405180910390a16123f47fc84349c811cf7094c130803c4260f4481e7d98663fba75dfc7922d5df4d2ea9060001b613ca0565b6124207fd0c7dd75139981ce02c456643b9bd7088170d950986ea55532a0df5028b7045260001b613ca0565b600c805480602002602001604051908101604052809291908181526020016000905b828210156125105783829060005260206000209060020201604051806040016040529081600082018054612475906150e5565b80601f01602080910402602001604051908101604052809291908181526020018280546124a1906150e5565b80156124ee5780601f106124c3576101008083540402835291602001916124ee565b820191906000526020600020905b8154815290600101906020018083116124d157829003601f168201915b5050505050815260200160018201548152505081526020019060010190612442565b50505050905090565b60606125467e55ae9869e68398fb0d08cfa272b757b2ec81acad80e2faccda18ac446c63a760001b613ca0565b6125727f067e2f819cced1e647dcd6b9e07d74dbf30560a0597c338c94c917753da3016a60001b613ca0565b61259e7f2a8908d96969a850fb21da2124701da52ba5ee455ed8a7179cba978f8f0c2bd060001b613ca0565b6125ca7fcc4caae2902b71c8b83e3f4f1c1bce26ec68c7a46b5c42bec9b8a223b7d4402f60001b613ca0565b600115156125f87fdc1958ce1178d6eb32ccc146dcea8933f1978155832913ec88fa509962e1b41333612c7c565b1515148061263357506001151561262f7fd16e204b8a42a15ab0ea6bb8ec1ecdfbe69f38074fc865323af19efe7d9573d933612c7c565b1515145b8061266b5750600115156126677f15e007796fc034bf8274acdcfbd2f48124815698ba6f70c109f3423981a7052f33612c7c565b1515145b6126aa576040517f08c379a00000000000000000000000000000000000000000000000000000000081526004016126a190614d5f565b60405180910390fd5b6126d67ff356d6949fdc5dcf63e68f2d50680096344b4dfc622a1619efd31bc9a760075060001b613ca0565b6127027f11cb96c1e1445cc377d52f757e5ce76f685627113d3294a7adca4bff83534e1d60001b613ca0565b61272e7f73a48380a55bf0a807ed7cddc2bbca70654e844c4032eedb463c4e42faf84a6160001b613ca0565b61275a7f6d5d914e374ec96e683e51aa9296659d4b63a7d8c3eb33e295aec09f9ab157b160001b613ca0565b6127867f6b374b3708fbbe83c2666ca9374e416e89e372d3b6f9093826057fa8e152835c60001b613ca0565b600c805480602002602001604051908101604052809291908181526020016000905b8282101561287657838290600052602060002090600202016040518060400160405290816000820180546127db906150e5565b80601f0160208091040260200160405190810160405280929190818152602001828054612807906150e5565b80156128545780601f1061282957610100808354040283529160200191612854565b820191906000526020600020905b81548152906001019060200180831161283757829003601f168201915b50505050508152602001600182015481525050815260200190600101906127a8565b50505050905090565b60096020528060005260406000206000915054906101000a900460ff1681565b60008060009054906101000a900460ff16905090565b60606128e37f314edd7d4ee1686129737a6f9f03f585d3a3dc08c5f75e2da40f8cc2a03006fa60001b613ca0565b61290f7fe5be06577ac02f645642a3c0da671370f132880df5e776d957060806f6e9d35f60001b613ca0565b61293b7f05514f30cd1998c4cab7e049f9376c56a0199476516ff530e383c0f5cdacdf6860001b613ca0565b60001515600560019054906101000a900460ff16151514156129b5576129837f029831a4c476d1f725f06378caef5c9a0362346275be00108e14fc6a0f3e052b60001b613ca0565b6040517fb34ae8a900000000000000000000000000000000000000000000000000000000815260040160405180910390fd5b6129e17f16b875da67d817a67006abf1a714041e0363427010315b8d804a055cbab7e1f560001b613ca0565b612a0d7f99b296dbfef784b38b0ae3ff12871d4e2d06efb96c98ecf6edac51c1f113040260001b613ca0565b612a397f79711d7a129effced2a833185793164ffe4cb8764eb28c2ee166962f444e491b60001b613ca0565b600c805480602002602001604051908101604052809291908181526020016000905b82821015612b295783829060005260206000209060020201604051806040016040529081600082018054612a8e906150e5565b80601f0160208091040260200160405190810160405280929190818152602001828054612aba906150e5565b8015612b075780601f10612adc57610100808354040283529160200191612b07565b820191906000526020600020905b815481529060010190602001808311612aea57829003601f168201915b5050505050815260200160018201548152505081526020019060010190612a5b565b50505050905090565b60075481565b60007fdc1958ce1178d6eb32ccc146dcea8933f1978155832913ec88fa509962e1b413612b6c81612b67613bfb565b613c03565b612b987f0a382fbc88f736f0085d2115b0d79d383f9cdf18ac99c79634dd9fb37c4ee6d260001b613ca0565b612bc47f1173dbb7775b8fefde313b245bb35ec2deefab0d2d5959e38a9834cd416620d460001b613ca0565b612bf07f3467ef579c7a299a97771db960796ff2e8c0b03187a250de6b8a687348eebb0760001b613ca0565b612bf8613f5d565b612c247f7f20cc5c3515e74256e3ff5398241777258711ff7abf5723667b0d5bdecca22360001b613ca0565b612c507fda553daabdf1dabfb3c2c0121de309ae27a68b0ca51814e60615e127d2a7001a60001b613ca0565b600191505090565b7fd16e204b8a42a15ab0ea6bb8ec1ecdfbe69f38074fc865323af19efe7d9573d981565b60006001600084815260200190815260200160002060000160008373ffffffffffffffffffffffffffffffffffffffff1673ffffffffffffffffffffffffffffffffffffffff16815260200190815260200160002060009054906101000a900460ff16905092915050565b7fdc1958ce1178d6eb32ccc146dcea8933f1978155832913ec88fa509962e1b41381565b6000801b81565b60065481565b60085481565b612d2782610e02565b612d3881612d33613bfb565b613c03565b612d647f28977ed373f254f2d30537baea2866b6ce8db4ccd902e837ba053d0641ac629960001b613dd7565b612d907fb807639be169cec57b9dc26b76c6dfde10b55ccf1fdf5ff990cdad7aa18b8a7560001b613dd7565b612dbc7fce26a38d959e325e923d70bf0c86b5114549c9fc290a8ad0210bf79151122f4360001b613dd7565b612de67fdc1958ce1178d6eb32ccc146dcea8933f1978155832913ec88fa509962e1b41383612c7c565b15612eaa57612e177f813a6894b21bcf5c80433bed3745e31e311989232365f3e6cda0d57932334df760001b613dd7565b612e437f884f1e324923d7fde44e80fcbd03e785c0c7bfc68e879b17d6c2537a9daca87d60001b613dd7565b612e6f7f73bdf391d832374a0bfb12f7dd947b1603f6cc42b6ece3ae753347e58651411c60001b613dd7565b6040517f08c379a0000000000000000000000000000000000000000000000000000000008152600401612ea190614c7f565b60405180910390fd5b612ed67f76fab590cecffaf7db9d1dda29c33ca919326405cc846bbf5b4fa419d38af95f60001b613dd7565b612f027f517fe085c90d2f0b93a81d4af3e130d81b672fefc555a4ec8f03c0dbb3e6916960001b613dd7565b612f2e7f85c3b3eb444bc630fce3ee72ec602d7fbffc9a0d0f9d43415318cfefbee500ac60001b613dd7565b612f388383613dda565b505050565b7fdc1958ce1178d6eb32ccc146dcea8933f1978155832913ec88fa509962e1b413612f6f81612f6a613bfb565b613c03565b612f9b7f6fe9a52fd9610a7b75d510675ffee8f0654d8e19016716e6982dc74404fc761c60001b613ca0565b612fc77f6d0e0a1f21d69213addae2f37284971fe7999c3e3029e797a7d107ad8797094260001b613ca0565b612ff37f9f0cfba1b80fb0b32e5bc5bcea85c274d3dc8c61bf852eede7de7dca88d3565360001b613ca0565b426006819055506130267f1afbe386720e5750132c3fe00dd37a9b6210a943a3e20a5efeae9eac2a44b5b960001b613ca0565b6130527f94406f1699ed7832dcb6bd79613508b1c51119a201a2e578cacc8284dd9dabf760001b613ca0565b6130906040518060400160405280600781526020017f5374617274656400000000000000000000000000000000000000000000000000815250613ca3565b6130bc7f181bb9392ee9b58da67e73323654b48915ea160555feaab8a96b9a9158e4238460001b613ca0565b6130e87f35e1ed52ac9bbe0eeab66cb8eb08344e7072c1ce853ad9eca79e9d02e1cd6aed60001b613ca0565b7f99fafb32ed77fce26140b67282430931e99e54f3014114daf0a52639a5620ac1426040516131179190614dbf565b60405180910390a150565b7f36a5c4aaacb6b388bbd448bf11096b7dafc5652bcc9046084fd0e95b1fb0b2cc81565b60006131747fef9c78b2791657cd2dbde847664d32254001b81725e8d2236201d0f373a4224860001b613ca0565b6131a07fd0feea0f09f92f373c350149fbedcb0816bc942f0a3abb89c0da6643318d350160001b613ca0565b6131cc7fac82eb4ce3eb5b68c18afa16e1f70ca768b4f603893038871d311463bc47395860001b613ca0565b6131f87f6a582ecfcd0b80265fe50b7035962b98667e1c693731a187d3034cf1e43d407d60001b613ca0565b600115156132267fdc1958ce1178d6eb32ccc146dcea8933f1978155832913ec88fa509962e1b41333612c7c565b1515148061326157506001151561325d7fd16e204b8a42a15ab0ea6bb8ec1ecdfbe69f38074fc865323af19efe7d9573d933612c7c565b1515145b806132995750600115156132957f36a5c4aaacb6b388bbd448bf11096b7dafc5652bcc9046084fd0e95b1fb0b2cc33612c7c565b1515145b806132d15750600115156132cd7f15e007796fc034bf8274acdcfbd2f48124815698ba6f70c109f3423981a7052f33612c7c565b1515145b613310576040517f08c379a000000000000000000000000000000000000000000000000000000000815260040161330790614cdf565b60405180910390fd5b61333c7f3e380682c6b9a6ed770c73da8f463da187c993174ff9488b905610da682196bd60001b613ca0565b6133687f09005ac05543df8df2c35fa76cec64237eea63c65e271f81d57a885f7f9decc660001b613ca0565b6133947f16d7f03dd8ba733319d89fe2b3d720cd33fc6811b569e9fd77436541b820ca8a60001b613ca0565b6133c07ffc009a81e40838a67dada7196e3699b9b937cbc2c63aa50d0d176fa7cb73d17b60001b613ca0565b6133ec7f97c4ae37044c1a47dcc7c29e141a89eb0ff737d66d80a8fa537437c2d0ecf21360001b613ca0565b6134187fc4bb04fdeb63a705f892e51a9c7b8e5f9277a6df1fe9b1c556bd392b70872af160001b613ca0565b60006006541161345d576040517f08c379a000000000000000000000000000000000000000000000000000000000815260040161345490614c9f565b60405180910390fd5b6134897f76005e6f763c49bd8b81d8f26404956b84b95e0dd7761401eaa43a371775177560001b613ca0565b6134b57fea1f7b2edc37c8ba79936c57601fddebec40e06e05047844234837824d264bba60001b613ca0565b6134e17f85e74a16da027989b75770c48caab7441093d7d5e141549940fdd368c4a5532360001b613ca0565b61350d7f61f6220bb940863256d6b3193b14c926d4e49250d81a723e3a66320637a57d8360001b613ca0565b6135397f4d103696725b226676f9df6d536fbb2ae3e0489e5667b64e80145d3f1ce53d5e60001b613ca0565b6135657f10299873738e440738af069af67055b61536c26255739eed5489fd00cd8dad7260001b613ca0565b600754600654116135ab576040517f08c379a00000000000000000000000000000000000000000000000000000000081526004016135a290614d1f565b60405180910390fd5b6135d77f700233480b3df7366acb15bd613d016cf77c4231998c9212d9fd27b18831009e60001b613ca0565b6136037f0d1fba18c28e9e573f4bab728662a0bfda6dee3b85658e8e4a99297d8957ee7b60001b613ca0565b61360b61289f565b1561364b576040517f08c379a000000000000000000000000000000000000000000000000000000000815260040161364290614cbf565b60405180910390fd5b6136777ffe58955be9bf3e46996e4a4f4f2316deebb23a179b58f94fe3e94849bcb530cb60001b613ca0565b6136a37f7c05814c9fe0b0efbbcba41bffab2240ea0ff31c9ba001960b3715792e8e5b8c60001b613ca0565b6136cf7ffddea150fa7cdb32edb2d52069becf7906d85bdaa3456f29e127efd50d78bb7c60001b613ca0565b60011515600960003373ffffffffffffffffffffffffffffffffffffffff1673ffffffffffffffffffffffffffffffffffffffff16815260200190815260200160002060009054906101000a900460ff1615151415613786576137547f5654c310409f087b985a79903be86132b8c3a19c94ce7959a82fae107f8da9b560001b613ca0565b6040517f7c9a1cf900000000000000000000000000000000000000000000000000000000815260040160405180910390fd5b6137b27fa255245c5c97fc19ffd07198871fdb7415c92ce01f33426c963098961f8c5f3060001b613ca0565b6137de7fed8c37cccc257bb0a2647ccd6e8c13b97be92d20f10f3972c5a4b637c183376f60001b613ca0565b61380a7ff79cade82ecc86b059938bfdc8094d4271478bcef344f08d8a142b15d7549da160001b613ca0565b6000600b8360405161381c9190614ad7565b90815260200160405180910390205490506138597f72154e176f3289f6125728f1923a050ebe8413cd760c0c9e8b55bbadadbb082b60001b613ca0565b6138857f49d24c7fa9469f8189aac6c96ca6cbc1344a6a60eb1b3a57c3b800d2a2aa28a160001b613ca0565b6001816138929190614f4b565b600b846040516138a29190614ad7565b9081526020016040518091039020819055506138e07f09babe0333e3bbcede443ca397cf532b155bec5eb00eef61ea24e36d3334ae9f60001b613ca0565b61390c7fec19709517c5e02c5771254c28885d926dbeb180a8567b298d39b760b14024ed60001b613ca0565b6001600960003373ffffffffffffffffffffffffffffffffffffffff1673ffffffffffffffffffffffffffffffffffffffff16815260200190815260200160002060006101000a81548160ff0219169083151502179055506139907fc5ab39402ea93ef15b06e449185e59d5dbacd48b31c350254696e554db0cac2860001b613ca0565b6139bc7f9245567e1ebaeefbc9f4059dbd6ac1624094e981cd1143d07822acaed6320d8060001b613ca0565b7ff5b08346e1e6b0b55d07ce94e81fcb198d47fbbecfea3b9a476f454c86761ec4336040516139eb9190614b3f565b60405180910390a1613a1f7f8b3484fe97440776344ce4e12c4237cbbfd53387d8111826fc5a36f2ee98ce7160001b613ca0565b613a4b7f65a1dbbb20185e72e925bb3ae8da9bd693f7c78a90585e2c0f65090b695f17f560001b613ca0565b6001915050919050565b6000613a6083610e02565b90508160016000858152602001908152602001600020600101819055508181847fbd79b86ffe0ab8e8776151514217cd7cacd52c909f66475c3af44e129f0b00ff60405160405180910390a4505050565b613abb8282612c7c565b613b8d57600180600084815260200190815260200160002060000160008373ffffffffffffffffffffffffffffffffffffffff1673ffffffffffffffffffffffffffffffffffffffff16815260200190815260200160002060006101000a81548160ff021916908315150217905550613b32613bfb565b73ffffffffffffffffffffffffffffffffffffffff168173ffffffffffffffffffffffffffffffffffffffff16837f2f8788117e7eff1d82e926ec794901d17c78024a50270940304540a733656f0d60405160405180910390a45b5050565b60007f01ffc9a7000000000000000000000000000000000000000000000000000000007bffffffffffffffffffffffffffffffffffffffffffffffffffffffff1916827bffffffffffffffffffffffffffffffffffffffffffffffffffffffff1916149050919050565b600033905090565b613c0d8282612c7c565b613c9c57613c328173ffffffffffffffffffffffffffffffffffffffff166014613fff565b613c408360001c6020613fff565b604051602001613c51929190614b05565b6040516020818303038152906040526040517f08c379a0000000000000000000000000000000000000000000000000000000008152600401613c939190614bfd565b60405180910390fd5b5050565b50565b613ccf7ff3b1d4710053ff7ed819fd9eabd501e56d6d18534f461f8a96f0ed1f0a72369860001b613ca0565b613cfb7fbb6ba75235e8e444051d675d6d27169b5a60a6114f2b9d72078e600e7f7d1d9860001b613ca0565b613d277f324edb12f57f83ffc629fedae713f64e4c879bb48cffa97c12a70df11641d54360001b613ca0565b7f000000000000000000000000000000000000000000000000000000000000000073ffffffffffffffffffffffffffffffffffffffff16632987024d7f0000000000000000000000000000000000000000000000000000000000000000836040518363ffffffff1660e01b8152600401613da2929190614dda565b600060405180830381600087803b158015613dbc57600080fd5b505af1158015613dd0573d6000803e3d6000fd5b5050505050565b50565b613de48282612c7c565b15613eb85760006001600084815260200190815260200160002060000160008373ffffffffffffffffffffffffffffffffffffffff1673ffffffffffffffffffffffffffffffffffffffff16815260200190815260200160002060006101000a81548160ff021916908315150217905550613e5d613bfb565b73ffffffffffffffffffffffffffffffffffffffff168173ffffffffffffffffffffffffffffffffffffffff16837ff6391f5c32d9c69d2a47ea670b442974b53935d1edc7fd64eb21e047a839171b60405160405180910390a45b5050565b613ec461289f565b613f03576040517f08c379a0000000000000000000000000000000000000000000000000000000008152600401613efa90614c3f565b60405180910390fd5b60008060006101000a81548160ff0219169083151502179055507f5db9ee0a495bf2e6ff9c91a7834c1ba4fdd244a5e8aa4e537bd38aeae4b073aa613f46613bfb565b604051613f539190614b3f565b60405180910390a1565b613f6561289f565b15613fa5576040517f08c379a0000000000000000000000000000000000000000000000000000000008152600401613f9c90614cbf565b60405180910390fd5b60016000806101000a81548160ff0219169083151502179055507f62e78cea01bee320cd4e420270b5ea74000d11b0c9f74754ebdbfc544b05a258613fe8613bfb565b604051613ff59190614b3f565b60405180910390a1565b6060600060028360026140129190614fa1565b61401c9190614f4b565b67ffffffffffffffff81111561405b577f4e487b7100000000000000000000000000000000000000000000000000000000600052604160045260246000fd5b6040519080825280601f01601f19166020018201604052801561408d5781602001600182028036833780820191505090505b5090507f3000000000000000000000000000000000000000000000000000000000000000816000815181106140eb577f4e487b7100000000000000000000000000000000000000000000000000000000600052603260045260246000fd5b60200101907effffffffffffffffffffffffffffffffffffffffffffffffffffffffffffff1916908160001a9053507f780000000000000000000000000000000000000000000000000000000000000081600181518110614175577f4e487b7100000000000000000000000000000000000000000000000000000000600052603260045260246000fd5b60200101907effffffffffffffffffffffffffffffffffffffffffffffffffffffffffffff1916908160001a905350600060018460026141b59190614fa1565b6141bf9190614f4b565b90505b60018111156142ab577f3031323334353637383961626364656600000000000000000000000000000000600f861660108110614227577f4e487b7100000000000000000000000000000000000000000000000000000000600052603260045260246000fd5b1a60f81b828281518110614264577f4e487b7100000000000000000000000000000000000000000000000000000000600052603260045260246000fd5b60200101907effffffffffffffffffffffffffffffffffffffffffffffffffffffffffffff1916908160001a905350600485901c9450806142a4906150bb565b90506141c2565b50600084146142ef576040517f08c379a00000000000000000000000000000000000000000000000000000000081526004016142e690614c1f565b60405180910390fd5b8091505092915050565b828054614305906150e5565b90600052602060002090601f016020900481019282614327576000855561436e565b82601f1061434057805160ff191683800117855561436e565b8280016001018555821561436e579182015b8281111561436d578251825591602001919060010190614352565b5b50905061437b919061437f565b5090565b5b80821115614398576000816000905550600101614380565b5090565b60006143af6143aa84614e2f565b614e0a565b905080838252602082019050828560208602820111156143ce57600080fd5b60005b858110156143fe57816143e48882614446565b8452602084019350602083019250506001810190506143d1565b5050509392505050565b600061441b61441684614e5b565b614e0a565b90508281526020810184848401111561443357600080fd5b61443e848285615079565b509392505050565b6000813590506144558161552e565b92915050565b600082601f83011261446c57600080fd5b813561447c84826020860161439c565b91505092915050565b60008135905061449481615545565b92915050565b6000813590506144a98161555c565b92915050565b600082601f8301126144c057600080fd5b81356144d0848260208601614408565b91505092915050565b6000602082840312156144eb57600080fd5b60006144f984828501614446565b91505092915050565b60006020828403121561451457600080fd5b600082013567ffffffffffffffff81111561452e57600080fd5b61453a8482850161445b565b91505092915050565b60006020828403121561455557600080fd5b600061456384828501614485565b91505092915050565b6000806040838503121561457f57600080fd5b600061458d85828601614485565b925050602061459e85828601614446565b9150509250929050565b6000602082840312156145ba57600080fd5b60006145c88482850161449a565b91505092915050565b6000602082840312156145e357600080fd5b600082013567ffffffffffffffff8111156145fd57600080fd5b614609848285016144af565b91505092915050565b600061461e838361463e565b60208301905092915050565b60006146368383614a7c565b905092915050565b61464781614ffb565b82525050565b61465681614ffb565b82525050565b600061466782614ec1565b6146718185614efc565b935061467c83614e8c565b8060005b838110156146ad5781516146948882614612565b975061469f83614ee2565b925050600181019050614680565b5085935050505092915050565b60006146c582614ecc565b6146cf8185614f0d565b9350836020820285016146e185614e9c565b8060005b8581101561471d57848403895281516146fe858261462a565b945061470983614eef565b925060208a019950506001810190506146e5565b50829750879550505050505092915050565b6147388161500d565b82525050565b61474781615019565b82525050565b600061475882614ed7565b6147628185614f1e565b9350614772818560208601615088565b61477b8161521e565b840191505092915050565b600061479182614ed7565b61479b8185614f2f565b93506147ab818560208601615088565b6147b48161521e565b840191505092915050565b60006147ca82614ed7565b6147d48185614f40565b93506147e4818560208601615088565b80840191505092915050565b600081546147fd816150e5565b6148078186614f40565b94506001821660008114614822576001811461483357614866565b60ff19831686528186019350614866565b61483c85614eac565b60005b8381101561485e5781548189015260018201915060208101905061483f565b838801955050505b50505092915050565b600061487c602083614f2f565b91506148878261522f565b602082019050919050565b600061489f601483614f2f565b91506148aa82615258565b602082019050919050565b60006148c2601c83614f2f565b91506148cd82615281565b602082019050919050565b60006148e5601f83614f2f565b91506148f0826152aa565b602082019050919050565b6000614908601783614f2f565b9150614913826152d3565b602082019050919050565b600061492b601083614f2f565b9150614936826152fc565b602082019050919050565b600061494e600d83614f2f565b915061495982615325565b602082019050919050565b6000614971603683614f2f565b915061497c8261534e565b604082019050919050565b6000614994601e83614f2f565b915061499f8261539d565b602082019050919050565b60006149b7602883614f2f565b91506149c2826153c6565b604082019050919050565b60006149da602783614f2f565b91506149e582615415565b604082019050919050565b60006149fd601783614f40565b9150614a0882615464565b601782019050919050565b6000614a20601883614f2f565b9150614a2b8261548d565b602082019050919050565b6000614a43601183614f40565b9150614a4e826154b6565b601182019050919050565b6000614a66602983614f2f565b9150614a71826154df565b604082019050919050565b60006040830160008301518482036000860152614a99828261474d565b9150506020830151614aae6020860182614ab9565b508091505092915050565b614ac28161506f565b82525050565b614ad18161506f565b82525050565b6000614ae382846147bf565b915081905092915050565b6000614afa82846147f0565b915081905092915050565b6000614b10826149f0565b9150614b1c82856147bf565b9150614b2782614a36565b9150614b3382846147bf565b91508190509392505050565b6000602082019050614b54600083018461464d565b92915050565b6000604082019050614b6f600083018561464d565b614b7c6020830184614ac8565b9392505050565b60006020820190508181036000830152614b9d818461465c565b905092915050565b60006020820190508181036000830152614bbf81846146ba565b905092915050565b6000602082019050614bdc600083018461472f565b92915050565b6000602082019050614bf7600083018461473e565b92915050565b60006020820190508181036000830152614c178184614786565b905092915050565b60006020820190508181036000830152614c388161486f565b9050919050565b60006020820190508181036000830152614c5881614892565b9050919050565b60006020820190508181036000830152614c78816148b5565b9050919050565b60006020820190508181036000830152614c98816148d8565b9050919050565b60006020820190508181036000830152614cb8816148fb565b9050919050565b60006020820190508181036000830152614cd88161491e565b9050919050565b60006020820190508181036000830152614cf881614941565b9050919050565b60006020820190508181036000830152614d1881614964565b9050919050565b60006020820190508181036000830152614d3881614987565b9050919050565b60006020820190508181036000830152614d58816149aa565b9050919050565b60006020820190508181036000830152614d78816149cd565b9050919050565b60006020820190508181036000830152614d9881614a13565b9050919050565b60006020820190508181036000830152614db881614a59565b9050919050565b6000602082019050614dd46000830184614ac8565b92915050565b6000604082019050614def6000830185614ac8565b8181036020830152614e018184614786565b90509392505050565b6000614e14614e25565b9050614e208282615117565b919050565b6000604051905090565b600067ffffffffffffffff821115614e4a57614e496151ef565b5b602082029050602081019050919050565b600067ffffffffffffffff821115614e7657614e756151ef565b5b614e7f8261521e565b9050602081019050919050565b6000819050602082019050919050565b6000819050602082019050919050565b60008190508160005260206000209050919050565b600081519050919050565b600081519050919050565b600081519050919050565b6000602082019050919050565b6000602082019050919050565b600082825260208201905092915050565b600082825260208201905092915050565b600082825260208201905092915050565b600082825260208201905092915050565b600081905092915050565b6000614f568261506f565b9150614f618361506f565b9250827fffffffffffffffffffffffffffffffffffffffffffffffffffffffffffffffff03821115614f9657614f95615191565b5b828201905092915050565b6000614fac8261506f565b9150614fb78361506f565b9250817fffffffffffffffffffffffffffffffffffffffffffffffffffffffffffffffff0483118215151615614ff057614fef615191565b5b828202905092915050565b60006150068261504f565b9050919050565b60008115159050919050565b6000819050919050565b60007fffffffff0000000000000000000000000000000000000000000000000000000082169050919050565b600073ffffffffffffffffffffffffffffffffffffffff82169050919050565b6000819050919050565b82818337600083830152505050565b60005b838110156150a657808201518184015260208101905061508b565b838111156150b5576000848401525b50505050565b60006150c68261506f565b915060008214156150da576150d9615191565b5b600182039050919050565b600060028204905060018216806150fd57607f821691505b60208210811415615111576151106151c0565b5b50919050565b6151208261521e565b810181811067ffffffffffffffff8211171561513f5761513e6151ef565b5b80604052505050565b60006151538261506f565b91507fffffffffffffffffffffffffffffffffffffffffffffffffffffffffffffffff82141561518657615185615191565b5b600182019050919050565b7f4e487b7100000000000000000000000000000000000000000000000000000000600052601160045260246000fd5b7f4e487b7100000000000000000000000000000000000000000000000000000000600052602260045260246000fd5b7f4e487b7100000000000000000000000000000000000000000000000000000000600052604160045260246000fd5b6000601f19601f8301169050919050565b7f537472696e67733a20686578206c656e67746820696e73756666696369656e74600082015250565b7f5061757361626c653a206e6f7420706175736564000000000000000000000000600082015250565b7f526573756c7420686173206e6f74206265656e20636f6d70696c656400000000600082015250565b7f43686169726d616e20726f6c652063616e6e6f74206265207265766f6b656400600082015250565b7f456c656374696f6e20686173206e6f7420626567756e21000000000000000000600082015250565b7f5061757361626c653a2070617573656400000000000000000000000000000000600082015250565b7f4143434553532044454e49454400000000000000000000000000000000000000600082015250565b7f546865206164647265737320666f7220746865206e65772063686169726d616e60008201527f206973206e6f742061206469726563746f722079657400000000000000000000602082015250565b7f536f7272792c2074686520456c656374696f6e2068617320656e646564210000600082015250565b7f4f6e6c79207468652063686169726d616e20726f6c652063616e20626520726560008201527f6e6f756e6365642e000000000000000000000000000000000000000000000000602082015250565b7f41434345535320464f52205445414348455228732920414e442043484149524d60008201527f414e204f4e4c5900000000000000000000000000000000000000000000000000602082015250565b7f416363657373436f6e74726f6c3a206163636f756e7420000000000000000000600082015250565b7f526573756c747320616c726561647920636f6d70696c65640000000000000000600082015250565b7f206973206d697373696e6720726f6c6520000000000000000000000000000000600082015250565b7f456c656374696f6e207374696c6c206f6e676f696e67206f7220686173206e6f60008201527f7420737461727465640000000000000000000000000000000000000000000000602082015250565b61553781614ffb565b811461554257600080fd5b50565b61554e81615019565b811461555957600080fd5b50565b61556581615023565b811461557057600080fd5b5056fea2646970667358221220efae268916334deded7979dce4538038c4af28ac6ef62a1ab8fa68ef90f9a08064736f6c63430008040033",
  "linkReferences": {},
  "deployedLinkReferences": {}
}