{
  "_format": "hh-sol-artifact-1",
  "contractName": "Election",
  "sourceName": "contracts/Election.sol",
  "abi": [
    {
      "inputs": [
        {
          "internalType": "address",
          "name": "_owner",
          "type": "address"
        },
        {
          "internalType": "string",
          "name": "_position",
          "type": "string"
        },
        {
          "internalType": "uint256",
          "name": "_noOfParticipants",
          "type": "uint256"
        },
        {
          "internalType": "string[]",
          "name": "_contestants",
          "type": "string[]"
        },
        {
          "internalType": "uint256",
          "name": "_index",
          "type": "uint256"
        },
        {
          "internalType": "address",
          "name": "_electionFactory",
          "type": "address"
        }
      ],
      "stateMutability": "nonpayable",
      "type": "constructor"
    },
    {
      "inputs": [],
      "name": "AccessDenied",
      "type": "error"
    },
    {
      "inputs": [],
      "name": "AlreadyVoted",
      "type": "error"
    },
    {
      "inputs": [],
      "name": "NoOfParticatantNotMatchingParticipateName",
      "type": "error"
    },
    {
      "inputs": [],
      "name": "ResultNotYetRelease",
      "type": "error"
    },
    {
      "inputs": [],
      "name": "VotingEnd",
      "type": "error"
    },
    {
      "inputs": [],
      "name": "VotingNotAllowed",
      "type": "error"
    },
    {
      "inputs": [],
      "name": "VotingNotStarted",
      "type": "error"
    },
    {
      "anonymous": false,
      "inputs": [
        {
          "indexed": false,
          "internalType": "uint256[]",
          "name": "_winnerIds",
          "type": "uint256[]"
        },
        {
          "indexed": false,
          "internalType": "uint256",
          "name": "_winnerVoteCount",
          "type": "uint256"
        }
      ],
      "name": "ElectionEnded",
      "type": "event"
    },
    {
      "anonymous": false,
      "inputs": [
        {
          "indexed": false,
          "internalType": "uint256",
          "name": "endAt",
          "type": "uint256"
        }
      ],
      "name": "EndVoting",
      "type": "event"
    },
    {
      "anonymous": false,
      "inputs": [
        {
          "indexed": false,
          "internalType": "address",
          "name": "account",
          "type": "address"
        }
      ],
      "name": "Paused",
      "type": "event"
    },
    {
      "anonymous": false,
      "inputs": [
        {
          "indexed": false,
          "internalType": "address[]",
          "name": "_student",
          "type": "address[]"
        }
      ],
      "name": "RegisterStudent",
      "type": "event"
    },
    {
      "anonymous": false,
      "inputs": [
        {
          "indexed": false,
          "internalType": "address[]",
          "name": "student",
          "type": "address[]"
        }
      ],
      "name": "RegisterTeacher",
      "type": "event"
    },
    {
      "anonymous": false,
      "inputs": [
        {
          "indexed": true,
          "internalType": "address",
          "name": "previousChairman",
          "type": "address"
        },
        {
          "indexed": true,
          "internalType": "address",
          "name": "newChairman",
          "type": "address"
        }
      ],
      "name": "RenounceRole",
      "type": "event"
    },
    {
      "anonymous": false,
      "inputs": [
        {
          "indexed": true,
          "internalType": "bytes32",
          "name": "role",
          "type": "bytes32"
        },
        {
          "indexed": true,
          "internalType": "bytes32",
          "name": "previousAdminRole",
          "type": "bytes32"
        },
        {
          "indexed": true,
          "internalType": "bytes32",
          "name": "newAdminRole",
          "type": "bytes32"
        }
      ],
      "name": "RoleAdminChanged",
      "type": "event"
    },
    {
      "anonymous": false,
      "inputs": [
        {
          "indexed": true,
          "internalType": "bytes32",
          "name": "role",
          "type": "bytes32"
        },
        {
          "indexed": true,
          "internalType": "address",
          "name": "account",
          "type": "address"
        },
        {
          "indexed": true,
          "internalType": "address",
          "name": "sender",
          "type": "address"
        }
      ],
      "name": "RoleGranted",
      "type": "event"
    },
    {
      "anonymous": false,
      "inputs": [
        {
          "indexed": true,
          "internalType": "bytes32",
          "name": "role",
          "type": "bytes32"
        },
        {
          "indexed": true,
          "internalType": "address",
          "name": "account",
          "type": "address"
        },
        {
          "indexed": true,
          "internalType": "address",
          "name": "sender",
          "type": "address"
        }
      ],
      "name": "RoleRevoked",
      "type": "event"
    },
    {
      "anonymous": false,
      "inputs": [
        {
          "indexed": false,
          "internalType": "address[]",
          "name": "_Bod",
          "type": "address[]"
        }
      ],
      "name": "SetUpBOD",
      "type": "event"
    },
    {
      "anonymous": false,
      "inputs": [
        {
          "indexed": false,
          "internalType": "address[]",
          "name": "director",
          "type": "address[]"
        }
      ],
      "name": "SetUpDirector",
      "type": "event"
    },
    {
      "anonymous": false,
      "inputs": [
        {
          "indexed": false,
          "internalType": "address[]",
          "name": "teacher",
          "type": "address[]"
        }
      ],
      "name": "SetUpTeacher",
      "type": "event"
    },
    {
      "anonymous": false,
      "inputs": [
        {
          "indexed": false,
          "internalType": "uint256",
          "name": "startAt",
          "type": "uint256"
        }
      ],
      "name": "StartVoting",
      "type": "event"
    },
    {
      "anonymous": false,
      "inputs": [
        {
          "indexed": false,
          "internalType": "address",
          "name": "account",
          "type": "address"
        }
      ],
      "name": "Unpaused",
      "type": "event"
    },
    {
      "anonymous": false,
      "inputs": [
        {
          "indexed": false,
          "internalType": "string",
          "name": "candidates",
          "type": "string"
        },
        {
          "indexed": false,
          "internalType": "address",
          "name": "voter",
          "type": "address"
        }
      ],
      "name": "Vote",
      "type": "event"
    },
    {
      "inputs": [],
      "name": "CHAIRMAN_ROLE",
      "outputs": [
        {
          "internalType": "bytes32",
          "name": "",
          "type": "bytes32"
        }
      ],
      "stateMutability": "view",
      "type": "function"
    },
    {
      "inputs": [],
      "name": "DEFAULT_ADMIN_ROLE",
      "outputs": [
        {
          "internalType": "bytes32",
          "name": "",
          "type": "bytes32"
        }
      ],
      "stateMutability": "view",
      "type": "function"
    },
    {
      "inputs": [],
      "name": "DIRECTOR_ROLE",
      "outputs": [
        {
          "internalType": "bytes32",
          "name": "",
          "type": "bytes32"
        }
      ],
      "stateMutability": "view",
      "type": "function"
    },
    {
      "inputs": [],
      "name": "STUDENT_ROLE",
      "outputs": [
        {
          "internalType": "bytes32",
          "name": "",
          "type": "bytes32"
        }
      ],
      "stateMutability": "view",
      "type": "function"
    },
    {
      "inputs": [],
      "name": "TEACHER_ROLE",
      "outputs": [
        {
          "internalType": "bytes32",
          "name": "",
          "type": "bytes32"
        }
      ],
      "stateMutability": "view",
      "type": "function"
    },
    {
      "inputs": [],
      "name": "compileResult",
      "outputs": [
        {
          "components": [
            {
              "internalType": "string",
              "name": "candidatesName",
              "type": "string"
            },
            {
              "internalType": "uint256",
              "name": "voteCount",
              "type": "uint256"
            }
          ],
          "internalType": "struct Election.Candidates[]",
          "name": "",
          "type": "tuple[]"
        }
      ],
      "stateMutability": "nonpayable",
      "type": "function"
    },
    {
      "inputs": [
        {
          "internalType": "uint256",
          "name": "",
          "type": "uint256"
        }
      ],
      "name": "contestantsName",
      "outputs": [
        {
          "internalType": "string",
          "name": "",
          "type": "string"
        }
      ],
      "stateMutability": "view",
      "type": "function"
    },
    {
      "inputs": [],
      "name": "disableVoting",
      "outputs": [],
      "stateMutability": "nonpayable",
      "type": "function"
    },
    {
      "inputs": [],
      "name": "electionStatus",
      "outputs": [
        {
          "internalType": "bool",
          "name": "",
          "type": "bool"
        }
      ],
      "stateMutability": "view",
      "type": "function"
    },
    {
      "inputs": [],
      "name": "enableVoting",
      "outputs": [],
      "stateMutability": "nonpayable",
      "type": "function"
    },
    {
      "inputs": [],
      "name": "endAt",
      "outputs": [
        {
          "internalType": "uint256",
          "name": "",
          "type": "uint256"
        }
      ],
      "stateMutability": "view",
      "type": "function"
    },
    {
      "inputs": [],
      "name": "getContestant",
      "outputs": [
        {
          "internalType": "string[]",
          "name": "",
          "type": "string[]"
        }
      ],
      "stateMutability": "view",
      "type": "function"
    },
    {
      "inputs": [
        {
          "internalType": "bytes32",
          "name": "role",
          "type": "bytes32"
        }
      ],
      "name": "getRoleAdmin",
      "outputs": [
        {
          "internalType": "bytes32",
          "name": "",
          "type": "bytes32"
        }
      ],
      "stateMutability": "view",
      "type": "function"
    },
    {
      "inputs": [
        {
          "internalType": "bytes32",
          "name": "role",
          "type": "bytes32"
        },
        {
          "internalType": "address",
          "name": "account",
          "type": "address"
        }
      ],
      "name": "grantRole",
      "outputs": [],
      "stateMutability": "nonpayable",
      "type": "function"
    },
    {
      "inputs": [
        {
          "internalType": "bytes32",
          "name": "role",
          "type": "bytes32"
        },
        {
          "internalType": "address",
          "name": "account",
          "type": "address"
        }
      ],
      "name": "hasRole",
      "outputs": [
        {
          "internalType": "bool",
          "name": "",
          "type": "bool"
        }
      ],
      "stateMutability": "view",
      "type": "function"
    },
    {
      "inputs": [],
      "name": "noOfpartcipate",
      "outputs": [
        {
          "internalType": "uint256",
          "name": "",
          "type": "uint256"
        }
      ],
      "stateMutability": "view",
      "type": "function"
    },
    {
      "inputs": [],
      "name": "pause",
      "outputs": [
        {
          "internalType": "bool",
          "name": "",
          "type": "bool"
        }
      ],
      "stateMutability": "nonpayable",
      "type": "function"
    },
    {
      "inputs": [],
      "name": "paused",
      "outputs": [
        {
          "internalType": "bool",
          "name": "",
          "type": "bool"
        }
      ],
      "stateMutability": "view",
      "type": "function"
    },
    {
      "inputs": [],
      "name": "privateViewResult",
      "outputs": [
        {
          "components": [
            {
              "internalType": "string",
              "name": "candidatesName",
              "type": "string"
            },
            {
              "internalType": "uint256",
              "name": "voteCount",
              "type": "uint256"
            }
          ],
          "internalType": "struct Election.Candidates[]",
          "name": "",
          "type": "tuple[]"
        }
      ],
      "stateMutability": "view",
      "type": "function"
    },
    {
      "inputs": [
        {
          "internalType": "address[]",
          "name": "_student",
          "type": "address[]"
        }
      ],
      "name": "registerStudent",
      "outputs": [
        {
          "internalType": "bool",
          "name": "",
          "type": "bool"
        }
      ],
      "stateMutability": "nonpayable",
      "type": "function"
    },
    {
      "inputs": [
        {
          "internalType": "bytes32",
          "name": "_role",
          "type": "bytes32"
        },
        {
          "internalType": "address",
          "name": "_account",
          "type": "address"
        }
      ],
      "name": "renounceRole",
      "outputs": [],
      "stateMutability": "nonpayable",
      "type": "function"
    },
    {
      "inputs": [],
      "name": "result",
      "outputs": [
        {
          "components": [
            {
              "internalType": "string",
              "name": "candidatesName",
              "type": "string"
            },
            {
              "internalType": "uint256",
              "name": "voteCount",
              "type": "uint256"
            }
          ],
          "internalType": "struct Election.Candidates[]",
          "name": "",
          "type": "tuple[]"
        }
      ],
      "stateMutability": "view",
      "type": "function"
    },
    {
      "inputs": [],
      "name": "resultReadyAt",
      "outputs": [
        {
          "internalType": "uint256",
          "name": "",
          "type": "uint256"
        }
      ],
      "stateMutability": "view",
      "type": "function"
    },
    {
      "inputs": [],
      "name": "resultStatus",
      "outputs": [
        {
          "internalType": "bool",
          "name": "",
          "type": "bool"
        }
      ],
      "stateMutability": "view",
      "type": "function"
    },
    {
      "inputs": [
        {
          "internalType": "bytes32",
          "name": "_role",
          "type": "bytes32"
        },
        {
          "internalType": "address",
          "name": "_account",
          "type": "address"
        }
      ],
      "name": "revokeRole",
      "outputs": [],
      "stateMutability": "nonpayable",
      "type": "function"
    },
    {
      "inputs": [
        {
          "internalType": "address[]",
          "name": "_Bod",
          "type": "address[]"
        }
      ],
      "name": "setupBOD",
      "outputs": [
        {
          "internalType": "bool",
          "name": "",
          "type": "bool"
        }
      ],
      "stateMutability": "nonpayable",
      "type": "function"
    },
    {
      "inputs": [
        {
          "internalType": "address[]",
          "name": "_teacher",
          "type": "address[]"
        }
      ],
      "name": "setupTeachers",
      "outputs": [
        {
          "internalType": "bool",
          "name": "",
          "type": "bool"
        }
      ],
      "stateMutability": "nonpayable",
      "type": "function"
    },
    {
      "inputs": [],
      "name": "showResult",
      "outputs": [
        {
          "internalType": "bool",
          "name": "",
          "type": "bool"
        }
      ],
      "stateMutability": "nonpayable",
      "type": "function"
    },
    {
      "inputs": [],
      "name": "startAt",
      "outputs": [
        {
          "internalType": "uint256",
          "name": "",
          "type": "uint256"
        }
      ],
      "stateMutability": "view",
      "type": "function"
    },
    {
      "inputs": [
        {
          "internalType": "bytes4",
          "name": "interfaceId",
          "type": "bytes4"
        }
      ],
      "name": "supportsInterface",
      "outputs": [
        {
          "internalType": "bool",
          "name": "",
          "type": "bool"
        }
      ],
      "stateMutability": "view",
      "type": "function"
    },
    {
      "inputs": [],
      "name": "unpause",
      "outputs": [
        {
          "internalType": "bool",
          "name": "",
          "type": "bool"
        }
      ],
      "stateMutability": "nonpayable",
      "type": "function"
    },
    {
      "inputs": [
        {
          "internalType": "string",
          "name": "_participantsName",
          "type": "string"
        }
      ],
      "name": "vote",
      "outputs": [
        {
          "internalType": "bool",
          "name": "",
          "type": "bool"
        }
      ],
      "stateMutability": "nonpayable",
      "type": "function"
    }
  ],
  "bytecode": "0x60c06040523480156200001157600080fd5b50604051620042ad380380620042ad83398181016040528101906200003791906200086c565b8560008060006101000a81548160ff021916908315150217905550620000a97f36a5c4aaacb6b388bbd448bf11096b7dafc5652bcc9046084fd0e95b1fb0b2cc7fd16e204b8a42a15ab0ea6bb8ec1ecdfbe69f38074fc865323af19efe7d9573d9620003a260201b62001bde1760201c565b620001007fd16e204b8a42a15ab0ea6bb8ec1ecdfbe69f38074fc865323af19efe7d9573d97fdc1958ce1178d6eb32ccc146dcea8933f1978155832913ec88fa509962e1b413620003a260201b62001bde1760201c565b620001577f15e007796fc034bf8274acdcfbd2f48124815698ba6f70c109f3423981a7052f7fdc1958ce1178d6eb32ccc146dcea8933f1978155832913ec88fa509962e1b413620003a260201b62001bde1760201c565b6200018e7fdc1958ce1178d6eb32ccc146dcea8933f1978155832913ec88fa509962e1b41380620003a260201b62001bde1760201c565b620001c57f15e007796fc034bf8274acdcfbd2f48124815698ba6f70c109f3423981a7052f826200040660201b62001c3a1760201c565b620001fc7fdc1958ce1178d6eb32ccc146dcea8933f1978155832913ec88fa509962e1b413826200040660201b62001c3a1760201c565b508251841462000238576040517f0e8cddf100000000000000000000000000000000000000000000000000000000815260040160405180910390fd5b8460029080519060200190620002509291906200058a565b50836006819055508260039080519060200190620002709291906200061b565b5081608081815250508073ffffffffffffffffffffffffffffffffffffffff1660a08173ffffffffffffffffffffffffffffffffffffffff1660601b8152505060005b835181101562000395576000600a858381518110620002fb577f4e487b7100000000000000000000000000000000000000000000000000000000600052603260045260246000fd5b60200260200101516040516200031291906200096b565b908152602001604051809103902090508482815181106200035c577f4e487b7100000000000000000000000000000000000000000000000000000000600052603260045260246000fd5b60200260200101518160000190805190602001906200037d9291906200058a565b505080806200038c9062000b08565b915050620002b3565b5050505050505062000c28565b6000620003b583620004f760201b60201c565b90508160016000858152602001908152602001600020600101819055508181847fbd79b86ffe0ab8e8776151514217cd7cacd52c909f66475c3af44e129f0b00ff60405160405180910390a4505050565b6200041882826200051760201b60201c565b620004f357600180600084815260200190815260200160002060000160008373ffffffffffffffffffffffffffffffffffffffff1673ffffffffffffffffffffffffffffffffffffffff16815260200190815260200160002060006101000a81548160ff021916908315150217905550620004986200058260201b60201c565b73ffffffffffffffffffffffffffffffffffffffff168173ffffffffffffffffffffffffffffffffffffffff16837f2f8788117e7eff1d82e926ec794901d17c78024a50270940304540a733656f0d60405160405180910390a45b5050565b600060016000838152602001908152602001600020600101549050919050565b60006001600084815260200190815260200160002060000160008373ffffffffffffffffffffffffffffffffffffffff1673ffffffffffffffffffffffffffffffffffffffff16815260200190815260200160002060009054906101000a900460ff16905092915050565b600033905090565b828054620005989062000a9c565b90600052602060002090601f016020900481019282620005bc576000855562000608565b82601f10620005d757805160ff191683800117855562000608565b8280016001018555821562000608579182015b8281111562000607578251825591602001919060010190620005ea565b5b50905062000617919062000682565b5090565b8280548282559060005260206000209081019282156200066f579160200282015b828111156200066e5782518290805190602001906200065d9291906200058a565b50916020019190600101906200063c565b5b5090506200067e9190620006a1565b5090565b5b808211156200069d57600081600090555060010162000683565b5090565b5b80821115620006c55760008181620006bb9190620006c9565b50600101620006a2565b5090565b508054620006d79062000a9c565b6000825580601f10620006eb57506200070c565b601f0160209004906000526020600020908101906200070b919062000682565b5b50565b6000620007266200072084620009ad565b62000984565b905080838252602082019050828560208602820111156200074657600080fd5b60005b858110156200079557815167ffffffffffffffff8111156200076a57600080fd5b80860162000779898262000828565b8552602085019450602084019350505060018101905062000749565b5050509392505050565b6000620007b6620007b084620009dc565b62000984565b905082815260208101848484011115620007cf57600080fd5b620007dc84828562000a66565b509392505050565b600081519050620007f58162000bf4565b92915050565b600082601f8301126200080d57600080fd5b81516200081f8482602086016200070f565b91505092915050565b600082601f8301126200083a57600080fd5b81516200084c8482602086016200079f565b91505092915050565b600081519050620008668162000c0e565b92915050565b60008060008060008060c087890312156200088657600080fd5b60006200089689828a01620007e4565b965050602087015167ffffffffffffffff811115620008b457600080fd5b620008c289828a0162000828565b9550506040620008d589828a0162000855565b945050606087015167ffffffffffffffff811115620008f357600080fd5b6200090189828a01620007fb565b93505060806200091489828a0162000855565b92505060a06200092789828a01620007e4565b9150509295509295509295565b6000620009418262000a12565b6200094d818562000a1d565b93506200095f81856020860162000a66565b80840191505092915050565b600062000979828462000934565b915081905092915050565b600062000990620009a3565b90506200099e828262000ad2565b919050565b6000604051905090565b600067ffffffffffffffff821115620009cb57620009ca62000bb4565b5b602082029050602081019050919050565b600067ffffffffffffffff821115620009fa57620009f962000bb4565b5b62000a058262000be3565b9050602081019050919050565b600081519050919050565b600081905092915050565b600062000a358262000a3c565b9050919050565b600073ffffffffffffffffffffffffffffffffffffffff82169050919050565b6000819050919050565b60005b8381101562000a8657808201518184015260208101905062000a69565b8381111562000a96576000848401525b50505050565b6000600282049050600182168062000ab557607f821691505b6020821081141562000acc5762000acb62000b85565b5b50919050565b62000add8262000be3565b810181811067ffffffffffffffff8211171562000aff5762000afe62000bb4565b5b80604052505050565b600062000b158262000a5c565b91507fffffffffffffffffffffffffffffffffffffffffffffffffffffffffffffffff82141562000b4b5762000b4a62000b56565b5b600182019050919050565b7f4e487b7100000000000000000000000000000000000000000000000000000000600052601160045260246000fd5b7f4e487b7100000000000000000000000000000000000000000000000000000000600052602260045260246000fd5b7f4e487b7100000000000000000000000000000000000000000000000000000000600052604160045260246000fd5b6000601f19601f8301169050919050565b62000bff8162000a28565b811462000c0b57600080fd5b50565b62000c198162000a5c565b811462000c2557600080fd5b50565b60805160a05160601c61365c62000c516000396000611e2b01526000611e67015261365c6000f3fe608060405234801561001057600080fd5b50600436106101f05760003560e01c8063653721471161010f578063c7446565116100a2578063eaef034911610071578063eaef0349146105a1578063eb4439fb146105bf578063f7be43fb146105c9578063fc36e15b146105e7576101f0565b8063c74465651461052b578063c87f973314610549578063ca94e6a714610567578063d547741f14610585576101f0565b806391d14854116100de57806391d148541461048f578063a097dc4b146104bf578063a217fddf146104dd578063a4f676fc146104fb576101f0565b806365372147146104175780637cc3ae8c146104355780638456cb591461045357806386e5c15a14610471576101f0565b8063301aee01116101875780633f4ba83a116101565780633f4ba83a1461039f578063531cbb12146103bd578063543cbb05146103db5780635c975abb146103f9576101f0565b8063301aee011461031757806333ee31311461034757806336568abe146103655780633e4f9cae14610381576101f0565b80631bceb5d2116101c35780631bceb5d21461027d5780631fc26a561461029b578063248a9ca3146102cb5780632f2ff15d146102fb576101f0565b806301ffc9a7146101f557806304cd1819146102255780630a330b8e1461022f5780630d60b1d01461024d575b600080fd5b61020f600480360381019061020a919061269a565b610617565b60405161021c9190612cfb565b60405180910390f35b61022d610691565b005b610237610780565b6040516102449190612ec3565b60405180910390f35b610267600480360381019061026291906125f4565b610786565b6040516102749190612cfb565b60405180910390f35b610285610885565b6040516102929190612cfb565b60405180910390f35b6102b560048036038101906102b091906125f4565b610898565b6040516102c29190612cfb565b60405180910390f35b6102e560048036038101906102e09190612635565b610997565b6040516102f29190612d16565b60405180910390f35b6103156004803603810190610310919061265e565b6109b7565b005b610331600480360381019061032c91906125f4565b6109e0565b60405161033e9190612cfb565b60405180910390f35b61034f610adf565b60405161035c9190612cfb565b60405180910390f35b61037f600480360381019061037a919061265e565b610c28565b005b610389610dd8565b6040516103969190612d16565b60405180910390f35b6103a7610dfc565b6040516103b49190612cfb565b60405180910390f35b6103c5610e40565b6040516103d29190612cd9565b60405180910390f35b6103e361112f565b6040516103f09190612cd9565b60405180910390f35b61040161130a565b60405161040e9190612cfb565b60405180910390f35b61041f611320565b60405161042c9190612cd9565b60405180910390f35b61043d611469565b60405161044a9190612ec3565b60405180910390f35b61045b61146f565b6040516104689190612cfb565b60405180910390f35b6104796114b3565b6040516104869190612d16565b60405180910390f35b6104a960048036038101906104a4919061265e565b6114d7565b6040516104b69190612cfb565b60405180910390f35b6104c7611542565b6040516104d49190612d16565b60405180910390f35b6104e5611566565b6040516104f29190612d16565b60405180910390f35b61051560048036038101906105109190612704565b61156d565b6040516105229190612d31565b60405180910390f35b610533611619565b6040516105409190612ec3565b60405180910390f35b61055161161f565b60405161055e9190612cb7565b60405180910390f35b61056f6116f8565b60405161057c9190612ec3565b60405180910390f35b61059f600480360381019061059a919061265e565b6116fe565b005b6105a9611791565b6040516105b69190612cfb565b60405180910390f35b6105c76117a4565b005b6105d1611855565b6040516105de9190612d16565b60405180910390f35b61060160048036038101906105fc91906126c3565b611879565b60405161060e9190612cfb565b60405180910390f35b60007f7965db0b000000000000000000000000000000000000000000000000000000007bffffffffffffffffffffffffffffffffffffffffffffffffffffffff1916827bffffffffffffffffffffffffffffffffffffffffffffffffffffffff1916148061068a575061068982611d1a565b5b9050919050565b7fdc1958ce1178d6eb32ccc146dcea8933f1978155832913ec88fa509962e1b4136106c3816106be611d84565b611d8c565b6005546007541415610701576040517f7fa0120200000000000000000000000000000000000000000000000000000000815260040160405180910390fd5b426007819055506107466040518060400160405280600581526020017f456e646564000000000000000000000000000000000000000000000000000000815250611e29565b7f1057d4f16a6857731231320b2564bcdfb5051a137a4f8705a2d5b0813fabeea1426040516107759190612ec3565b60405180910390a150565b60065481565b60007fdc1958ce1178d6eb32ccc146dcea8933f1978155832913ec88fa509962e1b4136107ba816107b5611d84565b611d8c565b60005b8351811015610843576108307f15e007796fc034bf8274acdcfbd2f48124815698ba6f70c109f3423981a7052f858381518110610823577f4e487b7100000000000000000000000000000000000000000000000000000000600052603260045260246000fd5b60200260200101516109b7565b808061083b90613285565b9150506107bd565b507f5f5e39754c7e1865f8af3e41e829b0c163e67854b93f99ab4c75804928592d4a836040516108739190612c95565b60405180910390a16001915050919050565b600460019054906101000a900460ff1681565b60007fd16e204b8a42a15ab0ea6bb8ec1ecdfbe69f38074fc865323af19efe7d9573d96108cc816108c7611d84565b611d8c565b60005b8351811015610955576109427f36a5c4aaacb6b388bbd448bf11096b7dafc5652bcc9046084fd0e95b1fb0b2cc858381518110610935577f4e487b7100000000000000000000000000000000000000000000000000000000600052603260045260246000fd5b60200260200101516109b7565b808061094d90613285565b9150506108cf565b507f03754d1a0117cc47bdfac8251ab45273d3eab88e939e90833352c073b2680690836040516109859190612c95565b60405180910390a16001915050919050565b600060016000838152602001908152602001600020600101549050919050565b6109c082610997565b6109d1816109cc611d84565b611d8c565b6109db8383611c3a565b505050565b60007fdc1958ce1178d6eb32ccc146dcea8933f1978155832913ec88fa509962e1b413610a1481610a0f611d84565b611d8c565b60005b8351811015610a9d57610a8a7fd16e204b8a42a15ab0ea6bb8ec1ecdfbe69f38074fc865323af19efe7d9573d9858381518110610a7d577f4e487b7100000000000000000000000000000000000000000000000000000000600052603260045260246000fd5b60200260200101516109b7565b8080610a9590613285565b915050610a17565b507f426025bf71642554cad091b33bb9ad1245da42bc9f4dc5b7a7092699ff9bbb8a83604051610acd9190612c95565b60405180910390a16001915050919050565b600060011515610b0f7fdc1958ce1178d6eb32ccc146dcea8933f1978155832913ec88fa509962e1b413336114d7565b15151480610b4a575060011515610b467fd16e204b8a42a15ab0ea6bb8ec1ecdfbe69f38074fc865323af19efe7d9573d9336114d7565b1515145b80610b82575060011515610b7e7f15e007796fc034bf8274acdcfbd2f48124815698ba6f70c109f3423981a7052f336114d7565b1515145b610bc1576040517f08c379a0000000000000000000000000000000000000000000000000000000008152600401610bb890612ea3565b60405180910390fd5b6001600460016101000a81548160ff021916908315150217905550610c1a6040518060400160405280600d81526020017f526573756c747320726561647900000000000000000000000000000000000000815250611e29565b426008819055506001905090565b7fdc1958ce1178d6eb32ccc146dcea8933f1978155832913ec88fa509962e1b413610c5a81610c55611d84565b611d8c565b7fdc1958ce1178d6eb32ccc146dcea8933f1978155832913ec88fa509962e1b4138314610cbc576040517f08c379a0000000000000000000000000000000000000000000000000000000008152600401610cb390612e83565b60405180910390fd5b610ce67f15e007796fc034bf8274acdcfbd2f48124815698ba6f70c109f3423981a7052f836114d7565b610d25576040517f08c379a0000000000000000000000000000000000000000000000000000000008152600401610d1c90612e43565b60405180910390fd5b610d4f7fdc1958ce1178d6eb32ccc146dcea8933f1978155832913ec88fa509962e1b41383611c3a565b610d797fdc1958ce1178d6eb32ccc146dcea8933f1978155832913ec88fa509962e1b41333611ed9565b8173ffffffffffffffffffffffffffffffffffffffff163373ffffffffffffffffffffffffffffffffffffffff167f53cb1046cc84eb7dcfb14a0610185dd97c2c40e311ef59a28c5622cf3942a3b860405160405180910390a3505050565b7f15e007796fc034bf8274acdcfbd2f48124815698ba6f70c109f3423981a7052f81565b60007fdc1958ce1178d6eb32ccc146dcea8933f1978155832913ec88fa509962e1b413610e3081610e2b611d84565b611d8c565b610e38611fbb565b600191505090565b606060011515610e707fdc1958ce1178d6eb32ccc146dcea8933f1978155832913ec88fa509962e1b413336114d7565b15151480610eab575060011515610ea77fd16e204b8a42a15ab0ea6bb8ec1ecdfbe69f38074fc865323af19efe7d9573d9336114d7565b1515145b610eea576040517f08c379a0000000000000000000000000000000000000000000000000000000008152600401610ee190612ea3565b60405180910390fd5b60005b600380549050811015611035576000600a60038381548110610f38577f4e487b7100000000000000000000000000000000000000000000000000000000600052603260045260246000fd5b90600052602060002001604051610f4f9190612c29565b90815260200160405180910390209050600b60038381548110610f9b577f4e487b7100000000000000000000000000000000000000000000000000000000600052603260045260246000fd5b90600052602060002001604051610fb29190612c29565b9081526020016040518091039020548160010181905550600c819080600181540180825580915050600190039060005260206000209060020201600090919091909150600082018160000190805461100990613222565b6110149291906123f8565b5060018201548160010155505050808061102d90613285565b915050610eed565b50600c805480602002602001604051908101604052809291908181526020016000905b82821015611126578382906000526020600020906002020160405180604001604052908160008201805461108b90613222565b80601f01602080910402602001604051908101604052809291908181526020018280546110b790613222565b80156111045780601f106110d957610100808354040283529160200191611104565b820191906000526020600020905b8154815290600101906020018083116110e757829003601f168201915b5050505050815260200160018201548152505081526020019060010190611058565b50505050905090565b60606001151561115f7fdc1958ce1178d6eb32ccc146dcea8933f1978155832913ec88fa509962e1b413336114d7565b1515148061119a5750600115156111967fd16e204b8a42a15ab0ea6bb8ec1ecdfbe69f38074fc865323af19efe7d9573d9336114d7565b1515145b806111d25750600115156111ce7f15e007796fc034bf8274acdcfbd2f48124815698ba6f70c109f3423981a7052f336114d7565b1515145b611211576040517f08c379a000000000000000000000000000000000000000000000000000000000815260040161120890612ea3565b60405180910390fd5b600c805480602002602001604051908101604052809291908181526020016000905b82821015611301578382906000526020600020906002020160405180604001604052908160008201805461126690613222565b80601f016020809104026020016040519081016040528092919081815260200182805461129290613222565b80156112df5780601f106112b4576101008083540402835291602001916112df565b820191906000526020600020905b8154815290600101906020018083116112c257829003601f168201915b5050505050815260200160018201548152505081526020019060010190611233565b50505050905090565b60008060009054906101000a900460ff16905090565b606060001515600460019054906101000a900460ff1615151415611370576040517fb34ae8a900000000000000000000000000000000000000000000000000000000815260040160405180910390fd5b600c805480602002602001604051908101604052809291908181526020016000905b8282101561146057838290600052602060002090600202016040518060400160405290816000820180546113c590613222565b80601f01602080910402602001604051908101604052809291908181526020018280546113f190613222565b801561143e5780601f106114135761010080835404028352916020019161143e565b820191906000526020600020905b81548152906001019060200180831161142157829003601f168201915b5050505050815260200160018201548152505081526020019060010190611392565b50505050905090565b60075481565b60007fdc1958ce1178d6eb32ccc146dcea8933f1978155832913ec88fa509962e1b4136114a38161149e611d84565b611d8c565b6114ab61205c565b600191505090565b7fd16e204b8a42a15ab0ea6bb8ec1ecdfbe69f38074fc865323af19efe7d9573d981565b60006001600084815260200190815260200160002060000160008373ffffffffffffffffffffffffffffffffffffffff1673ffffffffffffffffffffffffffffffffffffffff16815260200190815260200160002060009054906101000a900460ff16905092915050565b7fdc1958ce1178d6eb32ccc146dcea8933f1978155832913ec88fa509962e1b41381565b6000801b81565b6003818154811061157d57600080fd5b90600052602060002001600091509050805461159890613222565b80601f01602080910402602001604051908101604052809291908181526020018280546115c490613222565b80156116115780601f106115e657610100808354040283529160200191611611565b820191906000526020600020905b8154815290600101906020018083116115f457829003601f168201915b505050505081565b60055481565b60606003805480602002602001604051908101604052809291908181526020016000905b828210156116ef57838290600052602060002001805461166290613222565b80601f016020809104026020016040519081016040528092919081815260200182805461168e90613222565b80156116db5780601f106116b0576101008083540402835291602001916116db565b820191906000526020600020905b8154815290600101906020018083116116be57829003601f168201915b505050505081526020019060010190611643565b50505050905090565b60085481565b61170782610997565b61171881611713611d84565b611d8c565b6117427fdc1958ce1178d6eb32ccc146dcea8933f1978155832913ec88fa509962e1b413836114d7565b15611782576040517f08c379a000000000000000000000000000000000000000000000000000000000815260040161177990612dc3565b60405180910390fd5b61178c8383611ed9565b505050565b600460009054906101000a900460ff1681565b7fdc1958ce1178d6eb32ccc146dcea8933f1978155832913ec88fa509962e1b4136117d6816117d1611d84565b611d8c565b4260058190555061181b6040518060400160405280600781526020017f5374617274656400000000000000000000000000000000000000000000000000815250611e29565b7f99fafb32ed77fce26140b67282430931e99e54f3014114daf0a52639a5620ac14260405161184a9190612ec3565b60405180910390a150565b7f36a5c4aaacb6b388bbd448bf11096b7dafc5652bcc9046084fd0e95b1fb0b2cc81565b6000600115156118a97fdc1958ce1178d6eb32ccc146dcea8933f1978155832913ec88fa509962e1b413336114d7565b151514806118e45750600115156118e07fd16e204b8a42a15ab0ea6bb8ec1ecdfbe69f38074fc865323af19efe7d9573d9336114d7565b1515145b8061191c5750600115156119187f36a5c4aaacb6b388bbd448bf11096b7dafc5652bcc9046084fd0e95b1fb0b2cc336114d7565b1515145b806119545750600115156119507f15e007796fc034bf8274acdcfbd2f48124815698ba6f70c109f3423981a7052f336114d7565b1515145b611993576040517f08c379a000000000000000000000000000000000000000000000000000000000815260040161198a90612e23565b60405180910390fd5b6000600554116119d8576040517f08c379a00000000000000000000000000000000000000000000000000000000081526004016119cf90612de3565b60405180910390fd5b60075460055411611a1e576040517f08c379a0000000000000000000000000000000000000000000000000000000008152600401611a1590612e63565b60405180910390fd5b611a2661130a565b15611a66576040517f08c379a0000000000000000000000000000000000000000000000000000000008152600401611a5d90612e03565b60405180910390fd5b60011515600960003373ffffffffffffffffffffffffffffffffffffffff1673ffffffffffffffffffffffffffffffffffffffff16815260200190815260200160002060009054906101000a900460ff1615151415611af1576040517f7c9a1cf900000000000000000000000000000000000000000000000000000000815260040160405180910390fd5b6000600b83604051611b039190612c12565b9081526020016040518091039020549050600181611b219190613088565b600b84604051611b319190612c12565b9081526020016040518091039020819055506001600960003373ffffffffffffffffffffffffffffffffffffffff1673ffffffffffffffffffffffffffffffffffffffff16815260200190815260200160002060006101000a81548160ff0219169083151502179055507f6df8a0bf3c87bd629e9f543b9d0831beeea8b80de3f478dd846541ed8d97405b8333604051611bcc929190612d53565b60405180910390a16001915050919050565b6000611be983610997565b90508160016000858152602001908152602001600020600101819055508181847fbd79b86ffe0ab8e8776151514217cd7cacd52c909f66475c3af44e129f0b00ff60405160405180910390a4505050565b611c4482826114d7565b611d1657600180600084815260200190815260200160002060000160008373ffffffffffffffffffffffffffffffffffffffff1673ffffffffffffffffffffffffffffffffffffffff16815260200190815260200160002060006101000a81548160ff021916908315150217905550611cbb611d84565b73ffffffffffffffffffffffffffffffffffffffff168173ffffffffffffffffffffffffffffffffffffffff16837f2f8788117e7eff1d82e926ec794901d17c78024a50270940304540a733656f0d60405160405180910390a45b5050565b60007f01ffc9a7000000000000000000000000000000000000000000000000000000007bffffffffffffffffffffffffffffffffffffffffffffffffffffffff1916827bffffffffffffffffffffffffffffffffffffffffffffffffffffffff1916149050919050565b600033905090565b611d9682826114d7565b611e2557611dbb8173ffffffffffffffffffffffffffffffffffffffff1660146120fe565b611dc98360001c60206120fe565b604051602001611dda929190612c40565b6040516020818303038152906040526040517f08c379a0000000000000000000000000000000000000000000000000000000008152600401611e1c9190612d31565b60405180910390fd5b5050565b7f000000000000000000000000000000000000000000000000000000000000000073ffffffffffffffffffffffffffffffffffffffff16632987024d7f0000000000000000000000000000000000000000000000000000000000000000836040518363ffffffff1660e01b8152600401611ea4929190612ede565b600060405180830381600087803b158015611ebe57600080fd5b505af1158015611ed2573d6000803e3d6000fd5b5050505050565b611ee382826114d7565b15611fb75760006001600084815260200190815260200160002060000160008373ffffffffffffffffffffffffffffffffffffffff1673ffffffffffffffffffffffffffffffffffffffff16815260200190815260200160002060006101000a81548160ff021916908315150217905550611f5c611d84565b73ffffffffffffffffffffffffffffffffffffffff168173ffffffffffffffffffffffffffffffffffffffff16837ff6391f5c32d9c69d2a47ea670b442974b53935d1edc7fd64eb21e047a839171b60405160405180910390a45b5050565b611fc361130a565b612002576040517f08c379a0000000000000000000000000000000000000000000000000000000008152600401611ff990612da3565b60405180910390fd5b60008060006101000a81548160ff0219169083151502179055507f5db9ee0a495bf2e6ff9c91a7834c1ba4fdd244a5e8aa4e537bd38aeae4b073aa612045611d84565b6040516120529190612c7a565b60405180910390a1565b61206461130a565b156120a4576040517f08c379a000000000000000000000000000000000000000000000000000000000815260040161209b90612e03565b60405180910390fd5b60016000806101000a81548160ff0219169083151502179055507f62e78cea01bee320cd4e420270b5ea74000d11b0c9f74754ebdbfc544b05a2586120e7611d84565b6040516120f49190612c7a565b60405180910390a1565b60606000600283600261211191906130de565b61211b9190613088565b67ffffffffffffffff81111561215a577f4e487b7100000000000000000000000000000000000000000000000000000000600052604160045260246000fd5b6040519080825280601f01601f19166020018201604052801561218c5781602001600182028036833780820191505090505b5090507f3000000000000000000000000000000000000000000000000000000000000000816000815181106121ea577f4e487b7100000000000000000000000000000000000000000000000000000000600052603260045260246000fd5b60200101907effffffffffffffffffffffffffffffffffffffffffffffffffffffffffffff1916908160001a9053507f780000000000000000000000000000000000000000000000000000000000000081600181518110612274577f4e487b7100000000000000000000000000000000000000000000000000000000600052603260045260246000fd5b60200101907effffffffffffffffffffffffffffffffffffffffffffffffffffffffffffff1916908160001a905350600060018460026122b491906130de565b6122be9190613088565b90505b60018111156123aa577f3031323334353637383961626364656600000000000000000000000000000000600f861660108110612326577f4e487b7100000000000000000000000000000000000000000000000000000000600052603260045260246000fd5b1a60f81b828281518110612363577f4e487b7100000000000000000000000000000000000000000000000000000000600052603260045260246000fd5b60200101907effffffffffffffffffffffffffffffffffffffffffffffffffffffffffffff1916908160001a905350600485901c9450806123a3906131f8565b90506122c1565b50600084146123ee576040517f08c379a00000000000000000000000000000000000000000000000000000000081526004016123e590612d83565b60405180910390fd5b8091505092915050565b82805461240490613222565b90600052602060002090601f0160209004810192826124265760008555612474565b82601f106124375780548555612474565b8280016001018555821561247457600052602060002091601f016020900482015b82811115612473578254825591600101919060010190612458565b5b5090506124819190612485565b5090565b5b8082111561249e576000816000905550600101612486565b5090565b60006124b56124b084612f33565b612f0e565b905080838252602082019050828560208602820111156124d457600080fd5b60005b8581101561250457816124ea888261254c565b8452602084019350602083019250506001810190506124d7565b5050509392505050565b600061252161251c84612f5f565b612f0e565b90508281526020810184848401111561253957600080fd5b6125448482856131b6565b509392505050565b60008135905061255b816135ca565b92915050565b600082601f83011261257257600080fd5b81356125828482602086016124a2565b91505092915050565b60008135905061259a816135e1565b92915050565b6000813590506125af816135f8565b92915050565b600082601f8301126125c657600080fd5b81356125d684826020860161250e565b91505092915050565b6000813590506125ee8161360f565b92915050565b60006020828403121561260657600080fd5b600082013567ffffffffffffffff81111561262057600080fd5b61262c84828501612561565b91505092915050565b60006020828403121561264757600080fd5b60006126558482850161258b565b91505092915050565b6000806040838503121561267157600080fd5b600061267f8582860161258b565b92505060206126908582860161254c565b9150509250929050565b6000602082840312156126ac57600080fd5b60006126ba848285016125a0565b91505092915050565b6000602082840312156126d557600080fd5b600082013567ffffffffffffffff8111156126ef57600080fd5b6126fb848285016125b5565b91505092915050565b60006020828403121561271657600080fd5b6000612724848285016125df565b91505092915050565b6000612739838361276d565b60208301905092915050565b600061275183836128f1565b905092915050565b60006127658383612bb7565b905092915050565b61277681613138565b82525050565b61278581613138565b82525050565b600061279682612fd5565b6127a08185613028565b93506127ab83612f90565b8060005b838110156127dc5781516127c3888261272d565b97506127ce83613001565b9250506001810190506127af565b5085935050505092915050565b60006127f482612fe0565b6127fe8185613039565b93508360208202850161281085612fa0565b8060005b8581101561284c578484038952815161282d8582612745565b94506128388361300e565b925060208a01995050600181019050612814565b50829750879550505050505092915050565b600061286982612feb565b612873818561304a565b93508360208202850161288585612fb0565b8060005b858110156128c157848403895281516128a28582612759565b94506128ad8361301b565b925060208a01995050600181019050612889565b50829750879550505050505092915050565b6128dc8161314a565b82525050565b6128eb81613156565b82525050565b60006128fc82612ff6565b612906818561305b565b93506129168185602086016131c5565b61291f8161335b565b840191505092915050565b600061293582612ff6565b61293f818561306c565b935061294f8185602086016131c5565b6129588161335b565b840191505092915050565b600061296e82612ff6565b612978818561307d565b93506129888185602086016131c5565b80840191505092915050565b600081546129a181613222565b6129ab818661307d565b945060018216600081146129c657600181146129d757612a0a565b60ff19831686528186019350612a0a565b6129e085612fc0565b60005b83811015612a02578154818901526001820191506020810190506129e3565b838801955050505b50505092915050565b6000612a2060208361306c565b9150612a2b8261336c565b602082019050919050565b6000612a4360148361306c565b9150612a4e82613395565b602082019050919050565b6000612a66601f8361306c565b9150612a71826133be565b602082019050919050565b6000612a8960178361306c565b9150612a94826133e7565b602082019050919050565b6000612aac60108361306c565b9150612ab782613410565b602082019050919050565b6000612acf600d8361306c565b9150612ada82613439565b602082019050919050565b6000612af260368361306c565b9150612afd82613462565b604082019050919050565b6000612b15601e8361306c565b9150612b20826134b1565b602082019050919050565b6000612b3860288361306c565b9150612b43826134da565b604082019050919050565b6000612b5b60278361306c565b9150612b6682613529565b604082019050919050565b6000612b7e60178361307d565b9150612b8982613578565b601782019050919050565b6000612ba160118361307d565b9150612bac826135a1565b601182019050919050565b60006040830160008301518482036000860152612bd482826128f1565b9150506020830151612be96020860182612bf4565b508091505092915050565b612bfd816131ac565b82525050565b612c0c816131ac565b82525050565b6000612c1e8284612963565b915081905092915050565b6000612c358284612994565b915081905092915050565b6000612c4b82612b71565b9150612c578285612963565b9150612c6282612b94565b9150612c6e8284612963565b91508190509392505050565b6000602082019050612c8f600083018461277c565b92915050565b60006020820190508181036000830152612caf818461278b565b905092915050565b60006020820190508181036000830152612cd181846127e9565b905092915050565b60006020820190508181036000830152612cf3818461285e565b905092915050565b6000602082019050612d1060008301846128d3565b92915050565b6000602082019050612d2b60008301846128e2565b92915050565b60006020820190508181036000830152612d4b818461292a565b905092915050565b60006040820190508181036000830152612d6d818561292a565b9050612d7c602083018461277c565b9392505050565b60006020820190508181036000830152612d9c81612a13565b9050919050565b60006020820190508181036000830152612dbc81612a36565b9050919050565b60006020820190508181036000830152612ddc81612a59565b9050919050565b60006020820190508181036000830152612dfc81612a7c565b9050919050565b60006020820190508181036000830152612e1c81612a9f565b9050919050565b60006020820190508181036000830152612e3c81612ac2565b9050919050565b60006020820190508181036000830152612e5c81612ae5565b9050919050565b60006020820190508181036000830152612e7c81612b08565b9050919050565b60006020820190508181036000830152612e9c81612b2b565b9050919050565b60006020820190508181036000830152612ebc81612b4e565b9050919050565b6000602082019050612ed86000830184612c03565b92915050565b6000604082019050612ef36000830185612c03565b8181036020830152612f05818461292a565b90509392505050565b6000612f18612f29565b9050612f248282613254565b919050565b6000604051905090565b600067ffffffffffffffff821115612f4e57612f4d61332c565b5b602082029050602081019050919050565b600067ffffffffffffffff821115612f7a57612f7961332c565b5b612f838261335b565b9050602081019050919050565b6000819050602082019050919050565b6000819050602082019050919050565b6000819050602082019050919050565b60008190508160005260206000209050919050565b600081519050919050565b600081519050919050565b600081519050919050565b600081519050919050565b6000602082019050919050565b6000602082019050919050565b6000602082019050919050565b600082825260208201905092915050565b600082825260208201905092915050565b600082825260208201905092915050565b600082825260208201905092915050565b600082825260208201905092915050565b600081905092915050565b6000613093826131ac565b915061309e836131ac565b9250827fffffffffffffffffffffffffffffffffffffffffffffffffffffffffffffffff038211156130d3576130d26132ce565b5b828201905092915050565b60006130e9826131ac565b91506130f4836131ac565b9250817fffffffffffffffffffffffffffffffffffffffffffffffffffffffffffffffff048311821515161561312d5761312c6132ce565b5b828202905092915050565b60006131438261318c565b9050919050565b60008115159050919050565b6000819050919050565b60007fffffffff0000000000000000000000000000000000000000000000000000000082169050919050565b600073ffffffffffffffffffffffffffffffffffffffff82169050919050565b6000819050919050565b82818337600083830152505050565b60005b838110156131e35780820151818401526020810190506131c8565b838111156131f2576000848401525b50505050565b6000613203826131ac565b91506000821415613217576132166132ce565b5b600182039050919050565b6000600282049050600182168061323a57607f821691505b6020821081141561324e5761324d6132fd565b5b50919050565b61325d8261335b565b810181811067ffffffffffffffff8211171561327c5761327b61332c565b5b80604052505050565b6000613290826131ac565b91507fffffffffffffffffffffffffffffffffffffffffffffffffffffffffffffffff8214156132c3576132c26132ce565b5b600182019050919050565b7f4e487b7100000000000000000000000000000000000000000000000000000000600052601160045260246000fd5b7f4e487b7100000000000000000000000000000000000000000000000000000000600052602260045260246000fd5b7f4e487b7100000000000000000000000000000000000000000000000000000000600052604160045260246000fd5b6000601f19601f8301169050919050565b7f537472696e67733a20686578206c656e67746820696e73756666696369656e74600082015250565b7f5061757361626c653a206e6f7420706175736564000000000000000000000000600082015250565b7f43686169726d616e20726f6c652063616e6e6f74206265207265766f6b656400600082015250565b7f456c656374696f6e20686173206e6f7420626567756e21000000000000000000600082015250565b7f5061757361626c653a2070617573656400000000000000000000000000000000600082015250565b7f4143434553532044454e49454400000000000000000000000000000000000000600082015250565b7f546865206164647265737320666f7220746865206e65772063686169726d616e60008201527f206973206e6f742061206469726563746f722079657400000000000000000000602082015250565b7f536f7272792c2074686520456c656374696f6e2068617320656e646564210000600082015250565b7f4f6e6c79207468652063686169726d616e20726f6c652063616e20626520726560008201527f6e6f756e6365642e000000000000000000000000000000000000000000000000602082015250565b7f41434345535320464f52205445414348455228732920414e442043484149524d60008201527f414e204f4e4c5900000000000000000000000000000000000000000000000000602082015250565b7f416363657373436f6e74726f6c3a206163636f756e7420000000000000000000600082015250565b7f206973206d697373696e6720726f6c6520000000000000000000000000000000600082015250565b6135d381613138565b81146135de57600080fd5b50565b6135ea81613156565b81146135f557600080fd5b50565b61360181613160565b811461360c57600080fd5b50565b613618816131ac565b811461362357600080fd5b5056fea26469706673582212200d7d8ab3ffbad2aedbeb409b234b02749771c010ee427cbeab2b3560ef34023964736f6c63430008040033",
  "linkReferences": {},
  "deployedLinkReferences": {}
}