{
  "_format": "hh-sol-artifact-1",
  "contractName": "Election",
  "sourceName": "contracts/Election.sol",
  "abi": [
    {
      "inputs": [
        {
          "internalType": "address",
          "name": "_owner",
          "type": "address"
        },
        {
          "internalType": "string",
          "name": "_position",
          "type": "string"
        },
        {
          "internalType": "uint256",
          "name": "_noOfParticipants",
          "type": "uint256"
        },
        {
          "internalType": "string[]",
          "name": "_contestants",
          "type": "string[]"
        }
      ],
      "stateMutability": "nonpayable",
      "type": "constructor"
    },
    {
      "inputs": [],
      "name": "AccessDenied",
      "type": "error"
    },
    {
      "inputs": [],
      "name": "AlreadyVoted",
      "type": "error"
    },
    {
      "inputs": [],
      "name": "NoOfParticatantNotMatchingParticipateName",
      "type": "error"
    },
    {
      "inputs": [],
      "name": "ResultNotYetRelease",
      "type": "error"
    },
    {
      "anonymous": false,
      "inputs": [
        {
          "indexed": false,
          "internalType": "address",
          "name": "account",
          "type": "address"
        }
      ],
      "name": "Paused",
      "type": "event"
    },
    {
      "anonymous": false,
      "inputs": [
        {
          "indexed": true,
          "internalType": "address",
          "name": "previousChairman",
          "type": "address"
        },
        {
          "indexed": true,
          "internalType": "address",
          "name": "newChairman",
          "type": "address"
        }
      ],
      "name": "RenounceRole",
      "type": "event"
    },
    {
      "anonymous": false,
      "inputs": [
        {
          "indexed": true,
          "internalType": "bytes32",
          "name": "role",
          "type": "bytes32"
        },
        {
          "indexed": true,
          "internalType": "bytes32",
          "name": "previousAdminRole",
          "type": "bytes32"
        },
        {
          "indexed": true,
          "internalType": "bytes32",
          "name": "newAdminRole",
          "type": "bytes32"
        }
      ],
      "name": "RoleAdminChanged",
      "type": "event"
    },
    {
      "anonymous": false,
      "inputs": [
        {
          "indexed": true,
          "internalType": "bytes32",
          "name": "role",
          "type": "bytes32"
        },
        {
          "indexed": true,
          "internalType": "address",
          "name": "account",
          "type": "address"
        },
        {
          "indexed": true,
          "internalType": "address",
          "name": "sender",
          "type": "address"
        }
      ],
      "name": "RoleGranted",
      "type": "event"
    },
    {
      "anonymous": false,
      "inputs": [
        {
          "indexed": true,
          "internalType": "bytes32",
          "name": "role",
          "type": "bytes32"
        },
        {
          "indexed": true,
          "internalType": "address",
          "name": "account",
          "type": "address"
        },
        {
          "indexed": true,
          "internalType": "address",
          "name": "sender",
          "type": "address"
        }
      ],
      "name": "RoleRevoked",
      "type": "event"
    },
    {
      "anonymous": false,
      "inputs": [
        {
          "indexed": false,
          "internalType": "address",
          "name": "account",
          "type": "address"
        }
      ],
      "name": "Unpaused",
      "type": "event"
    },
    {
      "inputs": [],
      "name": "CHAIRMAN_ROLE",
      "outputs": [
        {
          "internalType": "bytes32",
          "name": "",
          "type": "bytes32"
        }
      ],
      "stateMutability": "view",
      "type": "function"
    },
    {
      "inputs": [],
      "name": "DEFAULT_ADMIN_ROLE",
      "outputs": [
        {
          "internalType": "bytes32",
          "name": "",
          "type": "bytes32"
        }
      ],
      "stateMutability": "view",
      "type": "function"
    },
    {
      "inputs": [],
      "name": "DIRECTOR_ROLE",
      "outputs": [
        {
          "internalType": "bytes32",
          "name": "",
          "type": "bytes32"
        }
      ],
      "stateMutability": "view",
      "type": "function"
    },
    {
      "inputs": [],
      "name": "STUDENT_ROLE",
      "outputs": [
        {
          "internalType": "bytes32",
          "name": "",
          "type": "bytes32"
        }
      ],
      "stateMutability": "view",
      "type": "function"
    },
    {
      "inputs": [],
      "name": "TEACHER_ROLE",
      "outputs": [
        {
          "internalType": "bytes32",
          "name": "",
          "type": "bytes32"
        }
      ],
      "stateMutability": "view",
      "type": "function"
    },
    {
      "inputs": [],
      "name": "compileResult",
      "outputs": [
        {
          "components": [
            {
              "internalType": "string",
              "name": "candidatesName",
              "type": "string"
            },
            {
              "internalType": "uint256",
              "name": "voteCount",
              "type": "uint256"
            }
          ],
          "internalType": "struct Election.Candidates[]",
          "name": "",
          "type": "tuple[]"
        }
      ],
      "stateMutability": "nonpayable",
      "type": "function"
    },
    {
      "inputs": [
        {
          "internalType": "bytes32",
          "name": "role",
          "type": "bytes32"
        }
      ],
      "name": "getRoleAdmin",
      "outputs": [
        {
          "internalType": "bytes32",
          "name": "",
          "type": "bytes32"
        }
      ],
      "stateMutability": "view",
      "type": "function"
    },
    {
      "inputs": [
        {
          "internalType": "bytes32",
          "name": "role",
          "type": "bytes32"
        },
        {
          "internalType": "address",
          "name": "account",
          "type": "address"
        }
      ],
      "name": "grantRole",
      "outputs": [],
      "stateMutability": "nonpayable",
      "type": "function"
    },
    {
      "inputs": [
        {
          "internalType": "bytes32",
          "name": "role",
          "type": "bytes32"
        },
        {
          "internalType": "address",
          "name": "account",
          "type": "address"
        }
      ],
      "name": "hasRole",
      "outputs": [
        {
          "internalType": "bool",
          "name": "",
          "type": "bool"
        }
      ],
      "stateMutability": "view",
      "type": "function"
    },
    {
      "inputs": [],
      "name": "pause",
      "outputs": [
        {
          "internalType": "bool",
          "name": "",
          "type": "bool"
        }
      ],
      "stateMutability": "nonpayable",
      "type": "function"
    },
    {
      "inputs": [],
      "name": "paused",
      "outputs": [
        {
          "internalType": "bool",
          "name": "",
          "type": "bool"
        }
      ],
      "stateMutability": "view",
      "type": "function"
    },
    {
      "inputs": [],
      "name": "privateViewResult",
      "outputs": [
        {
          "components": [
            {
              "internalType": "string",
              "name": "candidatesName",
              "type": "string"
            },
            {
              "internalType": "uint256",
              "name": "voteCount",
              "type": "uint256"
            }
          ],
          "internalType": "struct Election.Candidates[]",
          "name": "",
          "type": "tuple[]"
        }
      ],
      "stateMutability": "view",
      "type": "function"
    },
    {
      "inputs": [
        {
          "internalType": "address[]",
          "name": "_student",
          "type": "address[]"
        }
      ],
      "name": "registerStudent",
      "outputs": [
        {
          "internalType": "bool",
          "name": "",
          "type": "bool"
        }
      ],
      "stateMutability": "nonpayable",
      "type": "function"
    },
    {
      "inputs": [
        {
          "internalType": "bytes32",
          "name": "_role",
          "type": "bytes32"
        },
        {
          "internalType": "address",
          "name": "_account",
          "type": "address"
        }
      ],
      "name": "renounceRole",
      "outputs": [],
      "stateMutability": "nonpayable",
      "type": "function"
    },
    {
      "inputs": [],
      "name": "result",
      "outputs": [
        {
          "components": [
            {
              "internalType": "string",
              "name": "candidatesName",
              "type": "string"
            },
            {
              "internalType": "uint256",
              "name": "voteCount",
              "type": "uint256"
            }
          ],
          "internalType": "struct Election.Candidates[]",
          "name": "",
          "type": "tuple[]"
        }
      ],
      "stateMutability": "view",
      "type": "function"
    },
    {
      "inputs": [
        {
          "internalType": "bytes32",
          "name": "_role",
          "type": "bytes32"
        },
        {
          "internalType": "address",
          "name": "_account",
          "type": "address"
        }
      ],
      "name": "revokeRole",
      "outputs": [],
      "stateMutability": "nonpayable",
      "type": "function"
    },
    {
      "inputs": [
        {
          "internalType": "address[]",
          "name": "_Bod",
          "type": "address[]"
        }
      ],
      "name": "setupBOD",
      "outputs": [
        {
          "internalType": "bool",
          "name": "",
          "type": "bool"
        }
      ],
      "stateMutability": "nonpayable",
      "type": "function"
    },
    {
      "inputs": [
        {
          "internalType": "address[]",
          "name": "_teacher",
          "type": "address[]"
        }
      ],
      "name": "setupTeachers",
      "outputs": [
        {
          "internalType": "bool",
          "name": "",
          "type": "bool"
        }
      ],
      "stateMutability": "nonpayable",
      "type": "function"
    },
    {
      "inputs": [],
      "name": "showResult",
      "outputs": [
        {
          "internalType": "bool",
          "name": "",
          "type": "bool"
        }
      ],
      "stateMutability": "nonpayable",
      "type": "function"
    },
    {
      "inputs": [
        {
          "internalType": "bytes4",
          "name": "interfaceId",
          "type": "bytes4"
        }
      ],
      "name": "supportsInterface",
      "outputs": [
        {
          "internalType": "bool",
          "name": "",
          "type": "bool"
        }
      ],
      "stateMutability": "view",
      "type": "function"
    },
    {
      "inputs": [],
      "name": "unpause",
      "outputs": [
        {
          "internalType": "bool",
          "name": "",
          "type": "bool"
        }
      ],
      "stateMutability": "nonpayable",
      "type": "function"
    },
    {
      "inputs": [
        {
          "internalType": "string",
          "name": "_participantsName",
          "type": "string"
        }
      ],
      "name": "vote",
      "outputs": [
        {
          "internalType": "bool",
          "name": "",
          "type": "bool"
        }
      ],
      "stateMutability": "nonpayable",
      "type": "function"
    }
  ],
  "bytecode": "0x60806040523480156200001157600080fd5b50604051620037293803806200372983398181016040528101906200003791906200082b565b8360008060006101000a81548160ff021916908315150217905550620000a97f36a5c4aaacb6b388bbd448bf11096b7dafc5652bcc9046084fd0e95b1fb0b2cc7fd16e204b8a42a15ab0ea6bb8ec1ecdfbe69f38074fc865323af19efe7d9573d96200036160201b620015091760201c565b620001007fd16e204b8a42a15ab0ea6bb8ec1ecdfbe69f38074fc865323af19efe7d9573d97fdc1958ce1178d6eb32ccc146dcea8933f1978155832913ec88fa509962e1b4136200036160201b620015091760201c565b620001577f15e007796fc034bf8274acdcfbd2f48124815698ba6f70c109f3423981a7052f7fdc1958ce1178d6eb32ccc146dcea8933f1978155832913ec88fa509962e1b4136200036160201b620015091760201c565b6200018e7fdc1958ce1178d6eb32ccc146dcea8933f1978155832913ec88fa509962e1b413806200036160201b620015091760201c565b620001c57f15e007796fc034bf8274acdcfbd2f48124815698ba6f70c109f3423981a7052f82620003c560201b620015651760201c565b620001fc7fdc1958ce1178d6eb32ccc146dcea8933f1978155832913ec88fa509962e1b41382620003c560201b620015651760201c565b508051821462000238576040517f0e8cddf100000000000000000000000000000000000000000000000000000000815260040160405180910390fd5b82600290805190602001906200025092919062000549565b5081600381905550806004908051906020019062000270929190620005da565b5060005b8151811015620003565760006007838381518110620002bc577f4e487b7100000000000000000000000000000000000000000000000000000000600052603260045260246000fd5b6020026020010151604051620002d3919062000900565b908152602001604051809103902090508282815181106200031d577f4e487b7100000000000000000000000000000000000000000000000000000000600052603260045260246000fd5b60200260200101518160000190805190602001906200033e92919062000549565b505080806200034d9062000a9d565b91505062000274565b505050505062000bbd565b60006200037483620004b660201b60201c565b90508160016000858152602001908152602001600020600101819055508181847fbd79b86ffe0ab8e8776151514217cd7cacd52c909f66475c3af44e129f0b00ff60405160405180910390a4505050565b620003d78282620004d660201b60201c565b620004b257600180600084815260200190815260200160002060000160008373ffffffffffffffffffffffffffffffffffffffff1673ffffffffffffffffffffffffffffffffffffffff16815260200190815260200160002060006101000a81548160ff021916908315150217905550620004576200054160201b60201c565b73ffffffffffffffffffffffffffffffffffffffff168173ffffffffffffffffffffffffffffffffffffffff16837f2f8788117e7eff1d82e926ec794901d17c78024a50270940304540a733656f0d60405160405180910390a45b5050565b600060016000838152602001908152602001600020600101549050919050565b60006001600084815260200190815260200160002060000160008373ffffffffffffffffffffffffffffffffffffffff1673ffffffffffffffffffffffffffffffffffffffff16815260200190815260200160002060009054906101000a900460ff16905092915050565b600033905090565b828054620005579062000a31565b90600052602060002090601f0160209004810192826200057b5760008555620005c7565b82601f106200059657805160ff1916838001178555620005c7565b82800160010185558215620005c7579182015b82811115620005c6578251825591602001919060010190620005a9565b5b509050620005d6919062000641565b5090565b8280548282559060005260206000209081019282156200062e579160200282015b828111156200062d5782518290805190602001906200061c92919062000549565b5091602001919060010190620005fb565b5b5090506200063d919062000660565b5090565b5b808211156200065c57600081600090555060010162000642565b5090565b5b808211156200068457600081816200067a919062000688565b5060010162000661565b5090565b508054620006969062000a31565b6000825580601f10620006aa5750620006cb565b601f016020900490600052602060002090810190620006ca919062000641565b5b50565b6000620006e5620006df8462000942565b62000919565b905080838252602082019050828560208602820111156200070557600080fd5b60005b858110156200075457815167ffffffffffffffff8111156200072957600080fd5b808601620007388982620007e7565b8552602085019450602084019350505060018101905062000708565b5050509392505050565b6000620007756200076f8462000971565b62000919565b9050828152602081018484840111156200078e57600080fd5b6200079b848285620009fb565b509392505050565b600081519050620007b48162000b89565b92915050565b600082601f830112620007cc57600080fd5b8151620007de848260208601620006ce565b91505092915050565b600082601f830112620007f957600080fd5b81516200080b8482602086016200075e565b91505092915050565b600081519050620008258162000ba3565b92915050565b600080600080608085870312156200084257600080fd5b60006200085287828801620007a3565b945050602085015167ffffffffffffffff8111156200087057600080fd5b6200087e87828801620007e7565b9350506040620008918782880162000814565b925050606085015167ffffffffffffffff811115620008af57600080fd5b620008bd87828801620007ba565b91505092959194509250565b6000620008d682620009a7565b620008e28185620009b2565b9350620008f4818560208601620009fb565b80840191505092915050565b60006200090e8284620008c9565b915081905092915050565b60006200092562000938565b905062000933828262000a67565b919050565b6000604051905090565b600067ffffffffffffffff82111562000960576200095f62000b49565b5b602082029050602081019050919050565b600067ffffffffffffffff8211156200098f576200098e62000b49565b5b6200099a8262000b78565b9050602081019050919050565b600081519050919050565b600081905092915050565b6000620009ca82620009d1565b9050919050565b600073ffffffffffffffffffffffffffffffffffffffff82169050919050565b6000819050919050565b60005b8381101562000a1b578082015181840152602081019050620009fe565b8381111562000a2b576000848401525b50505050565b6000600282049050600182168062000a4a57607f821691505b6020821081141562000a615762000a6062000b1a565b5b50919050565b62000a728262000b78565b810181811067ffffffffffffffff8211171562000a945762000a9362000b49565b5b80604052505050565b600062000aaa82620009f1565b91507fffffffffffffffffffffffffffffffffffffffffffffffffffffffffffffffff82141562000ae05762000adf62000aeb565b5b600182019050919050565b7f4e487b7100000000000000000000000000000000000000000000000000000000600052601160045260246000fd5b7f4e487b7100000000000000000000000000000000000000000000000000000000600052602260045260246000fd5b7f4e487b7100000000000000000000000000000000000000000000000000000000600052604160045260246000fd5b6000601f19601f8301169050919050565b62000b9481620009bd565b811462000ba057600080fd5b50565b62000bae81620009f1565b811462000bba57600080fd5b50565b612b5c8062000bcd6000396000f3fe608060405234801561001057600080fd5b50600436106101425760003560e01c8063543cbb05116100b857806391d148541161007c57806391d148541461037d578063a097dc4b146103ad578063a217fddf146103cb578063d547741f146103e9578063f7be43fb14610405578063fc36e15b1461042357610142565b8063543cbb05146102e75780635c975abb1461030557806365372147146103235780638456cb591461034157806386e5c15a1461035f57610142565b8063301aee011161010a578063301aee011461022357806333ee31311461025357806336568abe146102715780633e4f9cae1461028d5780633f4ba83a146102ab578063531cbb12146102c957610142565b806301ffc9a7146101475780630d60b1d0146101775780631fc26a56146101a7578063248a9ca3146101d75780632f2ff15d14610207575b600080fd5b610161600480360381019061015c9190611f00565b610453565b60405161016e9190612391565b60405180910390f35b610191600480360381019061018c9190611e5a565b6104cd565b60405161019e9190612391565b60405180910390f35b6101c160048036038101906101bc9190611e5a565b610595565b6040516101ce9190612391565b60405180910390f35b6101f160048036038101906101ec9190611e9b565b61065d565b6040516101fe91906123ac565b60405180910390f35b610221600480360381019061021c9190611ec4565b61067d565b005b61023d60048036038101906102389190611e5a565b6106a6565b60405161024a9190612391565b60405180910390f35b61025b61076e565b6040516102689190612391565b60405180910390f35b61028b60048036038101906102869190611ec4565b610872565b005b610295610a22565b6040516102a291906123ac565b60405180910390f35b6102b3610a46565b6040516102c09190612391565b60405180910390f35b6102d1610a8a565b6040516102de919061236f565b60405180910390f35b6102ef610d79565b6040516102fc919061236f565b60405180910390f35b61030d610f54565b60405161031a9190612391565b60405180910390f35b61032b610f6a565b604051610338919061236f565b60405180910390f35b6103496110b3565b6040516103569190612391565b60405180910390f35b6103676110f7565b60405161037491906123ac565b60405180910390f35b61039760048036038101906103929190611ec4565b61111b565b6040516103a49190612391565b60405180910390f35b6103b5611186565b6040516103c291906123ac565b60405180910390f35b6103d36111aa565b6040516103e091906123ac565b60405180910390f35b61040360048036038101906103fe9190611ec4565b6111b1565b005b61040d611244565b60405161041a91906123ac565b60405180910390f35b61043d60048036038101906104389190611f29565b611268565b60405161044a9190612391565b60405180910390f35b60007f7965db0b000000000000000000000000000000000000000000000000000000007bffffffffffffffffffffffffffffffffffffffffffffffffffffffff1916827bffffffffffffffffffffffffffffffffffffffffffffffffffffffff191614806104c657506104c582611645565b5b9050919050565b60007fdc1958ce1178d6eb32ccc146dcea8933f1978155832913ec88fa509962e1b413610501816104fc6116af565b6116b7565b60005b835181101561058a576105777f15e007796fc034bf8274acdcfbd2f48124815698ba6f70c109f3423981a7052f85838151811061056a577f4e487b7100000000000000000000000000000000000000000000000000000000600052603260045260246000fd5b602002602001015161067d565b8080610582906127ee565b915050610504565b506001915050919050565b60007fd16e204b8a42a15ab0ea6bb8ec1ecdfbe69f38074fc865323af19efe7d9573d96105c9816105c46116af565b6116b7565b60005b83518110156106525761063f7f36a5c4aaacb6b388bbd448bf11096b7dafc5652bcc9046084fd0e95b1fb0b2cc858381518110610632577f4e487b7100000000000000000000000000000000000000000000000000000000600052603260045260246000fd5b602002602001015161067d565b808061064a906127ee565b9150506105cc565b506001915050919050565b600060016000838152602001908152602001600020600101549050919050565b6106868261065d565b610697816106926116af565b6116b7565b6106a18383611565565b505050565b60007fdc1958ce1178d6eb32ccc146dcea8933f1978155832913ec88fa509962e1b4136106da816106d56116af565b6116b7565b60005b8351811015610763576107507fd16e204b8a42a15ab0ea6bb8ec1ecdfbe69f38074fc865323af19efe7d9573d9858381518110610743577f4e487b7100000000000000000000000000000000000000000000000000000000600052603260045260246000fd5b602002602001015161067d565b808061075b906127ee565b9150506106dd565b506001915050919050565b60006001151561079e7fdc1958ce1178d6eb32ccc146dcea8933f1978155832913ec88fa509962e1b4133361111b565b151514806107d95750600115156107d57fd16e204b8a42a15ab0ea6bb8ec1ecdfbe69f38074fc865323af19efe7d9573d93361111b565b1515145b8061081157506001151561080d7f15e007796fc034bf8274acdcfbd2f48124815698ba6f70c109f3423981a7052f3361111b565b1515145b610850576040517f08c379a0000000000000000000000000000000000000000000000000000000008152600401610847906124c9565b60405180910390fd5b6001600560016101000a81548160ff0219169083151502179055506001905090565b7fdc1958ce1178d6eb32ccc146dcea8933f1978155832913ec88fa509962e1b4136108a48161089f6116af565b6116b7565b7fdc1958ce1178d6eb32ccc146dcea8933f1978155832913ec88fa509962e1b4138314610906576040517f08c379a00000000000000000000000000000000000000000000000000000000081526004016108fd906124a9565b60405180910390fd5b6109307f15e007796fc034bf8274acdcfbd2f48124815698ba6f70c109f3423981a7052f8361111b565b61096f576040517f08c379a000000000000000000000000000000000000000000000000000000000815260040161096690612489565b60405180910390fd5b6109997fdc1958ce1178d6eb32ccc146dcea8933f1978155832913ec88fa509962e1b41383611565565b6109c37fdc1958ce1178d6eb32ccc146dcea8933f1978155832913ec88fa509962e1b41333611754565b8173ffffffffffffffffffffffffffffffffffffffff163373ffffffffffffffffffffffffffffffffffffffff167f53cb1046cc84eb7dcfb14a0610185dd97c2c40e311ef59a28c5622cf3942a3b860405160405180910390a3505050565b7f15e007796fc034bf8274acdcfbd2f48124815698ba6f70c109f3423981a7052f81565b60007fdc1958ce1178d6eb32ccc146dcea8933f1978155832913ec88fa509962e1b413610a7a81610a756116af565b6116b7565b610a82611836565b600191505090565b606060011515610aba7fdc1958ce1178d6eb32ccc146dcea8933f1978155832913ec88fa509962e1b4133361111b565b15151480610af5575060011515610af17fd16e204b8a42a15ab0ea6bb8ec1ecdfbe69f38074fc865323af19efe7d9573d93361111b565b1515145b610b34576040517f08c379a0000000000000000000000000000000000000000000000000000000008152600401610b2b906124c9565b60405180910390fd5b60005b600480549050811015610c7f576000600760048381548110610b82577f4e487b7100000000000000000000000000000000000000000000000000000000600052603260045260246000fd5b90600052602060002001604051610b999190612303565b90815260200160405180910390209050600860048381548110610be5577f4e487b7100000000000000000000000000000000000000000000000000000000600052603260045260246000fd5b90600052602060002001604051610bfc9190612303565b908152602001604051809103902054816001018190555060098190806001815401808255809150506001900390600052602060002090600202016000909190919091506000820181600001908054610c539061278b565b610c5e929190611c73565b50600182015481600101555050508080610c77906127ee565b915050610b37565b506009805480602002602001604051908101604052809291908181526020016000905b82821015610d705783829060005260206000209060020201604051806040016040529081600082018054610cd59061278b565b80601f0160208091040260200160405190810160405280929190818152602001828054610d019061278b565b8015610d4e5780601f10610d2357610100808354040283529160200191610d4e565b820191906000526020600020905b815481529060010190602001808311610d3157829003601f168201915b5050505050815260200160018201548152505081526020019060010190610ca2565b50505050905090565b606060011515610da97fdc1958ce1178d6eb32ccc146dcea8933f1978155832913ec88fa509962e1b4133361111b565b15151480610de4575060011515610de07fd16e204b8a42a15ab0ea6bb8ec1ecdfbe69f38074fc865323af19efe7d9573d93361111b565b1515145b80610e1c575060011515610e187f15e007796fc034bf8274acdcfbd2f48124815698ba6f70c109f3423981a7052f3361111b565b1515145b610e5b576040517f08c379a0000000000000000000000000000000000000000000000000000000008152600401610e52906124c9565b60405180910390fd5b6009805480602002602001604051908101604052809291908181526020016000905b82821015610f4b5783829060005260206000209060020201604051806040016040529081600082018054610eb09061278b565b80601f0160208091040260200160405190810160405280929190818152602001828054610edc9061278b565b8015610f295780601f10610efe57610100808354040283529160200191610f29565b820191906000526020600020905b815481529060010190602001808311610f0c57829003601f168201915b5050505050815260200160018201548152505081526020019060010190610e7d565b50505050905090565b60008060009054906101000a900460ff16905090565b606060001515600560019054906101000a900460ff1615151415610fba576040517fb34ae8a900000000000000000000000000000000000000000000000000000000815260040160405180910390fd5b6009805480602002602001604051908101604052809291908181526020016000905b828210156110aa578382906000526020600020906002020160405180604001604052908160008201805461100f9061278b565b80601f016020809104026020016040519081016040528092919081815260200182805461103b9061278b565b80156110885780601f1061105d57610100808354040283529160200191611088565b820191906000526020600020905b81548152906001019060200180831161106b57829003601f168201915b5050505050815260200160018201548152505081526020019060010190610fdc565b50505050905090565b60007fdc1958ce1178d6eb32ccc146dcea8933f1978155832913ec88fa509962e1b4136110e7816110e26116af565b6116b7565b6110ef6118d7565b600191505090565b7fd16e204b8a42a15ab0ea6bb8ec1ecdfbe69f38074fc865323af19efe7d9573d981565b60006001600084815260200190815260200160002060000160008373ffffffffffffffffffffffffffffffffffffffff1673ffffffffffffffffffffffffffffffffffffffff16815260200190815260200160002060009054906101000a900460ff16905092915050565b7fdc1958ce1178d6eb32ccc146dcea8933f1978155832913ec88fa509962e1b41381565b6000801b81565b6111ba8261065d565b6111cb816111c66116af565b6116b7565b6111f57fdc1958ce1178d6eb32ccc146dcea8933f1978155832913ec88fa509962e1b4138361111b565b15611235576040517f08c379a000000000000000000000000000000000000000000000000000000000815260040161122c90612429565b60405180910390fd5b61123f8383611754565b505050565b7f36a5c4aaacb6b388bbd448bf11096b7dafc5652bcc9046084fd0e95b1fb0b2cc81565b6000600115156112987fdc1958ce1178d6eb32ccc146dcea8933f1978155832913ec88fa509962e1b4133361111b565b151514806112d35750600115156112cf7fd16e204b8a42a15ab0ea6bb8ec1ecdfbe69f38074fc865323af19efe7d9573d93361111b565b1515145b8061130b5750600115156113077f36a5c4aaacb6b388bbd448bf11096b7dafc5652bcc9046084fd0e95b1fb0b2cc3361111b565b1515145b8061134357506001151561133f7f15e007796fc034bf8274acdcfbd2f48124815698ba6f70c109f3423981a7052f3361111b565b1515145b611382576040517f08c379a000000000000000000000000000000000000000000000000000000000815260040161137990612469565b60405180910390fd5b61138a610f54565b156113ca576040517f08c379a00000000000000000000000000000000000000000000000000000000081526004016113c190612449565b60405180910390fd5b60011515600660003373ffffffffffffffffffffffffffffffffffffffff1673ffffffffffffffffffffffffffffffffffffffff16815260200190815260200160002060009054906101000a900460ff1615151415611455576040517f7c9a1cf900000000000000000000000000000000000000000000000000000000815260040160405180910390fd5b600060088360405161146791906122ec565b908152602001604051809103902054905060018161148591906125f1565b60088460405161149591906122ec565b9081526020016040518091039020819055506001600660003373ffffffffffffffffffffffffffffffffffffffff1673ffffffffffffffffffffffffffffffffffffffff16815260200190815260200160002060006101000a81548160ff0219169083151502179055506001915050919050565b60006115148361065d565b90508160016000858152602001908152602001600020600101819055508181847fbd79b86ffe0ab8e8776151514217cd7cacd52c909f66475c3af44e129f0b00ff60405160405180910390a4505050565b61156f828261111b565b61164157600180600084815260200190815260200160002060000160008373ffffffffffffffffffffffffffffffffffffffff1673ffffffffffffffffffffffffffffffffffffffff16815260200190815260200160002060006101000a81548160ff0219169083151502179055506115e66116af565b73ffffffffffffffffffffffffffffffffffffffff168173ffffffffffffffffffffffffffffffffffffffff16837f2f8788117e7eff1d82e926ec794901d17c78024a50270940304540a733656f0d60405160405180910390a45b5050565b60007f01ffc9a7000000000000000000000000000000000000000000000000000000007bffffffffffffffffffffffffffffffffffffffffffffffffffffffff1916827bffffffffffffffffffffffffffffffffffffffffffffffffffffffff1916149050919050565b600033905090565b6116c1828261111b565b611750576116e68173ffffffffffffffffffffffffffffffffffffffff166014611979565b6116f48360001c6020611979565b60405160200161170592919061231a565b6040516020818303038152906040526040517f08c379a000000000000000000000000000000000000000000000000000000000815260040161174791906123c7565b60405180910390fd5b5050565b61175e828261111b565b156118325760006001600084815260200190815260200160002060000160008373ffffffffffffffffffffffffffffffffffffffff1673ffffffffffffffffffffffffffffffffffffffff16815260200190815260200160002060006101000a81548160ff0219169083151502179055506117d76116af565b73ffffffffffffffffffffffffffffffffffffffff168173ffffffffffffffffffffffffffffffffffffffff16837ff6391f5c32d9c69d2a47ea670b442974b53935d1edc7fd64eb21e047a839171b60405160405180910390a45b5050565b61183e610f54565b61187d576040517f08c379a000000000000000000000000000000000000000000000000000000000815260040161187490612409565b60405180910390fd5b60008060006101000a81548160ff0219169083151502179055507f5db9ee0a495bf2e6ff9c91a7834c1ba4fdd244a5e8aa4e537bd38aeae4b073aa6118c06116af565b6040516118cd9190612354565b60405180910390a1565b6118df610f54565b1561191f576040517f08c379a000000000000000000000000000000000000000000000000000000000815260040161191690612449565b60405180910390fd5b60016000806101000a81548160ff0219169083151502179055507f62e78cea01bee320cd4e420270b5ea74000d11b0c9f74754ebdbfc544b05a2586119626116af565b60405161196f9190612354565b60405180910390a1565b60606000600283600261198c9190612647565b61199691906125f1565b67ffffffffffffffff8111156119d5577f4e487b7100000000000000000000000000000000000000000000000000000000600052604160045260246000fd5b6040519080825280601f01601f191660200182016040528015611a075781602001600182028036833780820191505090505b5090507f300000000000000000000000000000000000000000000000000000000000000081600081518110611a65577f4e487b7100000000000000000000000000000000000000000000000000000000600052603260045260246000fd5b60200101907effffffffffffffffffffffffffffffffffffffffffffffffffffffffffffff1916908160001a9053507f780000000000000000000000000000000000000000000000000000000000000081600181518110611aef577f4e487b7100000000000000000000000000000000000000000000000000000000600052603260045260246000fd5b60200101907effffffffffffffffffffffffffffffffffffffffffffffffffffffffffffff1916908160001a90535060006001846002611b2f9190612647565b611b3991906125f1565b90505b6001811115611c25577f3031323334353637383961626364656600000000000000000000000000000000600f861660108110611ba1577f4e487b7100000000000000000000000000000000000000000000000000000000600052603260045260246000fd5b1a60f81b828281518110611bde577f4e487b7100000000000000000000000000000000000000000000000000000000600052603260045260246000fd5b60200101907effffffffffffffffffffffffffffffffffffffffffffffffffffffffffffff1916908160001a905350600485901c945080611c1e90612761565b9050611b3c565b5060008414611c69576040517f08c379a0000000000000000000000000000000000000000000000000000000008152600401611c60906123e9565b60405180910390fd5b8091505092915050565b828054611c7f9061278b565b90600052602060002090601f016020900481019282611ca15760008555611cef565b82601f10611cb25780548555611cef565b82800160010185558215611cef57600052602060002091601f016020900482015b82811115611cee578254825591600101919060010190611cd3565b5b509050611cfc9190611d00565b5090565b5b80821115611d19576000816000905550600101611d01565b5090565b6000611d30611d2b8461250e565b6124e9565b90508083825260208201905082856020860282011115611d4f57600080fd5b60005b85811015611d7f5781611d658882611dc7565b845260208401935060208301925050600181019050611d52565b5050509392505050565b6000611d9c611d978461253a565b6124e9565b905082815260208101848484011115611db457600080fd5b611dbf84828561271f565b509392505050565b600081359050611dd681612ae1565b92915050565b600082601f830112611ded57600080fd5b8135611dfd848260208601611d1d565b91505092915050565b600081359050611e1581612af8565b92915050565b600081359050611e2a81612b0f565b92915050565b600082601f830112611e4157600080fd5b8135611e51848260208601611d89565b91505092915050565b600060208284031215611e6c57600080fd5b600082013567ffffffffffffffff811115611e8657600080fd5b611e9284828501611ddc565b91505092915050565b600060208284031215611ead57600080fd5b6000611ebb84828501611e06565b91505092915050565b60008060408385031215611ed757600080fd5b6000611ee585828601611e06565b9250506020611ef685828601611dc7565b9150509250929050565b600060208284031215611f1257600080fd5b6000611f2084828501611e1b565b91505092915050565b600060208284031215611f3b57600080fd5b600082013567ffffffffffffffff811115611f5557600080fd5b611f6184828501611e30565b91505092915050565b6000611f7683836122a0565b905092915050565b611f87816126a1565b82525050565b6000611f9882612590565b611fa281856125b3565b935083602082028501611fb48561256b565b8060005b85811015611ff05784840389528151611fd18582611f6a565b9450611fdc836125a6565b925060208a01995050600181019050611fb8565b50829750879550505050505092915050565b61200b816126b3565b82525050565b61201a816126bf565b82525050565b600061202b8261259b565b61203581856125c4565b935061204581856020860161272e565b61204e816128c4565b840191505092915050565b60006120648261259b565b61206e81856125d5565b935061207e81856020860161272e565b612087816128c4565b840191505092915050565b600061209d8261259b565b6120a781856125e6565b93506120b781856020860161272e565b80840191505092915050565b600081546120d08161278b565b6120da81866125e6565b945060018216600081146120f5576001811461210657612139565b60ff19831686528186019350612139565b61210f8561257b565b60005b8381101561213157815481890152600182019150602081019050612112565b838801955050505b50505092915050565b600061214f6020836125d5565b915061215a826128d5565b602082019050919050565b60006121726014836125d5565b915061217d826128fe565b602082019050919050565b6000612195601f836125d5565b91506121a082612927565b602082019050919050565b60006121b86010836125d5565b91506121c382612950565b602082019050919050565b60006121db600d836125d5565b91506121e682612979565b602082019050919050565b60006121fe6036836125d5565b9150612209826129a2565b604082019050919050565b60006122216028836125d5565b915061222c826129f1565b604082019050919050565b60006122446027836125d5565b915061224f82612a40565b604082019050919050565b60006122676017836125e6565b915061227282612a8f565b601782019050919050565b600061228a6011836125e6565b915061229582612ab8565b601182019050919050565b600060408301600083015184820360008601526122bd8282612020565b91505060208301516122d260208601826122dd565b508091505092915050565b6122e681612715565b82525050565b60006122f88284612092565b915081905092915050565b600061230f82846120c3565b915081905092915050565b60006123258261225a565b91506123318285612092565b915061233c8261227d565b91506123488284612092565b91508190509392505050565b60006020820190506123696000830184611f7e565b92915050565b600060208201905081810360008301526123898184611f8d565b905092915050565b60006020820190506123a66000830184612002565b92915050565b60006020820190506123c16000830184612011565b92915050565b600060208201905081810360008301526123e18184612059565b905092915050565b6000602082019050818103600083015261240281612142565b9050919050565b6000602082019050818103600083015261242281612165565b9050919050565b6000602082019050818103600083015261244281612188565b9050919050565b60006020820190508181036000830152612462816121ab565b9050919050565b60006020820190508181036000830152612482816121ce565b9050919050565b600060208201905081810360008301526124a2816121f1565b9050919050565b600060208201905081810360008301526124c281612214565b9050919050565b600060208201905081810360008301526124e281612237565b9050919050565b60006124f3612504565b90506124ff82826127bd565b919050565b6000604051905090565b600067ffffffffffffffff82111561252957612528612895565b5b602082029050602081019050919050565b600067ffffffffffffffff82111561255557612554612895565b5b61255e826128c4565b9050602081019050919050565b6000819050602082019050919050565b60008190508160005260206000209050919050565b600081519050919050565b600081519050919050565b6000602082019050919050565b600082825260208201905092915050565b600082825260208201905092915050565b600082825260208201905092915050565b600081905092915050565b60006125fc82612715565b915061260783612715565b9250827fffffffffffffffffffffffffffffffffffffffffffffffffffffffffffffffff0382111561263c5761263b612837565b5b828201905092915050565b600061265282612715565b915061265d83612715565b9250817fffffffffffffffffffffffffffffffffffffffffffffffffffffffffffffffff048311821515161561269657612695612837565b5b828202905092915050565b60006126ac826126f5565b9050919050565b60008115159050919050565b6000819050919050565b60007fffffffff0000000000000000000000000000000000000000000000000000000082169050919050565b600073ffffffffffffffffffffffffffffffffffffffff82169050919050565b6000819050919050565b82818337600083830152505050565b60005b8381101561274c578082015181840152602081019050612731565b8381111561275b576000848401525b50505050565b600061276c82612715565b915060008214156127805761277f612837565b5b600182039050919050565b600060028204905060018216806127a357607f821691505b602082108114156127b7576127b6612866565b5b50919050565b6127c6826128c4565b810181811067ffffffffffffffff821117156127e5576127e4612895565b5b80604052505050565b60006127f982612715565b91507fffffffffffffffffffffffffffffffffffffffffffffffffffffffffffffffff82141561282c5761282b612837565b5b600182019050919050565b7f4e487b7100000000000000000000000000000000000000000000000000000000600052601160045260246000fd5b7f4e487b7100000000000000000000000000000000000000000000000000000000600052602260045260246000fd5b7f4e487b7100000000000000000000000000000000000000000000000000000000600052604160045260246000fd5b6000601f19601f8301169050919050565b7f537472696e67733a20686578206c656e67746820696e73756666696369656e74600082015250565b7f5061757361626c653a206e6f7420706175736564000000000000000000000000600082015250565b7f43686169726d616e20726f6c652063616e6e6f74206265207265766f6b656400600082015250565b7f5061757361626c653a2070617573656400000000000000000000000000000000600082015250565b7f4143434553532044454e49454400000000000000000000000000000000000000600082015250565b7f546865206164647265737320666f7220746865206e65772063686169726d616e60008201527f206973206e6f742061206469726563746f722079657400000000000000000000602082015250565b7f4f6e6c79207468652063686169726d616e20726f6c652063616e20626520726560008201527f6e6f756e6365642e000000000000000000000000000000000000000000000000602082015250565b7f41434345535320464f52205445414348455228732920414e442043484149524d60008201527f414e204f4e4c5900000000000000000000000000000000000000000000000000602082015250565b7f416363657373436f6e74726f6c3a206163636f756e7420000000000000000000600082015250565b7f206973206d697373696e6720726f6c6520000000000000000000000000000000600082015250565b612aea816126a1565b8114612af557600080fd5b50565b612b01816126bf565b8114612b0c57600080fd5b50565b612b18816126c9565b8114612b2357600080fd5b5056fea264697066735822122055ac6272b842bf6b8e57caebcf06089b6062e289d75b930e5058a2eb4a1f672164736f6c63430008040033",
  "linkReferences": {},
  "deployedLinkReferences": {}
}