{
  "_format": "hh-sol-artifact-1",
  "contractName": "Election",
  "sourceName": "contracts/Election.sol",
  "abi": [
    {
      "inputs": [
        {
          "internalType": "address",
          "name": "_owner",
          "type": "address"
        },
        {
          "internalType": "string",
          "name": "_position",
          "type": "string"
        },
        {
          "internalType": "uint256",
          "name": "_noOfParticipants",
          "type": "uint256"
        },
        {
          "internalType": "string[]",
          "name": "_contestants",
          "type": "string[]"
        },
        {
          "internalType": "uint256",
          "name": "_index",
          "type": "uint256"
        },
        {
          "internalType": "address",
          "name": "_electionFactory",
          "type": "address"
        }
      ],
      "stateMutability": "nonpayable",
      "type": "constructor"
    },
    {
      "inputs": [],
      "name": "AccessDenied",
      "type": "error"
    },
    {
      "inputs": [],
      "name": "AlreadyVoted",
      "type": "error"
    },
    {
      "inputs": [],
      "name": "NoOfParticatantNotMatchingParticipateName",
      "type": "error"
    },
    {
      "inputs": [],
      "name": "ResultNotYetRelease",
      "type": "error"
    },
    {
      "inputs": [],
      "name": "VotingEnd",
      "type": "error"
    },
    {
      "inputs": [],
      "name": "VotingNotAllowed",
      "type": "error"
    },
    {
      "inputs": [],
      "name": "VotingNotStarted",
      "type": "error"
    },
    {
      "anonymous": false,
      "inputs": [
        {
          "indexed": false,
          "internalType": "uint256[]",
          "name": "_winnerIds",
          "type": "uint256[]"
        },
        {
          "indexed": false,
          "internalType": "uint256",
          "name": "_winnerVoteCount",
          "type": "uint256"
        }
      ],
      "name": "ElectionEnded",
      "type": "event"
    },
    {
      "anonymous": false,
      "inputs": [
        {
          "indexed": false,
          "internalType": "uint256",
          "name": "endAt",
          "type": "uint256"
        }
      ],
      "name": "EndVoting",
      "type": "event"
    },
    {
      "anonymous": false,
      "inputs": [
        {
          "indexed": false,
          "internalType": "address",
          "name": "account",
          "type": "address"
        }
      ],
      "name": "Paused",
      "type": "event"
    },
    {
      "anonymous": false,
      "inputs": [
        {
          "indexed": false,
          "internalType": "address[]",
          "name": "_student",
          "type": "address[]"
        }
      ],
      "name": "RegisterStudent",
      "type": "event"
    },
    {
      "anonymous": false,
      "inputs": [
        {
          "indexed": false,
          "internalType": "address[]",
          "name": "student",
          "type": "address[]"
        }
      ],
      "name": "RegisterTeacher",
      "type": "event"
    },
    {
      "anonymous": false,
      "inputs": [
        {
          "indexed": true,
          "internalType": "address",
          "name": "previousChairman",
          "type": "address"
        },
        {
          "indexed": true,
          "internalType": "address",
          "name": "newChairman",
          "type": "address"
        }
      ],
      "name": "RenounceRole",
      "type": "event"
    },
    {
      "anonymous": false,
      "inputs": [
        {
          "indexed": true,
          "internalType": "bytes32",
          "name": "role",
          "type": "bytes32"
        },
        {
          "indexed": true,
          "internalType": "bytes32",
          "name": "previousAdminRole",
          "type": "bytes32"
        },
        {
          "indexed": true,
          "internalType": "bytes32",
          "name": "newAdminRole",
          "type": "bytes32"
        }
      ],
      "name": "RoleAdminChanged",
      "type": "event"
    },
    {
      "anonymous": false,
      "inputs": [
        {
          "indexed": true,
          "internalType": "bytes32",
          "name": "role",
          "type": "bytes32"
        },
        {
          "indexed": true,
          "internalType": "address",
          "name": "account",
          "type": "address"
        },
        {
          "indexed": true,
          "internalType": "address",
          "name": "sender",
          "type": "address"
        }
      ],
      "name": "RoleGranted",
      "type": "event"
    },
    {
      "anonymous": false,
      "inputs": [
        {
          "indexed": true,
          "internalType": "bytes32",
          "name": "role",
          "type": "bytes32"
        },
        {
          "indexed": true,
          "internalType": "address",
          "name": "account",
          "type": "address"
        },
        {
          "indexed": true,
          "internalType": "address",
          "name": "sender",
          "type": "address"
        }
      ],
      "name": "RoleRevoked",
      "type": "event"
    },
    {
      "anonymous": false,
      "inputs": [
        {
          "indexed": false,
          "internalType": "address[]",
          "name": "_Bod",
          "type": "address[]"
        }
      ],
      "name": "SetUpBOD",
      "type": "event"
    },
    {
      "anonymous": false,
      "inputs": [
        {
          "indexed": false,
          "internalType": "address[]",
          "name": "director",
          "type": "address[]"
        }
      ],
      "name": "SetUpDirector",
      "type": "event"
    },
    {
      "anonymous": false,
      "inputs": [
        {
          "indexed": false,
          "internalType": "address[]",
          "name": "teacher",
          "type": "address[]"
        }
      ],
      "name": "SetUpTeacher",
      "type": "event"
    },
    {
      "anonymous": false,
      "inputs": [
        {
          "indexed": false,
          "internalType": "uint256",
          "name": "startAt",
          "type": "uint256"
        }
      ],
      "name": "StartVoting",
      "type": "event"
    },
    {
      "anonymous": false,
      "inputs": [
        {
          "indexed": false,
          "internalType": "address",
          "name": "account",
          "type": "address"
        }
      ],
      "name": "Unpaused",
      "type": "event"
    },
    {
      "anonymous": false,
      "inputs": [
        {
          "indexed": false,
          "internalType": "string",
          "name": "candidates",
          "type": "string"
        },
        {
          "indexed": false,
          "internalType": "address",
          "name": "voter",
          "type": "address"
        }
      ],
      "name": "Vote",
      "type": "event"
    },
    {
      "inputs": [],
      "name": "CHAIRMAN_ROLE",
      "outputs": [
        {
          "internalType": "bytes32",
          "name": "",
          "type": "bytes32"
        }
      ],
      "stateMutability": "view",
      "type": "function"
    },
    {
      "inputs": [],
      "name": "DEFAULT_ADMIN_ROLE",
      "outputs": [
        {
          "internalType": "bytes32",
          "name": "",
          "type": "bytes32"
        }
      ],
      "stateMutability": "view",
      "type": "function"
    },
    {
      "inputs": [],
      "name": "DIRECTOR_ROLE",
      "outputs": [
        {
          "internalType": "bytes32",
          "name": "",
          "type": "bytes32"
        }
      ],
      "stateMutability": "view",
      "type": "function"
    },
    {
      "inputs": [],
      "name": "STUDENT_ROLE",
      "outputs": [
        {
          "internalType": "bytes32",
          "name": "",
          "type": "bytes32"
        }
      ],
      "stateMutability": "view",
      "type": "function"
    },
    {
      "inputs": [],
      "name": "TEACHER_ROLE",
      "outputs": [
        {
          "internalType": "bytes32",
          "name": "",
          "type": "bytes32"
        }
      ],
      "stateMutability": "view",
      "type": "function"
    },
    {
      "inputs": [],
      "name": "compileResult",
      "outputs": [
        {
          "components": [
            {
              "internalType": "string",
              "name": "candidatesName",
              "type": "string"
            },
            {
              "internalType": "uint256",
              "name": "voteCount",
              "type": "uint256"
            }
          ],
          "internalType": "struct Election.Candidates[]",
          "name": "",
          "type": "tuple[]"
        }
      ],
      "stateMutability": "nonpayable",
      "type": "function"
    },
    {
      "inputs": [],
      "name": "disableVoting",
      "outputs": [],
      "stateMutability": "nonpayable",
      "type": "function"
    },
    {
      "inputs": [],
      "name": "enableVoting",
      "outputs": [],
      "stateMutability": "nonpayable",
      "type": "function"
    },
    {
      "inputs": [],
      "name": "endAt",
      "outputs": [
        {
          "internalType": "uint256",
          "name": "",
          "type": "uint256"
        }
      ],
      "stateMutability": "view",
      "type": "function"
    },
    {
      "inputs": [
        {
          "internalType": "bytes32",
          "name": "role",
          "type": "bytes32"
        }
      ],
      "name": "getRoleAdmin",
      "outputs": [
        {
          "internalType": "bytes32",
          "name": "",
          "type": "bytes32"
        }
      ],
      "stateMutability": "view",
      "type": "function"
    },
    {
      "inputs": [
        {
          "internalType": "bytes32",
          "name": "role",
          "type": "bytes32"
        },
        {
          "internalType": "address",
          "name": "account",
          "type": "address"
        }
      ],
      "name": "grantRole",
      "outputs": [],
      "stateMutability": "nonpayable",
      "type": "function"
    },
    {
      "inputs": [
        {
          "internalType": "bytes32",
          "name": "role",
          "type": "bytes32"
        },
        {
          "internalType": "address",
          "name": "account",
          "type": "address"
        }
      ],
      "name": "hasRole",
      "outputs": [
        {
          "internalType": "bool",
          "name": "",
          "type": "bool"
        }
      ],
      "stateMutability": "view",
      "type": "function"
    },
    {
      "inputs": [],
      "name": "pause",
      "outputs": [
        {
          "internalType": "bool",
          "name": "",
          "type": "bool"
        }
      ],
      "stateMutability": "nonpayable",
      "type": "function"
    },
    {
      "inputs": [],
      "name": "paused",
      "outputs": [
        {
          "internalType": "bool",
          "name": "",
          "type": "bool"
        }
      ],
      "stateMutability": "view",
      "type": "function"
    },
    {
      "inputs": [],
      "name": "privateViewResult",
      "outputs": [
        {
          "components": [
            {
              "internalType": "string",
              "name": "candidatesName",
              "type": "string"
            },
            {
              "internalType": "uint256",
              "name": "voteCount",
              "type": "uint256"
            }
          ],
          "internalType": "struct Election.Candidates[]",
          "name": "",
          "type": "tuple[]"
        }
      ],
      "stateMutability": "view",
      "type": "function"
    },
    {
      "inputs": [
        {
          "internalType": "address[]",
          "name": "_student",
          "type": "address[]"
        }
      ],
      "name": "registerStudent",
      "outputs": [
        {
          "internalType": "bool",
          "name": "",
          "type": "bool"
        }
      ],
      "stateMutability": "nonpayable",
      "type": "function"
    },
    {
      "inputs": [
        {
          "internalType": "bytes32",
          "name": "_role",
          "type": "bytes32"
        },
        {
          "internalType": "address",
          "name": "_account",
          "type": "address"
        }
      ],
      "name": "renounceRole",
      "outputs": [],
      "stateMutability": "nonpayable",
      "type": "function"
    },
    {
      "inputs": [],
      "name": "result",
      "outputs": [
        {
          "components": [
            {
              "internalType": "string",
              "name": "candidatesName",
              "type": "string"
            },
            {
              "internalType": "uint256",
              "name": "voteCount",
              "type": "uint256"
            }
          ],
          "internalType": "struct Election.Candidates[]",
          "name": "",
          "type": "tuple[]"
        }
      ],
      "stateMutability": "view",
      "type": "function"
    },
    {
      "inputs": [],
      "name": "resultReadyAt",
      "outputs": [
        {
          "internalType": "uint256",
          "name": "",
          "type": "uint256"
        }
      ],
      "stateMutability": "view",
      "type": "function"
    },
    {
      "inputs": [
        {
          "internalType": "bytes32",
          "name": "_role",
          "type": "bytes32"
        },
        {
          "internalType": "address",
          "name": "_account",
          "type": "address"
        }
      ],
      "name": "revokeRole",
      "outputs": [],
      "stateMutability": "nonpayable",
      "type": "function"
    },
    {
      "inputs": [
        {
          "internalType": "address[]",
          "name": "_Bod",
          "type": "address[]"
        }
      ],
      "name": "setupBOD",
      "outputs": [
        {
          "internalType": "bool",
          "name": "",
          "type": "bool"
        }
      ],
      "stateMutability": "nonpayable",
      "type": "function"
    },
    {
      "inputs": [
        {
          "internalType": "address[]",
          "name": "_teacher",
          "type": "address[]"
        }
      ],
      "name": "setupTeachers",
      "outputs": [
        {
          "internalType": "bool",
          "name": "",
          "type": "bool"
        }
      ],
      "stateMutability": "nonpayable",
      "type": "function"
    },
    {
      "inputs": [],
      "name": "showResult",
      "outputs": [
        {
          "internalType": "bool",
          "name": "",
          "type": "bool"
        }
      ],
      "stateMutability": "nonpayable",
      "type": "function"
    },
    {
      "inputs": [],
      "name": "startAt",
      "outputs": [
        {
          "internalType": "uint256",
          "name": "",
          "type": "uint256"
        }
      ],
      "stateMutability": "view",
      "type": "function"
    },
    {
      "inputs": [
        {
          "internalType": "bytes4",
          "name": "interfaceId",
          "type": "bytes4"
        }
      ],
      "name": "supportsInterface",
      "outputs": [
        {
          "internalType": "bool",
          "name": "",
          "type": "bool"
        }
      ],
      "stateMutability": "view",
      "type": "function"
    },
    {
      "inputs": [],
      "name": "unpause",
      "outputs": [
        {
          "internalType": "bool",
          "name": "",
          "type": "bool"
        }
      ],
      "stateMutability": "nonpayable",
      "type": "function"
    },
    {
      "inputs": [
        {
          "internalType": "string",
          "name": "_participantsName",
          "type": "string"
        }
      ],
      "name": "vote",
      "outputs": [
        {
          "internalType": "bool",
          "name": "",
          "type": "bool"
        }
      ],
      "stateMutability": "nonpayable",
      "type": "function"
    }
  ],
  "bytecode": "0x60c06040523480156200001157600080fd5b5060405162003ed438038062003ed483398181016040528101906200003791906200086c565b8560008060006101000a81548160ff021916908315150217905550620000a97f36a5c4aaacb6b388bbd448bf11096b7dafc5652bcc9046084fd0e95b1fb0b2cc7fd16e204b8a42a15ab0ea6bb8ec1ecdfbe69f38074fc865323af19efe7d9573d9620003a260201b6200193e1760201c565b620001007fd16e204b8a42a15ab0ea6bb8ec1ecdfbe69f38074fc865323af19efe7d9573d97fdc1958ce1178d6eb32ccc146dcea8933f1978155832913ec88fa509962e1b413620003a260201b6200193e1760201c565b620001577f15e007796fc034bf8274acdcfbd2f48124815698ba6f70c109f3423981a7052f7fdc1958ce1178d6eb32ccc146dcea8933f1978155832913ec88fa509962e1b413620003a260201b6200193e1760201c565b6200018e7fdc1958ce1178d6eb32ccc146dcea8933f1978155832913ec88fa509962e1b41380620003a260201b6200193e1760201c565b620001c57f15e007796fc034bf8274acdcfbd2f48124815698ba6f70c109f3423981a7052f826200040660201b6200199a1760201c565b620001fc7fdc1958ce1178d6eb32ccc146dcea8933f1978155832913ec88fa509962e1b413826200040660201b6200199a1760201c565b508251841462000238576040517f0e8cddf100000000000000000000000000000000000000000000000000000000815260040160405180910390fd5b8460029080519060200190620002509291906200058a565b50836003819055508260049080519060200190620002709291906200061b565b5081608081815250508073ffffffffffffffffffffffffffffffffffffffff1660a08173ffffffffffffffffffffffffffffffffffffffff1660601b8152505060005b835181101562000395576000600a858381518110620002fb577f4e487b7100000000000000000000000000000000000000000000000000000000600052603260045260246000fd5b60200260200101516040516200031291906200096b565b908152602001604051809103902090508482815181106200035c577f4e487b7100000000000000000000000000000000000000000000000000000000600052603260045260246000fd5b60200260200101518160000190805190602001906200037d9291906200058a565b505080806200038c9062000b08565b915050620002b3565b5050505050505062000c28565b6000620003b583620004f760201b60201c565b90508160016000858152602001908152602001600020600101819055508181847fbd79b86ffe0ab8e8776151514217cd7cacd52c909f66475c3af44e129f0b00ff60405160405180910390a4505050565b6200041882826200051760201b60201c565b620004f357600180600084815260200190815260200160002060000160008373ffffffffffffffffffffffffffffffffffffffff1673ffffffffffffffffffffffffffffffffffffffff16815260200190815260200160002060006101000a81548160ff021916908315150217905550620004986200058260201b60201c565b73ffffffffffffffffffffffffffffffffffffffff168173ffffffffffffffffffffffffffffffffffffffff16837f2f8788117e7eff1d82e926ec794901d17c78024a50270940304540a733656f0d60405160405180910390a45b5050565b600060016000838152602001908152602001600020600101549050919050565b60006001600084815260200190815260200160002060000160008373ffffffffffffffffffffffffffffffffffffffff1673ffffffffffffffffffffffffffffffffffffffff16815260200190815260200160002060009054906101000a900460ff16905092915050565b600033905090565b828054620005989062000a9c565b90600052602060002090601f016020900481019282620005bc576000855562000608565b82601f10620005d757805160ff191683800117855562000608565b8280016001018555821562000608579182015b8281111562000607578251825591602001919060010190620005ea565b5b50905062000617919062000682565b5090565b8280548282559060005260206000209081019282156200066f579160200282015b828111156200066e5782518290805190602001906200065d9291906200058a565b50916020019190600101906200063c565b5b5090506200067e9190620006a1565b5090565b5b808211156200069d57600081600090555060010162000683565b5090565b5b80821115620006c55760008181620006bb9190620006c9565b50600101620006a2565b5090565b508054620006d79062000a9c565b6000825580601f10620006eb57506200070c565b601f0160209004906000526020600020908101906200070b919062000682565b5b50565b6000620007266200072084620009ad565b62000984565b905080838252602082019050828560208602820111156200074657600080fd5b60005b858110156200079557815167ffffffffffffffff8111156200076a57600080fd5b80860162000779898262000828565b8552602085019450602084019350505060018101905062000749565b5050509392505050565b6000620007b6620007b084620009dc565b62000984565b905082815260208101848484011115620007cf57600080fd5b620007dc84828562000a66565b509392505050565b600081519050620007f58162000bf4565b92915050565b600082601f8301126200080d57600080fd5b81516200081f8482602086016200070f565b91505092915050565b600082601f8301126200083a57600080fd5b81516200084c8482602086016200079f565b91505092915050565b600081519050620008668162000c0e565b92915050565b60008060008060008060c087890312156200088657600080fd5b60006200089689828a01620007e4565b965050602087015167ffffffffffffffff811115620008b457600080fd5b620008c289828a0162000828565b9550506040620008d589828a0162000855565b945050606087015167ffffffffffffffff811115620008f357600080fd5b6200090189828a01620007fb565b93505060806200091489828a0162000855565b92505060a06200092789828a01620007e4565b9150509295509295509295565b6000620009418262000a12565b6200094d818562000a1d565b93506200095f81856020860162000a66565b80840191505092915050565b600062000979828462000934565b915081905092915050565b600062000990620009a3565b90506200099e828262000ad2565b919050565b6000604051905090565b600067ffffffffffffffff821115620009cb57620009ca62000bb4565b5b602082029050602081019050919050565b600067ffffffffffffffff821115620009fa57620009f962000bb4565b5b62000a058262000be3565b9050602081019050919050565b600081519050919050565b600081905092915050565b600062000a358262000a3c565b9050919050565b600073ffffffffffffffffffffffffffffffffffffffff82169050919050565b6000819050919050565b60005b8381101562000a8657808201518184015260208101905062000a69565b8381111562000a96576000848401525b50505050565b6000600282049050600182168062000ab557607f821691505b6020821081141562000acc5762000acb62000b85565b5b50919050565b62000add8262000be3565b810181811067ffffffffffffffff8211171562000aff5762000afe62000bb4565b5b80604052505050565b600062000b158262000a5c565b91507fffffffffffffffffffffffffffffffffffffffffffffffffffffffffffffffff82141562000b4b5762000b4a62000b56565b5b600182019050919050565b7f4e487b7100000000000000000000000000000000000000000000000000000000600052601160045260246000fd5b7f4e487b7100000000000000000000000000000000000000000000000000000000600052602260045260246000fd5b7f4e487b7100000000000000000000000000000000000000000000000000000000600052604160045260246000fd5b6000601f19601f8301169050919050565b62000bff8162000a28565b811462000c0b57600080fd5b50565b62000c198162000a5c565b811462000c2557600080fd5b50565b60805160a05160601c61328362000c516000396000611b8b01526000611bc701526132836000f3fe608060405234801561001057600080fd5b50600436106101a95760003560e01c80635c975abb116100f9578063a217fddf11610097578063d547741f11610071578063d547741f146104b4578063eb4439fb146104d0578063f7be43fb146104da578063fc36e15b146104f8576101a9565b8063a217fddf1461045a578063c744656514610478578063ca94e6a714610496576101a9565b80638456cb59116100d35780638456cb59146103d057806386e5c15a146103ee57806391d148541461040c578063a097dc4b1461043c576101a9565b80635c975abb1461037657806365372147146103945780637cc3ae8c146103b2576101a9565b8063301aee01116101665780633e4f9cae116101405780633e4f9cae146102fe5780633f4ba83a1461031c578063531cbb121461033a578063543cbb0514610358576101a9565b8063301aee011461029457806333ee3131146102c457806336568abe146102e2576101a9565b806301ffc9a7146101ae57806304cd1819146101de5780630d60b1d0146101e85780631fc26a5614610218578063248a9ca3146102485780632f2ff15d14610278575b600080fd5b6101c860048036038101906101c391906123e5565b610528565b6040516101d59190612972565b60405180910390f35b6101e66105a2565b005b61020260048036038101906101fd919061233f565b610691565b60405161020f9190612972565b60405180910390f35b610232600480360381019061022d919061233f565b610790565b60405161023f9190612972565b60405180910390f35b610262600480360381019061025d9190612380565b61088f565b60405161026f919061298d565b60405180910390f35b610292600480360381019061028d91906123a9565b6108af565b005b6102ae60048036038101906102a9919061233f565b6108d8565b6040516102bb9190612972565b60405180910390f35b6102cc6109d7565b6040516102d99190612972565b60405180910390f35b6102fc60048036038101906102f791906123a9565b610b20565b005b610306610cd0565b604051610313919061298d565b60405180910390f35b610324610cf4565b6040516103319190612972565b60405180910390f35b610342610d38565b60405161034f9190612950565b60405180910390f35b610360611027565b60405161036d9190612950565b60405180910390f35b61037e611202565b60405161038b9190612972565b60405180910390f35b61039c611218565b6040516103a99190612950565b60405180910390f35b6103ba611361565b6040516103c79190612b3a565b60405180910390f35b6103d8611367565b6040516103e59190612972565b60405180910390f35b6103f66113ab565b604051610403919061298d565b60405180910390f35b610426600480360381019061042191906123a9565b6113cf565b6040516104339190612972565b60405180910390f35b61044461143a565b604051610451919061298d565b60405180910390f35b61046261145e565b60405161046f919061298d565b60405180910390f35b610480611465565b60405161048d9190612b3a565b60405180910390f35b61049e61146b565b6040516104ab9190612b3a565b60405180910390f35b6104ce60048036038101906104c991906123a9565b611471565b005b6104d8611504565b005b6104e26115b5565b6040516104ef919061298d565b60405180910390f35b610512600480360381019061050d919061240e565b6115d9565b60405161051f9190612972565b60405180910390f35b60007f7965db0b000000000000000000000000000000000000000000000000000000007bffffffffffffffffffffffffffffffffffffffffffffffffffffffff1916827bffffffffffffffffffffffffffffffffffffffffffffffffffffffff1916148061059b575061059a82611a7a565b5b9050919050565b7fdc1958ce1178d6eb32ccc146dcea8933f1978155832913ec88fa509962e1b4136105d4816105cf611ae4565b611aec565b6006546007541415610612576040517f7fa0120200000000000000000000000000000000000000000000000000000000815260040160405180910390fd5b426007819055506106576040518060400160405280600581526020017f456e646564000000000000000000000000000000000000000000000000000000815250611b89565b7f1057d4f16a6857731231320b2564bcdfb5051a137a4f8705a2d5b0813fabeea1426040516106869190612b3a565b60405180910390a150565b60007fdc1958ce1178d6eb32ccc146dcea8933f1978155832913ec88fa509962e1b4136106c5816106c0611ae4565b611aec565b60005b835181101561074e5761073b7f15e007796fc034bf8274acdcfbd2f48124815698ba6f70c109f3423981a7052f85838151811061072e577f4e487b7100000000000000000000000000000000000000000000000000000000600052603260045260246000fd5b60200260200101516108af565b808061074690612ec3565b9150506106c8565b507f5f5e39754c7e1865f8af3e41e829b0c163e67854b93f99ab4c75804928592d4a8360405161077e919061292e565b60405180910390a16001915050919050565b60007fd16e204b8a42a15ab0ea6bb8ec1ecdfbe69f38074fc865323af19efe7d9573d96107c4816107bf611ae4565b611aec565b60005b835181101561084d5761083a7f36a5c4aaacb6b388bbd448bf11096b7dafc5652bcc9046084fd0e95b1fb0b2cc85838151811061082d577f4e487b7100000000000000000000000000000000000000000000000000000000600052603260045260246000fd5b60200260200101516108af565b808061084590612ec3565b9150506107c7565b507f03754d1a0117cc47bdfac8251ab45273d3eab88e939e90833352c073b26806908360405161087d919061292e565b60405180910390a16001915050919050565b600060016000838152602001908152602001600020600101549050919050565b6108b88261088f565b6108c9816108c4611ae4565b611aec565b6108d3838361199a565b505050565b60007fdc1958ce1178d6eb32ccc146dcea8933f1978155832913ec88fa509962e1b41361090c81610907611ae4565b611aec565b60005b8351811015610995576109827fd16e204b8a42a15ab0ea6bb8ec1ecdfbe69f38074fc865323af19efe7d9573d9858381518110610975577f4e487b7100000000000000000000000000000000000000000000000000000000600052603260045260246000fd5b60200260200101516108af565b808061098d90612ec3565b91505061090f565b507f426025bf71642554cad091b33bb9ad1245da42bc9f4dc5b7a7092699ff9bbb8a836040516109c5919061292e565b60405180910390a16001915050919050565b600060011515610a077fdc1958ce1178d6eb32ccc146dcea8933f1978155832913ec88fa509962e1b413336113cf565b15151480610a42575060011515610a3e7fd16e204b8a42a15ab0ea6bb8ec1ecdfbe69f38074fc865323af19efe7d9573d9336113cf565b1515145b80610a7a575060011515610a767f15e007796fc034bf8274acdcfbd2f48124815698ba6f70c109f3423981a7052f336113cf565b1515145b610ab9576040517f08c379a0000000000000000000000000000000000000000000000000000000008152600401610ab090612b1a565b60405180910390fd5b6001600560016101000a81548160ff021916908315150217905550610b126040518060400160405280600d81526020017f526573756c747320726561647900000000000000000000000000000000000000815250611b89565b426008819055506001905090565b7fdc1958ce1178d6eb32ccc146dcea8933f1978155832913ec88fa509962e1b413610b5281610b4d611ae4565b611aec565b7fdc1958ce1178d6eb32ccc146dcea8933f1978155832913ec88fa509962e1b4138314610bb4576040517f08c379a0000000000000000000000000000000000000000000000000000000008152600401610bab90612afa565b60405180910390fd5b610bde7f15e007796fc034bf8274acdcfbd2f48124815698ba6f70c109f3423981a7052f836113cf565b610c1d576040517f08c379a0000000000000000000000000000000000000000000000000000000008152600401610c1490612aba565b60405180910390fd5b610c477fdc1958ce1178d6eb32ccc146dcea8933f1978155832913ec88fa509962e1b4138361199a565b610c717fdc1958ce1178d6eb32ccc146dcea8933f1978155832913ec88fa509962e1b41333611c39565b8173ffffffffffffffffffffffffffffffffffffffff163373ffffffffffffffffffffffffffffffffffffffff167f53cb1046cc84eb7dcfb14a0610185dd97c2c40e311ef59a28c5622cf3942a3b860405160405180910390a3505050565b7f15e007796fc034bf8274acdcfbd2f48124815698ba6f70c109f3423981a7052f81565b60007fdc1958ce1178d6eb32ccc146dcea8933f1978155832913ec88fa509962e1b413610d2881610d23611ae4565b611aec565b610d30611d1b565b600191505090565b606060011515610d687fdc1958ce1178d6eb32ccc146dcea8933f1978155832913ec88fa509962e1b413336113cf565b15151480610da3575060011515610d9f7fd16e204b8a42a15ab0ea6bb8ec1ecdfbe69f38074fc865323af19efe7d9573d9336113cf565b1515145b610de2576040517f08c379a0000000000000000000000000000000000000000000000000000000008152600401610dd990612b1a565b60405180910390fd5b60005b600480549050811015610f2d576000600a60048381548110610e30577f4e487b7100000000000000000000000000000000000000000000000000000000600052603260045260246000fd5b90600052602060002001604051610e4791906128c2565b90815260200160405180910390209050600b60048381548110610e93577f4e487b7100000000000000000000000000000000000000000000000000000000600052603260045260246000fd5b90600052602060002001604051610eaa91906128c2565b9081526020016040518091039020548160010181905550600c8190806001815401808255809150506001900390600052602060002090600202016000909190919091506000820181600001908054610f0190612e60565b610f0c929190612158565b50600182015481600101555050508080610f2590612ec3565b915050610de5565b50600c805480602002602001604051908101604052809291908181526020016000905b8282101561101e5783829060005260206000209060020201604051806040016040529081600082018054610f8390612e60565b80601f0160208091040260200160405190810160405280929190818152602001828054610faf90612e60565b8015610ffc5780601f10610fd157610100808354040283529160200191610ffc565b820191906000526020600020905b815481529060010190602001808311610fdf57829003601f168201915b5050505050815260200160018201548152505081526020019060010190610f50565b50505050905090565b6060600115156110577fdc1958ce1178d6eb32ccc146dcea8933f1978155832913ec88fa509962e1b413336113cf565b1515148061109257506001151561108e7fd16e204b8a42a15ab0ea6bb8ec1ecdfbe69f38074fc865323af19efe7d9573d9336113cf565b1515145b806110ca5750600115156110c67f15e007796fc034bf8274acdcfbd2f48124815698ba6f70c109f3423981a7052f336113cf565b1515145b611109576040517f08c379a000000000000000000000000000000000000000000000000000000000815260040161110090612b1a565b60405180910390fd5b600c805480602002602001604051908101604052809291908181526020016000905b828210156111f9578382906000526020600020906002020160405180604001604052908160008201805461115e90612e60565b80601f016020809104026020016040519081016040528092919081815260200182805461118a90612e60565b80156111d75780601f106111ac576101008083540402835291602001916111d7565b820191906000526020600020905b8154815290600101906020018083116111ba57829003601f168201915b505050505081526020016001820154815250508152602001906001019061112b565b50505050905090565b60008060009054906101000a900460ff16905090565b606060001515600560019054906101000a900460ff1615151415611268576040517fb34ae8a900000000000000000000000000000000000000000000000000000000815260040160405180910390fd5b600c805480602002602001604051908101604052809291908181526020016000905b8282101561135857838290600052602060002090600202016040518060400160405290816000820180546112bd90612e60565b80601f01602080910402602001604051908101604052809291908181526020018280546112e990612e60565b80156113365780601f1061130b57610100808354040283529160200191611336565b820191906000526020600020905b81548152906001019060200180831161131957829003601f168201915b505050505081526020016001820154815250508152602001906001019061128a565b50505050905090565b60075481565b60007fdc1958ce1178d6eb32ccc146dcea8933f1978155832913ec88fa509962e1b41361139b81611396611ae4565b611aec565b6113a3611dbc565b600191505090565b7fd16e204b8a42a15ab0ea6bb8ec1ecdfbe69f38074fc865323af19efe7d9573d981565b60006001600084815260200190815260200160002060000160008373ffffffffffffffffffffffffffffffffffffffff1673ffffffffffffffffffffffffffffffffffffffff16815260200190815260200160002060009054906101000a900460ff16905092915050565b7fdc1958ce1178d6eb32ccc146dcea8933f1978155832913ec88fa509962e1b41381565b6000801b81565b60065481565b60085481565b61147a8261088f565b61148b81611486611ae4565b611aec565b6114b57fdc1958ce1178d6eb32ccc146dcea8933f1978155832913ec88fa509962e1b413836113cf565b156114f5576040517f08c379a00000000000000000000000000000000000000000000000000000000081526004016114ec90612a3a565b60405180910390fd5b6114ff8383611c39565b505050565b7fdc1958ce1178d6eb32ccc146dcea8933f1978155832913ec88fa509962e1b41361153681611531611ae4565b611aec565b4260068190555061157b6040518060400160405280600781526020017f5374617274656400000000000000000000000000000000000000000000000000815250611b89565b7f99fafb32ed77fce26140b67282430931e99e54f3014114daf0a52639a5620ac1426040516115aa9190612b3a565b60405180910390a150565b7f36a5c4aaacb6b388bbd448bf11096b7dafc5652bcc9046084fd0e95b1fb0b2cc81565b6000600115156116097fdc1958ce1178d6eb32ccc146dcea8933f1978155832913ec88fa509962e1b413336113cf565b151514806116445750600115156116407fd16e204b8a42a15ab0ea6bb8ec1ecdfbe69f38074fc865323af19efe7d9573d9336113cf565b1515145b8061167c5750600115156116787f36a5c4aaacb6b388bbd448bf11096b7dafc5652bcc9046084fd0e95b1fb0b2cc336113cf565b1515145b806116b45750600115156116b07f15e007796fc034bf8274acdcfbd2f48124815698ba6f70c109f3423981a7052f336113cf565b1515145b6116f3576040517f08c379a00000000000000000000000000000000000000000000000000000000081526004016116ea90612a9a565b60405180910390fd5b600060065411611738576040517f08c379a000000000000000000000000000000000000000000000000000000000815260040161172f90612a5a565b60405180910390fd5b6007546006541161177e576040517f08c379a000000000000000000000000000000000000000000000000000000000815260040161177590612ada565b60405180910390fd5b611786611202565b156117c6576040517f08c379a00000000000000000000000000000000000000000000000000000000081526004016117bd90612a7a565b60405180910390fd5b60011515600960003373ffffffffffffffffffffffffffffffffffffffff1673ffffffffffffffffffffffffffffffffffffffff16815260200190815260200160002060009054906101000a900460ff1615151415611851576040517f7c9a1cf900000000000000000000000000000000000000000000000000000000815260040160405180910390fd5b6000600b8360405161186391906128ab565b90815260200160405180910390205490506001816118819190612cc6565b600b8460405161189191906128ab565b9081526020016040518091039020819055506001600960003373ffffffffffffffffffffffffffffffffffffffff1673ffffffffffffffffffffffffffffffffffffffff16815260200190815260200160002060006101000a81548160ff0219169083151502179055507f6df8a0bf3c87bd629e9f543b9d0831beeea8b80de3f478dd846541ed8d97405b833360405161192c9291906129ca565b60405180910390a16001915050919050565b60006119498361088f565b90508160016000858152602001908152602001600020600101819055508181847fbd79b86ffe0ab8e8776151514217cd7cacd52c909f66475c3af44e129f0b00ff60405160405180910390a4505050565b6119a482826113cf565b611a7657600180600084815260200190815260200160002060000160008373ffffffffffffffffffffffffffffffffffffffff1673ffffffffffffffffffffffffffffffffffffffff16815260200190815260200160002060006101000a81548160ff021916908315150217905550611a1b611ae4565b73ffffffffffffffffffffffffffffffffffffffff168173ffffffffffffffffffffffffffffffffffffffff16837f2f8788117e7eff1d82e926ec794901d17c78024a50270940304540a733656f0d60405160405180910390a45b5050565b60007f01ffc9a7000000000000000000000000000000000000000000000000000000007bffffffffffffffffffffffffffffffffffffffffffffffffffffffff1916827bffffffffffffffffffffffffffffffffffffffffffffffffffffffff1916149050919050565b600033905090565b611af682826113cf565b611b8557611b1b8173ffffffffffffffffffffffffffffffffffffffff166014611e5e565b611b298360001c6020611e5e565b604051602001611b3a9291906128d9565b6040516020818303038152906040526040517f08c379a0000000000000000000000000000000000000000000000000000000008152600401611b7c91906129a8565b60405180910390fd5b5050565b7f000000000000000000000000000000000000000000000000000000000000000073ffffffffffffffffffffffffffffffffffffffff16632987024d7f0000000000000000000000000000000000000000000000000000000000000000836040518363ffffffff1660e01b8152600401611c04929190612b55565b600060405180830381600087803b158015611c1e57600080fd5b505af1158015611c32573d6000803e3d6000fd5b5050505050565b611c4382826113cf565b15611d175760006001600084815260200190815260200160002060000160008373ffffffffffffffffffffffffffffffffffffffff1673ffffffffffffffffffffffffffffffffffffffff16815260200190815260200160002060006101000a81548160ff021916908315150217905550611cbc611ae4565b73ffffffffffffffffffffffffffffffffffffffff168173ffffffffffffffffffffffffffffffffffffffff16837ff6391f5c32d9c69d2a47ea670b442974b53935d1edc7fd64eb21e047a839171b60405160405180910390a45b5050565b611d23611202565b611d62576040517f08c379a0000000000000000000000000000000000000000000000000000000008152600401611d5990612a1a565b60405180910390fd5b60008060006101000a81548160ff0219169083151502179055507f5db9ee0a495bf2e6ff9c91a7834c1ba4fdd244a5e8aa4e537bd38aeae4b073aa611da5611ae4565b604051611db29190612913565b60405180910390a1565b611dc4611202565b15611e04576040517f08c379a0000000000000000000000000000000000000000000000000000000008152600401611dfb90612a7a565b60405180910390fd5b60016000806101000a81548160ff0219169083151502179055507f62e78cea01bee320cd4e420270b5ea74000d11b0c9f74754ebdbfc544b05a258611e47611ae4565b604051611e549190612913565b60405180910390a1565b606060006002836002611e719190612d1c565b611e7b9190612cc6565b67ffffffffffffffff811115611eba577f4e487b7100000000000000000000000000000000000000000000000000000000600052604160045260246000fd5b6040519080825280601f01601f191660200182016040528015611eec5781602001600182028036833780820191505090505b5090507f300000000000000000000000000000000000000000000000000000000000000081600081518110611f4a577f4e487b7100000000000000000000000000000000000000000000000000000000600052603260045260246000fd5b60200101907effffffffffffffffffffffffffffffffffffffffffffffffffffffffffffff1916908160001a9053507f780000000000000000000000000000000000000000000000000000000000000081600181518110611fd4577f4e487b7100000000000000000000000000000000000000000000000000000000600052603260045260246000fd5b60200101907effffffffffffffffffffffffffffffffffffffffffffffffffffffffffffff1916908160001a905350600060018460026120149190612d1c565b61201e9190612cc6565b90505b600181111561210a577f3031323334353637383961626364656600000000000000000000000000000000600f861660108110612086577f4e487b7100000000000000000000000000000000000000000000000000000000600052603260045260246000fd5b1a60f81b8282815181106120c3577f4e487b7100000000000000000000000000000000000000000000000000000000600052603260045260246000fd5b60200101907effffffffffffffffffffffffffffffffffffffffffffffffffffffffffffff1916908160001a905350600485901c94508061210390612e36565b9050612021565b506000841461214e576040517f08c379a0000000000000000000000000000000000000000000000000000000008152600401612145906129fa565b60405180910390fd5b8091505092915050565b82805461216490612e60565b90600052602060002090601f01602090048101928261218657600085556121d4565b82601f1061219757805485556121d4565b828001600101855582156121d457600052602060002091601f016020900482015b828111156121d35782548255916001019190600101906121b8565b5b5090506121e191906121e5565b5090565b5b808211156121fe5760008160009055506001016121e6565b5090565b600061221561221084612baa565b612b85565b9050808382526020820190508285602086028201111561223457600080fd5b60005b85811015612264578161224a88826122ac565b845260208401935060208301925050600181019050612237565b5050509392505050565b600061228161227c84612bd6565b612b85565b90508281526020810184848401111561229957600080fd5b6122a4848285612df4565b509392505050565b6000813590506122bb81613208565b92915050565b600082601f8301126122d257600080fd5b81356122e2848260208601612202565b91505092915050565b6000813590506122fa8161321f565b92915050565b60008135905061230f81613236565b92915050565b600082601f83011261232657600080fd5b813561233684826020860161226e565b91505092915050565b60006020828403121561235157600080fd5b600082013567ffffffffffffffff81111561236b57600080fd5b612377848285016122c1565b91505092915050565b60006020828403121561239257600080fd5b60006123a0848285016122eb565b91505092915050565b600080604083850312156123bc57600080fd5b60006123ca858286016122eb565b92505060206123db858286016122ac565b9150509250929050565b6000602082840312156123f757600080fd5b600061240584828501612300565b91505092915050565b60006020828403121561242057600080fd5b600082013567ffffffffffffffff81111561243a57600080fd5b61244684828501612315565b91505092915050565b600061245b838361247b565b60208301905092915050565b60006124738383612850565b905092915050565b61248481612d76565b82525050565b61249381612d76565b82525050565b60006124a482612c3c565b6124ae8185612c77565b93506124b983612c07565b8060005b838110156124ea5781516124d1888261244f565b97506124dc83612c5d565b9250506001810190506124bd565b5085935050505092915050565b600061250282612c47565b61250c8185612c88565b93508360208202850161251e85612c17565b8060005b8581101561255a578484038952815161253b8582612467565b945061254683612c6a565b925060208a01995050600181019050612522565b50829750879550505050505092915050565b61257581612d88565b82525050565b61258481612d94565b82525050565b600061259582612c52565b61259f8185612c99565b93506125af818560208601612e03565b6125b881612f99565b840191505092915050565b60006125ce82612c52565b6125d88185612caa565b93506125e8818560208601612e03565b6125f181612f99565b840191505092915050565b600061260782612c52565b6126118185612cbb565b9350612621818560208601612e03565b80840191505092915050565b6000815461263a81612e60565b6126448186612cbb565b9450600182166000811461265f5760018114612670576126a3565b60ff198316865281860193506126a3565b61267985612c27565b60005b8381101561269b5781548189015260018201915060208101905061267c565b838801955050505b50505092915050565b60006126b9602083612caa565b91506126c482612faa565b602082019050919050565b60006126dc601483612caa565b91506126e782612fd3565b602082019050919050565b60006126ff601f83612caa565b915061270a82612ffc565b602082019050919050565b6000612722601783612caa565b915061272d82613025565b602082019050919050565b6000612745601083612caa565b91506127508261304e565b602082019050919050565b6000612768600d83612caa565b915061277382613077565b602082019050919050565b600061278b603683612caa565b9150612796826130a0565b604082019050919050565b60006127ae601e83612caa565b91506127b9826130ef565b602082019050919050565b60006127d1602883612caa565b91506127dc82613118565b604082019050919050565b60006127f4602783612caa565b91506127ff82613167565b604082019050919050565b6000612817601783612cbb565b9150612822826131b6565b601782019050919050565b600061283a601183612cbb565b9150612845826131df565b601182019050919050565b6000604083016000830151848203600086015261286d828261258a565b9150506020830151612882602086018261288d565b508091505092915050565b61289681612dea565b82525050565b6128a581612dea565b82525050565b60006128b782846125fc565b915081905092915050565b60006128ce828461262d565b915081905092915050565b60006128e48261280a565b91506128f082856125fc565b91506128fb8261282d565b915061290782846125fc565b91508190509392505050565b6000602082019050612928600083018461248a565b92915050565b600060208201905081810360008301526129488184612499565b905092915050565b6000602082019050818103600083015261296a81846124f7565b905092915050565b6000602082019050612987600083018461256c565b92915050565b60006020820190506129a2600083018461257b565b92915050565b600060208201905081810360008301526129c281846125c3565b905092915050565b600060408201905081810360008301526129e481856125c3565b90506129f3602083018461248a565b9392505050565b60006020820190508181036000830152612a13816126ac565b9050919050565b60006020820190508181036000830152612a33816126cf565b9050919050565b60006020820190508181036000830152612a53816126f2565b9050919050565b60006020820190508181036000830152612a7381612715565b9050919050565b60006020820190508181036000830152612a9381612738565b9050919050565b60006020820190508181036000830152612ab38161275b565b9050919050565b60006020820190508181036000830152612ad38161277e565b9050919050565b60006020820190508181036000830152612af3816127a1565b9050919050565b60006020820190508181036000830152612b13816127c4565b9050919050565b60006020820190508181036000830152612b33816127e7565b9050919050565b6000602082019050612b4f600083018461289c565b92915050565b6000604082019050612b6a600083018561289c565b8181036020830152612b7c81846125c3565b90509392505050565b6000612b8f612ba0565b9050612b9b8282612e92565b919050565b6000604051905090565b600067ffffffffffffffff821115612bc557612bc4612f6a565b5b602082029050602081019050919050565b600067ffffffffffffffff821115612bf157612bf0612f6a565b5b612bfa82612f99565b9050602081019050919050565b6000819050602082019050919050565b6000819050602082019050919050565b60008190508160005260206000209050919050565b600081519050919050565b600081519050919050565b600081519050919050565b6000602082019050919050565b6000602082019050919050565b600082825260208201905092915050565b600082825260208201905092915050565b600082825260208201905092915050565b600082825260208201905092915050565b600081905092915050565b6000612cd182612dea565b9150612cdc83612dea565b9250827fffffffffffffffffffffffffffffffffffffffffffffffffffffffffffffffff03821115612d1157612d10612f0c565b5b828201905092915050565b6000612d2782612dea565b9150612d3283612dea565b9250817fffffffffffffffffffffffffffffffffffffffffffffffffffffffffffffffff0483118215151615612d6b57612d6a612f0c565b5b828202905092915050565b6000612d8182612dca565b9050919050565b60008115159050919050565b6000819050919050565b60007fffffffff0000000000000000000000000000000000000000000000000000000082169050919050565b600073ffffffffffffffffffffffffffffffffffffffff82169050919050565b6000819050919050565b82818337600083830152505050565b60005b83811015612e21578082015181840152602081019050612e06565b83811115612e30576000848401525b50505050565b6000612e4182612dea565b91506000821415612e5557612e54612f0c565b5b600182039050919050565b60006002820490506001821680612e7857607f821691505b60208210811415612e8c57612e8b612f3b565b5b50919050565b612e9b82612f99565b810181811067ffffffffffffffff82111715612eba57612eb9612f6a565b5b80604052505050565b6000612ece82612dea565b91507fffffffffffffffffffffffffffffffffffffffffffffffffffffffffffffffff821415612f0157612f00612f0c565b5b600182019050919050565b7f4e487b7100000000000000000000000000000000000000000000000000000000600052601160045260246000fd5b7f4e487b7100000000000000000000000000000000000000000000000000000000600052602260045260246000fd5b7f4e487b7100000000000000000000000000000000000000000000000000000000600052604160045260246000fd5b6000601f19601f8301169050919050565b7f537472696e67733a20686578206c656e67746820696e73756666696369656e74600082015250565b7f5061757361626c653a206e6f7420706175736564000000000000000000000000600082015250565b7f43686169726d616e20726f6c652063616e6e6f74206265207265766f6b656400600082015250565b7f456c656374696f6e20686173206e6f7420626567756e21000000000000000000600082015250565b7f5061757361626c653a2070617573656400000000000000000000000000000000600082015250565b7f4143434553532044454e49454400000000000000000000000000000000000000600082015250565b7f546865206164647265737320666f7220746865206e65772063686169726d616e60008201527f206973206e6f742061206469726563746f722079657400000000000000000000602082015250565b7f536f7272792c2074686520456c656374696f6e2068617320656e646564210000600082015250565b7f4f6e6c79207468652063686169726d616e20726f6c652063616e20626520726560008201527f6e6f756e6365642e000000000000000000000000000000000000000000000000602082015250565b7f41434345535320464f52205445414348455228732920414e442043484149524d60008201527f414e204f4e4c5900000000000000000000000000000000000000000000000000602082015250565b7f416363657373436f6e74726f6c3a206163636f756e7420000000000000000000600082015250565b7f206973206d697373696e6720726f6c6520000000000000000000000000000000600082015250565b61321181612d76565b811461321c57600080fd5b50565b61322881612d94565b811461323357600080fd5b50565b61323f81612d9e565b811461324a57600080fd5b5056fea2646970667358221220122034df0dab341b21a3856b851d50c1a01e180bbc804bc4369e19a94835e2f364736f6c63430008040033",
  "linkReferences": {},
  "deployedLinkReferences": {}
}