{
  "_format": "hh-sol-artifact-1",
  "contractName": "Election",
  "sourceName": "contracts/Election.sol",
  "abi": [
    {
      "inputs": [
        {
          "internalType": "address",
          "name": "_owner",
          "type": "address"
        },
        {
          "internalType": "string",
          "name": "_position",
          "type": "string"
        },
        {
          "internalType": "uint256",
          "name": "_noOfParticipants",
          "type": "uint256"
        },
        {
          "internalType": "string[]",
          "name": "_contestants",
          "type": "string[]"
        },
        {
          "internalType": "uint256",
          "name": "_index",
          "type": "uint256"
        },
        {
          "internalType": "address",
          "name": "_electionFactory",
          "type": "address"
        }
      ],
      "stateMutability": "nonpayable",
      "type": "constructor"
    },
    {
      "inputs": [],
      "name": "AccessDenied",
      "type": "error"
    },
    {
      "inputs": [],
      "name": "AlreadyVoted",
      "type": "error"
    },
    {
      "inputs": [],
      "name": "NoOfParticatantNotMatchingParticipateName",
      "type": "error"
    },
    {
      "inputs": [],
      "name": "ResultNotYetRelease",
      "type": "error"
    },
    {
      "inputs": [],
      "name": "VotingEnd",
      "type": "error"
    },
    {
      "inputs": [],
      "name": "VotingNotAllowed",
      "type": "error"
    },
    {
      "inputs": [],
      "name": "VotingNotStarted",
      "type": "error"
    },
    {
      "anonymous": false,
      "inputs": [
        {
          "indexed": false,
          "internalType": "address",
          "name": "compiler",
          "type": "address"
        }
      ],
      "name": "CompileResult",
      "type": "event"
    },
    {
      "anonymous": false,
      "inputs": [
        {
          "indexed": false,
          "internalType": "uint256[]",
          "name": "_winnerIds",
          "type": "uint256[]"
        },
        {
          "indexed": false,
          "internalType": "uint256",
          "name": "_winnerVoteCount",
          "type": "uint256"
        }
      ],
      "name": "ElectionEnded",
      "type": "event"
    },
    {
      "anonymous": false,
      "inputs": [
        {
          "indexed": false,
          "internalType": "uint256",
          "name": "endAt",
          "type": "uint256"
        }
      ],
      "name": "EndVoting",
      "type": "event"
    },
    {
      "anonymous": false,
      "inputs": [
        {
          "indexed": false,
          "internalType": "address",
          "name": "account",
          "type": "address"
        }
      ],
      "name": "Paused",
      "type": "event"
    },
    {
      "anonymous": false,
      "inputs": [
        {
          "indexed": false,
          "internalType": "address[]",
          "name": "_student",
          "type": "address[]"
        }
      ],
      "name": "RegisterStudent",
      "type": "event"
    },
    {
      "anonymous": false,
      "inputs": [
        {
          "indexed": false,
          "internalType": "address[]",
          "name": "student",
          "type": "address[]"
        }
      ],
      "name": "RegisterTeacher",
      "type": "event"
    },
    {
      "anonymous": false,
      "inputs": [
        {
          "indexed": true,
          "internalType": "address",
          "name": "previousChairman",
          "type": "address"
        },
        {
          "indexed": true,
          "internalType": "address",
          "name": "newChairman",
          "type": "address"
        }
      ],
      "name": "RenounceRole",
      "type": "event"
    },
    {
      "anonymous": false,
      "inputs": [
        {
          "indexed": true,
          "internalType": "bytes32",
          "name": "role",
          "type": "bytes32"
        },
        {
          "indexed": true,
          "internalType": "bytes32",
          "name": "previousAdminRole",
          "type": "bytes32"
        },
        {
          "indexed": true,
          "internalType": "bytes32",
          "name": "newAdminRole",
          "type": "bytes32"
        }
      ],
      "name": "RoleAdminChanged",
      "type": "event"
    },
    {
      "anonymous": false,
      "inputs": [
        {
          "indexed": true,
          "internalType": "bytes32",
          "name": "role",
          "type": "bytes32"
        },
        {
          "indexed": true,
          "internalType": "address",
          "name": "account",
          "type": "address"
        },
        {
          "indexed": true,
          "internalType": "address",
          "name": "sender",
          "type": "address"
        }
      ],
      "name": "RoleGranted",
      "type": "event"
    },
    {
      "anonymous": false,
      "inputs": [
        {
          "indexed": true,
          "internalType": "bytes32",
          "name": "role",
          "type": "bytes32"
        },
        {
          "indexed": true,
          "internalType": "address",
          "name": "account",
          "type": "address"
        },
        {
          "indexed": true,
          "internalType": "address",
          "name": "sender",
          "type": "address"
        }
      ],
      "name": "RoleRevoked",
      "type": "event"
    },
    {
      "anonymous": false,
      "inputs": [
        {
          "indexed": false,
          "internalType": "address[]",
          "name": "_Bod",
          "type": "address[]"
        }
      ],
      "name": "SetUpBOD",
      "type": "event"
    },
    {
      "anonymous": false,
      "inputs": [
        {
          "indexed": false,
          "internalType": "address[]",
          "name": "director",
          "type": "address[]"
        }
      ],
      "name": "SetUpDirector",
      "type": "event"
    },
    {
      "anonymous": false,
      "inputs": [
        {
          "indexed": false,
          "internalType": "address[]",
          "name": "teacher",
          "type": "address[]"
        }
      ],
      "name": "SetUpTeacher",
      "type": "event"
    },
    {
      "anonymous": false,
      "inputs": [
        {
          "indexed": false,
          "internalType": "address",
          "name": "stakeholder",
          "type": "address"
        },
        {
          "indexed": false,
          "internalType": "uint256",
          "name": "resultReadyAt",
          "type": "uint256"
        }
      ],
      "name": "ShowResult",
      "type": "event"
    },
    {
      "anonymous": false,
      "inputs": [
        {
          "indexed": false,
          "internalType": "uint256",
          "name": "startAt",
          "type": "uint256"
        }
      ],
      "name": "StartVoting",
      "type": "event"
    },
    {
      "anonymous": false,
      "inputs": [
        {
          "indexed": false,
          "internalType": "address",
          "name": "account",
          "type": "address"
        }
      ],
      "name": "Unpaused",
      "type": "event"
    },
    {
      "anonymous": false,
      "inputs": [
        {
          "indexed": false,
          "internalType": "address",
          "name": "voter",
          "type": "address"
        }
      ],
      "name": "Vote",
      "type": "event"
    },
    {
      "inputs": [],
      "name": "CHAIRMAN_ROLE",
      "outputs": [
        {
          "internalType": "bytes32",
          "name": "",
          "type": "bytes32"
        }
      ],
      "stateMutability": "view",
      "type": "function"
    },
    {
      "inputs": [],
      "name": "DEFAULT_ADMIN_ROLE",
      "outputs": [
        {
          "internalType": "bytes32",
          "name": "",
          "type": "bytes32"
        }
      ],
      "stateMutability": "view",
      "type": "function"
    },
    {
      "inputs": [],
      "name": "DIRECTOR_ROLE",
      "outputs": [
        {
          "internalType": "bytes32",
          "name": "",
          "type": "bytes32"
        }
      ],
      "stateMutability": "view",
      "type": "function"
    },
    {
      "inputs": [],
      "name": "STUDENT_ROLE",
      "outputs": [
        {
          "internalType": "bytes32",
          "name": "",
          "type": "bytes32"
        }
      ],
      "stateMutability": "view",
      "type": "function"
    },
    {
      "inputs": [],
      "name": "TEACHER_ROLE",
      "outputs": [
        {
          "internalType": "bytes32",
          "name": "",
          "type": "bytes32"
        }
      ],
      "stateMutability": "view",
      "type": "function"
    },
    {
      "inputs": [],
      "name": "compileResult",
      "outputs": [
        {
          "components": [
            {
              "internalType": "string",
              "name": "candidatesName",
              "type": "string"
            },
            {
              "internalType": "uint256",
              "name": "voteCount",
              "type": "uint256"
            }
          ],
          "internalType": "struct Election.Candidates[]",
          "name": "",
          "type": "tuple[]"
        }
      ],
      "stateMutability": "nonpayable",
      "type": "function"
    },
    {
      "inputs": [
        {
          "internalType": "uint256",
          "name": "",
          "type": "uint256"
        }
      ],
      "name": "contestantsName",
      "outputs": [
        {
          "internalType": "string",
          "name": "",
          "type": "string"
        }
      ],
      "stateMutability": "view",
      "type": "function"
    },
    {
      "inputs": [],
      "name": "disableVoting",
      "outputs": [],
      "stateMutability": "nonpayable",
      "type": "function"
    },
    {
      "inputs": [],
      "name": "electionStatus",
      "outputs": [
        {
          "internalType": "bool",
          "name": "",
          "type": "bool"
        }
      ],
      "stateMutability": "view",
      "type": "function"
    },
    {
      "inputs": [],
      "name": "enableVoting",
      "outputs": [],
      "stateMutability": "nonpayable",
      "type": "function"
    },
    {
      "inputs": [],
      "name": "endAt",
      "outputs": [
        {
          "internalType": "uint256",
          "name": "",
          "type": "uint256"
        }
      ],
      "stateMutability": "view",
      "type": "function"
    },
    {
      "inputs": [
        {
          "internalType": "bytes32",
          "name": "role",
          "type": "bytes32"
        }
      ],
      "name": "getRoleAdmin",
      "outputs": [
        {
          "internalType": "bytes32",
          "name": "",
          "type": "bytes32"
        }
      ],
      "stateMutability": "view",
      "type": "function"
    },
    {
      "inputs": [
        {
          "internalType": "bytes32",
          "name": "role",
          "type": "bytes32"
        },
        {
          "internalType": "address",
          "name": "account",
          "type": "address"
        }
      ],
      "name": "grantRole",
      "outputs": [],
      "stateMutability": "nonpayable",
      "type": "function"
    },
    {
      "inputs": [
        {
          "internalType": "bytes32",
          "name": "role",
          "type": "bytes32"
        },
        {
          "internalType": "address",
          "name": "account",
          "type": "address"
        }
      ],
      "name": "hasRole",
      "outputs": [
        {
          "internalType": "bool",
          "name": "",
          "type": "bool"
        }
      ],
      "stateMutability": "view",
      "type": "function"
    },
    {
      "inputs": [],
      "name": "noOfpartcipate",
      "outputs": [
        {
          "internalType": "uint256",
          "name": "",
          "type": "uint256"
        }
      ],
      "stateMutability": "view",
      "type": "function"
    },
    {
      "inputs": [],
      "name": "pause",
      "outputs": [],
      "stateMutability": "nonpayable",
      "type": "function"
    },
    {
      "inputs": [],
      "name": "paused",
      "outputs": [
        {
          "internalType": "bool",
          "name": "",
          "type": "bool"
        }
      ],
      "stateMutability": "view",
      "type": "function"
    },
    {
      "inputs": [],
      "name": "privateViewResult",
      "outputs": [
        {
          "components": [
            {
              "internalType": "string",
              "name": "candidatesName",
              "type": "string"
            },
            {
              "internalType": "uint256",
              "name": "voteCount",
              "type": "uint256"
            }
          ],
          "internalType": "struct Election.Candidates[]",
          "name": "",
          "type": "tuple[]"
        }
      ],
      "stateMutability": "view",
      "type": "function"
    },
    {
      "inputs": [
        {
          "internalType": "address[]",
          "name": "_student",
          "type": "address[]"
        }
      ],
      "name": "registerStudent",
      "outputs": [],
      "stateMutability": "nonpayable",
      "type": "function"
    },
    {
      "inputs": [
        {
          "internalType": "bytes32",
          "name": "_role",
          "type": "bytes32"
        },
        {
          "internalType": "address",
          "name": "_account",
          "type": "address"
        }
      ],
      "name": "renounceRole",
      "outputs": [],
      "stateMutability": "nonpayable",
      "type": "function"
    },
    {
      "inputs": [],
      "name": "result",
      "outputs": [
        {
          "components": [
            {
              "internalType": "string",
              "name": "candidatesName",
              "type": "string"
            },
            {
              "internalType": "uint256",
              "name": "voteCount",
              "type": "uint256"
            }
          ],
          "internalType": "struct Election.Candidates[]",
          "name": "",
          "type": "tuple[]"
        }
      ],
      "stateMutability": "view",
      "type": "function"
    },
    {
      "inputs": [],
      "name": "resultReadyAt",
      "outputs": [
        {
          "internalType": "uint256",
          "name": "",
          "type": "uint256"
        }
      ],
      "stateMutability": "view",
      "type": "function"
    },
    {
      "inputs": [],
      "name": "resultStatus",
      "outputs": [
        {
          "internalType": "bool",
          "name": "",
          "type": "bool"
        }
      ],
      "stateMutability": "view",
      "type": "function"
    },
    {
      "inputs": [
        {
          "internalType": "bytes32",
          "name": "_role",
          "type": "bytes32"
        },
        {
          "internalType": "address",
          "name": "_account",
          "type": "address"
        }
      ],
      "name": "revokeRole",
      "outputs": [],
      "stateMutability": "nonpayable",
      "type": "function"
    },
    {
      "inputs": [
        {
          "internalType": "address[]",
          "name": "_Bod",
          "type": "address[]"
        }
      ],
      "name": "setupBOD",
      "outputs": [],
      "stateMutability": "nonpayable",
      "type": "function"
    },
    {
      "inputs": [
        {
          "internalType": "address[]",
          "name": "_teacher",
          "type": "address[]"
        }
      ],
      "name": "setupTeachers",
      "outputs": [],
      "stateMutability": "nonpayable",
      "type": "function"
    },
    {
      "inputs": [],
      "name": "showResult",
      "outputs": [],
      "stateMutability": "nonpayable",
      "type": "function"
    },
    {
      "inputs": [],
      "name": "startAt",
      "outputs": [
        {
          "internalType": "uint256",
          "name": "",
          "type": "uint256"
        }
      ],
      "stateMutability": "view",
      "type": "function"
    },
    {
      "inputs": [
        {
          "internalType": "bytes4",
          "name": "interfaceId",
          "type": "bytes4"
        }
      ],
      "name": "supportsInterface",
      "outputs": [
        {
          "internalType": "bool",
          "name": "",
          "type": "bool"
        }
      ],
      "stateMutability": "view",
      "type": "function"
    },
    {
      "inputs": [],
      "name": "unpause",
      "outputs": [],
      "stateMutability": "nonpayable",
      "type": "function"
    },
    {
      "inputs": [
        {
          "internalType": "string",
          "name": "_participantsName",
          "type": "string"
        }
      ],
      "name": "vote",
      "outputs": [],
      "stateMutability": "nonpayable",
      "type": "function"
    },
    {
      "inputs": [
        {
          "internalType": "address",
          "name": "",
          "type": "address"
        }
      ],
      "name": "voterStatus",
      "outputs": [
        {
          "internalType": "bool",
          "name": "",
          "type": "bool"
        }
      ],
      "stateMutability": "view",
      "type": "function"
    }
  ],
  "bytecode": "0x60c06040523480156200001157600080fd5b50604051620044923803806200449283398181016040528101906200003791906200086c565b8560008060006101000a81548160ff021916908315150217905550620000a97f36a5c4aaacb6b388bbd448bf11096b7dafc5652bcc9046084fd0e95b1fb0b2cc7fd16e204b8a42a15ab0ea6bb8ec1ecdfbe69f38074fc865323af19efe7d9573d9620003a260201b62001d221760201c565b620001007fd16e204b8a42a15ab0ea6bb8ec1ecdfbe69f38074fc865323af19efe7d9573d97fdc1958ce1178d6eb32ccc146dcea8933f1978155832913ec88fa509962e1b413620003a260201b62001d221760201c565b620001577f15e007796fc034bf8274acdcfbd2f48124815698ba6f70c109f3423981a7052f7fdc1958ce1178d6eb32ccc146dcea8933f1978155832913ec88fa509962e1b413620003a260201b62001d221760201c565b6200018e7fdc1958ce1178d6eb32ccc146dcea8933f1978155832913ec88fa509962e1b41380620003a260201b62001d221760201c565b620001c57f15e007796fc034bf8274acdcfbd2f48124815698ba6f70c109f3423981a7052f826200040660201b62001d7e1760201c565b620001fc7fdc1958ce1178d6eb32ccc146dcea8933f1978155832913ec88fa509962e1b413826200040660201b62001d7e1760201c565b508251841462000238576040517f0e8cddf100000000000000000000000000000000000000000000000000000000815260040160405180910390fd5b8460029080519060200190620002509291906200058a565b50836006819055508260039080519060200190620002709291906200061b565b5081608081815250508073ffffffffffffffffffffffffffffffffffffffff1660a08173ffffffffffffffffffffffffffffffffffffffff1660601b8152505060005b835181101562000395576000600a858381518110620002fb577f4e487b7100000000000000000000000000000000000000000000000000000000600052603260045260246000fd5b60200260200101516040516200031291906200096b565b908152602001604051809103902090508482815181106200035c577f4e487b7100000000000000000000000000000000000000000000000000000000600052603260045260246000fd5b60200260200101518160000190805190602001906200037d9291906200058a565b505080806200038c9062000b08565b915050620002b3565b5050505050505062000c28565b6000620003b583620004f760201b60201c565b90508160016000858152602001908152602001600020600101819055508181847fbd79b86ffe0ab8e8776151514217cd7cacd52c909f66475c3af44e129f0b00ff60405160405180910390a4505050565b6200041882826200051760201b60201c565b620004f357600180600084815260200190815260200160002060000160008373ffffffffffffffffffffffffffffffffffffffff1673ffffffffffffffffffffffffffffffffffffffff16815260200190815260200160002060006101000a81548160ff021916908315150217905550620004986200058260201b60201c565b73ffffffffffffffffffffffffffffffffffffffff168173ffffffffffffffffffffffffffffffffffffffff16837f2f8788117e7eff1d82e926ec794901d17c78024a50270940304540a733656f0d60405160405180910390a45b5050565b600060016000838152602001908152602001600020600101549050919050565b60006001600084815260200190815260200160002060000160008373ffffffffffffffffffffffffffffffffffffffff1673ffffffffffffffffffffffffffffffffffffffff16815260200190815260200160002060009054906101000a900460ff16905092915050565b600033905090565b828054620005989062000a9c565b90600052602060002090601f016020900481019282620005bc576000855562000608565b82601f10620005d757805160ff191683800117855562000608565b8280016001018555821562000608579182015b8281111562000607578251825591602001919060010190620005ea565b5b50905062000617919062000682565b5090565b8280548282559060005260206000209081019282156200066f579160200282015b828111156200066e5782518290805190602001906200065d9291906200058a565b50916020019190600101906200063c565b5b5090506200067e9190620006a1565b5090565b5b808211156200069d57600081600090555060010162000683565b5090565b5b80821115620006c55760008181620006bb9190620006c9565b50600101620006a2565b5090565b508054620006d79062000a9c565b6000825580601f10620006eb57506200070c565b601f0160209004906000526020600020908101906200070b919062000682565b5b50565b6000620007266200072084620009ad565b62000984565b905080838252602082019050828560208602820111156200074657600080fd5b60005b858110156200079557815167ffffffffffffffff8111156200076a57600080fd5b80860162000779898262000828565b8552602085019450602084019350505060018101905062000749565b5050509392505050565b6000620007b6620007b084620009dc565b62000984565b905082815260208101848484011115620007cf57600080fd5b620007dc84828562000a66565b509392505050565b600081519050620007f58162000bf4565b92915050565b600082601f8301126200080d57600080fd5b81516200081f8482602086016200070f565b91505092915050565b600082601f8301126200083a57600080fd5b81516200084c8482602086016200079f565b91505092915050565b600081519050620008668162000c0e565b92915050565b60008060008060008060c087890312156200088657600080fd5b60006200089689828a01620007e4565b965050602087015167ffffffffffffffff811115620008b457600080fd5b620008c289828a0162000828565b9550506040620008d589828a0162000855565b945050606087015167ffffffffffffffff811115620008f357600080fd5b6200090189828a01620007fb565b93505060806200091489828a0162000855565b92505060a06200092789828a01620007e4565b9150509295509295509295565b6000620009418262000a12565b6200094d818562000a1d565b93506200095f81856020860162000a66565b80840191505092915050565b600062000979828462000934565b915081905092915050565b600062000990620009a3565b90506200099e828262000ad2565b919050565b6000604051905090565b600067ffffffffffffffff821115620009cb57620009ca62000bb4565b5b602082029050602081019050919050565b600067ffffffffffffffff821115620009fa57620009f962000bb4565b5b62000a058262000be3565b9050602081019050919050565b600081519050919050565b600081905092915050565b600062000a358262000a3c565b9050919050565b600073ffffffffffffffffffffffffffffffffffffffff82169050919050565b6000819050919050565b60005b8381101562000a8657808201518184015260208101905062000a69565b8381111562000a96576000848401525b50505050565b6000600282049050600182168062000ab557607f821691505b6020821081141562000acc5762000acb62000b85565b5b50919050565b62000add8262000be3565b810181811067ffffffffffffffff8211171562000aff5762000afe62000bb4565b5b80604052505050565b600062000b158262000a5c565b91507fffffffffffffffffffffffffffffffffffffffffffffffffffffffffffffffff82141562000b4b5762000b4a62000b56565b5b600182019050919050565b7f4e487b7100000000000000000000000000000000000000000000000000000000600052601160045260246000fd5b7f4e487b7100000000000000000000000000000000000000000000000000000000600052602260045260246000fd5b7f4e487b7100000000000000000000000000000000000000000000000000000000600052604160045260246000fd5b6000601f19601f8301169050919050565b62000bff8162000a28565b811462000c0b57600080fd5b50565b62000c198162000a5c565b811462000c2557600080fd5b50565b60805160a05160601c61384162000c516000396000611f6f01526000611fab01526138416000f3fe608060405234801561001057600080fd5b50600436106101f05760003560e01c80635c975abb1161010f578063a4f676fc116100a2578063eaef034911610071578063eaef0349146105b3578063eb4439fb146105d1578063f7be43fb146105db578063fc36e15b146105f9576101f0565b8063a4f676fc1461052b578063c74465651461055b578063ca94e6a714610579578063d547741f14610597576101f0565b806386e5c15a116100de57806386e5c15a146104a157806391d14854146104bf578063a097dc4b146104ef578063a217fddf1461050d576101f0565b80635c975abb1461042957806365372147146104475780637cc3ae8c146104655780638456cb5914610483576101f0565b8063301aee01116101875780633f4ba83a116101565780633f4ba83a1461039f578063531cbb12146103bd578063543cbb05146103db578063576cc4f2146103f9576101f0565b8063301aee011461031757806333ee31311461034757806336568abe146103655780633e4f9cae14610381576101f0565b80631bceb5d2116101c35780631bceb5d21461027d5780631fc26a561461029b578063248a9ca3146102cb5780632f2ff15d146102fb576101f0565b806301ffc9a7146101f557806304cd1819146102255780630a330b8e1461022f5780630d60b1d01461024d575b600080fd5b61020f600480360381019061020a9190612800565b610629565b60405161021c9190612e48565b60405180910390f35b61022d6106a3565b005b610237610792565b6040516102449190613040565b60405180910390f35b6102676004803603810190610262919061275a565b610798565b6040516102749190612e48565b60405180910390f35b610285610897565b6040516102929190612e48565b60405180910390f35b6102b560048036038101906102b0919061275a565b6108aa565b6040516102c29190612e48565b60405180910390f35b6102e560048036038101906102e0919061279b565b6109a9565b6040516102f29190612e63565b60405180910390f35b610315600480360381019061031091906127c4565b6109c9565b005b610331600480360381019061032c919061275a565b6109f2565b60405161033e9190612e48565b60405180910390f35b61034f610af1565b60405161035c9190612e48565b60405180910390f35b61037f600480360381019061037a91906127c4565b610cbd565b005b610389610e6d565b6040516103969190612e63565b60405180910390f35b6103a7610e91565b6040516103b49190612e48565b60405180910390f35b6103c5610ed5565b6040516103d29190612e26565b60405180910390f35b6103e361132e565b6040516103f09190612e26565b60405180910390f35b610413600480360381019061040e9190612731565b611509565b6040516104209190612e48565b60405180910390f35b610431611529565b60405161043e9190612e48565b60405180910390f35b61044f61153f565b60405161045c9190612e26565b60405180910390f35b61046d611688565b60405161047a9190613040565b60405180910390f35b61048b61168e565b6040516104989190612e48565b60405180910390f35b6104a96116d2565b6040516104b69190612e63565b60405180910390f35b6104d960048036038101906104d491906127c4565b6116f6565b6040516104e69190612e48565b60405180910390f35b6104f7611761565b6040516105049190612e63565b60405180910390f35b610515611785565b6040516105229190612e63565b60405180910390f35b6105456004803603810190610540919061286a565b61178c565b6040516105529190612e7e565b60405180910390f35b610563611838565b6040516105709190613040565b60405180910390f35b61058161183e565b60405161058e9190613040565b60405180910390f35b6105b160048036038101906105ac91906127c4565b611844565b005b6105bb6118d7565b6040516105c89190612e48565b60405180910390f35b6105d96118ea565b005b6105e361199b565b6040516105f09190612e63565b60405180910390f35b610613600480360381019061060e9190612829565b6119bf565b6040516106209190612e48565b60405180910390f35b60007f7965db0b000000000000000000000000000000000000000000000000000000007bffffffffffffffffffffffffffffffffffffffffffffffffffffffff1916827bffffffffffffffffffffffffffffffffffffffffffffffffffffffff1916148061069c575061069b82611e5e565b5b9050919050565b7fdc1958ce1178d6eb32ccc146dcea8933f1978155832913ec88fa509962e1b4136106d5816106d0611ec8565b611ed0565b6005546007541415610713576040517f7fa0120200000000000000000000000000000000000000000000000000000000815260040160405180910390fd5b426007819055506107586040518060400160405280600581526020017f456e646564000000000000000000000000000000000000000000000000000000815250611f6d565b7f1057d4f16a6857731231320b2564bcdfb5051a137a4f8705a2d5b0813fabeea1426040516107879190613040565b60405180910390a150565b60065481565b60007fdc1958ce1178d6eb32ccc146dcea8933f1978155832913ec88fa509962e1b4136107cc816107c7611ec8565b611ed0565b60005b8351811015610855576108427f15e007796fc034bf8274acdcfbd2f48124815698ba6f70c109f3423981a7052f858381518110610835577f4e487b7100000000000000000000000000000000000000000000000000000000600052603260045260246000fd5b60200260200101516109c9565b808061084d906133c9565b9150506107cf565b507f5f5e39754c7e1865f8af3e41e829b0c163e67854b93f99ab4c75804928592d4a836040516108859190612e04565b60405180910390a16001915050919050565b600460019054906101000a900460ff1681565b60007fd16e204b8a42a15ab0ea6bb8ec1ecdfbe69f38074fc865323af19efe7d9573d96108de816108d9611ec8565b611ed0565b60005b8351811015610967576109547f36a5c4aaacb6b388bbd448bf11096b7dafc5652bcc9046084fd0e95b1fb0b2cc858381518110610947577f4e487b7100000000000000000000000000000000000000000000000000000000600052603260045260246000fd5b60200260200101516109c9565b808061095f906133c9565b9150506108e1565b507f03754d1a0117cc47bdfac8251ab45273d3eab88e939e90833352c073b2680690836040516109979190612e04565b60405180910390a16001915050919050565b600060016000838152602001908152602001600020600101549050919050565b6109d2826109a9565b6109e3816109de611ec8565b611ed0565b6109ed8383611d7e565b505050565b60007fdc1958ce1178d6eb32ccc146dcea8933f1978155832913ec88fa509962e1b413610a2681610a21611ec8565b611ed0565b60005b8351811015610aaf57610a9c7fd16e204b8a42a15ab0ea6bb8ec1ecdfbe69f38074fc865323af19efe7d9573d9858381518110610a8f577f4e487b7100000000000000000000000000000000000000000000000000000000600052603260045260246000fd5b60200260200101516109c9565b8080610aa7906133c9565b915050610a29565b507f426025bf71642554cad091b33bb9ad1245da42bc9f4dc5b7a7092699ff9bbb8a83604051610adf9190612e04565b60405180910390a16001915050919050565b600060011515610b217fdc1958ce1178d6eb32ccc146dcea8933f1978155832913ec88fa509962e1b413336116f6565b15151480610b5c575060011515610b587fd16e204b8a42a15ab0ea6bb8ec1ecdfbe69f38074fc865323af19efe7d9573d9336116f6565b1515145b80610b94575060011515610b907f15e007796fc034bf8274acdcfbd2f48124815698ba6f70c109f3423981a7052f336116f6565b1515145b610bd3576040517f08c379a0000000000000000000000000000000000000000000000000000000008152600401610bca90612fe0565b60405180910390fd5b6000600c8054905011610c1b576040517f08c379a0000000000000000000000000000000000000000000000000000000008152600401610c1290612ee0565b60405180910390fd5b6001600460016101000a81548160ff021916908315150217905550610c746040518060400160405280600d81526020017f526573756c747320726561647900000000000000000000000000000000000000815250611f6d565b426008819055507fa0543ff9d88187d65d46d85676726c9de861772108685cd6d63e0e9e4255cd1933600854604051610cae929190612ddb565b60405180910390a16001905090565b7fdc1958ce1178d6eb32ccc146dcea8933f1978155832913ec88fa509962e1b413610cef81610cea611ec8565b611ed0565b7fdc1958ce1178d6eb32ccc146dcea8933f1978155832913ec88fa509962e1b4138314610d51576040517f08c379a0000000000000000000000000000000000000000000000000000000008152600401610d4890612fc0565b60405180910390fd5b610d7b7f15e007796fc034bf8274acdcfbd2f48124815698ba6f70c109f3423981a7052f836116f6565b610dba576040517f08c379a0000000000000000000000000000000000000000000000000000000008152600401610db190612f80565b60405180910390fd5b610de47fdc1958ce1178d6eb32ccc146dcea8933f1978155832913ec88fa509962e1b41383611d7e565b610e0e7fdc1958ce1178d6eb32ccc146dcea8933f1978155832913ec88fa509962e1b4133361201d565b8173ffffffffffffffffffffffffffffffffffffffff163373ffffffffffffffffffffffffffffffffffffffff167f53cb1046cc84eb7dcfb14a0610185dd97c2c40e311ef59a28c5622cf3942a3b860405160405180910390a3505050565b7f15e007796fc034bf8274acdcfbd2f48124815698ba6f70c109f3423981a7052f81565b60007fdc1958ce1178d6eb32ccc146dcea8933f1978155832913ec88fa509962e1b413610ec581610ec0611ec8565b611ed0565b610ecd6120ff565b600191505090565b606060011515610f057fdc1958ce1178d6eb32ccc146dcea8933f1978155832913ec88fa509962e1b413336116f6565b15151480610f40575060011515610f3c7fd16e204b8a42a15ab0ea6bb8ec1ecdfbe69f38074fc865323af19efe7d9573d9336116f6565b1515145b610f7f576040517f08c379a0000000000000000000000000000000000000000000000000000000008152600401610f7690612fe0565b60405180910390fd5b60055460075411610fc5576040517f08c379a0000000000000000000000000000000000000000000000000000000008152600401610fbc90613020565b60405180910390fd5b6000600c805490501461100d576040517f08c379a000000000000000000000000000000000000000000000000000000000815260040161100490613000565b60405180910390fd5b60005b6003805490508110156111fd576000600a6003838154811061105b577f4e487b7100000000000000000000000000000000000000000000000000000000600052603260045260246000fd5b906000526020600020016040516110729190612d6f565b908152602001604051809103902060405180604001604052908160008201805461109b90613366565b80601f01602080910402602001604051908101604052809291908181526020018280546110c790613366565b80156111145780601f106110e957610100808354040283529160200191611114565b820191906000526020600020905b8154815290600101906020018083116110f757829003601f168201915b505050505081526020016001820154815250509050600b60038381548110611165577f4e487b7100000000000000000000000000000000000000000000000000000000600052603260045260246000fd5b9060005260206000200160405161117c9190612d6f565b908152602001604051809103902054816020018181525050600c81908060018154018082558091505060019003906000526020600020906002020160009091909190915060008201518160000190805190602001906111dc92919061253c565b506020820151816001015550505080806111f5906133c9565b915050611010565b507f3cc318d9b8d71dc636f657b849c7a6cedc964405e7a531c3a89900140a19ef773360405161122d9190612dc0565b60405180910390a1600c805480602002602001604051908101604052809291908181526020016000905b82821015611325578382906000526020600020906002020160405180604001604052908160008201805461128a90613366565b80601f01602080910402602001604051908101604052809291908181526020018280546112b690613366565b80156113035780601f106112d857610100808354040283529160200191611303565b820191906000526020600020905b8154815290600101906020018083116112e657829003601f168201915b5050505050815260200160018201548152505081526020019060010190611257565b50505050905090565b60606001151561135e7fdc1958ce1178d6eb32ccc146dcea8933f1978155832913ec88fa509962e1b413336116f6565b151514806113995750600115156113957fd16e204b8a42a15ab0ea6bb8ec1ecdfbe69f38074fc865323af19efe7d9573d9336116f6565b1515145b806113d15750600115156113cd7f15e007796fc034bf8274acdcfbd2f48124815698ba6f70c109f3423981a7052f336116f6565b1515145b611410576040517f08c379a000000000000000000000000000000000000000000000000000000000815260040161140790612fe0565b60405180910390fd5b600c805480602002602001604051908101604052809291908181526020016000905b82821015611500578382906000526020600020906002020160405180604001604052908160008201805461146590613366565b80601f016020809104026020016040519081016040528092919081815260200182805461149190613366565b80156114de5780601f106114b3576101008083540402835291602001916114de565b820191906000526020600020905b8154815290600101906020018083116114c157829003601f168201915b5050505050815260200160018201548152505081526020019060010190611432565b50505050905090565b60096020528060005260406000206000915054906101000a900460ff1681565b60008060009054906101000a900460ff16905090565b606060001515600460019054906101000a900460ff161515141561158f576040517fb34ae8a900000000000000000000000000000000000000000000000000000000815260040160405180910390fd5b600c805480602002602001604051908101604052809291908181526020016000905b8282101561167f57838290600052602060002090600202016040518060400160405290816000820180546115e490613366565b80601f016020809104026020016040519081016040528092919081815260200182805461161090613366565b801561165d5780601f106116325761010080835404028352916020019161165d565b820191906000526020600020905b81548152906001019060200180831161164057829003601f168201915b50505050508152602001600182015481525050815260200190600101906115b1565b50505050905090565b60075481565b60007fdc1958ce1178d6eb32ccc146dcea8933f1978155832913ec88fa509962e1b4136116c2816116bd611ec8565b611ed0565b6116ca6121a0565b600191505090565b7fd16e204b8a42a15ab0ea6bb8ec1ecdfbe69f38074fc865323af19efe7d9573d981565b60006001600084815260200190815260200160002060000160008373ffffffffffffffffffffffffffffffffffffffff1673ffffffffffffffffffffffffffffffffffffffff16815260200190815260200160002060009054906101000a900460ff16905092915050565b7fdc1958ce1178d6eb32ccc146dcea8933f1978155832913ec88fa509962e1b41381565b6000801b81565b6003818154811061179c57600080fd5b9060005260206000200160009150905080546117b790613366565b80601f01602080910402602001604051908101604052809291908181526020018280546117e390613366565b80156118305780601f1061180557610100808354040283529160200191611830565b820191906000526020600020905b81548152906001019060200180831161181357829003601f168201915b505050505081565b60055481565b60085481565b61184d826109a9565b61185e81611859611ec8565b611ed0565b6118887fdc1958ce1178d6eb32ccc146dcea8933f1978155832913ec88fa509962e1b413836116f6565b156118c8576040517f08c379a00000000000000000000000000000000000000000000000000000000081526004016118bf90612f00565b60405180910390fd5b6118d2838361201d565b505050565b600460009054906101000a900460ff1681565b7fdc1958ce1178d6eb32ccc146dcea8933f1978155832913ec88fa509962e1b41361191c81611917611ec8565b611ed0565b426005819055506119616040518060400160405280600781526020017f5374617274656400000000000000000000000000000000000000000000000000815250611f6d565b7f99fafb32ed77fce26140b67282430931e99e54f3014114daf0a52639a5620ac1426040516119909190613040565b60405180910390a150565b7f36a5c4aaacb6b388bbd448bf11096b7dafc5652bcc9046084fd0e95b1fb0b2cc81565b6000600115156119ef7fdc1958ce1178d6eb32ccc146dcea8933f1978155832913ec88fa509962e1b413336116f6565b15151480611a2a575060011515611a267fd16e204b8a42a15ab0ea6bb8ec1ecdfbe69f38074fc865323af19efe7d9573d9336116f6565b1515145b80611a62575060011515611a5e7f36a5c4aaacb6b388bbd448bf11096b7dafc5652bcc9046084fd0e95b1fb0b2cc336116f6565b1515145b80611a9a575060011515611a967f15e007796fc034bf8274acdcfbd2f48124815698ba6f70c109f3423981a7052f336116f6565b1515145b611ad9576040517f08c379a0000000000000000000000000000000000000000000000000000000008152600401611ad090612f60565b60405180910390fd5b600060055411611b1e576040517f08c379a0000000000000000000000000000000000000000000000000000000008152600401611b1590612f20565b60405180910390fd5b60075460055411611b64576040517f08c379a0000000000000000000000000000000000000000000000000000000008152600401611b5b90612fa0565b60405180910390fd5b611b6c611529565b15611bac576040517f08c379a0000000000000000000000000000000000000000000000000000000008152600401611ba390612f40565b60405180910390fd5b60011515600960003373ffffffffffffffffffffffffffffffffffffffff1673ffffffffffffffffffffffffffffffffffffffff16815260200190815260200160002060009054906101000a900460ff1615151415611c37576040517f7c9a1cf900000000000000000000000000000000000000000000000000000000815260040160405180910390fd5b6000600b83604051611c499190612d58565b9081526020016040518091039020549050600181611c6791906131cc565b600b84604051611c779190612d58565b9081526020016040518091039020819055506001600960003373ffffffffffffffffffffffffffffffffffffffff1673ffffffffffffffffffffffffffffffffffffffff16815260200190815260200160002060006101000a81548160ff0219169083151502179055507ff5b08346e1e6b0b55d07ce94e81fcb198d47fbbecfea3b9a476f454c86761ec433604051611d109190612dc0565b60405180910390a16001915050919050565b6000611d2d836109a9565b90508160016000858152602001908152602001600020600101819055508181847fbd79b86ffe0ab8e8776151514217cd7cacd52c909f66475c3af44e129f0b00ff60405160405180910390a4505050565b611d8882826116f6565b611e5a57600180600084815260200190815260200160002060000160008373ffffffffffffffffffffffffffffffffffffffff1673ffffffffffffffffffffffffffffffffffffffff16815260200190815260200160002060006101000a81548160ff021916908315150217905550611dff611ec8565b73ffffffffffffffffffffffffffffffffffffffff168173ffffffffffffffffffffffffffffffffffffffff16837f2f8788117e7eff1d82e926ec794901d17c78024a50270940304540a733656f0d60405160405180910390a45b5050565b60007f01ffc9a7000000000000000000000000000000000000000000000000000000007bffffffffffffffffffffffffffffffffffffffffffffffffffffffff1916827bffffffffffffffffffffffffffffffffffffffffffffffffffffffff1916149050919050565b600033905090565b611eda82826116f6565b611f6957611eff8173ffffffffffffffffffffffffffffffffffffffff166014612242565b611f0d8360001c6020612242565b604051602001611f1e929190612d86565b6040516020818303038152906040526040517f08c379a0000000000000000000000000000000000000000000000000000000008152600401611f609190612e7e565b60405180910390fd5b5050565b7f000000000000000000000000000000000000000000000000000000000000000073ffffffffffffffffffffffffffffffffffffffff16632987024d7f0000000000000000000000000000000000000000000000000000000000000000836040518363ffffffff1660e01b8152600401611fe892919061305b565b600060405180830381600087803b15801561200257600080fd5b505af1158015612016573d6000803e3d6000fd5b5050505050565b61202782826116f6565b156120fb5760006001600084815260200190815260200160002060000160008373ffffffffffffffffffffffffffffffffffffffff1673ffffffffffffffffffffffffffffffffffffffff16815260200190815260200160002060006101000a81548160ff0219169083151502179055506120a0611ec8565b73ffffffffffffffffffffffffffffffffffffffff168173ffffffffffffffffffffffffffffffffffffffff16837ff6391f5c32d9c69d2a47ea670b442974b53935d1edc7fd64eb21e047a839171b60405160405180910390a45b5050565b612107611529565b612146576040517f08c379a000000000000000000000000000000000000000000000000000000000815260040161213d90612ec0565b60405180910390fd5b60008060006101000a81548160ff0219169083151502179055507f5db9ee0a495bf2e6ff9c91a7834c1ba4fdd244a5e8aa4e537bd38aeae4b073aa612189611ec8565b6040516121969190612dc0565b60405180910390a1565b6121a8611529565b156121e8576040517f08c379a00000000000000000000000000000000000000000000000000000000081526004016121df90612f40565b60405180910390fd5b60016000806101000a81548160ff0219169083151502179055507f62e78cea01bee320cd4e420270b5ea74000d11b0c9f74754ebdbfc544b05a25861222b611ec8565b6040516122389190612dc0565b60405180910390a1565b6060600060028360026122559190613222565b61225f91906131cc565b67ffffffffffffffff81111561229e577f4e487b7100000000000000000000000000000000000000000000000000000000600052604160045260246000fd5b6040519080825280601f01601f1916602001820160405280156122d05781602001600182028036833780820191505090505b5090507f30000000000000000000000000000000000000000000000000000000000000008160008151811061232e577f4e487b7100000000000000000000000000000000000000000000000000000000600052603260045260246000fd5b60200101907effffffffffffffffffffffffffffffffffffffffffffffffffffffffffffff1916908160001a9053507f7800000000000000000000000000000000000000000000000000000000000000816001815181106123b8577f4e487b7100000000000000000000000000000000000000000000000000000000600052603260045260246000fd5b60200101907effffffffffffffffffffffffffffffffffffffffffffffffffffffffffffff1916908160001a905350600060018460026123f89190613222565b61240291906131cc565b90505b60018111156124ee577f3031323334353637383961626364656600000000000000000000000000000000600f86166010811061246a577f4e487b7100000000000000000000000000000000000000000000000000000000600052603260045260246000fd5b1a60f81b8282815181106124a7577f4e487b7100000000000000000000000000000000000000000000000000000000600052603260045260246000fd5b60200101907effffffffffffffffffffffffffffffffffffffffffffffffffffffffffffff1916908160001a905350600485901c9450806124e79061333c565b9050612405565b5060008414612532576040517f08c379a000000000000000000000000000000000000000000000000000000000815260040161252990612ea0565b60405180910390fd5b8091505092915050565b82805461254890613366565b90600052602060002090601f01602090048101928261256a57600085556125b1565b82601f1061258357805160ff19168380011785556125b1565b828001600101855582156125b1579182015b828111156125b0578251825591602001919060010190612595565b5b5090506125be91906125c2565b5090565b5b808211156125db5760008160009055506001016125c3565b5090565b60006125f26125ed846130b0565b61308b565b9050808382526020820190508285602086028201111561261157600080fd5b60005b8581101561264157816126278882612689565b845260208401935060208301925050600181019050612614565b5050509392505050565b600061265e612659846130dc565b61308b565b90508281526020810184848401111561267657600080fd5b6126818482856132fa565b509392505050565b600081359050612698816137af565b92915050565b600082601f8301126126af57600080fd5b81356126bf8482602086016125df565b91505092915050565b6000813590506126d7816137c6565b92915050565b6000813590506126ec816137dd565b92915050565b600082601f83011261270357600080fd5b813561271384826020860161264b565b91505092915050565b60008135905061272b816137f4565b92915050565b60006020828403121561274357600080fd5b600061275184828501612689565b91505092915050565b60006020828403121561276c57600080fd5b600082013567ffffffffffffffff81111561278657600080fd5b6127928482850161269e565b91505092915050565b6000602082840312156127ad57600080fd5b60006127bb848285016126c8565b91505092915050565b600080604083850312156127d757600080fd5b60006127e5858286016126c8565b92505060206127f685828601612689565b9150509250929050565b60006020828403121561281257600080fd5b6000612820848285016126dd565b91505092915050565b60006020828403121561283b57600080fd5b600082013567ffffffffffffffff81111561285557600080fd5b612861848285016126f2565b91505092915050565b60006020828403121561287c57600080fd5b600061288a8482850161271c565b91505092915050565b600061289f83836128bf565b60208301905092915050565b60006128b78383612cfd565b905092915050565b6128c88161327c565b82525050565b6128d78161327c565b82525050565b60006128e882613142565b6128f2818561317d565b93506128fd8361310d565b8060005b8381101561292e5781516129158882612893565b975061292083613163565b925050600181019050612901565b5085935050505092915050565b60006129468261314d565b612950818561318e565b9350836020820285016129628561311d565b8060005b8581101561299e578484038952815161297f85826128ab565b945061298a83613170565b925060208a01995050600181019050612966565b50829750879550505050505092915050565b6129b98161328e565b82525050565b6129c88161329a565b82525050565b60006129d982613158565b6129e3818561319f565b93506129f3818560208601613309565b6129fc8161349f565b840191505092915050565b6000612a1282613158565b612a1c81856131b0565b9350612a2c818560208601613309565b612a358161349f565b840191505092915050565b6000612a4b82613158565b612a5581856131c1565b9350612a65818560208601613309565b80840191505092915050565b60008154612a7e81613366565b612a8881866131c1565b94506001821660008114612aa35760018114612ab457612ae7565b60ff19831686528186019350612ae7565b612abd8561312d565b60005b83811015612adf57815481890152600182019150602081019050612ac0565b838801955050505b50505092915050565b6000612afd6020836131b0565b9150612b08826134b0565b602082019050919050565b6000612b206014836131b0565b9150612b2b826134d9565b602082019050919050565b6000612b43601c836131b0565b9150612b4e82613502565b602082019050919050565b6000612b66601f836131b0565b9150612b718261352b565b602082019050919050565b6000612b896017836131b0565b9150612b9482613554565b602082019050919050565b6000612bac6010836131b0565b9150612bb78261357d565b602082019050919050565b6000612bcf600d836131b0565b9150612bda826135a6565b602082019050919050565b6000612bf26036836131b0565b9150612bfd826135cf565b604082019050919050565b6000612c15601e836131b0565b9150612c208261361e565b602082019050919050565b6000612c386028836131b0565b9150612c4382613647565b604082019050919050565b6000612c5b6027836131b0565b9150612c6682613696565b604082019050919050565b6000612c7e6017836131c1565b9150612c89826136e5565b601782019050919050565b6000612ca16018836131b0565b9150612cac8261370e565b602082019050919050565b6000612cc46011836131c1565b9150612ccf82613737565b601182019050919050565b6000612ce76029836131b0565b9150612cf282613760565b604082019050919050565b60006040830160008301518482036000860152612d1a82826129ce565b9150506020830151612d2f6020860182612d3a565b508091505092915050565b612d43816132f0565b82525050565b612d52816132f0565b82525050565b6000612d648284612a40565b915081905092915050565b6000612d7b8284612a71565b915081905092915050565b6000612d9182612c71565b9150612d9d8285612a40565b9150612da882612cb7565b9150612db48284612a40565b91508190509392505050565b6000602082019050612dd560008301846128ce565b92915050565b6000604082019050612df060008301856128ce565b612dfd6020830184612d49565b9392505050565b60006020820190508181036000830152612e1e81846128dd565b905092915050565b60006020820190508181036000830152612e40818461293b565b905092915050565b6000602082019050612e5d60008301846129b0565b92915050565b6000602082019050612e7860008301846129bf565b92915050565b60006020820190508181036000830152612e988184612a07565b905092915050565b60006020820190508181036000830152612eb981612af0565b9050919050565b60006020820190508181036000830152612ed981612b13565b9050919050565b60006020820190508181036000830152612ef981612b36565b9050919050565b60006020820190508181036000830152612f1981612b59565b9050919050565b60006020820190508181036000830152612f3981612b7c565b9050919050565b60006020820190508181036000830152612f5981612b9f565b9050919050565b60006020820190508181036000830152612f7981612bc2565b9050919050565b60006020820190508181036000830152612f9981612be5565b9050919050565b60006020820190508181036000830152612fb981612c08565b9050919050565b60006020820190508181036000830152612fd981612c2b565b9050919050565b60006020820190508181036000830152612ff981612c4e565b9050919050565b6000602082019050818103600083015261301981612c94565b9050919050565b6000602082019050818103600083015261303981612cda565b9050919050565b60006020820190506130556000830184612d49565b92915050565b60006040820190506130706000830185612d49565b81810360208301526130828184612a07565b90509392505050565b60006130956130a6565b90506130a18282613398565b919050565b6000604051905090565b600067ffffffffffffffff8211156130cb576130ca613470565b5b602082029050602081019050919050565b600067ffffffffffffffff8211156130f7576130f6613470565b5b6131008261349f565b9050602081019050919050565b6000819050602082019050919050565b6000819050602082019050919050565b60008190508160005260206000209050919050565b600081519050919050565b600081519050919050565b600081519050919050565b6000602082019050919050565b6000602082019050919050565b600082825260208201905092915050565b600082825260208201905092915050565b600082825260208201905092915050565b600082825260208201905092915050565b600081905092915050565b60006131d7826132f0565b91506131e2836132f0565b9250827fffffffffffffffffffffffffffffffffffffffffffffffffffffffffffffffff0382111561321757613216613412565b5b828201905092915050565b600061322d826132f0565b9150613238836132f0565b9250817fffffffffffffffffffffffffffffffffffffffffffffffffffffffffffffffff048311821515161561327157613270613412565b5b828202905092915050565b6000613287826132d0565b9050919050565b60008115159050919050565b6000819050919050565b60007fffffffff0000000000000000000000000000000000000000000000000000000082169050919050565b600073ffffffffffffffffffffffffffffffffffffffff82169050919050565b6000819050919050565b82818337600083830152505050565b60005b8381101561332757808201518184015260208101905061330c565b83811115613336576000848401525b50505050565b6000613347826132f0565b9150600082141561335b5761335a613412565b5b600182039050919050565b6000600282049050600182168061337e57607f821691505b6020821081141561339257613391613441565b5b50919050565b6133a18261349f565b810181811067ffffffffffffffff821117156133c0576133bf613470565b5b80604052505050565b60006133d4826132f0565b91507fffffffffffffffffffffffffffffffffffffffffffffffffffffffffffffffff82141561340757613406613412565b5b600182019050919050565b7f4e487b7100000000000000000000000000000000000000000000000000000000600052601160045260246000fd5b7f4e487b7100000000000000000000000000000000000000000000000000000000600052602260045260246000fd5b7f4e487b7100000000000000000000000000000000000000000000000000000000600052604160045260246000fd5b6000601f19601f8301169050919050565b7f537472696e67733a20686578206c656e67746820696e73756666696369656e74600082015250565b7f5061757361626c653a206e6f7420706175736564000000000000000000000000600082015250565b7f526573756c7420686173206e6f74206265656e20636f6d70696c656400000000600082015250565b7f43686169726d616e20726f6c652063616e6e6f74206265207265766f6b656400600082015250565b7f456c656374696f6e20686173206e6f7420626567756e21000000000000000000600082015250565b7f5061757361626c653a2070617573656400000000000000000000000000000000600082015250565b7f4143434553532044454e49454400000000000000000000000000000000000000600082015250565b7f546865206164647265737320666f7220746865206e65772063686169726d616e60008201527f206973206e6f742061206469726563746f722079657400000000000000000000602082015250565b7f536f7272792c2074686520456c656374696f6e2068617320656e646564210000600082015250565b7f4f6e6c79207468652063686169726d616e20726f6c652063616e20626520726560008201527f6e6f756e6365642e000000000000000000000000000000000000000000000000602082015250565b7f41434345535320464f52205445414348455228732920414e442043484149524d60008201527f414e204f4e4c5900000000000000000000000000000000000000000000000000602082015250565b7f416363657373436f6e74726f6c3a206163636f756e7420000000000000000000600082015250565b7f526573756c747320616c726561647920636f6d70696c65640000000000000000600082015250565b7f206973206d697373696e6720726f6c6520000000000000000000000000000000600082015250565b7f456c656374696f6e207374696c6c206f6e676f696e67206f7220686173206e6f60008201527f7420737461727465640000000000000000000000000000000000000000000000602082015250565b6137b88161327c565b81146137c357600080fd5b50565b6137cf8161329a565b81146137da57600080fd5b50565b6137e6816132a4565b81146137f157600080fd5b50565b6137fd816132f0565b811461380857600080fd5b5056fea2646970667358221220f17d29b6b4bd5aba1821d3dc9880836f863dd553aee1645223750f9ebd26c44464736f6c63430008040033",
  "linkReferences": {},
  "deployedLinkReferences": {}
}