{
  "_format": "hh-sol-artifact-1",
  "contractName": "Election",
  "sourceName": "contracts/Election.sol",
  "abi": [
    {
      "inputs": [
        {
          "internalType": "string",
          "name": "_position",
          "type": "string"
        },
        {
          "internalType": "uint256",
          "name": "_noOfParticipants",
          "type": "uint256"
        },
        {
          "internalType": "address[]",
          "name": "_participantsAddress",
          "type": "address[]"
        }
      ],
      "stateMutability": "nonpayable",
      "type": "constructor"
    },
    {
      "inputs": [],
      "name": "AlreadyVoted",
      "type": "error"
    },
    {
      "inputs": [],
      "name": "NoOfParticatantNotMatchingParticipateId",
      "type": "error"
    },
    {
      "inputs": [],
      "name": "ResultNotYetRelease",
      "type": "error"
    },
    {
      "anonymous": false,
      "inputs": [
        {
          "indexed": false,
          "internalType": "address",
          "name": "account",
          "type": "address"
        }
      ],
      "name": "Paused",
      "type": "event"
    },
    {
      "anonymous": false,
      "inputs": [
        {
          "indexed": true,
          "internalType": "bytes32",
          "name": "role",
          "type": "bytes32"
        },
        {
          "indexed": true,
          "internalType": "bytes32",
          "name": "previousAdminRole",
          "type": "bytes32"
        },
        {
          "indexed": true,
          "internalType": "bytes32",
          "name": "newAdminRole",
          "type": "bytes32"
        }
      ],
      "name": "RoleAdminChanged",
      "type": "event"
    },
    {
      "anonymous": false,
      "inputs": [
        {
          "indexed": true,
          "internalType": "bytes32",
          "name": "role",
          "type": "bytes32"
        },
        {
          "indexed": true,
          "internalType": "address",
          "name": "account",
          "type": "address"
        },
        {
          "indexed": true,
          "internalType": "address",
          "name": "sender",
          "type": "address"
        }
      ],
      "name": "RoleGranted",
      "type": "event"
    },
    {
      "anonymous": false,
      "inputs": [
        {
          "indexed": true,
          "internalType": "bytes32",
          "name": "role",
          "type": "bytes32"
        },
        {
          "indexed": true,
          "internalType": "address",
          "name": "account",
          "type": "address"
        },
        {
          "indexed": true,
          "internalType": "address",
          "name": "sender",
          "type": "address"
        }
      ],
      "name": "RoleRevoked",
      "type": "event"
    },
    {
      "anonymous": false,
      "inputs": [
        {
          "indexed": false,
          "internalType": "address",
          "name": "account",
          "type": "address"
        }
      ],
      "name": "Unpaused",
      "type": "event"
    },
    {
      "inputs": [],
      "name": "CHAIRMAN_ROLE",
      "outputs": [
        {
          "internalType": "bytes32",
          "name": "",
          "type": "bytes32"
        }
      ],
      "stateMutability": "view",
      "type": "function"
    },
    {
      "inputs": [],
      "name": "DEFAULT_ADMIN_ROLE",
      "outputs": [
        {
          "internalType": "bytes32",
          "name": "",
          "type": "bytes32"
        }
      ],
      "stateMutability": "view",
      "type": "function"
    },
    {
      "inputs": [],
      "name": "DIRECTOR_ROLE",
      "outputs": [
        {
          "internalType": "bytes32",
          "name": "",
          "type": "bytes32"
        }
      ],
      "stateMutability": "view",
      "type": "function"
    },
    {
      "inputs": [],
      "name": "STUDENT_ROLE",
      "outputs": [
        {
          "internalType": "bytes32",
          "name": "",
          "type": "bytes32"
        }
      ],
      "stateMutability": "view",
      "type": "function"
    },
    {
      "inputs": [],
      "name": "TEACHER_ROLE",
      "outputs": [
        {
          "internalType": "bytes32",
          "name": "",
          "type": "bytes32"
        }
      ],
      "stateMutability": "view",
      "type": "function"
    },
    {
      "inputs": [],
      "name": "compileResult",
      "outputs": [
        {
          "components": [
            {
              "internalType": "address",
              "name": "candidatesAddress",
              "type": "address"
            },
            {
              "internalType": "uint256",
              "name": "voteCount",
              "type": "uint256"
            }
          ],
          "internalType": "struct Election.Candidates[]",
          "name": "",
          "type": "tuple[]"
        }
      ],
      "stateMutability": "nonpayable",
      "type": "function"
    },
    {
      "inputs": [
        {
          "internalType": "bytes32",
          "name": "role",
          "type": "bytes32"
        }
      ],
      "name": "getRoleAdmin",
      "outputs": [
        {
          "internalType": "bytes32",
          "name": "",
          "type": "bytes32"
        }
      ],
      "stateMutability": "view",
      "type": "function"
    },
    {
      "inputs": [
        {
          "internalType": "bytes32",
          "name": "role",
          "type": "bytes32"
        },
        {
          "internalType": "address",
          "name": "account",
          "type": "address"
        }
      ],
      "name": "grantRole",
      "outputs": [],
      "stateMutability": "nonpayable",
      "type": "function"
    },
    {
      "inputs": [
        {
          "internalType": "bytes32",
          "name": "role",
          "type": "bytes32"
        },
        {
          "internalType": "address",
          "name": "account",
          "type": "address"
        }
      ],
      "name": "hasRole",
      "outputs": [
        {
          "internalType": "bool",
          "name": "",
          "type": "bool"
        }
      ],
      "stateMutability": "view",
      "type": "function"
    },
    {
      "inputs": [],
      "name": "paused",
      "outputs": [
        {
          "internalType": "bool",
          "name": "",
          "type": "bool"
        }
      ],
      "stateMutability": "view",
      "type": "function"
    },
    {
      "inputs": [
        {
          "internalType": "address[]",
          "name": "_student",
          "type": "address[]"
        }
      ],
      "name": "registerStudent",
      "outputs": [
        {
          "internalType": "bool",
          "name": "",
          "type": "bool"
        }
      ],
      "stateMutability": "nonpayable",
      "type": "function"
    },
    {
      "inputs": [
        {
          "internalType": "bytes32",
          "name": "_role",
          "type": "bytes32"
        },
        {
          "internalType": "address",
          "name": "_account",
          "type": "address"
        }
      ],
      "name": "renounceRole",
      "outputs": [],
      "stateMutability": "nonpayable",
      "type": "function"
    },
    {
      "inputs": [],
      "name": "result",
      "outputs": [
        {
          "components": [
            {
              "internalType": "address",
              "name": "candidatesAddress",
              "type": "address"
            },
            {
              "internalType": "uint256",
              "name": "voteCount",
              "type": "uint256"
            }
          ],
          "internalType": "struct Election.Candidates[]",
          "name": "",
          "type": "tuple[]"
        }
      ],
      "stateMutability": "view",
      "type": "function"
    },
    {
      "inputs": [
        {
          "internalType": "bytes32",
          "name": "_role",
          "type": "bytes32"
        },
        {
          "internalType": "address",
          "name": "_account",
          "type": "address"
        }
      ],
      "name": "revokeRole",
      "outputs": [],
      "stateMutability": "nonpayable",
      "type": "function"
    },
    {
      "inputs": [
        {
          "internalType": "address[]",
          "name": "_Bod",
          "type": "address[]"
        }
      ],
      "name": "setupBOD",
      "outputs": [
        {
          "internalType": "bool",
          "name": "",
          "type": "bool"
        }
      ],
      "stateMutability": "nonpayable",
      "type": "function"
    },
    {
      "inputs": [
        {
          "internalType": "address[]",
          "name": "_teacher",
          "type": "address[]"
        }
      ],
      "name": "setupTeachers",
      "outputs": [
        {
          "internalType": "bool",
          "name": "",
          "type": "bool"
        }
      ],
      "stateMutability": "nonpayable",
      "type": "function"
    },
    {
      "inputs": [],
      "name": "showResult",
      "outputs": [
        {
          "internalType": "bool",
          "name": "",
          "type": "bool"
        }
      ],
      "stateMutability": "nonpayable",
      "type": "function"
    },
    {
      "inputs": [
        {
          "internalType": "bytes4",
          "name": "interfaceId",
          "type": "bytes4"
        }
      ],
      "name": "supportsInterface",
      "outputs": [
        {
          "internalType": "bool",
          "name": "",
          "type": "bool"
        }
      ],
      "stateMutability": "view",
      "type": "function"
    },
    {
      "inputs": [
        {
          "internalType": "address",
          "name": "_participantsAddress",
          "type": "address"
        }
      ],
      "name": "vote",
      "outputs": [
        {
          "internalType": "bool",
          "name": "",
          "type": "bool"
        }
      ],
      "stateMutability": "nonpayable",
      "type": "function"
    }
  ],
  "bytecode": "0x60806040523480156200001157600080fd5b5060405162002ab138038062002ab1833981810160405281019062000037919062000810565b3360008060006101000a81548160ff021916908315150217905550620000a97f36a5c4aaacb6b388bbd448bf11096b7dafc5652bcc9046084fd0e95b1fb0b2cc7fd16e204b8a42a15ab0ea6bb8ec1ecdfbe69f38074fc865323af19efe7d9573d9620003a760201b62000ee81760201c565b620001007fd16e204b8a42a15ab0ea6bb8ec1ecdfbe69f38074fc865323af19efe7d9573d97fdc1958ce1178d6eb32ccc146dcea8933f1978155832913ec88fa509962e1b413620003a760201b62000ee81760201c565b620001577f15e007796fc034bf8274acdcfbd2f48124815698ba6f70c109f3423981a7052f7fdc1958ce1178d6eb32ccc146dcea8933f1978155832913ec88fa509962e1b413620003a760201b62000ee81760201c565b6200018e7fdc1958ce1178d6eb32ccc146dcea8933f1978155832913ec88fa509962e1b41380620003a760201b62000ee81760201c565b620001c57f15e007796fc034bf8274acdcfbd2f48124815698ba6f70c109f3423981a7052f826200040b60201b62000f441760201c565b620001fc7fdc1958ce1178d6eb32ccc146dcea8933f1978155832913ec88fa509962e1b413826200040b60201b62000f441760201c565b508051821462000238576040517f2dc0756e00000000000000000000000000000000000000000000000000000000815260040160405180910390fd5b8260029080519060200190620002509291906200058f565b508160038190555080600490805190602001906200027092919062000620565b5060005b81518110156200039d57600060076000848481518110620002be577f4e487b7100000000000000000000000000000000000000000000000000000000600052603260045260246000fd5b602002602001015173ffffffffffffffffffffffffffffffffffffffff1673ffffffffffffffffffffffffffffffffffffffff16815260200190815260200160002090508282815181106200033c577f4e487b7100000000000000000000000000000000000000000000000000000000600052603260045260246000fd5b60200260200101518160000160006101000a81548173ffffffffffffffffffffffffffffffffffffffff021916908373ffffffffffffffffffffffffffffffffffffffff160217905550508080620003949062000a06565b91505062000274565b5050505062000b26565b6000620003ba83620004fc60201b60201c565b90508160016000858152602001908152602001600020600101819055508181847fbd79b86ffe0ab8e8776151514217cd7cacd52c909f66475c3af44e129f0b00ff60405160405180910390a4505050565b6200041d82826200051c60201b60201c565b620004f857600180600084815260200190815260200160002060000160008373ffffffffffffffffffffffffffffffffffffffff1673ffffffffffffffffffffffffffffffffffffffff16815260200190815260200160002060006101000a81548160ff0219169083151502179055506200049d6200058760201b60201c565b73ffffffffffffffffffffffffffffffffffffffff168173ffffffffffffffffffffffffffffffffffffffff16837f2f8788117e7eff1d82e926ec794901d17c78024a50270940304540a733656f0d60405160405180910390a45b5050565b600060016000838152602001908152602001600020600101549050919050565b60006001600084815260200190815260200160002060000160008373ffffffffffffffffffffffffffffffffffffffff1673ffffffffffffffffffffffffffffffffffffffff16815260200190815260200160002060009054906101000a900460ff16905092915050565b600033905090565b8280546200059d906200099a565b90600052602060002090601f016020900481019282620005c157600085556200060d565b82601f10620005dc57805160ff19168380011785556200060d565b828001600101855582156200060d579182015b828111156200060c578251825591602001919060010190620005ef565b5b5090506200061c9190620006af565b5090565b8280548282559060005260206000209081019282156200069c579160200282015b828111156200069b5782518260006101000a81548173ffffffffffffffffffffffffffffffffffffffff021916908373ffffffffffffffffffffffffffffffffffffffff1602179055509160200191906001019062000641565b5b509050620006ab9190620006af565b5090565b5b80821115620006ca576000816000905550600101620006b0565b5090565b6000620006e5620006df84620008c1565b62000898565b905080838252602082019050828560208602820111156200070557600080fd5b60005b858110156200073957816200071e888262000788565b84526020840193506020830192505060018101905062000708565b5050509392505050565b60006200075a6200075484620008f0565b62000898565b9050828152602081018484840111156200077357600080fd5b6200078084828562000964565b509392505050565b600081519050620007998162000af2565b92915050565b600082601f830112620007b157600080fd5b8151620007c3848260208601620006ce565b91505092915050565b600082601f830112620007de57600080fd5b8151620007f084826020860162000743565b91505092915050565b6000815190506200080a8162000b0c565b92915050565b6000806000606084860312156200082657600080fd5b600084015167ffffffffffffffff8111156200084157600080fd5b6200084f86828701620007cc565b93505060206200086286828701620007f9565b925050604084015167ffffffffffffffff8111156200088057600080fd5b6200088e868287016200079f565b9150509250925092565b6000620008a4620008b7565b9050620008b28282620009d0565b919050565b6000604051905090565b600067ffffffffffffffff821115620008df57620008de62000ab2565b5b602082029050602081019050919050565b600067ffffffffffffffff8211156200090e576200090d62000ab2565b5b620009198262000ae1565b9050602081019050919050565b600062000933826200093a565b9050919050565b600073ffffffffffffffffffffffffffffffffffffffff82169050919050565b6000819050919050565b60005b838110156200098457808201518184015260208101905062000967565b8381111562000994576000848401525b50505050565b60006002820490506001821680620009b357607f821691505b60208210811415620009ca57620009c962000a83565b5b50919050565b620009db8262000ae1565b810181811067ffffffffffffffff82111715620009fd57620009fc62000ab2565b5b80604052505050565b600062000a13826200095a565b91507fffffffffffffffffffffffffffffffffffffffffffffffffffffffffffffffff82141562000a495762000a4862000a54565b5b600182019050919050565b7f4e487b7100000000000000000000000000000000000000000000000000000000600052601160045260246000fd5b7f4e487b7100000000000000000000000000000000000000000000000000000000600052602260045260246000fd5b7f4e487b7100000000000000000000000000000000000000000000000000000000600052604160045260246000fd5b6000601f19601f8301169050919050565b62000afd8162000926565b811462000b0957600080fd5b50565b62000b17816200095a565b811462000b2357600080fd5b50565b611f7b8062000b366000396000f3fe608060405234801561001057600080fd5b50600436106101215760003560e01c8063531cbb12116100ad57806391d148541161007157806391d1485414610332578063a097dc4b14610362578063a217fddf14610380578063d547741f1461039e578063f7be43fb146103ba57610121565b8063531cbb121461028a5780635c975abb146102a857806365372147146102c65780636dd7d8ea146102e457806386e5c15a1461031457610121565b80632f2ff15d116100f45780632f2ff15d146101e6578063301aee011461020257806333ee31311461023257806336568abe146102505780633e4f9cae1461026c57610121565b806301ffc9a7146101265780630d60b1d0146101565780631fc26a5614610186578063248a9ca3146101b6575b600080fd5b610140600480360381019061013b91906116b3565b6103d8565b60405161014d9190611978565b60405180910390f35b610170600480360381019061016b919061160d565b610452565b60405161017d9190611978565b60405180910390f35b6101a0600480360381019061019b919061160d565b6104ea565b6040516101ad9190611978565b60405180910390f35b6101d060048036038101906101cb919061164e565b610582565b6040516101dd9190611993565b60405180910390f35b61020060048036038101906101fb9190611677565b6105a2565b005b61021c6004803603810190610217919061160d565b6105cb565b6040516102299190611978565b60405180910390f35b61023a610663565b6040516102479190611978565b60405180910390f35b61026a60048036038101906102659190611677565b610687565b005b6102746107dd565b6040516102819190611993565b60405180910390f35b610292610801565b60405161029f9190611956565b60405180910390f35b6102b0610ad7565b6040516102bd9190611978565b60405180910390f35b6102ce610aed565b6040516102db9190611956565b60405180910390f35b6102fe60048036038101906102f991906115e4565b610bac565b60405161030b9190611978565b60405180910390f35b61031c610d77565b6040516103299190611993565b60405180910390f35b61034c60048036038101906103479190611677565b610d9b565b6040516103599190611978565b60405180910390f35b61036a610e06565b6040516103779190611993565b60405180910390f35b610388610e2a565b6040516103959190611993565b60405180910390f35b6103b860048036038101906103b39190611677565b610e31565b005b6103c2610ec4565b6040516103cf9190611993565b60405180910390f35b60007f7965db0b000000000000000000000000000000000000000000000000000000007bffffffffffffffffffffffffffffffffffffffffffffffffffffffff1916827bffffffffffffffffffffffffffffffffffffffffffffffffffffffff1916148061044b575061044a82611024565b5b9050919050565b600080600090505b82518110156104e0576104cd7f15e007796fc034bf8274acdcfbd2f48124815698ba6f70c109f3423981a7052f8483815181106104c0577f4e487b7100000000000000000000000000000000000000000000000000000000600052603260045260246000fd5b6020026020010151610f44565b80806104d890611cdd565b91505061045a565b5060019050919050565b600080600090505b8251811015610578576105657f36a5c4aaacb6b388bbd448bf11096b7dafc5652bcc9046084fd0e95b1fb0b2cc848381518110610558577f4e487b7100000000000000000000000000000000000000000000000000000000600052603260045260246000fd5b6020026020010151610f44565b808061057090611cdd565b9150506104f2565b5060019050919050565b600060016000838152602001908152602001600020600101549050919050565b6105ab82610582565b6105bc816105b761108e565b611096565b6105c68383610f44565b505050565b600080600090505b8251811015610659576106467fd16e204b8a42a15ab0ea6bb8ec1ecdfbe69f38074fc865323af19efe7d9573d9848381518110610639577f4e487b7100000000000000000000000000000000000000000000000000000000600052603260045260246000fd5b6020026020010151610f44565b808061065190611cdd565b9150506105d3565b5060019050919050565b60006001600560016101000a81548160ff0219169083151502179055506001905090565b7fdc1958ce1178d6eb32ccc146dcea8933f1978155832913ec88fa509962e1b4136106b9816106b461108e565b611096565b7fdc1958ce1178d6eb32ccc146dcea8933f1978155832913ec88fa509962e1b413831461071b576040517f08c379a000000000000000000000000000000000000000000000000000000000815260040161071290611a50565b60405180910390fd5b6107457f15e007796fc034bf8274acdcfbd2f48124815698ba6f70c109f3423981a7052f83610d9b565b610784576040517f08c379a000000000000000000000000000000000000000000000000000000000815260040161077b90611a30565b60405180910390fd5b6107ae7fdc1958ce1178d6eb32ccc146dcea8933f1978155832913ec88fa509962e1b41383610f44565b6107d87fdc1958ce1178d6eb32ccc146dcea8933f1978155832913ec88fa509962e1b41333611133565b505050565b7f15e007796fc034bf8274acdcfbd2f48124815698ba6f70c109f3423981a7052f81565b606060005b600480549050811015610a195760006007600060048481548110610853577f4e487b7100000000000000000000000000000000000000000000000000000000600052603260045260246000fd5b9060005260206000200160009054906101000a900473ffffffffffffffffffffffffffffffffffffffff1673ffffffffffffffffffffffffffffffffffffffff1673ffffffffffffffffffffffffffffffffffffffff168152602001908152602001600020905060086000600484815481106108f8577f4e487b7100000000000000000000000000000000000000000000000000000000600052603260045260246000fd5b9060005260206000200160009054906101000a900473ffffffffffffffffffffffffffffffffffffffff1673ffffffffffffffffffffffffffffffffffffffff1673ffffffffffffffffffffffffffffffffffffffff16815260200190815260200160002054816001018190555060098190806001815401808255809150506001900390600052602060002090600202016000909190919091506000820160009054906101000a900473ffffffffffffffffffffffffffffffffffffffff168160000160006101000a81548173ffffffffffffffffffffffffffffffffffffffff021916908373ffffffffffffffffffffffffffffffffffffffff160217905550600182015481600101555050508080610a1190611cdd565b915050610806565b506009805480602002602001604051908101604052809291908181526020016000905b82821015610ace57838290600052602060002090600202016040518060400160405290816000820160009054906101000a900473ffffffffffffffffffffffffffffffffffffffff1673ffffffffffffffffffffffffffffffffffffffff1673ffffffffffffffffffffffffffffffffffffffff16815260200160018201548152505081526020019060010190610a3c565b50505050905090565b60008060009054906101000a900460ff16905090565b60606009805480602002602001604051908101604052809291908181526020016000905b82821015610ba357838290600052602060002090600202016040518060400160405290816000820160009054906101000a900473ffffffffffffffffffffffffffffffffffffffff1673ffffffffffffffffffffffffffffffffffffffff1673ffffffffffffffffffffffffffffffffffffffff16815260200160018201548152505081526020019060010190610b11565b50505050905090565b6000610bb6610ad7565b15610bf6576040517f08c379a0000000000000000000000000000000000000000000000000000000008152600401610bed90611a10565b60405180910390fd5b60011515600660003373ffffffffffffffffffffffffffffffffffffffff1673ffffffffffffffffffffffffffffffffffffffff16815260200190815260200160002060009054906101000a900460ff1615151415610c81576040517f7c9a1cf900000000000000000000000000000000000000000000000000000000815260040160405180910390fd5b6000600860008473ffffffffffffffffffffffffffffffffffffffff1673ffffffffffffffffffffffffffffffffffffffff168152602001908152602001600020549050600181610cd29190611b21565b600860008573ffffffffffffffffffffffffffffffffffffffff1673ffffffffffffffffffffffffffffffffffffffff168152602001908152602001600020819055506001600660003373ffffffffffffffffffffffffffffffffffffffff1673ffffffffffffffffffffffffffffffffffffffff16815260200190815260200160002060006101000a81548160ff0219169083151502179055506001915050919050565b7fd16e204b8a42a15ab0ea6bb8ec1ecdfbe69f38074fc865323af19efe7d9573d981565b60006001600084815260200190815260200160002060000160008373ffffffffffffffffffffffffffffffffffffffff1673ffffffffffffffffffffffffffffffffffffffff16815260200190815260200160002060009054906101000a900460ff16905092915050565b7fdc1958ce1178d6eb32ccc146dcea8933f1978155832913ec88fa509962e1b41381565b6000801b81565b610e3a82610582565b610e4b81610e4661108e565b611096565b610e757fdc1958ce1178d6eb32ccc146dcea8933f1978155832913ec88fa509962e1b41383610d9b565b15610eb5576040517f08c379a0000000000000000000000000000000000000000000000000000000008152600401610eac906119f0565b60405180910390fd5b610ebf8383611133565b505050565b7f36a5c4aaacb6b388bbd448bf11096b7dafc5652bcc9046084fd0e95b1fb0b2cc81565b6000610ef383610582565b90508160016000858152602001908152602001600020600101819055508181847fbd79b86ffe0ab8e8776151514217cd7cacd52c909f66475c3af44e129f0b00ff60405160405180910390a4505050565b610f4e8282610d9b565b61102057600180600084815260200190815260200160002060000160008373ffffffffffffffffffffffffffffffffffffffff1673ffffffffffffffffffffffffffffffffffffffff16815260200190815260200160002060006101000a81548160ff021916908315150217905550610fc561108e565b73ffffffffffffffffffffffffffffffffffffffff168173ffffffffffffffffffffffffffffffffffffffff16837f2f8788117e7eff1d82e926ec794901d17c78024a50270940304540a733656f0d60405160405180910390a45b5050565b60007f01ffc9a7000000000000000000000000000000000000000000000000000000007bffffffffffffffffffffffffffffffffffffffffffffffffffffffff1916827bffffffffffffffffffffffffffffffffffffffffffffffffffffffff1916149050919050565b600033905090565b6110a08282610d9b565b61112f576110c58173ffffffffffffffffffffffffffffffffffffffff166014611215565b6110d38360001c6020611215565b6040516020016110e492919061191c565b6040516020818303038152906040526040517f08c379a000000000000000000000000000000000000000000000000000000000815260040161112691906119ae565b60405180910390fd5b5050565b61113d8282610d9b565b156112115760006001600084815260200190815260200160002060000160008373ffffffffffffffffffffffffffffffffffffffff1673ffffffffffffffffffffffffffffffffffffffff16815260200190815260200160002060006101000a81548160ff0219169083151502179055506111b661108e565b73ffffffffffffffffffffffffffffffffffffffff168173ffffffffffffffffffffffffffffffffffffffff16837ff6391f5c32d9c69d2a47ea670b442974b53935d1edc7fd64eb21e047a839171b60405160405180910390a45b5050565b6060600060028360026112289190611b77565b6112329190611b21565b67ffffffffffffffff811115611271577f4e487b7100000000000000000000000000000000000000000000000000000000600052604160045260246000fd5b6040519080825280601f01601f1916602001820160405280156112a35781602001600182028036833780820191505090505b5090507f300000000000000000000000000000000000000000000000000000000000000081600081518110611301577f4e487b7100000000000000000000000000000000000000000000000000000000600052603260045260246000fd5b60200101907effffffffffffffffffffffffffffffffffffffffffffffffffffffffffffff1916908160001a9053507f78000000000000000000000000000000000000000000000000000000000000008160018151811061138b577f4e487b7100000000000000000000000000000000000000000000000000000000600052603260045260246000fd5b60200101907effffffffffffffffffffffffffffffffffffffffffffffffffffffffffffff1916908160001a905350600060018460026113cb9190611b77565b6113d59190611b21565b90505b60018111156114c1577f3031323334353637383961626364656600000000000000000000000000000000600f86166010811061143d577f4e487b7100000000000000000000000000000000000000000000000000000000600052603260045260246000fd5b1a60f81b82828151811061147a577f4e487b7100000000000000000000000000000000000000000000000000000000600052603260045260246000fd5b60200101907effffffffffffffffffffffffffffffffffffffffffffffffffffffffffffff1916908160001a905350600485901c9450806114ba90611c82565b90506113d8565b5060008414611505576040517f08c379a00000000000000000000000000000000000000000000000000000000081526004016114fc906119d0565b60405180910390fd5b8091505092915050565b600061152261151d84611a95565b611a70565b9050808382526020820190508285602086028201111561154157600080fd5b60005b858110156115715781611557888261157b565b845260208401935060208301925050600181019050611544565b5050509392505050565b60008135905061158a81611f00565b92915050565b600082601f8301126115a157600080fd5b81356115b184826020860161150f565b91505092915050565b6000813590506115c981611f17565b92915050565b6000813590506115de81611f2e565b92915050565b6000602082840312156115f657600080fd5b60006116048482850161157b565b91505092915050565b60006020828403121561161f57600080fd5b600082013567ffffffffffffffff81111561163957600080fd5b61164584828501611590565b91505092915050565b60006020828403121561166057600080fd5b600061166e848285016115ba565b91505092915050565b6000806040838503121561168a57600080fd5b6000611698858286016115ba565b92505060206116a98582860161157b565b9150509250929050565b6000602082840312156116c557600080fd5b60006116d3848285016115cf565b91505092915050565b60006116e883836118de565b60408301905092915050565b6116fd81611bd1565b82525050565b600061170e82611ad1565b6117188185611af4565b935061172383611ac1565b8060005b8381101561175457815161173b88826116dc565b975061174683611ae7565b925050600181019050611727565b5085935050505092915050565b61176a81611be3565b82525050565b61177981611bef565b82525050565b600061178a82611adc565b6117948185611b05565b93506117a4818560208601611c4f565b6117ad81611d84565b840191505092915050565b60006117c382611adc565b6117cd8185611b16565b93506117dd818560208601611c4f565b80840191505092915050565b60006117f6602083611b05565b915061180182611d95565b602082019050919050565b6000611819601f83611b05565b915061182482611dbe565b602082019050919050565b600061183c601083611b05565b915061184782611de7565b602082019050919050565b600061185f603683611b05565b915061186a82611e10565b604082019050919050565b6000611882602883611b05565b915061188d82611e5f565b604082019050919050565b60006118a5601783611b16565b91506118b082611eae565b601782019050919050565b60006118c8601183611b16565b91506118d382611ed7565b601182019050919050565b6040820160008201516118f460008501826116f4565b506020820151611907602085018261190d565b50505050565b61191681611c45565b82525050565b600061192782611898565b915061193382856117b8565b915061193e826118bb565b915061194a82846117b8565b91508190509392505050565b600060208201905081810360008301526119708184611703565b905092915050565b600060208201905061198d6000830184611761565b92915050565b60006020820190506119a86000830184611770565b92915050565b600060208201905081810360008301526119c8818461177f565b905092915050565b600060208201905081810360008301526119e9816117e9565b9050919050565b60006020820190508181036000830152611a098161180c565b9050919050565b60006020820190508181036000830152611a298161182f565b9050919050565b60006020820190508181036000830152611a4981611852565b9050919050565b60006020820190508181036000830152611a6981611875565b9050919050565b6000611a7a611a8b565b9050611a868282611cac565b919050565b6000604051905090565b600067ffffffffffffffff821115611ab057611aaf611d55565b5b602082029050602081019050919050565b6000819050602082019050919050565b600081519050919050565b600081519050919050565b6000602082019050919050565b600082825260208201905092915050565b600082825260208201905092915050565b600081905092915050565b6000611b2c82611c45565b9150611b3783611c45565b9250827fffffffffffffffffffffffffffffffffffffffffffffffffffffffffffffffff03821115611b6c57611b6b611d26565b5b828201905092915050565b6000611b8282611c45565b9150611b8d83611c45565b9250817fffffffffffffffffffffffffffffffffffffffffffffffffffffffffffffffff0483118215151615611bc657611bc5611d26565b5b828202905092915050565b6000611bdc82611c25565b9050919050565b60008115159050919050565b6000819050919050565b60007fffffffff0000000000000000000000000000000000000000000000000000000082169050919050565b600073ffffffffffffffffffffffffffffffffffffffff82169050919050565b6000819050919050565b60005b83811015611c6d578082015181840152602081019050611c52565b83811115611c7c576000848401525b50505050565b6000611c8d82611c45565b91506000821415611ca157611ca0611d26565b5b600182039050919050565b611cb582611d84565b810181811067ffffffffffffffff82111715611cd457611cd3611d55565b5b80604052505050565b6000611ce882611c45565b91507fffffffffffffffffffffffffffffffffffffffffffffffffffffffffffffffff821415611d1b57611d1a611d26565b5b600182019050919050565b7f4e487b7100000000000000000000000000000000000000000000000000000000600052601160045260246000fd5b7f4e487b7100000000000000000000000000000000000000000000000000000000600052604160045260246000fd5b6000601f19601f8301169050919050565b7f537472696e67733a20686578206c656e67746820696e73756666696369656e74600082015250565b7f43686169726d616e20726f6c652063616e6e6f74206265207265766f6b656400600082015250565b7f5061757361626c653a2070617573656400000000000000000000000000000000600082015250565b7f546865206164647265737320666f7220746865206e65772063686169726d616e60008201527f206973206e6f742061206469726563746f722079657400000000000000000000602082015250565b7f4f6e6c79207468652063686169726d616e20726f6c652063616e20626520726560008201527f6e6f756e6365642e000000000000000000000000000000000000000000000000602082015250565b7f416363657373436f6e74726f6c3a206163636f756e7420000000000000000000600082015250565b7f206973206d697373696e6720726f6c6520000000000000000000000000000000600082015250565b611f0981611bd1565b8114611f1457600080fd5b50565b611f2081611bef565b8114611f2b57600080fd5b50565b611f3781611bf9565b8114611f4257600080fd5b5056fea2646970667358221220f4d94cd12d74e2c69924c9068aaa3d069c036aec3d14459acc4364cc43a4125464736f6c63430008040033",
  "linkReferences": {},
  "deployedLinkReferences": {}
}