{
  "_format": "hh-sol-artifact-1",
  "contractName": "Election",
  "sourceName": "contracts/Election.sol",
  "abi": [
    {
      "inputs": [
        {
          "internalType": "address",
          "name": "_owner",
          "type": "address"
        },
        {
          "internalType": "string",
          "name": "_position",
          "type": "string"
        },
        {
          "internalType": "uint256",
          "name": "_noOfParticipants",
          "type": "uint256"
        },
        {
          "internalType": "string[]",
          "name": "_contestants",
          "type": "string[]"
        },
        {
          "internalType": "uint256",
          "name": "id",
          "type": "uint256"
        }
      ],
      "stateMutability": "nonpayable",
      "type": "constructor"
    },
    {
      "inputs": [],
      "name": "AlreadyVoted",
      "type": "error"
    },
    {
      "inputs": [],
      "name": "NoOfParticatantNotMatchingParticipateId",
      "type": "error"
    },
    {
      "inputs": [],
      "name": "ResultNotYetRelease",
      "type": "error"
    },
    {
      "anonymous": false,
      "inputs": [
        {
          "indexed": false,
          "internalType": "address",
          "name": "account",
          "type": "address"
        }
      ],
      "name": "Paused",
      "type": "event"
    },
    {
      "anonymous": false,
      "inputs": [
        {
          "indexed": false,
          "internalType": "address",
          "name": "account",
          "type": "address"
        }
      ],
      "name": "Unpaused",
      "type": "event"
    },
    {
      "inputs": [],
      "name": "compileResult",
      "outputs": [
        {
          "internalType": "uint256[]",
          "name": "",
          "type": "uint256[]"
        }
      ],
      "stateMutability": "nonpayable",
      "type": "function"
    },
    {
      "inputs": [],
      "name": "paused",
      "outputs": [
        {
          "internalType": "bool",
          "name": "",
          "type": "bool"
        }
      ],
      "stateMutability": "view",
      "type": "function"
    },
    {
      "inputs": [
        {
          "internalType": "address[]",
          "name": "_student",
          "type": "address[]"
        }
      ],
      "name": "registerStudent",
      "outputs": [
        {
          "internalType": "bool",
          "name": "",
          "type": "bool"
        }
      ],
      "stateMutability": "nonpayable",
      "type": "function"
    },
    {
      "inputs": [],
      "name": "result",
      "outputs": [
        {
          "internalType": "uint256[]",
          "name": "",
          "type": "uint256[]"
        }
      ],
      "stateMutability": "view",
      "type": "function"
    },
    {
      "inputs": [
        {
          "internalType": "address[]",
          "name": "_Bod",
          "type": "address[]"
        }
      ],
      "name": "setupBOD",
      "outputs": [
        {
          "internalType": "bool",
          "name": "",
          "type": "bool"
        }
      ],
      "stateMutability": "nonpayable",
      "type": "function"
    },
    {
      "inputs": [
        {
          "internalType": "address[]",
          "name": "_teacher",
          "type": "address[]"
        }
      ],
      "name": "setupTeachers",
      "outputs": [
        {
          "internalType": "bool",
          "name": "",
          "type": "bool"
        }
      ],
      "stateMutability": "nonpayable",
      "type": "function"
    },
    {
      "inputs": [],
      "name": "showResult",
      "outputs": [
        {
          "internalType": "bool",
          "name": "",
          "type": "bool"
        }
      ],
      "stateMutability": "nonpayable",
      "type": "function"
    },
    {
      "inputs": [
        {
          "internalType": "string",
          "name": "_participantsAddress",
          "type": "string"
        }
      ],
      "name": "vote",
      "outputs": [
        {
          "internalType": "bool",
          "name": "",
          "type": "bool"
        }
      ],
      "stateMutability": "nonpayable",
      "type": "function"
    }
  ],
  "bytecode": "0x60806040523480156200001157600080fd5b5060405162001a3538038062001a358339818101604052810190620000379190620005f1565b60008060006101000a81548160ff021916908315150217905550620000857f4e1f7c60a83764b67a30c53590581dbde934a02637ccb74b927896af1c96300060001b6200030c60201b60201c565b620000b97f205f1869ec4ac7dfbb80a038a0c8ba21f2e95acd4dc42a028640a6f3342b4b4c60001b6200030c60201b60201c565b620000ed7f55c9d9192d7934d57b014a9fb3f151be8aff6754c9fc8dc30da873e0635d88fc60001b6200030c60201b60201c565b815183146200015c576200012a7f3fd853892cf04600512336fc8dea9c72c3f62bf3103eb070a84421a303feeacc60001b6200030c60201b60201c565b6040517f2dc0756e00000000000000000000000000000000000000000000000000000000815260040160405180910390fd5b620001907f13008163af7c32851d9d1cc939e4522f7bc97329edda8e8174acb0277af11ffe60001b6200030c60201b60201c565b620001c47f23a0e25f136bd26f83c668075ad69703109270a3916c1847864e87f996d6174960001b6200030c60201b60201c565b620001f87ffbbf55d0c5a777fb5fe8be4523841f79acdd9d2f405ce57bd1230493465d1fe660001b6200030c60201b60201c565b8360019080519060200190620002109291906200030f565b50620002457f7593a63d870ac21bcc043b32190ffafdebebace14ab3ddb29788d72677c7e24e60001b6200030c60201b60201c565b620002797f26b383f5d6c405bd463da0703f43d7e1e4d98cfa7472a45ce4c99ba53b1081b760001b6200030c60201b60201c565b82600281905550620002b47f204a8beb0f6531dbe50c8d829b49be6a0e488f1062ee6f521bd9ea4057a0310660001b6200030c60201b60201c565b620002e87fbf5271effa6a9e232cf2b4ddcc9bdc7665ee1601fb6c39f73edcf629e2b8457b60001b6200030c60201b60201c565b816003908051906020019062000300929190620003a0565b505050505050620008b6565b50565b8280546200031d90620007a7565b90600052602060002090601f0160209004810192826200034157600085556200038d565b82601f106200035c57805160ff19168380011785556200038d565b828001600101855582156200038d579182015b828111156200038c5782518255916020019190600101906200036f565b5b5090506200039c919062000407565b5090565b828054828255906000526020600020908101928215620003f4579160200282015b82811115620003f3578251829080519060200190620003e29291906200030f565b5091602001919060010190620003c1565b5b50905062000403919062000426565b5090565b5b808211156200042257600081600090555060010162000408565b5090565b5b808211156200044a57600081816200044091906200044e565b5060010162000427565b5090565b5080546200045c90620007a7565b6000825580601f1062000470575062000491565b601f01602090049060005260206000209081019062000490919062000407565b5b50565b6000620004ab620004a584620006ce565b620006a5565b90508083825260208201905082856020860282011115620004cb57600080fd5b60005b858110156200051a57815167ffffffffffffffff811115620004ef57600080fd5b808601620004fe8982620005ad565b85526020850194506020840193505050600181019050620004ce565b5050509392505050565b60006200053b6200053584620006fd565b620006a5565b9050828152602081018484840111156200055457600080fd5b6200056184828562000771565b509392505050565b6000815190506200057a8162000882565b92915050565b600082601f8301126200059257600080fd5b8151620005a484826020860162000494565b91505092915050565b600082601f830112620005bf57600080fd5b8151620005d184826020860162000524565b91505092915050565b600081519050620005eb816200089c565b92915050565b600080600080600060a086880312156200060a57600080fd5b60006200061a8882890162000569565b955050602086015167ffffffffffffffff8111156200063857600080fd5b6200064688828901620005ad565b94505060406200065988828901620005da565b935050606086015167ffffffffffffffff8111156200067757600080fd5b620006858882890162000580565b92505060806200069888828901620005da565b9150509295509295909350565b6000620006b1620006c4565b9050620006bf8282620007dd565b919050565b6000604051905090565b600067ffffffffffffffff821115620006ec57620006eb62000842565b5b602082029050602081019050919050565b600067ffffffffffffffff8211156200071b576200071a62000842565b5b620007268262000871565b9050602081019050919050565b6000620007408262000747565b9050919050565b600073ffffffffffffffffffffffffffffffffffffffff82169050919050565b6000819050919050565b60005b838110156200079157808201518184015260208101905062000774565b83811115620007a1576000848401525b50505050565b60006002820490506001821680620007c057607f821691505b60208210811415620007d757620007d662000813565b5b50919050565b620007e88262000871565b810181811067ffffffffffffffff821117156200080a576200080962000842565b5b80604052505050565b7f4e487b7100000000000000000000000000000000000000000000000000000000600052602260045260246000fd5b7f4e487b7100000000000000000000000000000000000000000000000000000000600052604160045260246000fd5b6000601f19601f8301169050919050565b6200088d8162000733565b81146200089957600080fd5b50565b620008a78162000767565b8114620008b357600080fd5b50565b61116f80620008c66000396000f3fe608060405234801561001057600080fd5b50600436106100885760003560e01c8063531cbb121161005b578063531cbb121461013b5780635c975abb146101595780636537214714610177578063fc36e15b1461019557610088565b80630d60b1d01461008d5780631fc26a56146100bd578063301aee01146100ed57806333ee31311461011d575b600080fd5b6100a760048036038101906100a29190610b64565b6101c5565b6040516100b49190610d9d565b60405180910390f35b6100d760048036038101906100d29190610b64565b6101f8565b6040516100e49190610d9d565b60405180910390f35b61010760048036038101906101029190610b64565b61022b565b6040516101149190610d9d565b60405180910390f35b61012561025e565b6040516101329190610d9d565b60405180910390f35b61014361035e565b6040516101509190610d7b565b60405180910390f35b610161610598565b60405161016e9190610d9d565b60405180910390f35b61017f6105ae565b60405161018c9190610d7b565b60405180910390f35b6101af60048036038101906101aa9190610ba5565b61068a565b6040516101bc9190610d9d565b60405180910390f35b60006101f37fd0c7dd75139981ce02c456643b9bd7088170d950986ea55532a0df5028b7045260001b610a4e565b919050565b60006102267fc84349c811cf7094c130803c4260f4481e7d98663fba75dfc7922d5df4d2ea9060001b610a4e565b919050565b60006102597fbc15f556cc2958ca0db56a46f21093dd8b615fc41d0468a6dfde264e8bd23fbd60001b610a4e565b919050565b600061028c7f99b296dbfef784b38b0ae3ff12871d4e2d06efb96c98ecf6edac51c1f113040260001b610a4e565b6102b87f79711d7a129effced2a833185793164ffe4cb8764eb28c2ee166962f444e491b60001b610a4e565b6102e47f73a48380a55bf0a807ed7cddc2bbca70654e844c4032eedb463c4e42faf84a6160001b610a4e565b6001600460016101000a81548160ff02191690831515021790555061032b7f6d5d914e374ec96e683e51aa9296659d4b63a7d8c3eb33e295aec09f9ab157b160001b610a4e565b6103577f6b374b3708fbbe83c2666ca9374e416e89e372d3b6f9093826057fa8e152835c60001b610a4e565b6001905090565b606061038c7f8074142761d96ce6be78566b6ea09ead32ed36822ada715c307e34441a73e56060001b610a4e565b6103b87f47d5423ea48019a8b6d70217bc23c0af9d7ac4bbd6784aebcb3f5506c6e59fbe60001b610a4e565b6103e47f314edd7d4ee1686129737a6f9f03f585d3a3dc08c5f75e2da40f8cc2a03006fa60001b610a4e565b60005b6003805490508110156104e9576104207fe5be06577ac02f645642a3c0da671370f132880df5e776d957060806f6e9d35f60001b610a4e565b61044c7f05514f30cd1998c4cab7e049f9376c56a0199476516ff530e383c0f5cdacdf6860001b610a4e565b600760066003838154811061048a577f4e487b7100000000000000000000000000000000000000000000000000000000600052603260045260246000fd5b906000526020600020016040516104a19190610d64565b908152602001604051809103902054908060018154018082558091505060019003906000526020600020016000909190919091505580806104e190611012565b9150506103e7565b506105167f029831a4c476d1f725f06378caef5c9a0362346275be00108e14fc6a0f3e052b60001b610a4e565b6105427f16b875da67d817a67006abf1a714041e0363427010315b8d804a055cbab7e1f560001b610a4e565b600780548060200260200160405190810160405280929190818152602001828054801561058e57602002820191906000526020600020905b81548152602001906001019080831161057a575b5050505050905090565b60008060009054906101000a900460ff16905090565b60606105dc7ff3b1d4710053ff7ed819fd9eabd501e56d6d18534f461f8a96f0ed1f0a72369860001b610a4e565b6106087fbb6ba75235e8e444051d675d6d27169b5a60a6114f2b9d72078e600e7f7d1d9860001b610a4e565b6106347f324edb12f57f83ffc629fedae713f64e4c879bb48cffa97c12a70df11641d54360001b610a4e565b600780548060200260200160405190810160405280929190818152602001828054801561068057602002820191906000526020600020905b81548152602001906001019080831161066c575b5050505050905090565b6000610694610598565b156106d4576040517f08c379a00000000000000000000000000000000000000000000000000000000081526004016106cb90610db8565b60405180910390fd5b6107007f713eeecea9b97fd8d1260035abc338dbd3c5538258c10f86aabf99f9749d499060001b610a4e565b61072c7f49b09c1a3e14ff807046c63b4bc56c4ccc01c00563021a9008c169d8c8dd010a60001b610a4e565b6107587f45c5651ed2050f222cf5bc3b8ab7da2c86ef462a83a105ed67234e3f09a973d660001b610a4e565b60011515600560003373ffffffffffffffffffffffffffffffffffffffff1673ffffffffffffffffffffffffffffffffffffffff16815260200190815260200160002060009054906101000a900460ff161515141561080f576107dd7f460b09d226f29caf34c2eb840152430dd5e6d78a312aae427496194ac9f86c5060001b610a4e565b6040517f7c9a1cf900000000000000000000000000000000000000000000000000000000815260040160405180910390fd5b61083b7fed65fb2c3d2cd878f8f14ce52fd33f10552b0295fcccce2d33c6e9de3bc76bf660001b610a4e565b6108677f4f13e5dbbff61962ba9cbc35350f271c4c538b5d988b634c4774deed645bcb5a60001b610a4e565b6108937f481663c6c5b5b0724f9d9a929c8a732bd471735d3f6eb7e9833f59413ed1cf5060001b610a4e565b60006006836040516108a59190610d4d565b90815260200160405180910390205490506108e27f9fdeed62a1b72ec566bbb6e6305d2aeae557562d61e44755f1696eb551a0f6e460001b610a4e565b61090e7fe15d55d910ac9e01f0a8bd78e32e96ef22222063c4673a60b83c684e185c6c5760001b610a4e565b60018161091b9190610ecf565b60068460405161092b9190610d4d565b9081526020016040518091039020819055506109697fad8be4e4a04d597d88f859e5f2dca54108688f15dc440356210054088d8c3c6860001b610a4e565b6109957f9e8618631dfb0f6cad5c67269041263224137d55e4b3065e4c22de088a85f08860001b610a4e565b6001600560003373ffffffffffffffffffffffffffffffffffffffff1673ffffffffffffffffffffffffffffffffffffffff16815260200190815260200160002060006101000a81548160ff021916908315150217905550610a197f154aaf57295b5ec7179a43b5fe8815b0a7d64f9e660d37dd03c88e56eabafa0d60001b610a4e565b610a447e72d49a722f3b0d5fee10bda14a63a594b511e9104178a46aa9302a90f4ed0460001b610a4e565b6001915050919050565b50565b6000610a64610a5f84610dfd565b610dd8565b90508083825260208201905082856020860282011115610a8357600080fd5b60005b85811015610ab35781610a998882610afb565b845260208401935060208301925050600181019050610a86565b5050509392505050565b6000610ad0610acb84610e29565b610dd8565b905082815260208101848484011115610ae857600080fd5b610af3848285610f6d565b509392505050565b600081359050610b0a81611122565b92915050565b600082601f830112610b2157600080fd5b8135610b31848260208601610a51565b91505092915050565b600082601f830112610b4b57600080fd5b8135610b5b848260208601610abd565b91505092915050565b600060208284031215610b7657600080fd5b600082013567ffffffffffffffff811115610b9057600080fd5b610b9c84828501610b10565b91505092915050565b600060208284031215610bb757600080fd5b600082013567ffffffffffffffff811115610bd157600080fd5b610bdd84828501610b3a565b91505092915050565b6000610bf28383610d3e565b60208301905092915050565b6000610c0982610e7f565b610c138185610ea2565b9350610c1e83610e5a565b8060005b83811015610c4f578151610c368882610be6565b9750610c4183610e95565b925050600181019050610c22565b5085935050505092915050565b610c6581610f37565b82525050565b6000610c7682610e8a565b610c808185610ec4565b9350610c90818560208601610f7c565b80840191505092915050565b60008154610ca981610faf565b610cb38186610ec4565b94506001821660008114610cce5760018114610cdf57610d12565b60ff19831686528186019350610d12565b610ce885610e6a565b60005b83811015610d0a57815481890152600182019150602081019050610ceb565b838801955050505b50505092915050565b6000610d28601083610eb3565b9150610d33826110f9565b602082019050919050565b610d4781610f63565b82525050565b6000610d598284610c6b565b915081905092915050565b6000610d708284610c9c565b915081905092915050565b60006020820190508181036000830152610d958184610bfe565b905092915050565b6000602082019050610db26000830184610c5c565b92915050565b60006020820190508181036000830152610dd181610d1b565b9050919050565b6000610de2610df3565b9050610dee8282610fe1565b919050565b6000604051905090565b600067ffffffffffffffff821115610e1857610e176110b9565b5b602082029050602081019050919050565b600067ffffffffffffffff821115610e4457610e436110b9565b5b610e4d826110e8565b9050602081019050919050565b6000819050602082019050919050565b60008190508160005260206000209050919050565b600081519050919050565b600081519050919050565b6000602082019050919050565b600082825260208201905092915050565b600082825260208201905092915050565b600081905092915050565b6000610eda82610f63565b9150610ee583610f63565b9250827fffffffffffffffffffffffffffffffffffffffffffffffffffffffffffffffff03821115610f1a57610f1961105b565b5b828201905092915050565b6000610f3082610f43565b9050919050565b60008115159050919050565b600073ffffffffffffffffffffffffffffffffffffffff82169050919050565b6000819050919050565b82818337600083830152505050565b60005b83811015610f9a578082015181840152602081019050610f7f565b83811115610fa9576000848401525b50505050565b60006002820490506001821680610fc757607f821691505b60208210811415610fdb57610fda61108a565b5b50919050565b610fea826110e8565b810181811067ffffffffffffffff82111715611009576110086110b9565b5b80604052505050565b600061101d82610f63565b91507fffffffffffffffffffffffffffffffffffffffffffffffffffffffffffffffff8214156110505761104f61105b565b5b600182019050919050565b7f4e487b7100000000000000000000000000000000000000000000000000000000600052601160045260246000fd5b7f4e487b7100000000000000000000000000000000000000000000000000000000600052602260045260246000fd5b7f4e487b7100000000000000000000000000000000000000000000000000000000600052604160045260246000fd5b6000601f19601f8301169050919050565b7f5061757361626c653a2070617573656400000000000000000000000000000000600082015250565b61112b81610f25565b811461113657600080fd5b5056fea2646970667358221220522886114f387a086d678f7b1028f074a951027c7847286abaf578674bcaa87b64736f6c63430008040033",
  "linkReferences": {},
  "deployedLinkReferences": {}
}