{
  "_format": "hh-sol-artifact-1",
  "contractName": "Election",
  "sourceName": "contracts/Election.sol",
  "abi": [
    {
      "inputs": [
        {
          "internalType": "address",
          "name": "_owner",
          "type": "address"
        },
        {
          "internalType": "string",
          "name": "_position",
          "type": "string"
        },
        {
          "internalType": "uint256",
          "name": "_noOfParticipants",
          "type": "uint256"
        },
        {
          "internalType": "string[]",
          "name": "_contestants",
          "type": "string[]"
        },
        {
          "internalType": "address[]",
          "name": "_contestantsAddress",
          "type": "address[]"
        }
      ],
      "stateMutability": "nonpayable",
      "type": "constructor"
    },
    {
      "inputs": [],
      "name": "AlreadyVoted",
      "type": "error"
    },
    {
      "inputs": [],
      "name": "NoOfParticatantNotMatchingParticipateName",
      "type": "error"
    },
    {
      "inputs": [],
      "name": "ResultNotYetRelease",
      "type": "error"
    },
    {
      "anonymous": false,
      "inputs": [
        {
          "indexed": false,
          "internalType": "address",
          "name": "account",
          "type": "address"
        }
      ],
      "name": "Paused",
      "type": "event"
    },
    {
      "anonymous": false,
      "inputs": [
        {
          "indexed": true,
          "internalType": "address",
          "name": "previousChairman",
          "type": "address"
        },
        {
          "indexed": true,
          "internalType": "address",
          "name": "newChairman",
          "type": "address"
        }
      ],
      "name": "RenounceRole",
      "type": "event"
    },
    {
      "anonymous": false,
      "inputs": [
        {
          "indexed": true,
          "internalType": "bytes32",
          "name": "role",
          "type": "bytes32"
        },
        {
          "indexed": true,
          "internalType": "bytes32",
          "name": "previousAdminRole",
          "type": "bytes32"
        },
        {
          "indexed": true,
          "internalType": "bytes32",
          "name": "newAdminRole",
          "type": "bytes32"
        }
      ],
      "name": "RoleAdminChanged",
      "type": "event"
    },
    {
      "anonymous": false,
      "inputs": [
        {
          "indexed": true,
          "internalType": "bytes32",
          "name": "role",
          "type": "bytes32"
        },
        {
          "indexed": true,
          "internalType": "address",
          "name": "account",
          "type": "address"
        },
        {
          "indexed": true,
          "internalType": "address",
          "name": "sender",
          "type": "address"
        }
      ],
      "name": "RoleGranted",
      "type": "event"
    },
    {
      "anonymous": false,
      "inputs": [
        {
          "indexed": true,
          "internalType": "bytes32",
          "name": "role",
          "type": "bytes32"
        },
        {
          "indexed": true,
          "internalType": "address",
          "name": "account",
          "type": "address"
        },
        {
          "indexed": true,
          "internalType": "address",
          "name": "sender",
          "type": "address"
        }
      ],
      "name": "RoleRevoked",
      "type": "event"
    },
    {
      "anonymous": false,
      "inputs": [
        {
          "indexed": false,
          "internalType": "address",
          "name": "account",
          "type": "address"
        }
      ],
      "name": "Unpaused",
      "type": "event"
    },
    {
      "inputs": [],
      "name": "CHAIRMAN_ROLE",
      "outputs": [
        {
          "internalType": "bytes32",
          "name": "",
          "type": "bytes32"
        }
      ],
      "stateMutability": "view",
      "type": "function"
    },
    {
      "inputs": [],
      "name": "DEFAULT_ADMIN_ROLE",
      "outputs": [
        {
          "internalType": "bytes32",
          "name": "",
          "type": "bytes32"
        }
      ],
      "stateMutability": "view",
      "type": "function"
    },
    {
      "inputs": [],
      "name": "DIRECTOR_ROLE",
      "outputs": [
        {
          "internalType": "bytes32",
          "name": "",
          "type": "bytes32"
        }
      ],
      "stateMutability": "view",
      "type": "function"
    },
    {
      "inputs": [],
      "name": "STUDENT_ROLE",
      "outputs": [
        {
          "internalType": "bytes32",
          "name": "",
          "type": "bytes32"
        }
      ],
      "stateMutability": "view",
      "type": "function"
    },
    {
      "inputs": [],
      "name": "TEACHER_ROLE",
      "outputs": [
        {
          "internalType": "bytes32",
          "name": "",
          "type": "bytes32"
        }
      ],
      "stateMutability": "view",
      "type": "function"
    },
    {
      "inputs": [],
      "name": "compileResult",
      "outputs": [
        {
          "components": [
            {
              "internalType": "string",
              "name": "candidatesName",
              "type": "string"
            },
            {
              "internalType": "address",
              "name": "candidatesAddress",
              "type": "address"
            },
            {
              "internalType": "uint256",
              "name": "voteCount",
              "type": "uint256"
            }
          ],
          "internalType": "struct Election.Candidates[]",
          "name": "",
          "type": "tuple[]"
        }
      ],
      "stateMutability": "nonpayable",
      "type": "function"
    },
    {
      "inputs": [
        {
          "internalType": "bytes32",
          "name": "role",
          "type": "bytes32"
        }
      ],
      "name": "getRoleAdmin",
      "outputs": [
        {
          "internalType": "bytes32",
          "name": "",
          "type": "bytes32"
        }
      ],
      "stateMutability": "view",
      "type": "function"
    },
    {
      "inputs": [
        {
          "internalType": "bytes32",
          "name": "role",
          "type": "bytes32"
        },
        {
          "internalType": "address",
          "name": "account",
          "type": "address"
        }
      ],
      "name": "grantRole",
      "outputs": [],
      "stateMutability": "nonpayable",
      "type": "function"
    },
    {
      "inputs": [
        {
          "internalType": "bytes32",
          "name": "role",
          "type": "bytes32"
        },
        {
          "internalType": "address",
          "name": "account",
          "type": "address"
        }
      ],
      "name": "hasRole",
      "outputs": [
        {
          "internalType": "bool",
          "name": "",
          "type": "bool"
        }
      ],
      "stateMutability": "view",
      "type": "function"
    },
    {
      "inputs": [],
      "name": "paused",
      "outputs": [
        {
          "internalType": "bool",
          "name": "",
          "type": "bool"
        }
      ],
      "stateMutability": "view",
      "type": "function"
    },
    {
      "inputs": [
        {
          "internalType": "address[]",
          "name": "_student",
          "type": "address[]"
        }
      ],
      "name": "registerStudent",
      "outputs": [
        {
          "internalType": "bool",
          "name": "",
          "type": "bool"
        }
      ],
      "stateMutability": "nonpayable",
      "type": "function"
    },
    {
      "inputs": [
        {
          "internalType": "bytes32",
          "name": "_role",
          "type": "bytes32"
        },
        {
          "internalType": "address",
          "name": "_account",
          "type": "address"
        }
      ],
      "name": "renounceRole",
      "outputs": [],
      "stateMutability": "nonpayable",
      "type": "function"
    },
    {
      "inputs": [],
      "name": "result",
      "outputs": [
        {
          "components": [
            {
              "internalType": "string",
              "name": "candidatesName",
              "type": "string"
            },
            {
              "internalType": "address",
              "name": "candidatesAddress",
              "type": "address"
            },
            {
              "internalType": "uint256",
              "name": "voteCount",
              "type": "uint256"
            }
          ],
          "internalType": "struct Election.Candidates[]",
          "name": "",
          "type": "tuple[]"
        }
      ],
      "stateMutability": "view",
      "type": "function"
    },
    {
      "inputs": [
        {
          "internalType": "bytes32",
          "name": "_role",
          "type": "bytes32"
        },
        {
          "internalType": "address",
          "name": "_account",
          "type": "address"
        }
      ],
      "name": "revokeRole",
      "outputs": [],
      "stateMutability": "nonpayable",
      "type": "function"
    },
    {
      "inputs": [
        {
          "internalType": "address[]",
          "name": "_Bod",
          "type": "address[]"
        }
      ],
      "name": "setupBOD",
      "outputs": [
        {
          "internalType": "bool",
          "name": "",
          "type": "bool"
        }
      ],
      "stateMutability": "nonpayable",
      "type": "function"
    },
    {
      "inputs": [
        {
          "internalType": "address[]",
          "name": "_teacher",
          "type": "address[]"
        }
      ],
      "name": "setupTeachers",
      "outputs": [
        {
          "internalType": "bool",
          "name": "",
          "type": "bool"
        }
      ],
      "stateMutability": "nonpayable",
      "type": "function"
    },
    {
      "inputs": [],
      "name": "showResult",
      "outputs": [
        {
          "internalType": "bool",
          "name": "",
          "type": "bool"
        }
      ],
      "stateMutability": "nonpayable",
      "type": "function"
    },
    {
      "inputs": [
        {
          "internalType": "bytes4",
          "name": "interfaceId",
          "type": "bytes4"
        }
      ],
      "name": "supportsInterface",
      "outputs": [
        {
          "internalType": "bool",
          "name": "",
          "type": "bool"
        }
      ],
      "stateMutability": "view",
      "type": "function"
    },
    {
      "inputs": [
        {
          "internalType": "address",
          "name": "_participantsAddress",
          "type": "address"
        }
      ],
      "name": "vote",
      "outputs": [
        {
          "internalType": "bool",
          "name": "",
          "type": "bool"
        }
      ],
      "stateMutability": "nonpayable",
      "type": "function"
    }
  ],
  "bytecode": "0x60806040523480156200001157600080fd5b50604051620030a3380380620030a3833981810160405281019062000037919062000a19565b8460008060006101000a81548160ff021916908315150217905550620000a97f36a5c4aaacb6b388bbd448bf11096b7dafc5652bcc9046084fd0e95b1fb0b2cc7fd16e204b8a42a15ab0ea6bb8ec1ecdfbe69f38074fc865323af19efe7d9573d96200041e60201b620010d41760201c565b620001007fd16e204b8a42a15ab0ea6bb8ec1ecdfbe69f38074fc865323af19efe7d9573d97fdc1958ce1178d6eb32ccc146dcea8933f1978155832913ec88fa509962e1b4136200041e60201b620010d41760201c565b620001577f15e007796fc034bf8274acdcfbd2f48124815698ba6f70c109f3423981a7052f7fdc1958ce1178d6eb32ccc146dcea8933f1978155832913ec88fa509962e1b4136200041e60201b620010d41760201c565b6200018e7fdc1958ce1178d6eb32ccc146dcea8933f1978155832913ec88fa509962e1b413806200041e60201b620010d41760201c565b620001c57f15e007796fc034bf8274acdcfbd2f48124815698ba6f70c109f3423981a7052f826200048260201b620011301760201c565b620001fc7fdc1958ce1178d6eb32ccc146dcea8933f1978155832913ec88fa509962e1b413826200048260201b620011301760201c565b508151831462000238576040517f0e8cddf100000000000000000000000000000000000000000000000000000000815260040160405180910390fd5b83600290805190602001906200025092919062000606565b508260038190555081600490805190602001906200027092919062000697565b50806005908051906020019062000289929190620006fe565b5060005b82518110156200041257600060086000848481518110620002d7577f4e487b7100000000000000000000000000000000000000000000000000000000600052603260045260246000fd5b602002602001015173ffffffffffffffffffffffffffffffffffffffff1673ffffffffffffffffffffffffffffffffffffffff168152602001908152602001600020905083828151811062000355577f4e487b7100000000000000000000000000000000000000000000000000000000600052603260045260246000fd5b60200260200101518160000190805190602001906200037692919062000606565b50828281518110620003b1577f4e487b7100000000000000000000000000000000000000000000000000000000600052603260045260246000fd5b60200260200101518160010160006101000a81548173ffffffffffffffffffffffffffffffffffffffff021916908373ffffffffffffffffffffffffffffffffffffffff160217905550508080620004099062000c83565b9150506200028d565b50505050505062000da3565b600062000431836200057360201b60201c565b90508160016000858152602001908152602001600020600101819055508181847fbd79b86ffe0ab8e8776151514217cd7cacd52c909f66475c3af44e129f0b00ff60405160405180910390a4505050565b6200049482826200059360201b60201c565b6200056f57600180600084815260200190815260200160002060000160008373ffffffffffffffffffffffffffffffffffffffff1673ffffffffffffffffffffffffffffffffffffffff16815260200190815260200160002060006101000a81548160ff02191690831515021790555062000514620005fe60201b60201c565b73ffffffffffffffffffffffffffffffffffffffff168173ffffffffffffffffffffffffffffffffffffffff16837f2f8788117e7eff1d82e926ec794901d17c78024a50270940304540a733656f0d60405160405180910390a45b5050565b600060016000838152602001908152602001600020600101549050919050565b60006001600084815260200190815260200160002060000160008373ffffffffffffffffffffffffffffffffffffffff1673ffffffffffffffffffffffffffffffffffffffff16815260200190815260200160002060009054906101000a900460ff16905092915050565b600033905090565b828054620006149062000c17565b90600052602060002090601f01602090048101928262000638576000855562000684565b82601f106200065357805160ff191683800117855562000684565b8280016001018555821562000684579182015b828111156200068357825182559160200191906001019062000666565b5b5090506200069391906200078d565b5090565b828054828255906000526020600020908101928215620006eb579160200282015b82811115620006ea578251829080519060200190620006d992919062000606565b5091602001919060010190620006b8565b5b509050620006fa9190620007ac565b5090565b8280548282559060005260206000209081019282156200077a579160200282015b82811115620007795782518260006101000a81548173ffffffffffffffffffffffffffffffffffffffff021916908373ffffffffffffffffffffffffffffffffffffffff160217905550916020019190600101906200071f565b5b5090506200078991906200078d565b5090565b5b80821115620007a85760008160009055506001016200078e565b5090565b5b80821115620007d05760008181620007c69190620007d4565b50600101620007ad565b5090565b508054620007e29062000c17565b6000825580601f10620007f6575062000817565b601f0160209004906000526020600020908101906200081691906200078d565b5b50565b6000620008316200082b8462000b0f565b62000ae6565b905080838252602082019050828560208602820111156200085157600080fd5b60005b858110156200088557816200086a888262000964565b84526020840193506020830192505060018101905062000854565b5050509392505050565b6000620008a6620008a08462000b3e565b62000ae6565b90508083825260208201905082856020860282011115620008c657600080fd5b60005b858110156200091557815167ffffffffffffffff811115620008ea57600080fd5b808601620008f98982620009d5565b85526020850194506020840193505050600181019050620008c9565b5050509392505050565b600062000936620009308462000b6d565b62000ae6565b9050828152602081018484840111156200094f57600080fd5b6200095c84828562000be1565b509392505050565b600081519050620009758162000d6f565b92915050565b600082601f8301126200098d57600080fd5b81516200099f8482602086016200081a565b91505092915050565b600082601f830112620009ba57600080fd5b8151620009cc8482602086016200088f565b91505092915050565b600082601f830112620009e757600080fd5b8151620009f98482602086016200091f565b91505092915050565b60008151905062000a138162000d89565b92915050565b600080600080600060a0868803121562000a3257600080fd5b600062000a428882890162000964565b955050602086015167ffffffffffffffff81111562000a6057600080fd5b62000a6e88828901620009d5565b945050604062000a818882890162000a02565b935050606086015167ffffffffffffffff81111562000a9f57600080fd5b62000aad88828901620009a8565b925050608086015167ffffffffffffffff81111562000acb57600080fd5b62000ad9888289016200097b565b9150509295509295909350565b600062000af262000b05565b905062000b00828262000c4d565b919050565b6000604051905090565b600067ffffffffffffffff82111562000b2d5762000b2c62000d2f565b5b602082029050602081019050919050565b600067ffffffffffffffff82111562000b5c5762000b5b62000d2f565b5b602082029050602081019050919050565b600067ffffffffffffffff82111562000b8b5762000b8a62000d2f565b5b62000b968262000d5e565b9050602081019050919050565b600062000bb08262000bb7565b9050919050565b600073ffffffffffffffffffffffffffffffffffffffff82169050919050565b6000819050919050565b60005b8381101562000c0157808201518184015260208101905062000be4565b8381111562000c11576000848401525b50505050565b6000600282049050600182168062000c3057607f821691505b6020821081141562000c475762000c4662000d00565b5b50919050565b62000c588262000d5e565b810181811067ffffffffffffffff8211171562000c7a5762000c7962000d2f565b5b80604052505050565b600062000c908262000bd7565b91507fffffffffffffffffffffffffffffffffffffffffffffffffffffffffffffffff82141562000cc65762000cc562000cd1565b5b600182019050919050565b7f4e487b7100000000000000000000000000000000000000000000000000000000600052601160045260246000fd5b7f4e487b7100000000000000000000000000000000000000000000000000000000600052602260045260246000fd5b7f4e487b7100000000000000000000000000000000000000000000000000000000600052604160045260246000fd5b6000601f19601f8301169050919050565b62000d7a8162000ba3565b811462000d8657600080fd5b50565b62000d948162000bd7565b811462000da057600080fd5b50565b6122f08062000db36000396000f3fe608060405234801561001057600080fd5b50600436106101215760003560e01c8063531cbb12116100ad57806391d148541161007157806391d1485414610332578063a097dc4b14610362578063a217fddf14610380578063d547741f1461039e578063f7be43fb146103ba57610121565b8063531cbb121461028a5780635c975abb146102a857806365372147146102c65780636dd7d8ea146102e457806386e5c15a1461031457610121565b80632f2ff15d116100f45780632f2ff15d146101e6578063301aee011461020257806333ee31311461023257806336568abe146102505780633e4f9cae1461026c57610121565b806301ffc9a7146101265780630d60b1d0146101565780631fc26a5614610186578063248a9ca3146101b6575b600080fd5b610140600480360381019061013b9190611949565b6103d8565b60405161014d9190611c7b565b60405180910390f35b610170600480360381019061016b91906118a3565b610452565b60405161017d9190611c7b565b60405180910390f35b6101a0600480360381019061019b91906118a3565b6104ea565b6040516101ad9190611c7b565b60405180910390f35b6101d060048036038101906101cb91906118e4565b610582565b6040516101dd9190611c96565b60405180910390f35b61020060048036038101906101fb919061190d565b6105a2565b005b61021c600480360381019061021791906118a3565b6105cb565b6040516102299190611c7b565b60405180910390f35b61023a610663565b6040516102479190611c7b565b60405180910390f35b61026a6004803603810190610265919061190d565b610687565b005b610274610837565b6040516102819190611c96565b60405180910390f35b61029261085b565b60405161029f9190611c59565b60405180910390f35b6102b0610be3565b6040516102bd9190611c7b565b60405180910390f35b6102ce610bf9565b6040516102db9190611c59565b60405180910390f35b6102fe60048036038101906102f9919061187a565b610d98565b60405161030b9190611c7b565b60405180910390f35b61031c610f63565b6040516103299190611c96565b60405180910390f35b61034c6004803603810190610347919061190d565b610f87565b6040516103599190611c7b565b60405180910390f35b61036a610ff2565b6040516103779190611c96565b60405180910390f35b610388611016565b6040516103959190611c96565b60405180910390f35b6103b860048036038101906103b3919061190d565b61101d565b005b6103c26110b0565b6040516103cf9190611c96565b60405180910390f35b60007f7965db0b000000000000000000000000000000000000000000000000000000007bffffffffffffffffffffffffffffffffffffffffffffffffffffffff1916827bffffffffffffffffffffffffffffffffffffffffffffffffffffffff1916148061044b575061044a82611210565b5b9050919050565b600080600090505b82518110156104e0576104cd7f15e007796fc034bf8274acdcfbd2f48124815698ba6f70c109f3423981a7052f8483815181106104c0577f4e487b7100000000000000000000000000000000000000000000000000000000600052603260045260246000fd5b6020026020010151611130565b80806104d890612023565b91505061045a565b5060019050919050565b600080600090505b8251811015610578576105657f36a5c4aaacb6b388bbd448bf11096b7dafc5652bcc9046084fd0e95b1fb0b2cc848381518110610558577f4e487b7100000000000000000000000000000000000000000000000000000000600052603260045260246000fd5b6020026020010151611130565b808061057090612023565b9150506104f2565b5060019050919050565b600060016000838152602001908152602001600020600101549050919050565b6105ab82610582565b6105bc816105b761127a565b611282565b6105c68383611130565b505050565b600080600090505b8251811015610659576106467fd16e204b8a42a15ab0ea6bb8ec1ecdfbe69f38074fc865323af19efe7d9573d9848381518110610639577f4e487b7100000000000000000000000000000000000000000000000000000000600052603260045260246000fd5b6020026020010151611130565b808061065190612023565b9150506105d3565b5060019050919050565b60006001600660016101000a81548160ff0219169083151502179055506001905090565b7fdc1958ce1178d6eb32ccc146dcea8933f1978155832913ec88fa509962e1b4136106b9816106b461127a565b611282565b7fdc1958ce1178d6eb32ccc146dcea8933f1978155832913ec88fa509962e1b413831461071b576040517f08c379a000000000000000000000000000000000000000000000000000000000815260040161071290611d53565b60405180910390fd5b6107457f15e007796fc034bf8274acdcfbd2f48124815698ba6f70c109f3423981a7052f83610f87565b610784576040517f08c379a000000000000000000000000000000000000000000000000000000000815260040161077b90611d33565b60405180910390fd5b6107ae7fdc1958ce1178d6eb32ccc146dcea8933f1978155832913ec88fa509962e1b41383611130565b6107d87fdc1958ce1178d6eb32ccc146dcea8933f1978155832913ec88fa509962e1b4133361131f565b8173ffffffffffffffffffffffffffffffffffffffff163373ffffffffffffffffffffffffffffffffffffffff167f53cb1046cc84eb7dcfb14a0610185dd97c2c40e311ef59a28c5622cf3942a3b860405160405180910390a3505050565b7f15e007796fc034bf8274acdcfbd2f48124815698ba6f70c109f3423981a7052f81565b606060005b600580549050811015610a9357600060086000600584815481106108ad577f4e487b7100000000000000000000000000000000000000000000000000000000600052603260045260246000fd5b9060005260206000200160009054906101000a900473ffffffffffffffffffffffffffffffffffffffff1673ffffffffffffffffffffffffffffffffffffffff1673ffffffffffffffffffffffffffffffffffffffff16815260200190815260200160002090506009600060058481548110610952577f4e487b7100000000000000000000000000000000000000000000000000000000600052603260045260246000fd5b9060005260206000200160009054906101000a900473ffffffffffffffffffffffffffffffffffffffff1673ffffffffffffffffffffffffffffffffffffffff1673ffffffffffffffffffffffffffffffffffffffff168152602001908152602001600020548160020181905550600a8190806001815401808255809150506001900390600052602060002090600302016000909190919091506000820181600001908054610a0090611fc0565b610a0b9291906116fb565b506001820160009054906101000a900473ffffffffffffffffffffffffffffffffffffffff168160010160006101000a81548173ffffffffffffffffffffffffffffffffffffffff021916908373ffffffffffffffffffffffffffffffffffffffff160217905550600282015481600201555050508080610a8b90612023565b915050610860565b50600a805480602002602001604051908101604052809291908181526020016000905b82821015610bda5783829060005260206000209060030201604051806060016040529081600082018054610ae990611fc0565b80601f0160208091040260200160405190810160405280929190818152602001828054610b1590611fc0565b8015610b625780601f10610b3757610100808354040283529160200191610b62565b820191906000526020600020905b815481529060010190602001808311610b4557829003601f168201915b505050505081526020016001820160009054906101000a900473ffffffffffffffffffffffffffffffffffffffff1673ffffffffffffffffffffffffffffffffffffffff1673ffffffffffffffffffffffffffffffffffffffff16815260200160028201548152505081526020019060010190610ab6565b50505050905090565b60008060009054906101000a900460ff16905090565b606060001515600660019054906101000a900460ff1615151415610c49576040517fb34ae8a900000000000000000000000000000000000000000000000000000000815260040160405180910390fd5b600a805480602002602001604051908101604052809291908181526020016000905b82821015610d8f5783829060005260206000209060030201604051806060016040529081600082018054610c9e90611fc0565b80601f0160208091040260200160405190810160405280929190818152602001828054610cca90611fc0565b8015610d175780601f10610cec57610100808354040283529160200191610d17565b820191906000526020600020905b815481529060010190602001808311610cfa57829003601f168201915b505050505081526020016001820160009054906101000a900473ffffffffffffffffffffffffffffffffffffffff1673ffffffffffffffffffffffffffffffffffffffff1673ffffffffffffffffffffffffffffffffffffffff16815260200160028201548152505081526020019060010190610c6b565b50505050905090565b6000610da2610be3565b15610de2576040517f08c379a0000000000000000000000000000000000000000000000000000000008152600401610dd990611d13565b60405180910390fd5b60011515600760003373ffffffffffffffffffffffffffffffffffffffff1673ffffffffffffffffffffffffffffffffffffffff16815260200190815260200160002060009054906101000a900460ff1615151415610e6d576040517f7c9a1cf900000000000000000000000000000000000000000000000000000000815260040160405180910390fd5b6000600960008473ffffffffffffffffffffffffffffffffffffffff1673ffffffffffffffffffffffffffffffffffffffff168152602001908152602001600020549050600181610ebe9190611e35565b600960008573ffffffffffffffffffffffffffffffffffffffff1673ffffffffffffffffffffffffffffffffffffffff168152602001908152602001600020819055506001600760003373ffffffffffffffffffffffffffffffffffffffff1673ffffffffffffffffffffffffffffffffffffffff16815260200190815260200160002060006101000a81548160ff0219169083151502179055506001915050919050565b7fd16e204b8a42a15ab0ea6bb8ec1ecdfbe69f38074fc865323af19efe7d9573d981565b60006001600084815260200190815260200160002060000160008373ffffffffffffffffffffffffffffffffffffffff1673ffffffffffffffffffffffffffffffffffffffff16815260200190815260200160002060009054906101000a900460ff16905092915050565b7fdc1958ce1178d6eb32ccc146dcea8933f1978155832913ec88fa509962e1b41381565b6000801b81565b61102682610582565b6110378161103261127a565b611282565b6110617fdc1958ce1178d6eb32ccc146dcea8933f1978155832913ec88fa509962e1b41383610f87565b156110a1576040517f08c379a000000000000000000000000000000000000000000000000000000000815260040161109890611cf3565b60405180910390fd5b6110ab838361131f565b505050565b7f36a5c4aaacb6b388bbd448bf11096b7dafc5652bcc9046084fd0e95b1fb0b2cc81565b60006110df83610582565b90508160016000858152602001908152602001600020600101819055508181847fbd79b86ffe0ab8e8776151514217cd7cacd52c909f66475c3af44e129f0b00ff60405160405180910390a4505050565b61113a8282610f87565b61120c57600180600084815260200190815260200160002060000160008373ffffffffffffffffffffffffffffffffffffffff1673ffffffffffffffffffffffffffffffffffffffff16815260200190815260200160002060006101000a81548160ff0219169083151502179055506111b161127a565b73ffffffffffffffffffffffffffffffffffffffff168173ffffffffffffffffffffffffffffffffffffffff16837f2f8788117e7eff1d82e926ec794901d17c78024a50270940304540a733656f0d60405160405180910390a45b5050565b60007f01ffc9a7000000000000000000000000000000000000000000000000000000007bffffffffffffffffffffffffffffffffffffffffffffffffffffffff1916827bffffffffffffffffffffffffffffffffffffffffffffffffffffffff1916149050919050565b600033905090565b61128c8282610f87565b61131b576112b18173ffffffffffffffffffffffffffffffffffffffff166014611401565b6112bf8360001c6020611401565b6040516020016112d0929190611c1f565b6040516020818303038152906040526040517f08c379a00000000000000000000000000000000000000000000000000000000081526004016113129190611cb1565b60405180910390fd5b5050565b6113298282610f87565b156113fd5760006001600084815260200190815260200160002060000160008373ffffffffffffffffffffffffffffffffffffffff1673ffffffffffffffffffffffffffffffffffffffff16815260200190815260200160002060006101000a81548160ff0219169083151502179055506113a261127a565b73ffffffffffffffffffffffffffffffffffffffff168173ffffffffffffffffffffffffffffffffffffffff16837ff6391f5c32d9c69d2a47ea670b442974b53935d1edc7fd64eb21e047a839171b60405160405180910390a45b5050565b6060600060028360026114149190611e8b565b61141e9190611e35565b67ffffffffffffffff81111561145d577f4e487b7100000000000000000000000000000000000000000000000000000000600052604160045260246000fd5b6040519080825280601f01601f19166020018201604052801561148f5781602001600182028036833780820191505090505b5090507f3000000000000000000000000000000000000000000000000000000000000000816000815181106114ed577f4e487b7100000000000000000000000000000000000000000000000000000000600052603260045260246000fd5b60200101907effffffffffffffffffffffffffffffffffffffffffffffffffffffffffffff1916908160001a9053507f780000000000000000000000000000000000000000000000000000000000000081600181518110611577577f4e487b7100000000000000000000000000000000000000000000000000000000600052603260045260246000fd5b60200101907effffffffffffffffffffffffffffffffffffffffffffffffffffffffffffff1916908160001a905350600060018460026115b79190611e8b565b6115c19190611e35565b90505b60018111156116ad577f3031323334353637383961626364656600000000000000000000000000000000600f861660108110611629577f4e487b7100000000000000000000000000000000000000000000000000000000600052603260045260246000fd5b1a60f81b828281518110611666577f4e487b7100000000000000000000000000000000000000000000000000000000600052603260045260246000fd5b60200101907effffffffffffffffffffffffffffffffffffffffffffffffffffffffffffff1916908160001a905350600485901c9450806116a690611f96565b90506115c4565b50600084146116f1576040517f08c379a00000000000000000000000000000000000000000000000000000000081526004016116e890611cd3565b60405180910390fd5b8091505092915050565b82805461170790611fc0565b90600052602060002090601f0160209004810192826117295760008555611777565b82601f1061173a5780548555611777565b8280016001018555821561177757600052602060002091601f016020900482015b8281111561177657825482559160010191906001019061175b565b5b5090506117849190611788565b5090565b5b808211156117a1576000816000905550600101611789565b5090565b60006117b86117b384611d98565b611d73565b905080838252602082019050828560208602820111156117d757600080fd5b60005b8581101561180757816117ed8882611811565b8452602084019350602083019250506001810190506117da565b5050509392505050565b60008135905061182081612275565b92915050565b600082601f83011261183757600080fd5b81356118478482602086016117a5565b91505092915050565b60008135905061185f8161228c565b92915050565b600081359050611874816122a3565b92915050565b60006020828403121561188c57600080fd5b600061189a84828501611811565b91505092915050565b6000602082840312156118b557600080fd5b600082013567ffffffffffffffff8111156118cf57600080fd5b6118db84828501611826565b91505092915050565b6000602082840312156118f657600080fd5b600061190484828501611850565b91505092915050565b6000806040838503121561192057600080fd5b600061192e85828601611850565b925050602061193f85828601611811565b9150509250929050565b60006020828403121561195b57600080fd5b600061196984828501611865565b91505092915050565b600061197e8383611bc0565b905092915050565b61198f81611ee5565b82525050565b60006119a082611dd4565b6119aa8185611df7565b9350836020820285016119bc85611dc4565b8060005b858110156119f857848403895281516119d98582611972565b94506119e483611dea565b925060208a019950506001810190506119c0565b50829750879550505050505092915050565b611a1381611ef7565b82525050565b611a2281611f03565b82525050565b6000611a3382611ddf565b611a3d8185611e08565b9350611a4d818560208601611f63565b611a56816120f9565b840191505092915050565b6000611a6c82611ddf565b611a768185611e19565b9350611a86818560208601611f63565b611a8f816120f9565b840191505092915050565b6000611aa582611ddf565b611aaf8185611e2a565b9350611abf818560208601611f63565b80840191505092915050565b6000611ad8602083611e19565b9150611ae38261210a565b602082019050919050565b6000611afb601f83611e19565b9150611b0682612133565b602082019050919050565b6000611b1e601083611e19565b9150611b298261215c565b602082019050919050565b6000611b41603683611e19565b9150611b4c82612185565b604082019050919050565b6000611b64602883611e19565b9150611b6f826121d4565b604082019050919050565b6000611b87601783611e2a565b9150611b9282612223565b601782019050919050565b6000611baa601183611e2a565b9150611bb58261224c565b601182019050919050565b60006060830160008301518482036000860152611bdd8282611a28565b9150506020830151611bf26020860182611986565b506040830151611c056040860182611c10565b508091505092915050565b611c1981611f59565b82525050565b6000611c2a82611b7a565b9150611c368285611a9a565b9150611c4182611b9d565b9150611c4d8284611a9a565b91508190509392505050565b60006020820190508181036000830152611c738184611995565b905092915050565b6000602082019050611c906000830184611a0a565b92915050565b6000602082019050611cab6000830184611a19565b92915050565b60006020820190508181036000830152611ccb8184611a61565b905092915050565b60006020820190508181036000830152611cec81611acb565b9050919050565b60006020820190508181036000830152611d0c81611aee565b9050919050565b60006020820190508181036000830152611d2c81611b11565b9050919050565b60006020820190508181036000830152611d4c81611b34565b9050919050565b60006020820190508181036000830152611d6c81611b57565b9050919050565b6000611d7d611d8e565b9050611d898282611ff2565b919050565b6000604051905090565b600067ffffffffffffffff821115611db357611db26120ca565b5b602082029050602081019050919050565b6000819050602082019050919050565b600081519050919050565b600081519050919050565b6000602082019050919050565b600082825260208201905092915050565b600082825260208201905092915050565b600082825260208201905092915050565b600081905092915050565b6000611e4082611f59565b9150611e4b83611f59565b9250827fffffffffffffffffffffffffffffffffffffffffffffffffffffffffffffffff03821115611e8057611e7f61206c565b5b828201905092915050565b6000611e9682611f59565b9150611ea183611f59565b9250817fffffffffffffffffffffffffffffffffffffffffffffffffffffffffffffffff0483118215151615611eda57611ed961206c565b5b828202905092915050565b6000611ef082611f39565b9050919050565b60008115159050919050565b6000819050919050565b60007fffffffff0000000000000000000000000000000000000000000000000000000082169050919050565b600073ffffffffffffffffffffffffffffffffffffffff82169050919050565b6000819050919050565b60005b83811015611f81578082015181840152602081019050611f66565b83811115611f90576000848401525b50505050565b6000611fa182611f59565b91506000821415611fb557611fb461206c565b5b600182039050919050565b60006002820490506001821680611fd857607f821691505b60208210811415611fec57611feb61209b565b5b50919050565b611ffb826120f9565b810181811067ffffffffffffffff8211171561201a576120196120ca565b5b80604052505050565b600061202e82611f59565b91507fffffffffffffffffffffffffffffffffffffffffffffffffffffffffffffffff8214156120615761206061206c565b5b600182019050919050565b7f4e487b7100000000000000000000000000000000000000000000000000000000600052601160045260246000fd5b7f4e487b7100000000000000000000000000000000000000000000000000000000600052602260045260246000fd5b7f4e487b7100000000000000000000000000000000000000000000000000000000600052604160045260246000fd5b6000601f19601f8301169050919050565b7f537472696e67733a20686578206c656e67746820696e73756666696369656e74600082015250565b7f43686169726d616e20726f6c652063616e6e6f74206265207265766f6b656400600082015250565b7f5061757361626c653a2070617573656400000000000000000000000000000000600082015250565b7f546865206164647265737320666f7220746865206e65772063686169726d616e60008201527f206973206e6f742061206469726563746f722079657400000000000000000000602082015250565b7f4f6e6c79207468652063686169726d616e20726f6c652063616e20626520726560008201527f6e6f756e6365642e000000000000000000000000000000000000000000000000602082015250565b7f416363657373436f6e74726f6c3a206163636f756e7420000000000000000000600082015250565b7f206973206d697373696e6720726f6c6520000000000000000000000000000000600082015250565b61227e81611ee5565b811461228957600080fd5b50565b61229581611f03565b81146122a057600080fd5b50565b6122ac81611f0d565b81146122b757600080fd5b5056fea26469706673582212204270e2b8a779cdd442ace5c151d2f64a2492e0c011eca6db77d4196de4e9978464736f6c63430008040033",
  "linkReferences": {},
  "deployedLinkReferences": {}
}