{
  "_format": "hh-sol-artifact-1",
  "contractName": "Election",
  "sourceName": "contracts/Election.sol",
  "abi": [
    {
      "inputs": [
        {
          "internalType": "string",
          "name": "_position",
          "type": "string"
        },
        {
          "internalType": "uint256",
          "name": "_noOfParticipants",
          "type": "uint256"
        },
        {
          "internalType": "address[]",
          "name": "_participantsAddress",
          "type": "address[]"
        }
      ],
      "stateMutability": "nonpayable",
      "type": "constructor"
    },
    {
      "inputs": [],
      "name": "AlreadyVoted",
      "type": "error"
    },
    {
      "inputs": [],
      "name": "NoOfParticatantNotMatchingParticipateId",
      "type": "error"
    },
    {
      "inputs": [],
      "name": "ResultNotYetRelease",
      "type": "error"
    },
    {
      "anonymous": false,
      "inputs": [
        {
          "indexed": false,
          "internalType": "address",
          "name": "account",
          "type": "address"
        }
      ],
      "name": "Paused",
      "type": "event"
    },
    {
      "anonymous": false,
      "inputs": [
        {
          "indexed": false,
          "internalType": "address",
          "name": "account",
          "type": "address"
        }
      ],
      "name": "Unpaused",
      "type": "event"
    },
    {
      "inputs": [],
      "name": "compileResult",
      "outputs": [
        {
          "internalType": "uint256[]",
          "name": "",
          "type": "uint256[]"
        }
      ],
      "stateMutability": "nonpayable",
      "type": "function"
    },
    {
      "inputs": [],
      "name": "paused",
      "outputs": [
        {
          "internalType": "bool",
          "name": "",
          "type": "bool"
        }
      ],
      "stateMutability": "view",
      "type": "function"
    },
    {
      "inputs": [
        {
          "internalType": "address[]",
          "name": "_student",
          "type": "address[]"
        }
      ],
      "name": "registerStudent",
      "outputs": [
        {
          "internalType": "bool",
          "name": "",
          "type": "bool"
        }
      ],
      "stateMutability": "nonpayable",
      "type": "function"
    },
    {
      "inputs": [],
      "name": "result",
      "outputs": [
        {
          "internalType": "uint256[]",
          "name": "",
          "type": "uint256[]"
        }
      ],
      "stateMutability": "view",
      "type": "function"
    },
    {
      "inputs": [
        {
          "internalType": "address[]",
          "name": "_Bod",
          "type": "address[]"
        }
      ],
      "name": "setupBOD",
      "outputs": [
        {
          "internalType": "bool",
          "name": "",
          "type": "bool"
        }
      ],
      "stateMutability": "nonpayable",
      "type": "function"
    },
    {
      "inputs": [
        {
          "internalType": "address[]",
          "name": "_teacher",
          "type": "address[]"
        }
      ],
      "name": "setupTeachers",
      "outputs": [
        {
          "internalType": "bool",
          "name": "",
          "type": "bool"
        }
      ],
      "stateMutability": "nonpayable",
      "type": "function"
    },
    {
      "inputs": [],
      "name": "showResult",
      "outputs": [
        {
          "internalType": "bool",
          "name": "",
          "type": "bool"
        }
      ],
      "stateMutability": "nonpayable",
      "type": "function"
    },
    {
      "inputs": [
        {
          "internalType": "address",
          "name": "_participantsAddress",
          "type": "address"
        }
      ],
      "name": "vote",
      "outputs": [
        {
          "internalType": "bool",
          "name": "",
          "type": "bool"
        }
      ],
      "stateMutability": "nonpayable",
      "type": "function"
    }
  ],
  "bytecode": "0x60806040523480156200001157600080fd5b50604051620010383803806200103883398181016040528101906200003791906200034f565b60008060006101000a81548160ff021916908315150217905550805182146200008c576040517f2dc0756e00000000000000000000000000000000000000000000000000000000815260040160405180910390fd5b8260019080519060200190620000a4929190620000ce565b50816002819055508060039080519060200190620000c49291906200015f565b50505050620005e8565b828054620000dc90620004d9565b90600052602060002090601f0160209004810192826200010057600085556200014c565b82601f106200011b57805160ff19168380011785556200014c565b828001600101855582156200014c579182015b828111156200014b5782518255916020019190600101906200012e565b5b5090506200015b9190620001ee565b5090565b828054828255906000526020600020908101928215620001db579160200282015b82811115620001da5782518260006101000a81548173ffffffffffffffffffffffffffffffffffffffff021916908373ffffffffffffffffffffffffffffffffffffffff1602179055509160200191906001019062000180565b5b509050620001ea9190620001ee565b5090565b5b8082111562000209576000816000905550600101620001ef565b5090565b6000620002246200021e8462000400565b620003d7565b905080838252602082019050828560208602820111156200024457600080fd5b60005b858110156200027857816200025d8882620002c7565b84526020840193506020830192505060018101905062000247565b5050509392505050565b60006200029962000293846200042f565b620003d7565b905082815260208101848484011115620002b257600080fd5b620002bf848285620004a3565b509392505050565b600081519050620002d881620005b4565b92915050565b600082601f830112620002f057600080fd5b8151620003028482602086016200020d565b91505092915050565b600082601f8301126200031d57600080fd5b81516200032f84826020860162000282565b91505092915050565b6000815190506200034981620005ce565b92915050565b6000806000606084860312156200036557600080fd5b600084015167ffffffffffffffff8111156200038057600080fd5b6200038e868287016200030b565b9350506020620003a18682870162000338565b925050604084015167ffffffffffffffff811115620003bf57600080fd5b620003cd86828701620002de565b9150509250925092565b6000620003e3620003f6565b9050620003f182826200050f565b919050565b6000604051905090565b600067ffffffffffffffff8211156200041e576200041d62000574565b5b602082029050602081019050919050565b600067ffffffffffffffff8211156200044d576200044c62000574565b5b6200045882620005a3565b9050602081019050919050565b6000620004728262000479565b9050919050565b600073ffffffffffffffffffffffffffffffffffffffff82169050919050565b6000819050919050565b60005b83811015620004c3578082015181840152602081019050620004a6565b83811115620004d3576000848401525b50505050565b60006002820490506001821680620004f257607f821691505b6020821081141562000509576200050862000545565b5b50919050565b6200051a82620005a3565b810181811067ffffffffffffffff821117156200053c576200053b62000574565b5b80604052505050565b7f4e487b7100000000000000000000000000000000000000000000000000000000600052602260045260246000fd5b7f4e487b7100000000000000000000000000000000000000000000000000000000600052604160045260246000fd5b6000601f19601f8301169050919050565b620005bf8162000465565b8114620005cb57600080fd5b50565b620005d98162000499565b8114620005e557600080fd5b50565b610a4080620005f86000396000f3fe608060405234801561001057600080fd5b50600436106100885760003560e01c8063531cbb121161005b578063531cbb121461013b5780635c975abb1461015957806365372147146101775780636dd7d8ea1461019557610088565b80630d60b1d01461008d5780631fc26a56146100bd578063301aee01146100ed57806333ee31311461011d575b600080fd5b6100a760048036038101906100a29190610653565b6101c5565b6040516100b4919061076d565b60405180910390f35b6100d760048036038101906100d29190610653565b6101cc565b6040516100e4919061076d565b60405180910390f35b61010760048036038101906101029190610653565b6101d3565b604051610114919061076d565b60405180910390f35b6101256101da565b604051610132919061076d565b60405180910390f35b6101436101fe565b604051610150919061074b565b60405180910390f35b610161610346565b60405161016e919061076d565b60405180910390f35b61017f61035c565b60405161018c919061074b565b60405180910390f35b6101af60048036038101906101aa919061062a565b6103b4565b6040516101bc919061076d565b60405180910390f35b6000919050565b6000919050565b6000919050565b60006001600460016101000a81548160ff0219169083151502179055506001905090565b606060005b6003805490508110156102ef5760076006600060038481548110610250577f4e487b7100000000000000000000000000000000000000000000000000000000600052603260045260246000fd5b9060005260206000200160009054906101000a900473ffffffffffffffffffffffffffffffffffffffff1673ffffffffffffffffffffffffffffffffffffffff1673ffffffffffffffffffffffffffffffffffffffff16815260200190815260200160002054908060018154018082558091505060019003906000526020600020016000909190919091505580806102e790610912565b915050610203565b50600780548060200260200160405190810160405280929190818152602001828054801561033c57602002820191906000526020600020905b815481526020019060010190808311610328575b5050505050905090565b60008060009054906101000a900460ff16905090565b606060078054806020026020016040519081016040528092919081815260200182805480156103aa57602002820191906000526020600020905b815481526020019060010190808311610396575b5050505050905090565b60006103be610346565b156103fe576040517f08c379a00000000000000000000000000000000000000000000000000000000081526004016103f590610788565b60405180910390fd5b60011515600560003373ffffffffffffffffffffffffffffffffffffffff1673ffffffffffffffffffffffffffffffffffffffff16815260200190815260200160002060009054906101000a900460ff1615151415610489576040517f7c9a1cf900000000000000000000000000000000000000000000000000000000815260040160405180910390fd5b6000600660008473ffffffffffffffffffffffffffffffffffffffff1673ffffffffffffffffffffffffffffffffffffffff1681526020019081526020016000205490506001816104da9190610843565b600660008573ffffffffffffffffffffffffffffffffffffffff1673ffffffffffffffffffffffffffffffffffffffff168152602001908152602001600020819055506001600560003373ffffffffffffffffffffffffffffffffffffffff1673ffffffffffffffffffffffffffffffffffffffff16815260200190815260200160002060006101000a81548160ff0219169083151502179055506001915050919050565b600061059261058d846107cd565b6107a8565b905080838252602082019050828560208602820111156105b157600080fd5b60005b858110156105e157816105c788826105eb565b8452602084019350602083019250506001810190506105b4565b5050509392505050565b6000813590506105fa816109f3565b92915050565b600082601f83011261061157600080fd5b813561062184826020860161057f565b91505092915050565b60006020828403121561063c57600080fd5b600061064a848285016105eb565b91505092915050565b60006020828403121561066557600080fd5b600082013567ffffffffffffffff81111561067f57600080fd5b61068b84828501610600565b91505092915050565b60006106a0838361073c565b60208301905092915050565b60006106b782610809565b6106c18185610821565b93506106cc836107f9565b8060005b838110156106fd5781516106e48882610694565b97506106ef83610814565b9250506001810190506106d0565b5085935050505092915050565b610713816108ab565b82525050565b6000610726601083610832565b9150610731826109ca565b602082019050919050565b610745816108d7565b82525050565b6000602082019050818103600083015261076581846106ac565b905092915050565b6000602082019050610782600083018461070a565b92915050565b600060208201905081810360008301526107a181610719565b9050919050565b60006107b26107c3565b90506107be82826108e1565b919050565b6000604051905090565b600067ffffffffffffffff8211156107e8576107e761098a565b5b602082029050602081019050919050565b6000819050602082019050919050565b600081519050919050565b6000602082019050919050565b600082825260208201905092915050565b600082825260208201905092915050565b600061084e826108d7565b9150610859836108d7565b9250827fffffffffffffffffffffffffffffffffffffffffffffffffffffffffffffffff0382111561088e5761088d61095b565b5b828201905092915050565b60006108a4826108b7565b9050919050565b60008115159050919050565b600073ffffffffffffffffffffffffffffffffffffffff82169050919050565b6000819050919050565b6108ea826109b9565b810181811067ffffffffffffffff821117156109095761090861098a565b5b80604052505050565b600061091d826108d7565b91507fffffffffffffffffffffffffffffffffffffffffffffffffffffffffffffffff8214156109505761094f61095b565b5b600182019050919050565b7f4e487b7100000000000000000000000000000000000000000000000000000000600052601160045260246000fd5b7f4e487b7100000000000000000000000000000000000000000000000000000000600052604160045260246000fd5b6000601f19601f8301169050919050565b7f5061757361626c653a2070617573656400000000000000000000000000000000600082015250565b6109fc81610899565b8114610a0757600080fd5b5056fea26469706673582212205d963d6e7bffb42ec784c94e2a686d9b2e0cea988acbbfd63abdbf31654401cb64736f6c63430008040033",
  "linkReferences": {},
  "deployedLinkReferences": {}
}