{
  "_format": "hh-sol-artifact-1",
  "contractName": "ElectionAccessControl",
  "sourceName": "contracts/ElectionAccessControl.sol",
  "abi": [
    {
      "inputs": [
        {
          "internalType": "address",
          "name": "_owner",
          "type": "address"
        }
      ],
      "stateMutability": "nonpayable",
      "type": "constructor"
    },
    {
      "anonymous": false,
      "inputs": [
        {
          "indexed": true,
          "internalType": "address",
          "name": "previousChairman",
          "type": "address"
        },
        {
          "indexed": true,
          "internalType": "address",
          "name": "newChairman",
          "type": "address"
        }
      ],
      "name": "RenounceRole",
      "type": "event"
    },
    {
      "anonymous": false,
      "inputs": [
        {
          "indexed": true,
          "internalType": "bytes32",
          "name": "role",
          "type": "bytes32"
        },
        {
          "indexed": true,
          "internalType": "bytes32",
          "name": "previousAdminRole",
          "type": "bytes32"
        },
        {
          "indexed": true,
          "internalType": "bytes32",
          "name": "newAdminRole",
          "type": "bytes32"
        }
      ],
      "name": "RoleAdminChanged",
      "type": "event"
    },
    {
      "anonymous": false,
      "inputs": [
        {
          "indexed": true,
          "internalType": "bytes32",
          "name": "role",
          "type": "bytes32"
        },
        {
          "indexed": true,
          "internalType": "address",
          "name": "account",
          "type": "address"
        },
        {
          "indexed": true,
          "internalType": "address",
          "name": "sender",
          "type": "address"
        }
      ],
      "name": "RoleGranted",
      "type": "event"
    },
    {
      "anonymous": false,
      "inputs": [
        {
          "indexed": true,
          "internalType": "bytes32",
          "name": "role",
          "type": "bytes32"
        },
        {
          "indexed": true,
          "internalType": "address",
          "name": "account",
          "type": "address"
        },
        {
          "indexed": true,
          "internalType": "address",
          "name": "sender",
          "type": "address"
        }
      ],
      "name": "RoleRevoked",
      "type": "event"
    },
    {
      "inputs": [],
      "name": "CHAIRMAN_ROLE",
      "outputs": [
        {
          "internalType": "bytes32",
          "name": "",
          "type": "bytes32"
        }
      ],
      "stateMutability": "view",
      "type": "function"
    },
    {
      "inputs": [],
      "name": "DEFAULT_ADMIN_ROLE",
      "outputs": [
        {
          "internalType": "bytes32",
          "name": "",
          "type": "bytes32"
        }
      ],
      "stateMutability": "view",
      "type": "function"
    },
    {
      "inputs": [],
      "name": "DIRECTOR_ROLE",
      "outputs": [
        {
          "internalType": "bytes32",
          "name": "",
          "type": "bytes32"
        }
      ],
      "stateMutability": "view",
      "type": "function"
    },
    {
      "inputs": [],
      "name": "STUDENT_ROLE",
      "outputs": [
        {
          "internalType": "bytes32",
          "name": "",
          "type": "bytes32"
        }
      ],
      "stateMutability": "view",
      "type": "function"
    },
    {
      "inputs": [],
      "name": "TEACHER_ROLE",
      "outputs": [
        {
          "internalType": "bytes32",
          "name": "",
          "type": "bytes32"
        }
      ],
      "stateMutability": "view",
      "type": "function"
    },
    {
      "inputs": [
        {
          "internalType": "bytes32",
          "name": "role",
          "type": "bytes32"
        }
      ],
      "name": "getRoleAdmin",
      "outputs": [
        {
          "internalType": "bytes32",
          "name": "",
          "type": "bytes32"
        }
      ],
      "stateMutability": "view",
      "type": "function"
    },
    {
      "inputs": [
        {
          "internalType": "bytes32",
          "name": "role",
          "type": "bytes32"
        },
        {
          "internalType": "address",
          "name": "account",
          "type": "address"
        }
      ],
      "name": "grantRole",
      "outputs": [],
      "stateMutability": "nonpayable",
      "type": "function"
    },
    {
      "inputs": [
        {
          "internalType": "bytes32",
          "name": "role",
          "type": "bytes32"
        },
        {
          "internalType": "address",
          "name": "account",
          "type": "address"
        }
      ],
      "name": "hasRole",
      "outputs": [
        {
          "internalType": "bool",
          "name": "",
          "type": "bool"
        }
      ],
      "stateMutability": "view",
      "type": "function"
    },
    {
      "inputs": [
        {
          "internalType": "bytes32",
          "name": "_role",
          "type": "bytes32"
        },
        {
          "internalType": "address",
          "name": "_account",
          "type": "address"
        }
      ],
      "name": "renounceRole",
      "outputs": [],
      "stateMutability": "nonpayable",
      "type": "function"
    },
    {
      "inputs": [
        {
          "internalType": "bytes32",
          "name": "_role",
          "type": "bytes32"
        },
        {
          "internalType": "address",
          "name": "_account",
          "type": "address"
        }
      ],
      "name": "revokeRole",
      "outputs": [],
      "stateMutability": "nonpayable",
      "type": "function"
    },
    {
      "inputs": [
        {
          "internalType": "bytes4",
          "name": "interfaceId",
          "type": "bytes4"
        }
      ],
      "name": "supportsInterface",
      "outputs": [
        {
          "internalType": "bool",
          "name": "",
          "type": "bool"
        }
      ],
      "stateMutability": "view",
      "type": "function"
    }
  ],
  "bytecode": "0x60806040523480156200001157600080fd5b5060405162000ced38038062000ced833981016040819052620000349162000249565b6200007a7f36a5c4aaacb6b388bbd448bf11096b7dafc5652bcc9046084fd0e95b1fb0b2cc60008051602062000cad8339815191526200015d60201b620004891760201c565b620000af60008051602062000cad83398151915260008051602062000ccd8339815191526200015d60201b620004891760201c565b620000e460008051602062000c8d83398151915260008051602062000ccd8339815191526200015d60201b620004891760201c565b6200010a60008051602062000ccd833981519152806200015d60201b620004891760201c565b6200013060008051602062000c8d83398151915282620001a860201b620004d41760201c565b6200015660008051602062000ccd83398151915282620001a860201b620004d41760201c565b506200027b565b600082815260208190526040808220600101805490849055905190918391839186917fbd79b86ffe0ab8e8776151514217cd7cacd52c909f66475c3af44e129f0b00ff9190a4505050565b6000828152602081815260408083206001600160a01b038516845290915290205460ff1662000245576000828152602081815260408083206001600160a01b03851684529091529020805460ff19166001179055620002043390565b6001600160a01b0316816001600160a01b0316837f2f8788117e7eff1d82e926ec794901d17c78024a50270940304540a733656f0d60405160405180910390a45b5050565b6000602082840312156200025c57600080fd5b81516001600160a01b03811681146200027457600080fd5b9392505050565b610a02806200028b6000396000f3fe608060405234801561001057600080fd5b50600436106100a95760003560e01c806386e5c15a1161007157806386e5c15a1461015657806391d148541461017d578063a097dc4b14610190578063a217fddf146101a5578063d547741f146101ad578063f7be43fb146101c057600080fd5b806301ffc9a7146100ae578063248a9ca3146100d65780632f2ff15d1461010757806336568abe1461011c5780633e4f9cae1461012f575b600080fd5b6100c16100bc3660046107c5565b6101e7565b60405190151581526020015b60405180910390f35b6100f96100e43660046107ef565b60009081526020819052604090206001015490565b6040519081526020016100cd565b61011a610115366004610808565b61021e565b005b61011a61012a366004610808565b610249565b6100f97f15e007796fc034bf8274acdcfbd2f48124815698ba6f70c109f3423981a7052f81565b6100f97fd16e204b8a42a15ab0ea6bb8ec1ecdfbe69f38074fc865323af19efe7d9573d981565b6100c161018b366004610808565b6103d5565b6100f96000805160206109ad83398151915281565b6100f9600081565b61011a6101bb366004610808565b6103fe565b6100f97f36a5c4aaacb6b388bbd448bf11096b7dafc5652bcc9046084fd0e95b1fb0b2cc81565b60006001600160e01b03198216637965db0b60e01b148061021857506301ffc9a760e01b6001600160e01b03198316145b92915050565b60008281526020819052604090206001015461023a8133610559565b61024483836104d4565b505050565b6000805160206109ad8339815191526102628133610559565b6000805160206109ad83398151915283146102d55760405162461bcd60e51b815260206004820152602860248201527f4f6e6c79207468652063686169726d616e20726f6c652063616e2062652072656044820152673737bab731b2b21760c11b60648201526084015b60405180910390fd5b6102ff7f15e007796fc034bf8274acdcfbd2f48124815698ba6f70c109f3423981a7052f836103d5565b61036a5760405162461bcd60e51b815260206004820152603660248201527f546865206164647265737320666f7220746865206e65772063686169726d616e604482015275081a5cc81b9bdd081848191a5c9958dd1bdc881e595d60521b60648201526084016102cc565b6103826000805160206109ad833981519152836104d4565b61039a6000805160206109ad833981519152336105bd565b6040516001600160a01b0383169033907f53cb1046cc84eb7dcfb14a0610185dd97c2c40e311ef59a28c5622cf3942a3b890600090a3505050565b6000918252602082815260408084206001600160a01b0393909316845291905290205460ff1690565b60008281526020819052604090206001015461041a8133610559565b6104326000805160206109ad833981519152836103d5565b1561047f5760405162461bcd60e51b815260206004820152601f60248201527f43686169726d616e20726f6c652063616e6e6f74206265207265766f6b65640060448201526064016102cc565b61024483836105bd565b600082815260208190526040808220600101805490849055905190918391839186917fbd79b86ffe0ab8e8776151514217cd7cacd52c909f66475c3af44e129f0b00ff9190a4505050565b6104de82826103d5565b610555576000828152602081815260408083206001600160a01b03851684529091529020805460ff191660011790556105143390565b6001600160a01b0316816001600160a01b0316837f2f8788117e7eff1d82e926ec794901d17c78024a50270940304540a733656f0d60405160405180910390a45b5050565b61056382826103d5565b6105555761057b816001600160a01b03166014610622565b610586836020610622565b604051602001610597929190610874565b60408051601f198184030181529082905262461bcd60e51b82526102cc916004016108e9565b6105c782826103d5565b15610555576000828152602081815260408083206001600160a01b0385168085529252808320805460ff1916905551339285917ff6391f5c32d9c69d2a47ea670b442974b53935d1edc7fd64eb21e047a839171b9190a45050565b60606000610631836002610932565b61063c906002610951565b67ffffffffffffffff81111561065457610654610969565b6040519080825280601f01601f19166020018201604052801561067e576020820181803683370190505b509050600360fc1b816000815181106106995761069961097f565b60200101906001600160f81b031916908160001a905350600f60fb1b816001815181106106c8576106c861097f565b60200101906001600160f81b031916908160001a90535060006106ec846002610932565b6106f7906001610951565b90505b600181111561076f576f181899199a1a9b1b9c1cb0b131b232b360811b85600f166010811061072b5761072b61097f565b1a60f81b8282815181106107415761074161097f565b60200101906001600160f81b031916908160001a90535060049490941c9361076881610995565b90506106fa565b5083156107be5760405162461bcd60e51b815260206004820181905260248201527f537472696e67733a20686578206c656e67746820696e73756666696369656e7460448201526064016102cc565b9392505050565b6000602082840312156107d757600080fd5b81356001600160e01b0319811681146107be57600080fd5b60006020828403121561080157600080fd5b5035919050565b6000806040838503121561081b57600080fd5b8235915060208301356001600160a01b038116811461083957600080fd5b809150509250929050565b60005b8381101561085f578181015183820152602001610847565b8381111561086e576000848401525b50505050565b7f416363657373436f6e74726f6c3a206163636f756e74200000000000000000008152600083516108ac816017850160208801610844565b7001034b99036b4b9b9b4b733903937b6329607d1b60179184019182015283516108dd816028840160208801610844565b01602801949350505050565b6020815260008251806020840152610908816040850160208701610844565b601f01601f19169190910160400192915050565b634e487b7160e01b600052601160045260246000fd5b600081600019048311821515161561094c5761094c61091c565b500290565b600082198211156109645761096461091c565b500190565b634e487b7160e01b600052604160045260246000fd5b634e487b7160e01b600052603260045260246000fd5b6000816109a4576109a461091c565b50600019019056fedc1958ce1178d6eb32ccc146dcea8933f1978155832913ec88fa509962e1b413a2646970667358221220fb7fd931b3d65c1812dfecc65de17023fe4b2299526f2c5b9f81a18ca068347664736f6c634300080d003315e007796fc034bf8274acdcfbd2f48124815698ba6f70c109f3423981a7052fd16e204b8a42a15ab0ea6bb8ec1ecdfbe69f38074fc865323af19efe7d9573d9dc1958ce1178d6eb32ccc146dcea8933f1978155832913ec88fa509962e1b413",
  "linkReferences": {},
  "deployedLinkReferences": {}
}