{
  "_format": "hh-sol-artifact-1",
  "contractName": "ElectionAccessControl",
  "sourceName": "contracts/ElectionAccessControl.sol",
  "abi": [
    {
      "inputs": [
        {
          "internalType": "address",
          "name": "_owner",
          "type": "address"
        }
      ],
      "stateMutability": "nonpayable",
      "type": "constructor"
    },
    {
      "anonymous": false,
      "inputs": [
        {
          "indexed": true,
          "internalType": "address",
          "name": "previousChairman",
          "type": "address"
        },
        {
          "indexed": true,
          "internalType": "address",
          "name": "newChairman",
          "type": "address"
        }
      ],
      "name": "RenounceRole",
      "type": "event"
    },
    {
      "anonymous": false,
      "inputs": [
        {
          "indexed": true,
          "internalType": "bytes32",
          "name": "role",
          "type": "bytes32"
        },
        {
          "indexed": true,
          "internalType": "bytes32",
          "name": "previousAdminRole",
          "type": "bytes32"
        },
        {
          "indexed": true,
          "internalType": "bytes32",
          "name": "newAdminRole",
          "type": "bytes32"
        }
      ],
      "name": "RoleAdminChanged",
      "type": "event"
    },
    {
      "anonymous": false,
      "inputs": [
        {
          "indexed": true,
          "internalType": "bytes32",
          "name": "role",
          "type": "bytes32"
        },
        {
          "indexed": true,
          "internalType": "address",
          "name": "account",
          "type": "address"
        },
        {
          "indexed": true,
          "internalType": "address",
          "name": "sender",
          "type": "address"
        }
      ],
      "name": "RoleGranted",
      "type": "event"
    },
    {
      "anonymous": false,
      "inputs": [
        {
          "indexed": true,
          "internalType": "bytes32",
          "name": "role",
          "type": "bytes32"
        },
        {
          "indexed": true,
          "internalType": "address",
          "name": "account",
          "type": "address"
        },
        {
          "indexed": true,
          "internalType": "address",
          "name": "sender",
          "type": "address"
        }
      ],
      "name": "RoleRevoked",
      "type": "event"
    },
    {
      "inputs": [],
      "name": "CHAIRMAN_ROLE",
      "outputs": [
        {
          "internalType": "bytes32",
          "name": "",
          "type": "bytes32"
        }
      ],
      "stateMutability": "view",
      "type": "function"
    },
    {
      "inputs": [],
      "name": "DEFAULT_ADMIN_ROLE",
      "outputs": [
        {
          "internalType": "bytes32",
          "name": "",
          "type": "bytes32"
        }
      ],
      "stateMutability": "view",
      "type": "function"
    },
    {
      "inputs": [],
      "name": "DIRECTOR_ROLE",
      "outputs": [
        {
          "internalType": "bytes32",
          "name": "",
          "type": "bytes32"
        }
      ],
      "stateMutability": "view",
      "type": "function"
    },
    {
      "inputs": [],
      "name": "STUDENT_ROLE",
      "outputs": [
        {
          "internalType": "bytes32",
          "name": "",
          "type": "bytes32"
        }
      ],
      "stateMutability": "view",
      "type": "function"
    },
    {
      "inputs": [],
      "name": "TEACHER_ROLE",
      "outputs": [
        {
          "internalType": "bytes32",
          "name": "",
          "type": "bytes32"
        }
      ],
      "stateMutability": "view",
      "type": "function"
    },
    {
      "inputs": [
        {
          "internalType": "bytes32",
          "name": "role",
          "type": "bytes32"
        }
      ],
      "name": "getRoleAdmin",
      "outputs": [
        {
          "internalType": "bytes32",
          "name": "",
          "type": "bytes32"
        }
      ],
      "stateMutability": "view",
      "type": "function"
    },
    {
      "inputs": [
        {
          "internalType": "bytes32",
          "name": "role",
          "type": "bytes32"
        },
        {
          "internalType": "address",
          "name": "account",
          "type": "address"
        }
      ],
      "name": "grantRole",
      "outputs": [],
      "stateMutability": "nonpayable",
      "type": "function"
    },
    {
      "inputs": [
        {
          "internalType": "bytes32",
          "name": "role",
          "type": "bytes32"
        },
        {
          "internalType": "address",
          "name": "account",
          "type": "address"
        }
      ],
      "name": "hasRole",
      "outputs": [
        {
          "internalType": "bool",
          "name": "",
          "type": "bool"
        }
      ],
      "stateMutability": "view",
      "type": "function"
    },
    {
      "inputs": [
        {
          "internalType": "bytes32",
          "name": "_role",
          "type": "bytes32"
        },
        {
          "internalType": "address",
          "name": "_account",
          "type": "address"
        }
      ],
      "name": "renounceRole",
      "outputs": [],
      "stateMutability": "nonpayable",
      "type": "function"
    },
    {
      "inputs": [
        {
          "internalType": "bytes32",
          "name": "_role",
          "type": "bytes32"
        },
        {
          "internalType": "address",
          "name": "_account",
          "type": "address"
        }
      ],
      "name": "revokeRole",
      "outputs": [],
      "stateMutability": "nonpayable",
      "type": "function"
    },
    {
      "inputs": [
        {
          "internalType": "bytes4",
          "name": "interfaceId",
          "type": "bytes4"
        }
      ],
      "name": "supportsInterface",
      "outputs": [
        {
          "internalType": "bool",
          "name": "",
          "type": "bool"
        }
      ],
      "stateMutability": "view",
      "type": "function"
    }
  ],
  "bytecode": "0x60806040523480156200001157600080fd5b5060405162001ecb38038062001ecb83398181016040528101906200003791906200068b565b6200006b7f26b5d2ef9596942e1806413b14c537bf4b7f9a25a961094b146296e0a17c6a5360001b6200048c60201b60201c565b6200009f7fc30c0564f804eda0cf001a16110c31a10eb46e3c9828d4941dd60e4f0384a10560001b6200048c60201b60201c565b620000d37f40b04f3af83338cad6cbaefcf56b9967d9c71a25ed4842d3ba7e8b97f1327a9f60001b6200048c60201b60201c565b6200012a7f36a5c4aaacb6b388bbd448bf11096b7dafc5652bcc9046084fd0e95b1fb0b2cc7fd16e204b8a42a15ab0ea6bb8ec1ecdfbe69f38074fc865323af19efe7d9573d96200048f60201b62000aa61760201c565b6200015e7fc72645878dfed0c985b83e45f7534e57def21597776994cdf56bbc3d88bfda6260001b6200048c60201b60201c565b620001927fe11bbfd391632c5308f64620e9052cb19a761155196e679f41e5b2735f7492ef60001b6200048c60201b60201c565b620001e97fd16e204b8a42a15ab0ea6bb8ec1ecdfbe69f38074fc865323af19efe7d9573d97fdc1958ce1178d6eb32ccc146dcea8933f1978155832913ec88fa509962e1b4136200048f60201b62000aa61760201c565b6200021d7f4989ba0cb0f926ab71e0061fee06d2cbc1808263c303d57824f9422d74d97c5e60001b6200048c60201b60201c565b620002517f09a19a71f2e1e722e5538e4e7b2b05795b14691934fb291091413d760c15304760001b6200048c60201b60201c565b620002a87f15e007796fc034bf8274acdcfbd2f48124815698ba6f70c109f3423981a7052f7fdc1958ce1178d6eb32ccc146dcea8933f1978155832913ec88fa509962e1b4136200048f60201b62000aa61760201c565b620002dc7f6ff5ec271a11eaca65528dfcd289b697512ad278c1a7f48ea134d2de1f6e97a460001b6200048c60201b60201c565b620003107fc869b1a08b2fc61de983970f2f5ab3cd923bd188ae8a1daf397a9a5dc412536260001b6200048c60201b60201c565b620003477fdc1958ce1178d6eb32ccc146dcea8933f1978155832913ec88fa509962e1b413806200048f60201b62000aa61760201c565b6200037b7f5a4d654f1e2e5528c7c904c8b3fd14c715b0653fbb59c6c5ebf15aa89ef46cc460001b6200048c60201b60201c565b620003af7f889feb1047a5f2e364c1928883df72360da920affd172c549c3f28d649b5737960001b6200048c60201b60201c565b620003e67f15e007796fc034bf8274acdcfbd2f48124815698ba6f70c109f3423981a7052f82620004f260201b62000b011760201c565b6200041a7f7e14749ddaef3c82f9d627a17ba5f247265795b2dd332e0339e9b74920f534a460001b6200048c60201b60201c565b6200044e7f2dc90c5a69becb1cee76f4418bd26a8296f13918d678df6a609ac2281b0168c860001b6200048c60201b60201c565b620004857fdc1958ce1178d6eb32ccc146dcea8933f1978155832913ec88fa509962e1b41382620004f260201b62000b011760201c565b5062000705565b50565b6000620004a283620005e360201b60201c565b905081600080858152602001908152602001600020600101819055508181847fbd79b86ffe0ab8e8776151514217cd7cacd52c909f66475c3af44e129f0b00ff60405160405180910390a4505050565b6200050482826200060260201b60201c565b620005df57600160008084815260200190815260200160002060000160008373ffffffffffffffffffffffffffffffffffffffff1673ffffffffffffffffffffffffffffffffffffffff16815260200190815260200160002060006101000a81548160ff021916908315150217905550620005846200066c60201b60201c565b73ffffffffffffffffffffffffffffffffffffffff168173ffffffffffffffffffffffffffffffffffffffff16837f2f8788117e7eff1d82e926ec794901d17c78024a50270940304540a733656f0d60405160405180910390a45b5050565b6000806000838152602001908152602001600020600101549050919050565b600080600084815260200190815260200160002060000160008373ffffffffffffffffffffffffffffffffffffffff1673ffffffffffffffffffffffffffffffffffffffff16815260200190815260200160002060009054906101000a900460ff16905092915050565b600033905090565b6000815190506200068581620006eb565b92915050565b6000602082840312156200069e57600080fd5b6000620006ae8482850162000674565b91505092915050565b6000620006c482620006cb565b9050919050565b600073ffffffffffffffffffffffffffffffffffffffff82169050919050565b620006f681620006b7565b81146200070257600080fd5b50565b6117b680620007156000396000f3fe608060405234801561001057600080fd5b50600436106100a95760003560e01c806386e5c15a1161007157806386e5c15a1461016457806391d1485414610182578063a097dc4b146101b2578063a217fddf146101d0578063d547741f146101ee578063f7be43fb1461020a576100a9565b806301ffc9a7146100ae578063248a9ca3146100de5780632f2ff15d1461010e57806336568abe1461012a5780633e4f9cae14610146575b600080fd5b6100c860048036038101906100c39190611172565b610228565b6040516100d5919061132f565b60405180910390f35b6100f860048036038101906100f3919061110d565b6102a2565b604051610105919061134a565b60405180910390f35b61012860048036038101906101239190611136565b6102c1565b005b610144600480360381019061013f9190611136565b6102ea565b005b61014e610786565b60405161015b919061134a565b60405180910390f35b61016c6107aa565b604051610179919061134a565b60405180910390f35b61019c60048036038101906101979190611136565b6107ce565b6040516101a9919061132f565b60405180910390f35b6101ba610838565b6040516101c7919061134a565b60405180910390f35b6101d861085c565b6040516101e5919061134a565b60405180910390f35b61020860048036038101906102039190611136565b610863565b005b610212610a82565b60405161021f919061134a565b60405180910390f35b60007f7965db0b000000000000000000000000000000000000000000000000000000007bffffffffffffffffffffffffffffffffffffffffffffffffffffffff1916827bffffffffffffffffffffffffffffffffffffffffffffffffffffffff1916148061029b575061029a82610be1565b5b9050919050565b6000806000838152602001908152602001600020600101549050919050565b6102ca826102a2565b6102db816102d6610c4b565b610c53565b6102e58383610b01565b505050565b7fdc1958ce1178d6eb32ccc146dcea8933f1978155832913ec88fa509962e1b41361031c81610317610c4b565b610c53565b6103487fc63568e3d91e915a2761a4ab55c2aca51da68a01f48dfe9078c021b904fc37cf60001b610cf0565b6103747f920ec325fcfb7269054047cefb71b670cea9f5833db7d53a41361ca53161a45960001b610cf0565b6103a07f7a12033297fb963d3f705d297122a44eea638d00c426a387610685acd7947d4360001b610cf0565b6103cc7f09f433e124970d62dd2ddd1b3331e3a1497d7759d24654adc542ad16a31f531d60001b610cf0565b7fdc1958ce1178d6eb32ccc146dcea8933f1978155832913ec88fa509962e1b413831461042e576040517f08c379a0000000000000000000000000000000000000000000000000000000008152600401610425906113e7565b60405180910390fd5b61045a7f1a9883e0fbc994a0d9af2eda6c8033bc3e68f07f89aa5cf5ff8b1f592133d62960001b610cf0565b6104867f815d280a850e7fe71efa118191f08345ea30026eb841ffd1ea4cafc136403fcf60001b610cf0565b6104b27ffeab0e65d893d9b0bbc8c6eaec8cacba0820ac03ea3c206294b3efc70b15292760001b610cf0565b6104dc7f15e007796fc034bf8274acdcfbd2f48124815698ba6f70c109f3423981a7052f836107ce565b61059f5761050c7fb7e1e7c2eaed732c94fc3992a21926ff052abeb704e2b71b54557ff3e7a35c0d60001b610cf0565b6105387f60d9035ba0752cc0a8391dc20ffee92211894bb53e1daa97cfbb5443e802099560001b610cf0565b6105647fdc3589c3c64edd28647390078c45763cb0700e66ef49e176d8dc9e4cd0630a2d60001b610cf0565b6040517f08c379a0000000000000000000000000000000000000000000000000000000008152600401610596906113c7565b60405180910390fd5b6105cb7f72e439a38ca2048a24efc3cc0bc6eab256f936fbb08d10d44bd2654f3a33fe7960001b610cf0565b6105f77f3f37b8160ff981f46119b702130a41ac8f1f669b5465415a080b8748c6af71a060001b610cf0565b6106237f0a4631eeee2e67b7758a9336805dd2c00c89c5a9cda5c89d7aed89f87b930c4d60001b610cf0565b61064d7fdc1958ce1178d6eb32ccc146dcea8933f1978155832913ec88fa509962e1b41383610b01565b6106797f9381b98bdb120b71dc1d240defe710f2131e1533c9533a1793a424b6e8b61bc460001b610cf0565b6106a57fd8ea9e4deb521cd818b121a3ac9d898935720b7475718eba9520456edad883ca60001b610cf0565b6106cf7fdc1958ce1178d6eb32ccc146dcea8933f1978155832913ec88fa509962e1b41333610cf3565b6106fb7fe868dbcc46e7d331d6b7c716a685f213c4361a29453f1ca037223853a62251e860001b610cf0565b6107277f99efe20df25830145353746c5fb586a58781e0392710db13f69466b09aa1da2760001b610cf0565b8173ffffffffffffffffffffffffffffffffffffffff163373ffffffffffffffffffffffffffffffffffffffff167f53cb1046cc84eb7dcfb14a0610185dd97c2c40e311ef59a28c5622cf3942a3b860405160405180910390a3505050565b7f15e007796fc034bf8274acdcfbd2f48124815698ba6f70c109f3423981a7052f81565b7fd16e204b8a42a15ab0ea6bb8ec1ecdfbe69f38074fc865323af19efe7d9573d981565b600080600084815260200190815260200160002060000160008373ffffffffffffffffffffffffffffffffffffffff1673ffffffffffffffffffffffffffffffffffffffff16815260200190815260200160002060009054906101000a900460ff16905092915050565b7fdc1958ce1178d6eb32ccc146dcea8933f1978155832913ec88fa509962e1b41381565b6000801b81565b61086c826102a2565b61087d81610878610c4b565b610c53565b6108a97f28977ed373f254f2d30537baea2866b6ce8db4ccd902e837ba053d0641ac629960001b610cf0565b6108d57fb807639be169cec57b9dc26b76c6dfde10b55ccf1fdf5ff990cdad7aa18b8a7560001b610cf0565b6109017fce26a38d959e325e923d70bf0c86b5114549c9fc290a8ad0210bf79151122f4360001b610cf0565b61092b7fdc1958ce1178d6eb32ccc146dcea8933f1978155832913ec88fa509962e1b413836107ce565b156109ef5761095c7f813a6894b21bcf5c80433bed3745e31e311989232365f3e6cda0d57932334df760001b610cf0565b6109887f884f1e324923d7fde44e80fcbd03e785c0c7bfc68e879b17d6c2537a9daca87d60001b610cf0565b6109b47f73bdf391d832374a0bfb12f7dd947b1603f6cc42b6ece3ae753347e58651411c60001b610cf0565b6040517f08c379a00000000000000000000000000000000000000000000000000000000081526004016109e6906113a7565b60405180910390fd5b610a1b7f76fab590cecffaf7db9d1dda29c33ca919326405cc846bbf5b4fa419d38af95f60001b610cf0565b610a477f517fe085c90d2f0b93a81d4af3e130d81b672fefc555a4ec8f03c0dbb3e6916960001b610cf0565b610a737f85c3b3eb444bc630fce3ee72ec602d7fbffc9a0d0f9d43415318cfefbee500ac60001b610cf0565b610a7d8383610cf3565b505050565b7f36a5c4aaacb6b388bbd448bf11096b7dafc5652bcc9046084fd0e95b1fb0b2cc81565b6000610ab1836102a2565b905081600080858152602001908152602001600020600101819055508181847fbd79b86ffe0ab8e8776151514217cd7cacd52c909f66475c3af44e129f0b00ff60405160405180910390a4505050565b610b0b82826107ce565b610bdd57600160008084815260200190815260200160002060000160008373ffffffffffffffffffffffffffffffffffffffff1673ffffffffffffffffffffffffffffffffffffffff16815260200190815260200160002060006101000a81548160ff021916908315150217905550610b82610c4b565b73ffffffffffffffffffffffffffffffffffffffff168173ffffffffffffffffffffffffffffffffffffffff16837f2f8788117e7eff1d82e926ec794901d17c78024a50270940304540a733656f0d60405160405180910390a45b5050565b60007f01ffc9a7000000000000000000000000000000000000000000000000000000007bffffffffffffffffffffffffffffffffffffffffffffffffffffffff1916827bffffffffffffffffffffffffffffffffffffffffffffffffffffffff1916149050919050565b600033905090565b610c5d82826107ce565b610cec57610c828173ffffffffffffffffffffffffffffffffffffffff166014610dd4565b610c908360001c6020610dd4565b604051602001610ca19291906112f5565b6040516020818303038152906040526040517f08c379a0000000000000000000000000000000000000000000000000000000008152600401610ce39190611365565b60405180910390fd5b5050565b50565b610cfd82826107ce565b15610dd057600080600084815260200190815260200160002060000160008373ffffffffffffffffffffffffffffffffffffffff1673ffffffffffffffffffffffffffffffffffffffff16815260200190815260200160002060006101000a81548160ff021916908315150217905550610d75610c4b565b73ffffffffffffffffffffffffffffffffffffffff168173ffffffffffffffffffffffffffffffffffffffff16837ff6391f5c32d9c69d2a47ea670b442974b53935d1edc7fd64eb21e047a839171b60405160405180910390a45b5050565b606060006002836002610de79190611484565b610df1919061142e565b67ffffffffffffffff811115610e30577f4e487b7100000000000000000000000000000000000000000000000000000000600052604160045260246000fd5b6040519080825280601f01601f191660200182016040528015610e625781602001600182028036833780820191505090505b5090507f300000000000000000000000000000000000000000000000000000000000000081600081518110610ec0577f4e487b7100000000000000000000000000000000000000000000000000000000600052603260045260246000fd5b60200101907effffffffffffffffffffffffffffffffffffffffffffffffffffffffffffff1916908160001a9053507f780000000000000000000000000000000000000000000000000000000000000081600181518110610f4a577f4e487b7100000000000000000000000000000000000000000000000000000000600052603260045260246000fd5b60200101907effffffffffffffffffffffffffffffffffffffffffffffffffffffffffffff1916908160001a90535060006001846002610f8a9190611484565b610f94919061142e565b90505b6001811115611080577f3031323334353637383961626364656600000000000000000000000000000000600f861660108110610ffc577f4e487b7100000000000000000000000000000000000000000000000000000000600052603260045260246000fd5b1a60f81b828281518110611039577f4e487b7100000000000000000000000000000000000000000000000000000000600052603260045260246000fd5b60200101907effffffffffffffffffffffffffffffffffffffffffffffffffffffffffffff1916908160001a905350600485901c9450806110799061158f565b9050610f97565b50600084146110c4576040517f08c379a00000000000000000000000000000000000000000000000000000000081526004016110bb90611387565b60405180910390fd5b8091505092915050565b6000813590506110dd8161173b565b92915050565b6000813590506110f281611752565b92915050565b60008135905061110781611769565b92915050565b60006020828403121561111f57600080fd5b600061112d848285016110e3565b91505092915050565b6000806040838503121561114957600080fd5b6000611157858286016110e3565b9250506020611168858286016110ce565b9150509250929050565b60006020828403121561118457600080fd5b6000611192848285016110f8565b91505092915050565b6111a4816114f0565b82525050565b6111b3816114fc565b82525050565b60006111c482611407565b6111ce8185611412565b93506111de81856020860161155c565b6111e7816115e8565b840191505092915050565b60006111fd82611407565b6112078185611423565b935061121781856020860161155c565b80840191505092915050565b6000611230602083611412565b915061123b826115f9565b602082019050919050565b6000611253601f83611412565b915061125e82611622565b602082019050919050565b6000611276603683611412565b91506112818261164b565b604082019050919050565b6000611299602883611412565b91506112a48261169a565b604082019050919050565b60006112bc601783611423565b91506112c7826116e9565b601782019050919050565b60006112df601183611423565b91506112ea82611712565b601182019050919050565b6000611300826112af565b915061130c82856111f2565b9150611317826112d2565b915061132382846111f2565b91508190509392505050565b6000602082019050611344600083018461119b565b92915050565b600060208201905061135f60008301846111aa565b92915050565b6000602082019050818103600083015261137f81846111b9565b905092915050565b600060208201905081810360008301526113a081611223565b9050919050565b600060208201905081810360008301526113c081611246565b9050919050565b600060208201905081810360008301526113e081611269565b9050919050565b600060208201905081810360008301526114008161128c565b9050919050565b600081519050919050565b600082825260208201905092915050565b600081905092915050565b600061143982611552565b915061144483611552565b9250827fffffffffffffffffffffffffffffffffffffffffffffffffffffffffffffffff03821115611479576114786115b9565b5b828201905092915050565b600061148f82611552565b915061149a83611552565b9250817fffffffffffffffffffffffffffffffffffffffffffffffffffffffffffffffff04831182151516156114d3576114d26115b9565b5b828202905092915050565b60006114e982611532565b9050919050565b60008115159050919050565b6000819050919050565b60007fffffffff0000000000000000000000000000000000000000000000000000000082169050919050565b600073ffffffffffffffffffffffffffffffffffffffff82169050919050565b6000819050919050565b60005b8381101561157a57808201518184015260208101905061155f565b83811115611589576000848401525b50505050565b600061159a82611552565b915060008214156115ae576115ad6115b9565b5b600182039050919050565b7f4e487b7100000000000000000000000000000000000000000000000000000000600052601160045260246000fd5b6000601f19601f8301169050919050565b7f537472696e67733a20686578206c656e67746820696e73756666696369656e74600082015250565b7f43686169726d616e20726f6c652063616e6e6f74206265207265766f6b656400600082015250565b7f546865206164647265737320666f7220746865206e65772063686169726d616e60008201527f206973206e6f742061206469726563746f722079657400000000000000000000602082015250565b7f4f6e6c79207468652063686169726d616e20726f6c652063616e20626520726560008201527f6e6f756e6365642e000000000000000000000000000000000000000000000000602082015250565b7f416363657373436f6e74726f6c3a206163636f756e7420000000000000000000600082015250565b7f206973206d697373696e6720726f6c6520000000000000000000000000000000600082015250565b611744816114de565b811461174f57600080fd5b50565b61175b816114fc565b811461176657600080fd5b50565b61177281611506565b811461177d57600080fd5b5056fea26469706673582212209b3aac1a7de61563e8a292c3fa196cf46800c251fbba3d87507923a2dd3a2ab164736f6c63430008040033",
  "linkReferences": {},
  "deployedLinkReferences": {}
}